{
  "contractName": "CryptoBank",
  "abi": [
    {
      "inputs": [
        {
          "internalType": "address[]",
          "name": "_admins",
          "type": "address[]"
        },
        {
          "internalType": "uint256",
          "name": "_numerator",
          "type": "uint256"
        },
        {
          "internalType": "uint256",
          "name": "_denominator",
          "type": "uint256"
        }
      ],
      "stateMutability": "nonpayable",
      "type": "constructor"
    },
    {
      "anonymous": false,
      "inputs": [
        {
          "indexed": true,
          "internalType": "uint256",
          "name": "txID",
          "type": "uint256"
        },
        {
          "indexed": false,
          "internalType": "address",
          "name": "admin",
          "type": "address"
        },
        {
          "indexed": false,
          "internalType": "uint256",
          "name": "timestamp",
          "type": "uint256"
        }
      ],
      "name": "AdminApproved",
      "type": "event"
    },
    {
      "anonymous": false,
      "inputs": [
        {
          "indexed": false,
          "internalType": "string",
          "name": "ticker",
          "type": "string"
        },
        {
          "indexed": false,
          "internalType": "bytes32",
          "name": "tickerHash",
          "type": "bytes32"
        },
        {
          "indexed": false,
          "internalType": "address",
          "name": "tokenAddress",
          "type": "address"
        },
        {
          "indexed": false,
          "internalType": "uint256",
          "name": "timestamp",
          "type": "uint256"
        }
      ],
      "name": "ERC20Added",
      "type": "event"
    },
    {
      "anonymous": false,
      "inputs": [
        {
          "indexed": true,
          "internalType": "address",
          "name": "previousOwner",
          "type": "address"
        },
        {
          "indexed": true,
          "internalType": "address",
          "name": "newOwner",
          "type": "address"
        }
      ],
      "name": "OwnershipTransferred",
      "type": "event"
    },
    {
      "anonymous": false,
      "inputs": [
        {
          "indexed": true,
          "internalType": "uint256",
          "name": "txID",
          "type": "uint256"
        },
        {
          "indexed": false,
          "internalType": "uint256",
          "name": "timestamp",
          "type": "uint256"
        }
      ],
      "name": "TransactionApproved",
      "type": "event"
    },
    {
      "anonymous": false,
      "inputs": [
        {
          "indexed": true,
          "internalType": "uint256",
          "name": "txID",
          "type": "uint256"
        },
        {
          "indexed": false,
          "internalType": "address",
          "name": "caller",
          "type": "address"
        },
        {
          "indexed": false,
          "internalType": "uint256",
          "name": "timestamp",
          "type": "uint256"
        }
      ],
      "name": "TransactionCancelled",
      "type": "event"
    },
    {
      "anonymous": false,
      "inputs": [
        {
          "indexed": true,
          "internalType": "uint256",
          "name": "txID",
          "type": "uint256"
        },
        {
          "indexed": true,
          "internalType": "address",
          "name": "sender",
          "type": "address"
        },
        {
          "indexed": true,
          "internalType": "address",
          "name": "receiver",
          "type": "address"
        },
        {
          "indexed": false,
          "internalType": "uint256",
          "name": "amount",
          "type": "uint256"
        }
      ],
      "name": "TransactionDetails",
      "type": "event"
    },
    {
      "anonymous": false,
      "inputs": [
        {
          "indexed": true,
          "internalType": "uint256",
          "name": "txID",
          "type": "uint256"
        },
        {
          "indexed": false,
          "internalType": "uint256",
          "name": "timestamp",
          "type": "uint256"
        }
      ],
      "name": "TransactionSubmitted",
      "type": "event"
    },
    {
      "inputs": [
        {
          "internalType": "address",
          "name": "_address",
          "type": "address"
        }
      ],
      "name": "addAdmin",
      "outputs": [
        {
          "internalType": "uint256",
          "name": "adminID",
          "type": "uint256"
        }
      ],
      "stateMutability": "nonpayable",
      "type": "function"
    },
    {
      "inputs": [
        {
          "internalType": "address",
          "name": "",
          "type": "address"
        },
        {
          "internalType": "uint256",
          "name": "",
          "type": "uint256"
        }
      ],
      "name": "adminApproved",
      "outputs": [
        {
          "internalType": "bool",
          "name": "",
          "type": "bool"
        }
      ],
      "stateMutability": "view",
      "type": "function"
    },
    {
      "inputs": [
        {
          "internalType": "uint256",
          "name": "",
          "type": "uint256"
        }
      ],
      "name": "admins",
      "outputs": [
        {
          "internalType": "address",
          "name": "",
          "type": "address"
        }
      ],
      "stateMutability": "view",
      "type": "function"
    },
    {
      "inputs": [
        {
          "internalType": "address",
          "name": "",
          "type": "address"
        }
      ],
      "name": "isAdmin",
      "outputs": [
        {
          "internalType": "bool",
          "name": "",
          "type": "bool"
        }
      ],
      "stateMutability": "view",
      "type": "function"
    },
    {
      "inputs": [
        {
          "internalType": "uint256",
          "name": "_numerator",
          "type": "uint256"
        },
        {
          "internalType": "uint256",
          "name": "_denominator",
          "type": "uint256"
        }
      ],
      "name": "modifySignatureRatio",
      "outputs": [
        {
          "internalType": "bool",
          "name": "",
          "type": "bool"
        }
      ],
      "stateMutability": "nonpayable",
      "type": "function"
    },
    {
      "inputs": [],
      "name": "owner",
      "outputs": [
        {
          "internalType": "address",
          "name": "",
          "type": "address"
        }
      ],
      "stateMutability": "view",
      "type": "function"
    },
    {
      "inputs": [
        {
          "internalType": "address",
          "name": "",
          "type": "address"
        },
        {
          "internalType": "bytes32",
          "name": "",
          "type": "bytes32"
        }
      ],
      "name": "pendingBalance",
      "outputs": [
        {
          "internalType": "uint256",
          "name": "",
          "type": "uint256"
        }
      ],
      "stateMutability": "view",
      "type": "function"
    },
    {
      "inputs": [
        {
          "internalType": "uint256",
          "name": "_adminID",
          "type": "uint256"
        }
      ],
      "name": "removeAdmin",
      "outputs": [],
      "stateMutability": "nonpayable",
      "type": "function"
    },
    {
      "inputs": [],
      "name": "renounceOwnership",
      "outputs": [],
      "stateMutability": "nonpayable",
      "type": "function"
    },
    {
      "inputs": [
        {
          "internalType": "bytes32",
          "name": "",
          "type": "bytes32"
        }
      ],
      "name": "tokenAddress",
      "outputs": [
        {
          "internalType": "address",
          "name": "",
          "type": "address"
        }
      ],
      "stateMutability": "view",
      "type": "function"
    },
    {
      "inputs": [
        {
          "internalType": "string",
          "name": "",
          "type": "string"
        }
      ],
      "name": "tokenTicker",
      "outputs": [
        {
          "internalType": "bytes32",
          "name": "",
          "type": "bytes32"
        }
      ],
      "stateMutability": "view",
      "type": "function"
    },
    {
      "inputs": [
        {
          "internalType": "address",
          "name": "newOwner",
          "type": "address"
        }
      ],
      "name": "transferOwnership",
      "outputs": [],
      "stateMutability": "nonpayable",
      "type": "function"
    },
    {
      "inputs": [
        {
          "internalType": "address",
          "name": "",
          "type": "address"
        },
        {
          "internalType": "bytes32",
          "name": "",
          "type": "bytes32"
        }
      ],
      "name": "trueBalance",
      "outputs": [
        {
          "internalType": "uint256",
          "name": "",
          "type": "uint256"
        }
      ],
      "stateMutability": "view",
      "type": "function"
    },
    {
      "inputs": [
        {
          "internalType": "uint256",
          "name": "",
          "type": "uint256"
        }
      ],
      "name": "txnHistory",
      "outputs": [
        {
          "internalType": "uint256",
          "name": "txID",
          "type": "uint256"
        },
        {
          "internalType": "address payable",
          "name": "recipient",
          "type": "address"
        },
        {
          "internalType": "address",
          "name": "sender",
          "type": "address"
        },
        {
          "internalType": "uint256",
          "name": "amount",
          "type": "uint256"
        },
        {
          "internalType": "bytes32",
          "name": "ticker",
          "type": "bytes32"
        },
        {
          "internalType": "enum CryptoBank.APPROVE",
          "name": "approvalStatus",
          "type": "uint8"
        }
      ],
      "stateMutability": "view",
      "type": "function"
    },
    {
      "inputs": [
        {
          "internalType": "address payable",
          "name": "_recipient",
          "type": "address"
        },
        {
          "internalType": "uint256",
          "name": "_amount",
          "type": "uint256"
        },
        {
          "internalType": "string",
          "name": "_tokenTicker",
          "type": "string"
        }
      ],
      "name": "submitTransaction",
      "outputs": [
        {
          "internalType": "bool",
          "name": "success",
          "type": "bool"
        },
        {
          "internalType": "uint256",
          "name": "txID",
          "type": "uint256"
        }
      ],
      "stateMutability": "nonpayable",
      "type": "function"
    },
    {
      "inputs": [
        {
          "internalType": "uint256",
          "name": "_txID",
          "type": "uint256"
        }
      ],
      "name": "confirmTransfer",
      "outputs": [
        {
          "internalType": "bool",
          "name": "txnApproved",
          "type": "bool"
        }
      ],
      "stateMutability": "nonpayable",
      "type": "function"
    },
    {
      "inputs": [
        {
          "internalType": "uint256",
          "name": "_txID",
          "type": "uint256"
        }
      ],
      "name": "cancelTransaction",
      "outputs": [
        {
          "internalType": "bool",
          "name": "",
          "type": "bool"
        }
      ],
      "stateMutability": "nonpayable",
      "type": "function"
    },
    {
      "inputs": [
        {
          "internalType": "string",
          "name": "_ticker",
          "type": "string"
        },
        {
          "internalType": "uint256",
          "name": "_amount",
          "type": "uint256"
        }
      ],
      "name": "depositToken",
      "outputs": [
        {
          "internalType": "bool",
          "name": "",
          "type": "bool"
        }
      ],
      "stateMutability": "payable",
      "type": "function"
    },
    {
      "inputs": [
        {
          "internalType": "string",
          "name": "_ticker",
          "type": "string"
        },
        {
          "internalType": "address",
          "name": "_tokenAddress",
          "type": "address"
        }
      ],
      "name": "addToken",
      "outputs": [],
      "stateMutability": "nonpayable",
      "type": "function"
    },
    {
      "inputs": [
        {
          "internalType": "string",
          "name": "_ticker",
          "type": "string"
        },
        {
          "internalType": "address",
          "name": "_tokenAddress",
          "type": "address"
        }
      ],
      "name": "modifyTokenAddress",
      "outputs": [],
      "stateMutability": "nonpayable",
      "type": "function"
    },
    {
      "inputs": [],
      "name": "getPending",
      "outputs": [
        {
          "internalType": "uint256[]",
          "name": "pendingTxnIDs",
          "type": "uint256[]"
        }
      ],
      "stateMutability": "view",
      "type": "function"
    }
  ],
  "bytecode": "0x60806040526005546004546003805490506200001c9190620005f2565b620000289190620005ba565b6006553480156200003857600080fd5b50604051620049b3380380620049b383398181016040528101906200005e919062000473565b8282826000620000736200039b60201b60201c565b9050806000806101000a81548173ffffffffffffffffffffffffffffffffffffffff021916908373ffffffffffffffffffffffffffffffffffffffff1602179055508073ffffffffffffffffffffffffffffffffffffffff16600073ffffffffffffffffffffffffffffffffffffffff167f8be0079c531659141344cd1fd0a4f28419497f9722a3daafe3b4186f6b6457e060405160405180910390a35060008114158015620001235750808211155b62000165576040517f08c379a00000000000000000000000000000000000000000000000000000000081526004016200015c9062000524565b60405180910390fd5b81600481905550806005819055506003339080600181540180825580915050600190039060005260206000200160009091909190916101000a81548173ffffffffffffffffffffffffffffffffffffffff021916908373ffffffffffffffffffffffffffffffffffffffff1602179055506001600260003373ffffffffffffffffffffffffffffffffffffffff1673ffffffffffffffffffffffffffffffffffffffff16815260200190815260200160002060006101000a81548160ff02191690831515021790555060005b83518110156200038e57600384828151811062000277577f4e487b7100000000000000000000000000000000000000000000000000000000600052603260045260246000fd5b60200260200101519080600181540180825580915050600190039060005260206000200160009091909190916101000a81548173ffffffffffffffffffffffffffffffffffffffff021916908373ffffffffffffffffffffffffffffffffffffffff1602179055506001600260008684815181106200031f577f4e487b7100000000000000000000000000000000000000000000000000000000600052603260045260246000fd5b602002602001015173ffffffffffffffffffffffffffffffffffffffff1673ffffffffffffffffffffffffffffffffffffffff16815260200190815260200160002060006101000a81548160ff0219169083151502179055508080620003859062000691565b91505062000231565b50505050505050620007a0565b600033905090565b6000620003ba620003b4846200057a565b62000546565b90508083825260208201905082856020860282011115620003da57600080fd5b60005b858110156200040e5781620003f3888262000418565b845260208401935060208301925050600181019050620003dd565b5050509392505050565b60008151905062000429816200076c565b92915050565b600082601f8301126200044157600080fd5b815162000453848260208601620003a3565b91505092915050565b6000815190506200046d8162000786565b92915050565b6000806000606084860312156200048957600080fd5b600084015167ffffffffffffffff811115620004a457600080fd5b620004b2868287016200042f565b9350506020620004c5868287016200045c565b9250506040620004d8868287016200045c565b9150509250925092565b6000620004f1601083620005a9565b91507f496d706f737369626c6520726174696f000000000000000000000000000000006000830152602082019050919050565b600060208201905081810360008301526200053f81620004e2565b9050919050565b6000604051905081810181811067ffffffffffffffff8211171562000570576200056f6200073d565b5b8060405250919050565b600067ffffffffffffffff8211156200059857620005976200073d565b5b602082029050602081019050919050565b600082825260208201905092915050565b6000620005c78262000687565b9150620005d48362000687565b925082620005e757620005e66200070e565b5b828204905092915050565b6000620005ff8262000687565b91506200060c8362000687565b9250817fffffffffffffffffffffffffffffffffffffffffffffffffffffffffffffffff0483118215151615620006485762000647620006df565b5b828202905092915050565b6000620006608262000667565b9050919050565b600073ffffffffffffffffffffffffffffffffffffffff82169050919050565b6000819050919050565b60006200069e8262000687565b91507fffffffffffffffffffffffffffffffffffffffffffffffffffffffffffffffff821415620006d457620006d3620006df565b5b600182019050919050565b7f4e487b7100000000000000000000000000000000000000000000000000000000600052601160045260246000fd5b7f4e487b7100000000000000000000000000000000000000000000000000000000600052601260045260246000fd5b7f4e487b7100000000000000000000000000000000000000000000000000000000600052604160045260246000fd5b620007778162000653565b81146200078357600080fd5b50565b620007918162000687565b81146200079d57600080fd5b50565b61420380620007b06000396000f3fe60806040526004361061012a5760003560e01c806370480275116100ab578063ad7bbc291161006f578063ad7bbc291461045d578063b0b22c2c14610486578063c32cf65f146104af578063c917adc7146104ec578063f00e198a14610529578063f2fde38b146105665761012a565b80637048027514610364578063715018a6146103a157806386cb4181146103b85780638da5cb5b146103f557806397bb3ce9146104205761012a565b80632c48e7db116100f25780632c48e7db1461024f5780632e50aef31461028c5780633380c0d8146102b557806333ad57e4146102f25780633fe97077146103225761012a565b806303d79d281461012f578063079902c41461016d57806311ae9ed2146101aa57806314bfd6d0146101d557806324d7806c14610212575b600080fd5b34801561013b57600080fd5b5061015660048036038101906101519190613257565b61058f565b604051610164929190613b43565b60405180910390f35b34801561017957600080fd5b50610194600480360381019061018f91906132c3565b610932565b6040516101a19190613dd5565b60405180910390f35b3480156101b657600080fd5b506101bf610957565b6040516101cc9190613b06565b60405180910390f35b3480156101e157600080fd5b506101fc60048036038101906101f7919061347e565b610fc0565b6040516102099190613a62565b60405180910390f35b34801561021e57600080fd5b506102396004803603810190610234919061322e565b610fff565b6040516102469190613b28565b60405180910390f35b34801561025b57600080fd5b506102766004803603810190610271919061347e565b61101f565b6040516102839190613b28565b60405180910390f35b34801561029857600080fd5b506102b360048036038101906102ae919061338d565b61163f565b005b3480156102c157600080fd5b506102dc60048036038101906102d7919061347e565b611742565b6040516102e99190613b28565b60405180910390f35b61030c600480360381019061030791906133e5565b611bba565b6040516103199190613b28565b60405180910390f35b34801561032e57600080fd5b506103496004803603810190610344919061347e565b611e34565b60405161035b96959493929190613df0565b60405180910390f35b34801561037057600080fd5b5061038b6004803603810190610386919061322e565b611ecd565b6040516103989190613dd5565b60405180910390f35b3480156103ad57600080fd5b506103b6612013565b005b3480156103c457600080fd5b506103df60048036038101906103da91906134a7565b61214d565b6040516103ec9190613b28565b60405180910390f35b34801561040157600080fd5b5061040a612292565b6040516104179190613a62565b60405180910390f35b34801561042c57600080fd5b5061044760048036038101906104429190613364565b6122bb565b6040516104549190613a62565b60405180910390f35b34801561046957600080fd5b50610484600480360381019061047f919061347e565b6122ee565b005b34801561049257600080fd5b506104ad60048036038101906104a8919061338d565b612870565b005b3480156104bb57600080fd5b506104d660048036038101906104d191906132ff565b6129fb565b6040516104e39190613b28565b60405180910390f35b3480156104f857600080fd5b50610513600480360381019061050e91906132c3565b612a2a565b6040516105209190613dd5565b60405180910390f35b34801561053557600080fd5b50610550600480360381019061054b919061343d565b612a4f565b60405161055d9190613b6c565b60405180910390f35b34801561057257600080fd5b5061058d6004803603810190610588919061322e565b612a7d565b005b600080600b80549050905060003390506000600a86866040516105b3929190613a49565b908152602001604051809103902054905086600860003373ffffffffffffffffffffffffffffffffffffffff1673ffffffffffffffffffffffffffffffffffffffff1681526020019081526020016000206000838152602001908152602001600020541015610657576040517f08c379a000000000000000000000000000000000000000000000000000000000815260040161064e90613c35565b60405180910390fd5b60006040518060c001604052808581526020018a73ffffffffffffffffffffffffffffffffffffffff1681526020018473ffffffffffffffffffffffffffffffffffffffff168152602001898152602001838152602001600060038111156106e8577f4e487b7100000000000000000000000000000000000000000000000000000000600052602160045260246000fd5b8152509050600b8190806001815401808255809150506001900390600052602060002090600602016000909190919091506000820151816000015560208201518160010160006101000a81548173ffffffffffffffffffffffffffffffffffffffff021916908373ffffffffffffffffffffffffffffffffffffffff16021790555060408201518160020160006101000a81548173ffffffffffffffffffffffffffffffffffffffff021916908373ffffffffffffffffffffffffffffffffffffffff160217905550606082015181600301556080820151816004015560a08201518160050160006101000a81548160ff02191690836003811115610816577f4e487b7100000000000000000000000000000000000000000000000000000000600052602160045260246000fd5b0217905550505087600860003373ffffffffffffffffffffffffffffffffffffffff1673ffffffffffffffffffffffffffffffffffffffff1681526020019081526020016000206000848152602001908152602001600020600082825461087d9190613f5d565b92505081905550837ffff5a2b874635399872c2a4ff63c24e7b8be58cdff5a8b99a063fdd7742e658a426040516108b49190613dd5565b60405180910390a28873ffffffffffffffffffffffffffffffffffffffff163373ffffffffffffffffffffffffffffffffffffffff16857f6767eff78758102f1c9b5e9f15e8267f0e0f37d559922ede7506098351d6f84b8b60405161091a9190613dd5565b60405180910390a46001945050505094509492505050565b6008602052816000526040600020602052806000526040600020600091509150505481565b60606000805b600b80549050811015610c36576000600b82815481106109a6577f4e487b7100000000000000000000000000000000000000000000000000000000600052603260045260246000fd5b90600052602060002090600602016040518060c0016040529081600082015481526020016001820160009054906101000a900473ffffffffffffffffffffffffffffffffffffffff1673ffffffffffffffffffffffffffffffffffffffff1673ffffffffffffffffffffffffffffffffffffffff1681526020016002820160009054906101000a900473ffffffffffffffffffffffffffffffffffffffff1673ffffffffffffffffffffffffffffffffffffffff1673ffffffffffffffffffffffffffffffffffffffff16815260200160038201548152602001600482015481526020016005820160009054906101000a900460ff166003811115610ad4577f4e487b7100000000000000000000000000000000000000000000000000000000600052602160045260246000fd5b6003811115610b0c577f4e487b7100000000000000000000000000000000000000000000000000000000600052602160045260246000fd5b81525050905060026003811115610b4c577f4e487b7100000000000000000000000000000000000000000000000000000000600052602160045260246000fd5b8160a001516003811115610b89577f4e487b7100000000000000000000000000000000000000000000000000000000600052602160045260246000fd5b1480610c085750600380811115610bc9577f4e487b7100000000000000000000000000000000000000000000000000000000600052602160045260246000fd5b8160a001516003811115610c06577f4e487b7100000000000000000000000000000000000000000000000000000000600052602160045260246000fd5b145b15610c135750610c23565b8280610c1e9061405f565b935050505b8080610c2e9061405f565b91505061095d565b508067ffffffffffffffff811115610c77577f4e487b7100000000000000000000000000000000000000000000000000000000600052604160045260246000fd5b604051908082528060200260200182016040528015610ca55781602001602082028036833780820191505090505b50915060005b81811015610fbb576000600b8281548110610cef577f4e487b7100000000000000000000000000000000000000000000000000000000600052603260045260246000fd5b90600052602060002090600602016040518060c0016040529081600082015481526020016001820160009054906101000a900473ffffffffffffffffffffffffffffffffffffffff1673ffffffffffffffffffffffffffffffffffffffff1673ffffffffffffffffffffffffffffffffffffffff1681526020016002820160009054906101000a900473ffffffffffffffffffffffffffffffffffffffff1673ffffffffffffffffffffffffffffffffffffffff1673ffffffffffffffffffffffffffffffffffffffff16815260200160038201548152602001600482015481526020016005820160009054906101000a900460ff166003811115610e1d577f4e487b7100000000000000000000000000000000000000000000000000000000600052602160045260246000fd5b6003811115610e55577f4e487b7100000000000000000000000000000000000000000000000000000000600052602160045260246000fd5b81525050905060026003811115610e95577f4e487b7100000000000000000000000000000000000000000000000000000000600052602160045260246000fd5b8160a001516003811115610ed2577f4e487b7100000000000000000000000000000000000000000000000000000000600052602160045260246000fd5b1480610f515750600380811115610f12577f4e487b7100000000000000000000000000000000000000000000000000000000600052602160045260246000fd5b8160a001516003811115610f4f577f4e487b7100000000000000000000000000000000000000000000000000000000600052602160045260246000fd5b145b15610f5c5750610fa8565b8060000151848381518110610f9a577f4e487b7100000000000000000000000000000000000000000000000000000000600052603260045260246000fd5b602002602001018181525050505b8080610fb39061405f565b915050610cab565b505090565b60038181548110610fd057600080fd5b906000526020600020016000915054906101000a900473ffffffffffffffffffffffffffffffffffffffff1681565b60026020528060005260406000206000915054906101000a900460ff1681565b600080600b838154811061105c577f4e487b7100000000000000000000000000000000000000000000000000000000600052603260045260246000fd5b90600052602060002090600602016040518060c0016040529081600082015481526020016001820160009054906101000a900473ffffffffffffffffffffffffffffffffffffffff1673ffffffffffffffffffffffffffffffffffffffff1673ffffffffffffffffffffffffffffffffffffffff1681526020016002820160009054906101000a900473ffffffffffffffffffffffffffffffffffffffff1673ffffffffffffffffffffffffffffffffffffffff1673ffffffffffffffffffffffffffffffffffffffff16815260200160038201548152602001600482015481526020016005820160009054906101000a900460ff16600381111561118a577f4e487b7100000000000000000000000000000000000000000000000000000000600052602160045260246000fd5b60038111156111c2577f4e487b7100000000000000000000000000000000000000000000000000000000600052602160045260246000fd5b81525050905060008160a001519050600260003373ffffffffffffffffffffffffffffffffffffffff1673ffffffffffffffffffffffffffffffffffffffff16815260200190815260200160002060009054906101000a900460ff1661125d576040517f08c379a000000000000000000000000000000000000000000000000000000000815260040161125490613bd5565b60405180910390fd5b60026003811115611297577f4e487b7100000000000000000000000000000000000000000000000000000000600052602160045260246000fd5b8160038111156112d0577f4e487b7100000000000000000000000000000000000000000000000000000000600052602160045260246000fd5b1415611311576040517f08c379a000000000000000000000000000000000000000000000000000000000815260040161130890613d55565b60405180910390fd5b60038081111561134a577f4e487b7100000000000000000000000000000000000000000000000000000000600052602160045260246000fd5b816003811115611383577f4e487b7100000000000000000000000000000000000000000000000000000000600052602160045260246000fd5b14156113c4576040517f08c379a00000000000000000000000000000000000000000000000000000000081526004016113bb90613cb5565b60405180910390fd5b600160003373ffffffffffffffffffffffffffffffffffffffff1673ffffffffffffffffffffffffffffffffffffffff168152602001908152602001600020600085815260200190815260200160002060009054906101000a900460ff1615611462576040517f08c379a000000000000000000000000000000000000000000000000000000000815260040161145990613c95565b60405180910390fd5b6000600381111561149c577f4e487b7100000000000000000000000000000000000000000000000000000000600052602160045260246000fd5b8160038111156114d5577f4e487b7100000000000000000000000000000000000000000000000000000000600052602160045260246000fd5b1415611576576001600b8581548110611517577f4e487b7100000000000000000000000000000000000000000000000000000000600052603260045260246000fd5b906000526020600020906006020160050160006101000a81548160ff02191690836003811115611570577f4e487b7100000000000000000000000000000000000000000000000000000000600052602160045260246000fd5b02179055505b60018060003373ffffffffffffffffffffffffffffffffffffffff1673ffffffffffffffffffffffffffffffffffffffff168152602001908152602001600020600086815260200190815260200160002060006101000a81548160ff021916908315150217905550837f24f468a2eaafe5cf853bc1dc9b780dd65674b1e57537ed16b1ceb3b0a7bd713b3342604051611610929190613add565b60405180910390a26116258260000151612c26565b156116335760019250611638565b600092505b5050919050565b600260003373ffffffffffffffffffffffffffffffffffffffff1673ffffffffffffffffffffffffffffffffffffffff16815260200190815260200160002060009054906101000a900460ff166116cb576040517f08c379a00000000000000000000000000000000000000000000000000000000081526004016116c290613d75565b60405180910390fd5b8060096000600a86866040516116e2929190613a49565b908152602001604051809103902054815260200190815260200160002060006101000a81548173ffffffffffffffffffffffffffffffffffffffff021916908373ffffffffffffffffffffffffffffffffffffffff160217905550505050565b600080600b838154811061177f577f4e487b7100000000000000000000000000000000000000000000000000000000600052603260045260246000fd5b90600052602060002090600602016040518060c0016040529081600082015481526020016001820160009054906101000a900473ffffffffffffffffffffffffffffffffffffffff1673ffffffffffffffffffffffffffffffffffffffff1673ffffffffffffffffffffffffffffffffffffffff1681526020016002820160009054906101000a900473ffffffffffffffffffffffffffffffffffffffff1673ffffffffffffffffffffffffffffffffffffffff1673ffffffffffffffffffffffffffffffffffffffff16815260200160038201548152602001600482015481526020016005820160009054906101000a900460ff1660038111156118ad577f4e487b7100000000000000000000000000000000000000000000000000000000600052602160045260246000fd5b60038111156118e5577f4e487b7100000000000000000000000000000000000000000000000000000000600052602160045260246000fd5b81525050905060026003811115611925577f4e487b7100000000000000000000000000000000000000000000000000000000600052602160045260246000fd5b8160a001516003811115611962577f4e487b7100000000000000000000000000000000000000000000000000000000600052602160045260246000fd5b14156119a3576040517f08c379a000000000000000000000000000000000000000000000000000000000815260040161199a90613db5565b60405180910390fd5b3373ffffffffffffffffffffffffffffffffffffffff16816040015173ffffffffffffffffffffffffffffffffffffffff161480611a2a5750600260003373ffffffffffffffffffffffffffffffffffffffff1673ffffffffffffffffffffffffffffffffffffffff16815260200190815260200160002060009054906101000a900460ff165b611a69576040517f08c379a0000000000000000000000000000000000000000000000000000000008152600401611a6090613c55565b60405180910390fd5b6003600b8481548110611aa5577f4e487b7100000000000000000000000000000000000000000000000000000000600052603260045260246000fd5b906000526020600020906006020160050160006101000a81548160ff02191690836003811115611afe577f4e487b7100000000000000000000000000000000000000000000000000000000600052602160045260246000fd5b0217905550806060015160086000836040015173ffffffffffffffffffffffffffffffffffffffff1673ffffffffffffffffffffffffffffffffffffffff1681526020019081526020016000206000836080015181526020019081526020016000206000828254611b6f9190613f07565b92505081905550827ff29b51556b15ccef9ae2dae672fd2310236afd356ba6b020dfa202086568cdde3342604051611ba8929190613add565b60405180910390a26001915050919050565b600080600a8585604051611bcf929190613a49565b908152602001604051809103902054905060006009600083815260200190815260200160002060009054906101000a900473ffffffffffffffffffffffffffffffffffffffff169050600073ffffffffffffffffffffffffffffffffffffffff168173ffffffffffffffffffffffffffffffffffffffff161415611c88576040517f08c379a0000000000000000000000000000000000000000000000000000000008152600401611c7f90613d35565b60405180910390fd5b6000841415611ccc576040517f08c379a0000000000000000000000000000000000000000000000000000000008152600401611cc390613d95565b60405180910390fd5b83600760003373ffffffffffffffffffffffffffffffffffffffff1673ffffffffffffffffffffffffffffffffffffffff16815260200190815260200160002060008481526020019081526020016000206000828254611d2c9190613f07565b9250508190555083600860003373ffffffffffffffffffffffffffffffffffffffff1673ffffffffffffffffffffffffffffffffffffffff16815260200190815260200160002060008481526020019081526020016000206000828254611d939190613f07565b925050819055508073ffffffffffffffffffffffffffffffffffffffff166323b872dd3330876040518463ffffffff1660e01b8152600401611dd793929190613aa6565b602060405180830381600087803b158015611df157600080fd5b505af1158015611e05573d6000803e3d6000fd5b505050506040513d601f19601f82011682018060405250810190611e29919061333b565b925050509392505050565b600b8181548110611e4457600080fd5b90600052602060002090600602016000915090508060000154908060010160009054906101000a900473ffffffffffffffffffffffffffffffffffffffff16908060020160009054906101000a900473ffffffffffffffffffffffffffffffffffffffff16908060030154908060040154908060050160009054906101000a900460ff16905086565b6000611ed761310b565b73ffffffffffffffffffffffffffffffffffffffff16611ef5612292565b73ffffffffffffffffffffffffffffffffffffffff1614611f4b576040517f08c379a0000000000000000000000000000000000000000000000000000000008152600401611f4290613cf5565b60405180910390fd5b60038054905090506003829080600181540180825580915050600190039060005260206000200160009091909190916101000a81548173ffffffffffffffffffffffffffffffffffffffff021916908373ffffffffffffffffffffffffffffffffffffffff1602179055506001600260008473ffffffffffffffffffffffffffffffffffffffff1673ffffffffffffffffffffffffffffffffffffffff16815260200190815260200160002060006101000a81548160ff021916908315150217905550919050565b61201b61310b565b73ffffffffffffffffffffffffffffffffffffffff16612039612292565b73ffffffffffffffffffffffffffffffffffffffff161461208f576040517f08c379a000000000000000000000000000000000000000000000000000000000815260040161208690613cf5565b60405180910390fd5b600073ffffffffffffffffffffffffffffffffffffffff1660008054906101000a900473ffffffffffffffffffffffffffffffffffffffff1673ffffffffffffffffffffffffffffffffffffffff167f8be0079c531659141344cd1fd0a4f28419497f9722a3daafe3b4186f6b6457e060405160405180910390a360008060006101000a81548173ffffffffffffffffffffffffffffffffffffffff021916908373ffffffffffffffffffffffffffffffffffffffff160217905550565b600061215761310b565b73ffffffffffffffffffffffffffffffffffffffff16612175612292565b73ffffffffffffffffffffffffffffffffffffffff16146121cb576040517f08c379a00000000000000000000000000000000000000000000000000000000081526004016121c290613cf5565b60405180910390fd5b600454831415806121de57506005548214155b61221d576040517f08c379a000000000000000000000000000000000000000000000000000000000815260040161221490613cd5565b60405180910390fd5b6000821415801561222f575060008314155b801561223b5750818311155b61227a576040517f08c379a000000000000000000000000000000000000000000000000000000000815260040161227190613c75565b60405180910390fd5b82600481905550816005819055506001905092915050565b60008060009054906101000a900473ffffffffffffffffffffffffffffffffffffffff16905090565b60096020528060005260406000206000915054906101000a900473ffffffffffffffffffffffffffffffffffffffff1681565b6122f661310b565b73ffffffffffffffffffffffffffffffffffffffff16612314612292565b73ffffffffffffffffffffffffffffffffffffffff161461236a576040517f08c379a000000000000000000000000000000000000000000000000000000000815260040161236190613cf5565b60405180910390fd5b6000600382815481106123a6577f4e487b7100000000000000000000000000000000000000000000000000000000600052603260045260246000fd5b9060005260206000200160009054906101000a900473ffffffffffffffffffffffffffffffffffffffff1690506123db612292565b73ffffffffffffffffffffffffffffffffffffffff168173ffffffffffffffffffffffffffffffffffffffff161415612449576040517f08c379a000000000000000000000000000000000000000000000000000000000815260040161244090613d15565b60405180910390fd5b60006002600060038581548110612489577f4e487b7100000000000000000000000000000000000000000000000000000000600052603260045260246000fd5b9060005260206000200160009054906101000a900473ffffffffffffffffffffffffffffffffffffffff1673ffffffffffffffffffffffffffffffffffffffff1673ffffffffffffffffffffffffffffffffffffffff16815260200190815260200160002060006101000a81548160ff02191690831515021790555060005b60038054905081101561286b578173ffffffffffffffffffffffffffffffffffffffff1660038281548110612566577f4e487b7100000000000000000000000000000000000000000000000000000000600052603260045260246000fd5b9060005260206000200160009054906101000a900473ffffffffffffffffffffffffffffffffffffffff1673ffffffffffffffffffffffffffffffffffffffff16146125b157612858565b60016003805490506125c39190613f5d565b8114156126d5578173ffffffffffffffffffffffffffffffffffffffff166003828154811061261b577f4e487b7100000000000000000000000000000000000000000000000000000000600052603260045260246000fd5b9060005260206000200160009054906101000a900473ffffffffffffffffffffffffffffffffffffffff1673ffffffffffffffffffffffffffffffffffffffff1614156126d057600380548061269a577f4e487b7100000000000000000000000000000000000000000000000000000000600052603160045260246000fd5b6001900381819060005260206000200160006101000a81549073ffffffffffffffffffffffffffffffffffffffff021916905590555b61286b565b60036001826126e49190613f07565b8154811061271b577f4e487b7100000000000000000000000000000000000000000000000000000000600052603260045260246000fd5b9060005260206000200160009054906101000a900473ffffffffffffffffffffffffffffffffffffffff1660038281548110612780577f4e487b7100000000000000000000000000000000000000000000000000000000600052603260045260246000fd5b9060005260206000200160006101000a81548173ffffffffffffffffffffffffffffffffffffffff021916908373ffffffffffffffffffffffffffffffffffffffff1602179055508160036001836127d89190613f07565b8154811061280f577f4e487b7100000000000000000000000000000000000000000000000000000000600052603260045260246000fd5b9060005260206000200160006101000a81548173ffffffffffffffffffffffffffffffffffffffff021916908373ffffffffffffffffffffffffffffffffffffffff1602179055505b80806128639061405f565b915050612508565b505050565b60008383604051602001612885929190613a49565b604051602081830303815290604052805190602001209050600073ffffffffffffffffffffffffffffffffffffffff166009600083815260200190815260200160002060009054906101000a900473ffffffffffffffffffffffffffffffffffffffff1673ffffffffffffffffffffffffffffffffffffffff161461293f576040517f08c379a000000000000000000000000000000000000000000000000000000000815260040161293690613c15565b60405180910390fd5b80600a8585604051612952929190613a49565b908152602001604051809103902081905550816009600083815260200190815260200160002060006101000a81548173ffffffffffffffffffffffffffffffffffffffff021916908373ffffffffffffffffffffffffffffffffffffffff1602179055507f7a5ac0e54ddf7495d0e1c10f9c4bff0e09008514a3384940877bac3d6d7c62e884848385426040516129ed959493929190613b87565b60405180910390a150505050565b60016020528160005260406000206020528060005260406000206000915091509054906101000a900460ff1681565b6007602052816000526040600020602052806000526040600020600091509150505481565b600a818051602081018201805184825260208301602085012081835280955050505050506000915090505481565b612a8561310b565b73ffffffffffffffffffffffffffffffffffffffff16612aa3612292565b73ffffffffffffffffffffffffffffffffffffffff1614612af9576040517f08c379a0000000000000000000000000000000000000000000000000000000008152600401612af090613cf5565b60405180910390fd5b600073ffffffffffffffffffffffffffffffffffffffff168173ffffffffffffffffffffffffffffffffffffffff161415612b69576040517f08c379a0000000000000000000000000000000000000000000000000000000008152600401612b6090613bf5565b60405180910390fd5b8073ffffffffffffffffffffffffffffffffffffffff1660008054906101000a900473ffffffffffffffffffffffffffffffffffffffff1673ffffffffffffffffffffffffffffffffffffffff167f8be0079c531659141344cd1fd0a4f28419497f9722a3daafe3b4186f6b6457e060405160405180910390a3806000806101000a81548173ffffffffffffffffffffffffffffffffffffffff021916908373ffffffffffffffffffffffffffffffffffffffff16021790555050565b600080600090506000600b8481548110612c69577f4e487b7100000000000000000000000000000000000000000000000000000000600052603260045260246000fd5b90600052602060002090600602016040518060c0016040529081600082015481526020016001820160009054906101000a900473ffffffffffffffffffffffffffffffffffffffff1673ffffffffffffffffffffffffffffffffffffffff1673ffffffffffffffffffffffffffffffffffffffff1681526020016002820160009054906101000a900473ffffffffffffffffffffffffffffffffffffffff1673ffffffffffffffffffffffffffffffffffffffff1673ffffffffffffffffffffffffffffffffffffffff16815260200160038201548152602001600482015481526020016005820160009054906101000a900460ff166003811115612d97577f4e487b7100000000000000000000000000000000000000000000000000000000600052602160045260246000fd5b6003811115612dcf577f4e487b7100000000000000000000000000000000000000000000000000000000600052602160045260246000fd5b81525050905060005b600380549050811015612ed3576001600060038381548110612e23577f4e487b7100000000000000000000000000000000000000000000000000000000600052603260045260246000fd5b9060005260206000200160009054906101000a900473ffffffffffffffffffffffffffffffffffffffff1673ffffffffffffffffffffffffffffffffffffffff1673ffffffffffffffffffffffffffffffffffffffff168152602001908152602001600020600086815260200190815260200160002060009054906101000a900460ff16612eb15782612ebf565b8280612ebc9061405f565b93505b508080612ecb9061405f565b915050612dd8565b5060065482106130ff576002600b8581548110612f19577f4e487b7100000000000000000000000000000000000000000000000000000000600052603260045260246000fd5b906000526020600020906006020160050160006101000a81548160ff02191690836003811115612f72577f4e487b7100000000000000000000000000000000000000000000000000000000600052602160045260246000fd5b0217905550806060015160076000836040015173ffffffffffffffffffffffffffffffffffffffff1673ffffffffffffffffffffffffffffffffffffffff1681526020019081526020016000206000836080015181526020019081526020016000206000828254612fe39190613f5d565b92505081905550600960008260800151815260200190815260200160002060009054906101000a900473ffffffffffffffffffffffffffffffffffffffff1673ffffffffffffffffffffffffffffffffffffffff1663a9059cbb826020015183606001516040518363ffffffff1660e01b8152600401613064929190613a7d565b602060405180830381600087803b15801561307e57600080fd5b505af1158015613092573d6000803e3d6000fd5b505050506040513d601f19601f820116820180604052508101906130b6919061333b565b156130fe57837fd6a7c76a45e03d9556990632f59530fb53e0f887a2a219d138d8a9a80cf7d3a9426040516130eb9190613dd5565b60405180910390a2600192505050613106565b5b6000925050505b919050565b600033905090565b600061312661312184613e82565b613e51565b90508281526020810184848401111561313e57600080fd5b613149848285614050565b509392505050565b6000813590506131608161415a565b92915050565b60008135905061317581614171565b92915050565b60008151905061318a81614188565b92915050565b60008135905061319f8161419f565b92915050565b60008083601f8401126131b757600080fd5b8235905067ffffffffffffffff8111156131d057600080fd5b6020830191508360018202830111156131e857600080fd5b9250929050565b600082601f83011261320057600080fd5b8135613210848260208601613113565b91505092915050565b600081359050613228816141b6565b92915050565b60006020828403121561324057600080fd5b600061324e84828501613151565b91505092915050565b6000806000806060858703121561326d57600080fd5b600061327b87828801613166565b945050602061328c87828801613219565b935050604085013567ffffffffffffffff8111156132a957600080fd5b6132b5878288016131a5565b925092505092959194509250565b600080604083850312156132d657600080fd5b60006132e485828601613151565b92505060206132f585828601613190565b9150509250929050565b6000806040838503121561331257600080fd5b600061332085828601613151565b925050602061333185828601613219565b9150509250929050565b60006020828403121561334d57600080fd5b600061335b8482850161317b565b91505092915050565b60006020828403121561337657600080fd5b600061338484828501613190565b91505092915050565b6000806000604084860312156133a257600080fd5b600084013567ffffffffffffffff8111156133bc57600080fd5b6133c8868287016131a5565b935093505060206133db86828701613151565b9150509250925092565b6000806000604084860312156133fa57600080fd5b600084013567ffffffffffffffff81111561341457600080fd5b613420868287016131a5565b9350935050602061343386828701613219565b9150509250925092565b60006020828403121561344f57600080fd5b600082013567ffffffffffffffff81111561346957600080fd5b613475848285016131ef565b91505092915050565b60006020828403121561349057600080fd5b600061349e84828501613219565b91505092915050565b600080604083850312156134ba57600080fd5b60006134c885828601613219565b92505060206134d985828601613219565b9150509250929050565b60006134ef8383613a2b565b60208301905092915050565b61350481614008565b82525050565b61351381613fa3565b82525050565b61352281613f91565b82525050565b600061353382613ec2565b61353d8185613eda565b935061354883613eb2565b8060005b8381101561357957815161356088826134e3565b975061356b83613ecd565b92505060018101905061354c565b5085935050505092915050565b61358f81613fb5565b82525050565b61359e81613fc1565b82525050565b6135ad8161401a565b82525050565b60006135bf8385613eeb565b93506135cc838584614050565b6135d583614135565b840190509392505050565b60006135ec8385613efc565b93506135f9838584614050565b82840190509392505050565b6000613612600c83613eeb565b91507f556e617574686f72697a656400000000000000000000000000000000000000006000830152602082019050919050565b6000613652602683613eeb565b91507f4f776e61626c653a206e6577206f776e657220697320746865207a65726f206160008301527f64647265737300000000000000000000000000000000000000000000000000006020830152604082019050919050565b60006136b8600c83613eeb565b91507f546f6b656e2065786973747300000000000000000000000000000000000000006000830152602082019050919050565b60006136f8601483613eeb565b91507f496e73756666696369656e742062616c616e63650000000000000000000000006000830152602082019050919050565b6000613738601183613eeb565b91507f4f6e6c792073656e6465722f41646d696e0000000000000000000000000000006000830152602082019050919050565b6000613778601083613eeb565b91507f496d706f737369626c6520726174696f000000000000000000000000000000006000830152602082019050919050565b60006137b8600e83613eeb565b91507f41646d696e20617070726f7665640000000000000000000000000000000000006000830152602082019050919050565b60006137f8601583613eeb565b91507f5472616e73616374696f6e2063616e63656c6c656400000000000000000000006000830152602082019050919050565b6000613838601083613eeb565b91507f4e6f7468696e67206d6f646966696564000000000000000000000000000000006000830152602082019050919050565b6000613878602083613eeb565b91507f4f776e61626c653a2063616c6c6572206973206e6f7420746865206f776e65726000830152602082019050919050565b60006138b8601283613eeb565b91507f43616e27742072656d6f7665206f776e657200000000000000000000000000006000830152602082019050919050565b60006138f8600f83613eeb565b91507f41646420746f6b656e20666972737400000000000000000000000000000000006000830152602082019050919050565b6000613938601483613eeb565b91507f5472616e73616374696f6e20617070726f7665640000000000000000000000006000830152602082019050919050565b6000613978600a83613eeb565b91507f4f6e6c792041646d696e000000000000000000000000000000000000000000006000830152602082019050919050565b60006139b8600b83613eeb565b91507f416d6f756e74207a65726f0000000000000000000000000000000000000000006000830152602082019050919050565b60006139f8600c83613eeb565b91507f54786e20617070726f76656400000000000000000000000000000000000000006000830152602082019050919050565b613a3481613ffe565b82525050565b613a4381613ffe565b82525050565b6000613a568284866135e0565b91508190509392505050565b6000602082019050613a776000830184613519565b92915050565b6000604082019050613a9260008301856134fb565b613a9f6020830184613a3a565b9392505050565b6000606082019050613abb6000830186613519565b613ac86020830185613519565b613ad56040830184613a3a565b949350505050565b6000604082019050613af26000830185613519565b613aff6020830184613a3a565b9392505050565b60006020820190508181036000830152613b208184613528565b905092915050565b6000602082019050613b3d6000830184613586565b92915050565b6000604082019050613b586000830185613586565b613b656020830184613a3a565b9392505050565b6000602082019050613b816000830184613595565b92915050565b60006080820190508181036000830152613ba28187896135b3565b9050613bb16020830186613595565b613bbe6040830185613519565b613bcb6060830184613a3a565b9695505050505050565b60006020820190508181036000830152613bee81613605565b9050919050565b60006020820190508181036000830152613c0e81613645565b9050919050565b60006020820190508181036000830152613c2e816136ab565b9050919050565b60006020820190508181036000830152613c4e816136eb565b9050919050565b60006020820190508181036000830152613c6e8161372b565b9050919050565b60006020820190508181036000830152613c8e8161376b565b9050919050565b60006020820190508181036000830152613cae816137ab565b9050919050565b60006020820190508181036000830152613cce816137eb565b9050919050565b60006020820190508181036000830152613cee8161382b565b9050919050565b60006020820190508181036000830152613d0e8161386b565b9050919050565b60006020820190508181036000830152613d2e816138ab565b9050919050565b60006020820190508181036000830152613d4e816138eb565b9050919050565b60006020820190508181036000830152613d6e8161392b565b9050919050565b60006020820190508181036000830152613d8e8161396b565b9050919050565b60006020820190508181036000830152613dae816139ab565b9050919050565b60006020820190508181036000830152613dce816139eb565b9050919050565b6000602082019050613dea6000830184613a3a565b92915050565b600060c082019050613e056000830189613a3a565b613e12602083018861350a565b613e1f6040830187613519565b613e2c6060830186613a3a565b613e396080830185613595565b613e4660a08301846135a4565b979650505050505050565b6000604051905081810181811067ffffffffffffffff82111715613e7857613e77614106565b5b8060405250919050565b600067ffffffffffffffff821115613e9d57613e9c614106565b5b601f19601f8301169050602081019050919050565b6000819050602082019050919050565b600081519050919050565b6000602082019050919050565b600082825260208201905092915050565b600082825260208201905092915050565b600081905092915050565b6000613f1282613ffe565b9150613f1d83613ffe565b9250827fffffffffffffffffffffffffffffffffffffffffffffffffffffffffffffffff03821115613f5257613f516140a8565b5b828201905092915050565b6000613f6882613ffe565b9150613f7383613ffe565b925082821015613f8657613f856140a8565b5b828203905092915050565b6000613f9c82613fde565b9050919050565b6000613fae82613fde565b9050919050565b60008115159050919050565b6000819050919050565b6000819050613fd982614146565b919050565b600073ffffffffffffffffffffffffffffffffffffffff82169050919050565b6000819050919050565b60006140138261402c565b9050919050565b600061402582613fcb565b9050919050565b60006140378261403e565b9050919050565b600061404982613fde565b9050919050565b82818337600083830152505050565b600061406a82613ffe565b91507fffffffffffffffffffffffffffffffffffffffffffffffffffffffffffffffff82141561409d5761409c6140a8565b5b600182019050919050565b7f4e487b7100000000000000000000000000000000000000000000000000000000600052601160045260246000fd5b7f4e487b7100000000000000000000000000000000000000000000000000000000600052602160045260246000fd5b7f4e487b7100000000000000000000000000000000000000000000000000000000600052604160045260246000fd5b6000601f19601f8301169050919050565b60048110614157576141566140d7565b5b50565b61416381613f91565b811461416e57600080fd5b50565b61417a81613fa3565b811461418557600080fd5b50565b61419181613fb5565b811461419c57600080fd5b50565b6141a881613fc1565b81146141b357600080fd5b50565b6141bf81613ffe565b81146141ca57600080fd5b5056fea264697066735822122020c6f7f767c26a69ebe3ba93cedb3dd1d93fded2d443de761d1affe40f65b74864736f6c63430008000033",
  "immutableReferences": {},
  "source": "/**\r\n * @title Crypto Bank\r\n * @author Phoenix \"CryptoPhoenix\" Angell\r\n * @notice An account-based multi-signature smart contract for managing ERC20/ETH balances held by users. Accounts are mapped to user addresses, which require multi-signature approval for withdrawals. This contract set up the design for the Treasury and TreasuryV2 contracts, but is otherwise not a contract the author would ever use.\r\n * @dev Inherits from WalletAdmins, but would be benefitted by inheriting from OpenZeppelin's AccessControl\r\n */\r\n// SPDX-License-Identifier: MIT\r\npragma solidity ^0.8.0;\r\n\r\nimport \"./../WalletAdmins.sol\";\r\nimport \"./../OpenZeppelinDependencies/IERC20.sol\";\r\n\r\ncontract CryptoBank is WalletAdmins {\r\n  \r\n  /**\r\n   * @notice Withdrawal request struct\r\n   *\r\n   * @param txID ID number of withdrawal\r\n   * @param recipient Recipient's address\r\n   * @param sender Sender requesting withdrawal\r\n   * @param amount Amount of ETH to send\r\n   * @param ticker ERC20 token ticker's keccak256 hash\r\n   * @param approvalStatus Approval status: Submitted, Pending, Approved, Cancelled\r\n   */\r\n  struct txnRequest {\r\n    uint txID;\r\n    address payable recipient;\r\n    address sender;\r\n    uint amount;\r\n    bytes32 ticker;\r\n    APPROVE approvalStatus;\r\n  }\r\n\r\n  // Approval status enum\r\n  enum APPROVE { SUBMITTED, PENDING, APPROVED, CANCELLED }\r\n\r\n  // Maps user's address to total ETH balance\r\n   // Updated when ETH is deposited or withdrawn\r\n  mapping(address => mapping(bytes32 => uint)) public trueBalance;\r\n  // Maps user's address to their pending balance\r\n   // Updated when transaction is submitted or cancelled\r\n  mapping(address => mapping(bytes32 => uint)) public pendingBalance;\r\n\r\n  // Maps a token's keccak256 ticker to its contract address\r\n  mapping(bytes32 => address) public tokenAddress;\r\n  // Maps a token's string ticker to its keccak256 hash\r\n  mapping(string => bytes32) public tokenTicker;\r\n\r\n  // History of all withdrawal requests:\r\n  txnRequest[] public txnHistory;\r\n\r\n  // EVENTS \\\\\r\n  // Fire when user submits new transaction\r\n  event TransactionSubmitted(uint indexed txID, uint timestamp);\r\n  event TransactionDetails(\r\n    uint indexed txID, \r\n    address indexed sender, \r\n    address indexed receiver, \r\n    uint amount\r\n  );\r\n  // Fires when transaction is approved\r\n  event TransactionApproved(uint indexed txID, uint timestamp);\r\n  // Fires when transaction is cancelled by user or Admin\r\n  event TransactionCancelled(uint indexed txID, address caller, uint timestamp);\r\n  // Fires when Admin approves transaction\r\n  event AdminApproved(uint indexed txID, address admin, uint timestamp);\r\n  // Fires when user adds a new ERC20 token\r\n  event ERC20Added(string ticker, bytes32 tickerHash, address tokenAddress, uint256 timestamp);\r\n\r\n  constructor(\r\n    address[] memory _admins, \r\n    uint _numerator, \r\n    uint _denominator\r\n  ) WalletAdmins(_admins, _numerator, _denominator) {\r\n    super;\r\n  }\r\n\r\n  // Submits a transaction request\r\n  /**\r\n   * @notice Submits a user's transaction request\r\n   *\r\n   * @param _recipient Transaction recipient\r\n   * @param _amount Amount of ERC20 tokens being sent\r\n   * @param _tokenTicker Ticker symbol of ERC20 token being transferred\r\n   */\r\n  function submitTransaction(address payable _recipient, uint _amount, string calldata _tokenTicker) external returns (bool success, uint txID) {\r\n    // Declare local variables\r\n    txID = txnHistory.length;\r\n    address _sender = msg.sender;\r\n    bytes32 tokenTickerBytes = tokenTicker[_tokenTicker];\r\n\r\n    // Check pending balance\r\n    require (pendingBalance[msg.sender][tokenTickerBytes] >= _amount, \"Insufficient balance\");\r\n\r\n\r\n    // Create new transaction request\r\n    txnRequest memory pendingRequest =\r\n    txnRequest(\r\n              txID,\r\n              _recipient,\r\n              _sender,\r\n              _amount,\r\n              tokenTickerBytes,\r\n              APPROVE.SUBMITTED);\r\n\r\n    // Add transaction request to transaction history\r\n    txnHistory.push(pendingRequest);\r\n\r\n    // Adjust user's pending balance\r\n     // Note User's true balance is updated when tokens are deposited or transaction is approved\r\n    pendingBalance[msg.sender][tokenTickerBytes] -= _amount;\r\n\r\n    // Emit events, return success bool\r\n    emit TransactionSubmitted(txID, block.timestamp);\r\n    emit TransactionDetails(txID, msg.sender, _recipient, _amount);\r\n    success = true;\r\n  }\r\n\r\n  // Confirm transaction, only Admins may call\r\n  function confirmTransfer(uint _txID) external returns (bool txnApproved) {\r\n    // Declare local variables\r\n    txnRequest memory approvedTxn = txnHistory[_txID];\r\n    APPROVE status = approvedTxn.approvalStatus;\r\n    \r\n    // Check msg.sender has Admin status\r\n    require(isAdmin[msg.sender], \"Unauthorized\");\r\n    // Check transaction hasn't been approved already\r\n    require(status != APPROVE.APPROVED, \"Transaction approved\");\r\n    // Check transaction hasn't been cancelled\r\n    require(status != APPROVE.CANCELLED, \"Transaction cancelled\");\r\n    // Check Admin has not already approved transaction\r\n    require(!adminApproved[msg.sender][_txID], \"Admin approved\");\r\n\r\n\r\n    // If txnRequest was Submitted, then set to Pending    \r\n    if(status == APPROVE.SUBMITTED) {\r\n        txnHistory[_txID].approvalStatus = APPROVE.PENDING;\r\n      }\r\n    \r\n    // Update Admin's transaction approval\r\n    adminApproved[msg.sender][_txID] = true;\r\n    // Emit event alert for Admin's approval\r\n    emit AdminApproved(_txID, msg.sender, block.timestamp);\r\n    \r\n    // Run multi-sig check algorithm, return true if transaction is approved, false if not\r\n    if(_txnApproval(approvedTxn.txID)) txnApproved = true;\r\n    else txnApproved = false;\r\n  }\r\n\r\n  // Tallies up Admin approvals for transaction, performs transaction if multi-sig requirement is met\r\n   // Returns bool flag indicating transaction approval\r\n  function _txnApproval(uint _txID) private returns (bool) {\r\n    // 0. Initialize local variables\r\n    uint numApproved = 0;\r\n    txnRequest memory transaction = txnHistory[_txID];\r\n\r\n    // 1. Iterate through admins array and tally up approvals\r\n    for (uint i = 0; i < admins.length; i++) {\r\n      // Tertiary operator: If Admin approved then increment counter, if not then leave alone\r\n      adminApproved[admins[i]][_txID] ?\r\n        numApproved++ :\r\n        numApproved;\r\n    }\r\n\r\n    // 2. If approvals meet or exceed multi-sig requirement, then process transaction and return true flag\r\n     // Note There's no reason why it should exceed multi-sig requirement, but keep it just in case\r\n    if (numApproved >= adminsRequired) {\r\n\r\n      //*** EFFECTS ***\\\\      \r\n      // Update transaction's approval status to Approved\r\n      txnHistory[_txID].approvalStatus = APPROVE.APPROVED;\r\n      // Update user's true balance\r\n       // Note User's pendingBalance is updated during submission and cancellation\r\n      trueBalance[transaction.sender][transaction.ticker] -= transaction.amount;\r\n\r\n      //*** INTERACTIONS ***\\\\\r\n      // Transfer token to recipient, returns true if successful, false if not\r\n      if(IERC20(tokenAddress[transaction.ticker]).transfer(transaction.recipient, transaction.amount)){\r\n        // Emit approval event\r\n        emit TransactionApproved(_txID, block.timestamp);\r\n        return true;\r\n      }\r\n    }\r\n\r\n    // 3. If approvals did not meet multi-sig requirement, then return false flag\r\n    return false;\r\n  }\r\n\r\n\r\n  // Cancel transaction, only user who submitted transaction or Admins may cancel\r\n  function cancelTransaction(uint _txID) external returns(bool) {\r\n    // Declare local variables\r\n    txnRequest memory transaction = txnHistory[_txID];\r\n\r\n    // Check transaction has not been approved\r\n    require(transaction.approvalStatus != APPROVE.APPROVED, \"Txn approved\");\r\n    // Check caller is transaction's sender or Admin\r\n    require (\r\n      transaction.sender == msg.sender || \r\n      isAdmin[msg.sender],\r\n      \"Only sender/Admin\"\r\n    );\r\n\r\n    // Update transaction approval status to Cancelled\r\n    txnHistory[_txID].approvalStatus = APPROVE.CANCELLED;\r\n    // Update user's pending balance\r\n     // Note User's true balance is updated when ETH is deposited or transaction is approved\r\n    pendingBalance[transaction.sender][transaction.ticker] += transaction.amount;\r\n\r\n    // Emit cancellation alert\r\n    emit TransactionCancelled(_txID, msg.sender, block.timestamp);\r\n    return true;\r\n  }\r\n\r\n  // Deposits ERC20 token amount, requires approval prior to calling\r\n  function depositToken(string calldata _ticker, uint256 _amount) external payable returns(bool) {\r\n    // Declare local variables\r\n    bytes32 tickerBytes = tokenTicker[_ticker];\r\n    address token = tokenAddress[tickerBytes];\r\n\r\n    //*** CHECKS ***\\\\\r\n    // Check token exists in this contract\r\n    require(token != address(0), \"Add token first\");\r\n    // Check amount is not zero\r\n    require(_amount != 0, \"Amount zero\");\r\n\r\n    //*** EFFECTS ***\\\\\r\n    // Update user's balances\r\n    trueBalance[msg.sender][tickerBytes] += _amount;\r\n    pendingBalance[msg.sender][tickerBytes] += _amount;\r\n\r\n    //*** INTERACTIONS ***\\\\\r\n    // Call ERC20 contract's transferFrom\r\n    return(IERC20(token).transferFrom(msg.sender, address(this), _amount));\r\n  }\r\n\r\n  // Adds a new ERC20 token to the contract, permissionless\r\n  function addToken(string calldata _ticker, address _tokenAddress) external {\r\n    // Hash token's ticker symbol\r\n    bytes32 tokenTickerBytes = keccak256(abi.encodePacked(_ticker));\r\n\r\n    // Check that token doesn't already exist\r\n    require(tokenAddress[tokenTickerBytes] == address(0), \"Token exists\");\r\n\r\n    // Map token ticker symbol to its hash\r\n    tokenTicker[_ticker] = tokenTickerBytes;\r\n    // Map ticker symbol hash to its contract address\r\n    tokenAddress[tokenTickerBytes] = _tokenAddress;\r\n\r\n    // Emit alert\r\n    emit ERC20Added(_ticker, tokenTickerBytes, _tokenAddress, block.timestamp);\r\n  }\r\n\r\n  // Modifies existing token address data, only Admin may call\r\n  function modifyTokenAddress(string calldata _ticker, address _tokenAddress) external {\r\n    // Check caller is Admin\r\n    require(isAdmin[msg.sender], \"Only Admin\");\r\n\r\n    // Update token contract's address\r\n    tokenAddress[tokenTicker[_ticker]] = _tokenAddress;\r\n  }\r\n\r\n  // Returns pending transaction IDs\r\n  function getPending() public view returns (uint[] memory pendingTxnIDs) {\r\n    // 0. Initialize arrayLength variable\r\n    uint arrayLength = 0;\r\n\r\n    // 1. Tally number of pending transactions to find arrayLength\r\n    for (uint i = 0; i < txnHistory.length; i++) {\r\n      // Store transaction in local memory\r\n      txnRequest memory transaction = txnHistory[i];\r\n\r\n        // If transaction was Approved or Cancelled, then skip to next transaction\r\n        if (\r\n          transaction.approvalStatus == APPROVE.APPROVED ||\r\n          transaction.approvalStatus == APPROVE.CANCELLED\r\n          ) {\r\n            continue;\r\n        }\r\n        // If transaction was not skipped, then increment arrayLength\r\n        arrayLength++;\r\n    }\r\n\r\n    // 2. Create, populate, and return a static array of pending transaction IDs\r\n    // 2a. Define size of pendingTxnIDs using arrayLength found in step 1\r\n    pendingTxnIDs = new uint[](arrayLength);\r\n\r\n    // 2b. Populate each pendingTxnIDs array element\r\n    for (uint i = 0; i < arrayLength; i++) {\r\n      // Store transaction in local memory\r\n      txnRequest memory transaction = txnHistory[i];\r\n\r\n      // If transaction was Approved or Cancelled, then skip to next transaction\r\n      if (\r\n        transaction.approvalStatus == APPROVE.APPROVED ||\r\n        transaction.approvalStatus == APPROVE.CANCELLED\r\n        ) {\r\n          continue;\r\n      }\r\n\r\n      // Add transaction ID to pendingTxnIDs\r\n      pendingTxnIDs[i] = transaction.txID;      \r\n    }\r\n\r\n    // 3. Return array of txnIDs\r\n    return pendingTxnIDs;\r\n  }\r\n\r\n\r\n\r\n}\r\n",
  "sourcePath": "D:/Documents/Solidity/multisigcontracts/contracts/Scraps/CryptoBank.sol",
  "compiler": {
    "name": "solc",
    "version": "0.8.0+commit.c7dfd78e.Emscripten.clang"
  },
  "schemaVersion": "3.4.1",
  "updatedAt": "2022-07-05T22:07:05.734Z",
  "devdoc": {
    "kind": "dev",
    "methods": {
      "owner()": {
        "details": "Returns the address of the current owner."
      },
      "renounceOwnership()": {
        "details": "Leaves the contract without owner. It will not be possible to call `onlyOwner` functions anymore. Can only be called by the current owner. NOTE: Renouncing ownership will leave the contract without an owner, thereby removing any functionality that is only available to the owner."
      },
      "submitTransaction(address,uint256,string)": {
        "params": {
          "_amount": "Amount of ERC20 tokens being sent",
          "_recipient": "Transaction recipient",
          "_tokenTicker": "Ticker symbol of ERC20 token being transferred"
        }
      },
      "transferOwnership(address)": {
        "details": "Transfers ownership of the contract to a new account (`newOwner`). Can only be called by the current owner."
      }
    },
    "version": 1
  },
  "userdoc": {
    "kind": "user",
    "methods": {
      "submitTransaction(address,uint256,string)": {
        "notice": "Submits a user's transaction request"
      }
    },
    "version": 1
  }
}