{
  "contractName": "GeneralMultiSigV2",
  "abi": [
    {
      "anonymous": false,
      "inputs": [
        {
          "indexed": true,
          "internalType": "address",
          "name": "contractAddress",
          "type": "address"
        },
        {
          "indexed": true,
          "internalType": "bytes32",
          "name": "requestID",
          "type": "bytes32"
        },
        {
          "indexed": false,
          "internalType": "uint256",
          "name": "timestamp",
          "type": "uint256"
        }
      ],
      "name": "RequestApproved",
      "type": "event"
    },
    {
      "anonymous": false,
      "inputs": [
        {
          "indexed": true,
          "internalType": "address",
          "name": "contractAddress",
          "type": "address"
        },
        {
          "indexed": true,
          "internalType": "bytes32",
          "name": "requestID",
          "type": "bytes32"
        },
        {
          "indexed": false,
          "internalType": "uint256",
          "name": "timestamp",
          "type": "uint256"
        }
      ],
      "name": "RequestSubmitted",
      "type": "event"
    },
    {
      "anonymous": false,
      "inputs": [
        {
          "indexed": true,
          "internalType": "address",
          "name": "userAddress",
          "type": "address"
        },
        {
          "indexed": true,
          "internalType": "address",
          "name": "contractAddress",
          "type": "address"
        },
        {
          "indexed": true,
          "internalType": "bytes32",
          "name": "requestID",
          "type": "bytes32"
        },
        {
          "indexed": false,
          "internalType": "uint256",
          "name": "timestamp",
          "type": "uint256"
        }
      ],
      "name": "UserConfirmed",
      "type": "event"
    },
    {
      "inputs": [
        {
          "internalType": "address",
          "name": "",
          "type": "address"
        },
        {
          "internalType": "bytes32",
          "name": "",
          "type": "bytes32"
        }
      ],
      "name": "requestIDMap",
      "outputs": [
        {
          "internalType": "uint256",
          "name": "votes",
          "type": "uint256"
        },
        {
          "internalType": "uint256",
          "name": "requestCounter",
          "type": "uint256"
        },
        {
          "internalType": "bytes32",
          "name": "requestID",
          "type": "bytes32"
        },
        {
          "internalType": "enum GeneralMultiSigV2.STATUS",
          "name": "approvalStatus",
          "type": "uint8"
        },
        {
          "internalType": "bool",
          "name": "exists",
          "type": "bool"
        }
      ],
      "stateMutability": "view",
      "type": "function"
    },
    {
      "inputs": [
        {
          "internalType": "address",
          "name": "",
          "type": "address"
        },
        {
          "internalType": "address",
          "name": "",
          "type": "address"
        },
        {
          "internalType": "bytes32",
          "name": "",
          "type": "bytes32"
        }
      ],
      "name": "userApproved",
      "outputs": [
        {
          "internalType": "bool",
          "name": "",
          "type": "bool"
        }
      ],
      "stateMutability": "view",
      "type": "function"
    },
    {
      "inputs": [
        {
          "internalType": "bytes32",
          "name": "_inputsHash",
          "type": "bytes32"
        },
        {
          "internalType": "uint256",
          "name": "_txnID",
          "type": "uint256"
        },
        {
          "internalType": "bytes32",
          "name": "_requestID",
          "type": "bytes32"
        }
      ],
      "name": "checkInputs",
      "outputs": [
        {
          "internalType": "bool",
          "name": "",
          "type": "bool"
        }
      ],
      "stateMutability": "view",
      "type": "function"
    },
    {
      "inputs": [
        {
          "internalType": "bytes32",
          "name": "_inputsHash",
          "type": "bytes32"
        },
        {
          "internalType": "uint256",
          "name": "_txnID",
          "type": "uint256"
        }
      ],
      "name": "submitRequest",
      "outputs": [
        {
          "internalType": "bytes32",
          "name": "requestID",
          "type": "bytes32"
        }
      ],
      "stateMutability": "nonpayable",
      "type": "function"
    },
    {
      "inputs": [
        {
          "internalType": "bytes32",
          "name": "_requestID",
          "type": "bytes32"
        },
        {
          "internalType": "address",
          "name": "_adminAddress",
          "type": "address"
        }
      ],
      "name": "confirmRequest",
      "outputs": [
        {
          "internalType": "bool",
          "name": "requestApproved",
          "type": "bool"
        }
      ],
      "stateMutability": "nonpayable",
      "type": "function"
    },
    {
      "inputs": [
        {
          "internalType": "bytes32",
          "name": "_requestID",
          "type": "bytes32"
        }
      ],
      "name": "cancelRequest",
      "outputs": [
        {
          "internalType": "bool",
          "name": "",
          "type": "bool"
        }
      ],
      "stateMutability": "nonpayable",
      "type": "function"
    }
  ],
  "bytecode": "0x608060405234801561001057600080fd5b50611539806100206000396000f3fe608060405234801561001057600080fd5b50600436106100625760003560e01c80630bfb238b14610067578063501255461461009b578063647f3081146100cb5780636eca3842146100fb578063792d3e881461012b578063aaa5300f1461015b575b600080fd5b610081600480360381019061007c9190610eec565b61018b565b6040516100929594939291906112e3565b60405180910390f35b6100b560048036038101906100b09190610f28565b6101e8565b6040516100c291906111f7565b60405180910390f35b6100e560048036038101906100e09190610e9d565b61051f565b6040516100f291906111f7565b60405180910390f35b61011560048036038101906101109190610fc9565b61055b565b60405161012291906111f7565b60405180910390f35b61014560048036038101906101409190610f51565b6105fc565b60405161015291906111f7565b60405180910390f35b61017560048036038101906101709190610f8d565b610c59565b6040516101829190611212565b60405180910390f35b6000602052816000526040600020602052806000526040600020600091509150508060000154908060010154908060020154908060030160009054906101000a900460ff16908060030160019054906101000a900460ff16905085565b60008160008060003373ffffffffffffffffffffffffffffffffffffffff1673ffffffffffffffffffffffffffffffffffffffff16815260200190815260200160002060008381526020019081526020016000206040518060a00160405290816000820154815260200160018201548152602001600282015481526020016003820160009054906101000a900460ff1660028111156102b0577f4e487b7100000000000000000000000000000000000000000000000000000000600052602160045260246000fd5b60028111156102e8577f4e487b7100000000000000000000000000000000000000000000000000000000600052602160045260246000fd5b81526020016003820160019054906101000a900460ff16151515158152505090503273ffffffffffffffffffffffffffffffffffffffff163373ffffffffffffffffffffffffffffffffffffffff161415610378576040517f08c379a000000000000000000000000000000000000000000000000000000000815260040161036f906112a8565b60405180910390fd5b80608001516103bc576040517f08c379a00000000000000000000000000000000000000000000000000000000081526004016103b390611248565b60405180910390fd5b600060028111156103f6577f4e487b7100000000000000000000000000000000000000000000000000000000600052602160045260246000fd5b81606001516002811115610433577f4e487b7100000000000000000000000000000000000000000000000000000000600052602160045260246000fd5b14610473576040517f08c379a000000000000000000000000000000000000000000000000000000000815260040161046a90611288565b60405180910390fd5b60026000803373ffffffffffffffffffffffffffffffffffffffff1673ffffffffffffffffffffffffffffffffffffffff168152602001908152602001600020600086815260200190815260200160002060030160006101000a81548160ff0219169083600281111561050f577f4e487b7100000000000000000000000000000000000000000000000000000000600052602160045260246000fd5b0217905550600192505050919050565b6001602052826000526040600020602052816000526040600020602052806000526040600020600092509250509054906101000a900460ff1681565b60008084846000803373ffffffffffffffffffffffffffffffffffffffff1673ffffffffffffffffffffffffffffffffffffffff1681526020019081526020016000206000868152602001908152602001600020600101546040516020016105c5939291906111ba565b604051602081830303815290604052805190602001209050828114156105ef5760019150506105f5565b60009150505b9392505050565b60008260008060003373ffffffffffffffffffffffffffffffffffffffff1673ffffffffffffffffffffffffffffffffffffffff16815260200190815260200160002060008381526020019081526020016000206040518060a00160405290816000820154815260200160018201548152602001600282015481526020016003820160009054906101000a900460ff1660028111156106c4577f4e487b7100000000000000000000000000000000000000000000000000000000600052602160045260246000fd5b60028111156106fc577f4e487b7100000000000000000000000000000000000000000000000000000000600052602160045260246000fd5b81526020016003820160019054906101000a900460ff16151515158152505090503273ffffffffffffffffffffffffffffffffffffffff163373ffffffffffffffffffffffffffffffffffffffff16141561078c576040517f08c379a0000000000000000000000000000000000000000000000000000000008152600401610783906112a8565b60405180910390fd5b80608001516107d0576040517f08c379a00000000000000000000000000000000000000000000000000000000081526004016107c790611248565b60405180910390fd5b6000600281111561080a577f4e487b7100000000000000000000000000000000000000000000000000000000600052602160045260246000fd5b81606001516002811115610847577f4e487b7100000000000000000000000000000000000000000000000000000000600052602160045260246000fd5b14610887576040517f08c379a000000000000000000000000000000000000000000000000000000000815260040161087e90611288565b60405180910390fd5b600160008573ffffffffffffffffffffffffffffffffffffffff1673ffffffffffffffffffffffffffffffffffffffff16815260200190815260200160002060003373ffffffffffffffffffffffffffffffffffffffff1673ffffffffffffffffffffffffffffffffffffffff168152602001908152602001600020600086815260200190815260200160002060009054906101000a900460ff1615610962576040517f08c379a000000000000000000000000000000000000000000000000000000000815260040161095990611268565b60405180910390fd5b60018060008673ffffffffffffffffffffffffffffffffffffffff1673ffffffffffffffffffffffffffffffffffffffff16815260200190815260200160002060003373ffffffffffffffffffffffffffffffffffffffff1673ffffffffffffffffffffffffffffffffffffffff168152602001908152602001600020600087815260200190815260200160002060006101000a81548160ff0219169083151502179055506000803373ffffffffffffffffffffffffffffffffffffffff1673ffffffffffffffffffffffffffffffffffffffff16815260200190815260200160002060008681526020019081526020016000206000016000815480929190610a6a906113e2565b91905055503373ffffffffffffffffffffffffffffffffffffffff1663a00f8e2b60006040518263ffffffff1660e01b8152600401610aa9919061122d565b602060405180830381600087803b158015610ac357600080fd5b505af1158015610ad7573d6000803e3d6000fd5b505050506040513d601f19601f82011682018060405250810190610afb9190611018565b6000803373ffffffffffffffffffffffffffffffffffffffff1673ffffffffffffffffffffffffffffffffffffffff16815260200190815260200160002060008781526020019081526020016000206000015410610c4c5760016000803373ffffffffffffffffffffffffffffffffffffffff1673ffffffffffffffffffffffffffffffffffffffff168152602001908152602001600020600087815260200190815260200160002060030160006101000a81548160ff02191690836002811115610bef577f4e487b7100000000000000000000000000000000000000000000000000000000600052602160045260246000fd5b0217905550843373ffffffffffffffffffffffffffffffffffffffff167fad967f748f1c30a4beea23baa05c669106217180e0f621d260257e305796809f42604051610c3b91906112c8565b60405180910390a360019250610c51565b600092505b505092915050565b60008282600254604051602001610c72939291906111ba565b60405160208183030381529060405280519060200120905060006040518060a0016040528060008152602001600254815260200183815260200160006002811115610ce6577f4e487b7100000000000000000000000000000000000000000000000000000000600052602160045260246000fd5b8152602001600115158152509050806000803373ffffffffffffffffffffffffffffffffffffffff1673ffffffffffffffffffffffffffffffffffffffff168152602001908152602001600020600084815260200190815260200160002060008201518160000155602082015181600101556040820151816002015560608201518160030160006101000a81548160ff02191690836002811115610db3577f4e487b7100000000000000000000000000000000000000000000000000000000600052602160045260246000fd5b021790555060808201518160030160016101000a81548160ff02191690831515021790555090505060026000815480929190610dee906113e2565b9190505550813373ffffffffffffffffffffffffffffffffffffffff167f155f4d73b13766a8a6b03108d878d694ad6bb84df55913698a2d67c9bfbd45c042604051610e3a91906112c8565b60405180910390a35092915050565b600081359050610e58816114be565b92915050565b600081359050610e6d816114d5565b92915050565b600081359050610e82816114ec565b92915050565b600081519050610e97816114ec565b92915050565b600080600060608486031215610eb257600080fd5b6000610ec086828701610e49565b9350506020610ed186828701610e49565b9250506040610ee286828701610e5e565b9150509250925092565b60008060408385031215610eff57600080fd5b6000610f0d85828601610e49565b9250506020610f1e85828601610e5e565b9150509250929050565b600060208284031215610f3a57600080fd5b6000610f4884828501610e5e565b91505092915050565b60008060408385031215610f6457600080fd5b6000610f7285828601610e5e565b9250506020610f8385828601610e49565b9150509250929050565b60008060408385031215610fa057600080fd5b6000610fae85828601610e5e565b9250506020610fbf85828601610e73565b9150509250929050565b600080600060608486031215610fde57600080fd5b6000610fec86828701610e5e565b9350506020610ffd86828701610e73565b925050604061100e86828701610e5e565b9150509250925092565b60006020828403121561102a57600080fd5b600061103884828501610e88565b91505092915050565b61104a81611359565b82525050565b61105981611365565b82525050565b61107061106b82611365565b61142b565b82525050565b61107f816113b6565b82525050565b61108e816113c8565b82525050565b60006110a1601583611336565b91507f5265717565737420646f65736e277420657869737400000000000000000000006000830152602082019050919050565b60006110e1600d83611336565b91507f416c726561647920766f746564000000000000000000000000000000000000006000830152602082019050919050565b6000611121600e83611336565b91507f5265717565737420636c6f7365640000000000000000000000000000000000006000830152602082019050919050565b6000611161600d83611336565b91507f43616c6c657220697320454f41000000000000000000000000000000000000006000830152602082019050919050565b61119d816113ac565b82525050565b6111b46111af826113ac565b611435565b82525050565b60006111c6828661105f565b6020820191506111d682856111a3565b6020820191506111e682846111a3565b602082019150819050949350505050565b600060208201905061120c6000830184611041565b92915050565b60006020820190506112276000830184611050565b92915050565b60006020820190506112426000830184611085565b92915050565b6000602082019050818103600083015261126181611094565b9050919050565b60006020820190508181036000830152611281816110d4565b9050919050565b600060208201905081810360008301526112a181611114565b9050919050565b600060208201905081810360008301526112c181611154565b9050919050565b60006020820190506112dd6000830184611194565b92915050565b600060a0820190506112f86000830188611194565b6113056020830187611194565b6113126040830186611050565b61131f6060830185611076565b61132c6080830184611041565b9695505050505050565b600082825260208201905092915050565b60006113528261138c565b9050919050565b60008115159050919050565b6000819050919050565b600081905061137d826114aa565b919050565b6000819050919050565b600073ffffffffffffffffffffffffffffffffffffffff82169050919050565b6000819050919050565b60006113c18261136f565b9050919050565b60006113db6113d683611382565b61149d565b9050919050565b60006113ed826113ac565b91507fffffffffffffffffffffffffffffffffffffffffffffffffffffffffffffffff8214156114205761141f61143f565b5b600182019050919050565b6000819050919050565b6000819050919050565b7f4e487b7100000000000000000000000000000000000000000000000000000000600052601160045260246000fd5b7f4e487b7100000000000000000000000000000000000000000000000000000000600052602160045260246000fd5b60008160001b9050919050565b600381106114bb576114ba61146e565b5b50565b6114c781611347565b81146114d257600080fd5b50565b6114de81611365565b81146114e957600080fd5b50565b6114f5816113ac565b811461150057600080fd5b5056fea26469706673582212205af226426bc069a62952f148ac3e6577d811cc19f470912b95e9541e96c07dcc64736f6c63430008000033",
  "immutableReferences": {},
  "source": "/**\r\n * @title General Multi-Sig V2\r\n * @author Phoenix \"CryptoPhoenix\" Angell\r\n * @notice Universal external multi-sig voting contract that can be used for any function from any contract that is secured by a multi-sig authorization from a single team, and can only be interacted with by smart contracts that have implemented IVotingRequirements.sol. Requires a hash of the function's inputs and an ID number provided by the calling contract, which add increased security and flexibility.\r\n * @dev Contracts that use this mechanism must implement the votesRequired function from IVotingRequirements.sol, which must be a public/external function that returns the current multi-sig threshold for the calling contract.\r\n * @dev V2 only allows for one role, presumed to be the Admin role, to vote on multi-sig requests.\r\n */\r\n//SPDX-License-Identifier: MIT\r\npragma solidity ^0.8.0;\r\n\r\nimport \"./IVotingRequirements.sol\";\r\n\r\ncontract GeneralMultiSigV2 {\r\n\r\n  /**\r\n   * @notice Stores all necessary data for a multi-sig request\r\n   *\r\n   * @param requestID Request identifier, derived from hashing inputs and counter variable\r\n   * @param votes Tally of users that have confirmed the Request\r\n   * @param approvalStatus Multi-sig status: Pending, Approved, or Cancelled\r\n   * @param exists Flag indicating if the Request exists or not\r\n   * @param requestCounter Counter variable that was used to salt the requestID\r\n   */\r\n  struct Request {\r\n    uint256 votes;\r\n    uint256 requestCounter;\r\n    bytes32 requestID;\r\n    STATUS approvalStatus;\r\n    bool exists;\r\n  }\r\n\r\n  // Approval status enum\r\n  enum STATUS { PENDING, APPROVED, CANCELLED }\r\n\r\n  // Maps contract addresses to their request ID's Request structs\r\n   // Contract address => request ID => Request struct\r\n  mapping(address => mapping(bytes32 => Request)) public requestIDMap;\r\n  // Tracks if a user voted for a Request\r\n   // User address => contract address => request ID => true if user voted\r\n  mapping(address => mapping(address => mapping(bytes32 => bool))) public userApproved;\r\n\r\n  // Counter used to salt requestIDs\r\n  uint256 private requestIDCounter;\r\n\r\n  //*** EVENTS ***\\\\\r\n  event RequestSubmitted(\r\n    address indexed contractAddress,\r\n    bytes32 indexed requestID,\r\n    uint256 timestamp\r\n  );\r\n  event RequestApproved(\r\n    address indexed contractAddress, \r\n    bytes32 indexed requestID, \r\n    uint256 timestamp\r\n  );\r\n  event UserConfirmed(\r\n    address indexed userAddress, \r\n    address indexed contractAddress, \r\n    bytes32 indexed requestID, \r\n    uint256 timestamp\r\n  );\r\n\r\n\r\n  // Checks that a contract's request exists, is still pending, and caller is not an EOA\r\n  modifier checkStatus(bytes32 _requestID) {\r\n    Request memory request = requestIDMap[msg.sender][_requestID];\r\n\r\n    // Check that caller is not an EOA\r\n    require(msg.sender != tx.origin, \"Caller is EOA\");\r\n    // Check request exists\r\n    require(request.exists, \"Request doesn't exist\");\r\n    // Check request is pending\r\n    require(request.approvalStatus == STATUS.PENDING, \"Request closed\");\r\n\r\n    _;\r\n  }\r\n\r\n  /**\r\n   * @notice Returns true if provided inputs and transaction ID for the caller are correct for the request ID\r\n   * @dev Use this for contracts that don't use submit/confirm functions, and which need to check provided inputs\r\n   * for accuracy before confirming a request. See TreasuryV3.sol for an example implementation.\r\n   */\r\n  function checkInputs(bytes32 _inputsHash, uint256 _txnID, bytes32 _requestID) public view returns (bool) {\r\n    bytes32 requestID = keccak256(\r\n      abi.encodePacked(\r\n        _inputsHash, \r\n        _txnID, \r\n        requestIDMap[msg.sender][_requestID].requestCounter\r\n      ));\r\n    if(requestID == _requestID) return true;\r\n    else return false;\r\n  }\r\n\r\n   /**\r\n    * @notice Submits a multi-sig request\r\n    *\r\n    * @param _inputsHash Hash of function's inputs\r\n    * @param _txnID Transaction ID used by child contract for record-keeping\r\n    *\r\n    * @return requestID Unique ID of multi-sig request, must be stored by child contract\r\n    */\r\n  function submitRequest(bytes32 _inputsHash, uint256 _txnID) external returns(bytes32 requestID){\r\n    // Generate requestID from hashed function inputs, transaction ID, and request counter\r\n    requestID = keccak256(abi.encodePacked(_inputsHash, _txnID, requestIDCounter));\r\n\r\n    // Create new Request struct\r\n    Request memory newRequest = Request({\r\n      requestID: requestID,\r\n      approvalStatus: STATUS.PENDING,\r\n      exists: true,\r\n      requestCounter: requestIDCounter,\r\n      votes: 0\r\n    });\r\n\r\n    // Map newRequest to its requestID\r\n    requestIDMap[msg.sender][requestID] = newRequest;\r\n    // Increment request ID counter variable\r\n    requestIDCounter++;\r\n\r\n    // Emit submission event and return the requestID back to the child contract\r\n    emit RequestSubmitted(msg.sender, requestID, block.timestamp);\r\n    return requestID;\r\n  }\r\n\r\n  /**\r\n   * @notice Runs multi-sig confirmation logic\r\n   * @dev Calling contract must provide the requestID and the address of the Admin calling it\r\n   *\r\n   * @param _requestID Request ID of the multi-signature vote request\r\n   * @param _adminAddress Address of Admin calling the calling contract\r\n   *\r\n   * @return requestApproved Flag indicating if the request was approved (true) or is still pending (false),\r\n   * dependent contract uses this return value to determine when to process the function.\r\n   */\r\n  function confirmRequest(bytes32 _requestID, address _adminAddress) external checkStatus(_requestID) returns (bool requestApproved) {\r\n    // Check user has not already voted for the request\r\n    require(!userApproved[_adminAddress][msg.sender][_requestID], \"Already voted\");\r\n    \r\n    // Update user's transaction approval and increment Request's vote tally\r\n    userApproved[_adminAddress][msg.sender][_requestID] = true;\r\n    requestIDMap[msg.sender][_requestID].votes++;\r\n    \r\n    // Check if Request has reached multi-sig threshold required by calling contract\r\n    if(requestIDMap[msg.sender][_requestID].votes >= IVotingRequirements(msg.sender).votesRequired(0)) {      \r\n      // If votes reach multi-sig requirement, then update approval status and return with true flag\r\n      requestIDMap[msg.sender][_requestID].approvalStatus = STATUS.APPROVED;\r\n\r\n      emit RequestApproved(msg.sender, _requestID, block.timestamp);\r\n      return true;\r\n    }\r\n    // If vote is still pending, then return with false flag\r\n    else return false;\r\n  }\r\n\r\n  function cancelRequest(bytes32 _requestID) external checkStatus(_requestID) returns (bool) {\r\n    // Update request approval status to Cancelled\r\n    requestIDMap[msg.sender][_requestID].approvalStatus = STATUS.CANCELLED;\r\n    return true;\r\n  }\r\n\r\n}",
  "sourcePath": "D:/Documents/Solidity/multisigcontracts/contracts/GeneralMultiSigV2.sol",
  "compiler": {
    "name": "solc",
    "version": "0.8.0+commit.c7dfd78e.Emscripten.clang"
  },
  "schemaVersion": "3.4.1",
  "updatedAt": "2022-07-05T22:05:53.336Z",
  "devdoc": {
    "kind": "dev",
    "methods": {
      "checkInputs(bytes32,uint256,bytes32)": {
        "details": "Use this for contracts that don't use submit/confirm functions, and which need to check provided inputs for accuracy before confirming a request. See TreasuryV3.sol for an example implementation."
      },
      "confirmRequest(bytes32,address)": {
        "details": "Calling contract must provide the requestID and the address of the Admin calling it",
        "params": {
          "_adminAddress": "Address of Admin calling the calling contract",
          "_requestID": "Request ID of the multi-signature vote request"
        },
        "returns": {
          "requestApproved": "Flag indicating if the request was approved (true) or is still pending (false), dependent contract uses this return value to determine when to process the function."
        }
      },
      "submitRequest(bytes32,uint256)": {
        "params": {
          "_inputsHash": "Hash of function's inputs",
          "_txnID": "Transaction ID used by child contract for record-keeping"
        },
        "returns": {
          "requestID": "Unique ID of multi-sig request, must be stored by child contract"
        }
      }
    },
    "version": 1
  },
  "userdoc": {
    "kind": "user",
    "methods": {
      "checkInputs(bytes32,uint256,bytes32)": {
        "notice": "Returns true if provided inputs and transaction ID for the caller are correct for the request ID"
      },
      "confirmRequest(bytes32,address)": {
        "notice": "Runs multi-sig confirmation logic"
      },
      "submitRequest(bytes32,uint256)": {
        "notice": "Submits a multi-sig request"
      }
    },
    "version": 1
  }
}