{
  "contractName": "GeneralMultiSigV1",
  "abi": [
    {
      "inputs": [
        {
          "internalType": "address[]",
          "name": "_admins",
          "type": "address[]"
        },
        {
          "internalType": "uint256",
          "name": "_numerator",
          "type": "uint256"
        },
        {
          "internalType": "uint256",
          "name": "_denominator",
          "type": "uint256"
        }
      ],
      "stateMutability": "nonpayable",
      "type": "constructor"
    },
    {
      "anonymous": false,
      "inputs": [
        {
          "indexed": true,
          "internalType": "address",
          "name": "adminAdded",
          "type": "address"
        },
        {
          "indexed": false,
          "internalType": "uint256",
          "name": "newAdminAddedID",
          "type": "uint256"
        },
        {
          "indexed": false,
          "internalType": "uint256",
          "name": "timestamp",
          "type": "uint256"
        }
      ],
      "name": "AdminAdded",
      "type": "event"
    },
    {
      "anonymous": false,
      "inputs": [
        {
          "indexed": true,
          "internalType": "address",
          "name": "adminRemoved",
          "type": "address"
        },
        {
          "indexed": false,
          "internalType": "address",
          "name": "adminShifted",
          "type": "address"
        },
        {
          "indexed": false,
          "internalType": "uint256",
          "name": "newAdminShiftedID",
          "type": "uint256"
        },
        {
          "indexed": false,
          "internalType": "uint256",
          "name": "timestamp",
          "type": "uint256"
        }
      ],
      "name": "AdminRemoved",
      "type": "event"
    },
    {
      "anonymous": false,
      "inputs": [
        {
          "indexed": true,
          "internalType": "address",
          "name": "previousOwner",
          "type": "address"
        },
        {
          "indexed": true,
          "internalType": "address",
          "name": "newOwner",
          "type": "address"
        }
      ],
      "name": "OwnershipTransferred",
      "type": "event"
    },
    {
      "anonymous": false,
      "inputs": [
        {
          "indexed": true,
          "internalType": "bytes32",
          "name": "requestID",
          "type": "bytes32"
        },
        {
          "indexed": true,
          "internalType": "address",
          "name": "admin",
          "type": "address"
        },
        {
          "indexed": false,
          "internalType": "uint256",
          "name": "timestamp",
          "type": "uint256"
        }
      ],
      "name": "RequestSubmitted",
      "type": "event"
    },
    {
      "inputs": [
        {
          "internalType": "address",
          "name": "_adminAddress",
          "type": "address"
        }
      ],
      "name": "addAdmin",
      "outputs": [
        {
          "internalType": "uint256",
          "name": "adminID",
          "type": "uint256"
        }
      ],
      "stateMutability": "nonpayable",
      "type": "function"
    },
    {
      "inputs": [
        {
          "internalType": "address",
          "name": "",
          "type": "address"
        },
        {
          "internalType": "bytes32",
          "name": "",
          "type": "bytes32"
        }
      ],
      "name": "adminApproved",
      "outputs": [
        {
          "internalType": "bool",
          "name": "",
          "type": "bool"
        }
      ],
      "stateMutability": "view",
      "type": "function"
    },
    {
      "inputs": [
        {
          "internalType": "uint256",
          "name": "",
          "type": "uint256"
        }
      ],
      "name": "admins",
      "outputs": [
        {
          "internalType": "address",
          "name": "",
          "type": "address"
        }
      ],
      "stateMutability": "view",
      "type": "function"
    },
    {
      "inputs": [
        {
          "internalType": "address",
          "name": "",
          "type": "address"
        }
      ],
      "name": "isAdmin",
      "outputs": [
        {
          "internalType": "bool",
          "name": "",
          "type": "bool"
        }
      ],
      "stateMutability": "view",
      "type": "function"
    },
    {
      "inputs": [],
      "name": "owner",
      "outputs": [
        {
          "internalType": "address",
          "name": "",
          "type": "address"
        }
      ],
      "stateMutability": "view",
      "type": "function"
    },
    {
      "inputs": [
        {
          "internalType": "address",
          "name": "_adminAddress",
          "type": "address"
        }
      ],
      "name": "removeAdmin",
      "outputs": [
        {
          "internalType": "uint256",
          "name": "movedAdminID",
          "type": "uint256"
        },
        {
          "internalType": "address",
          "name": "movedAdmin",
          "type": "address"
        }
      ],
      "stateMutability": "nonpayable",
      "type": "function"
    },
    {
      "inputs": [],
      "name": "renounceOwnership",
      "outputs": [],
      "stateMutability": "nonpayable",
      "type": "function"
    },
    {
      "inputs": [
        {
          "internalType": "bytes32",
          "name": "",
          "type": "bytes32"
        }
      ],
      "name": "requestIDMap",
      "outputs": [
        {
          "internalType": "bytes32",
          "name": "requestID",
          "type": "bytes32"
        },
        {
          "internalType": "enum GeneralMultiSigV1.APPROVE",
          "name": "approvalStatus",
          "type": "uint8"
        },
        {
          "internalType": "bool",
          "name": "exists",
          "type": "bool"
        }
      ],
      "stateMutability": "view",
      "type": "function"
    },
    {
      "inputs": [
        {
          "internalType": "address",
          "name": "newOwner",
          "type": "address"
        }
      ],
      "name": "transferOwnership",
      "outputs": [],
      "stateMutability": "nonpayable",
      "type": "function"
    },
    {
      "inputs": [
        {
          "internalType": "bytes32",
          "name": "_inputsHash",
          "type": "bytes32"
        },
        {
          "internalType": "uint256",
          "name": "_txnID",
          "type": "uint256"
        },
        {
          "internalType": "uint256",
          "name": "_reqIDCounter",
          "type": "uint256"
        }
      ],
      "name": "newRequestID",
      "outputs": [
        {
          "internalType": "bytes32",
          "name": "",
          "type": "bytes32"
        }
      ],
      "stateMutability": "pure",
      "type": "function"
    }
  ],
  "bytecode": "0x60806040526007546006546002805490506200001c9190620005ec565b620000289190620005b4565b6008553480156200003857600080fd5b50604051620019c7380380620019c783398181016040528101906200005e91906200046d565b826000620000716200039560201b60201c565b9050806000806101000a81548173ffffffffffffffffffffffffffffffffffffffff021916908373ffffffffffffffffffffffffffffffffffffffff1602179055508073ffffffffffffffffffffffffffffffffffffffff16600073ffffffffffffffffffffffffffffffffffffffff167f8be0079c531659141344cd1fd0a4f28419497f9722a3daafe3b4186f6b6457e060405160405180910390a3506002339080600181540180825580915050600190039060005260206000200160009091909190916101000a81548173ffffffffffffffffffffffffffffffffffffffff021916908373ffffffffffffffffffffffffffffffffffffffff16021790555060018060003373ffffffffffffffffffffffffffffffffffffffff1673ffffffffffffffffffffffffffffffffffffffff16815260200190815260200160002060006101000a81548160ff02191690831515021790555060005b81518110156200032857600282828151811062000212577f4e487b7100000000000000000000000000000000000000000000000000000000600052603260045260246000fd5b60200260200101519080600181540180825580915050600190039060005260206000200160009091909190916101000a81548173ffffffffffffffffffffffffffffffffffffffff021916908373ffffffffffffffffffffffffffffffffffffffff1602179055506001806000848481518110620002b9577f4e487b7100000000000000000000000000000000000000000000000000000000600052603260045260246000fd5b602002602001015173ffffffffffffffffffffffffffffffffffffffff1673ffffffffffffffffffffffffffffffffffffffff16815260200190815260200160002060006101000a81548160ff02191690831515021790555080806200031f906200068b565b915050620001cc565b5050600081141580156200033c5750808211155b6200037e576040517f08c379a000000000000000000000000000000000000000000000000000000000815260040162000375906200051e565b60405180910390fd5b81600681905550806007819055505050506200079a565b600033905090565b6000620003b4620003ae8462000574565b62000540565b90508083825260208201905082856020860282011115620003d457600080fd5b60005b85811015620004085781620003ed888262000412565b845260208401935060208301925050600181019050620003d7565b5050509392505050565b600081519050620004238162000766565b92915050565b600082601f8301126200043b57600080fd5b81516200044d8482602086016200039d565b91505092915050565b600081519050620004678162000780565b92915050565b6000806000606084860312156200048357600080fd5b600084015167ffffffffffffffff8111156200049e57600080fd5b620004ac8682870162000429565b9350506020620004bf8682870162000456565b9250506040620004d28682870162000456565b9150509250925092565b6000620004eb601083620005a3565b91507f496d706f737369626c6520726174696f000000000000000000000000000000006000830152602082019050919050565b600060208201905081810360008301526200053981620004dc565b9050919050565b6000604051905081810181811067ffffffffffffffff821117156200056a576200056962000737565b5b8060405250919050565b600067ffffffffffffffff82111562000592576200059162000737565b5b602082029050602081019050919050565b600082825260208201905092915050565b6000620005c18262000681565b9150620005ce8362000681565b925082620005e157620005e062000708565b5b828204905092915050565b6000620005f98262000681565b9150620006068362000681565b9250817fffffffffffffffffffffffffffffffffffffffffffffffffffffffffffffffff0483118215151615620006425762000641620006d9565b5b828202905092915050565b60006200065a8262000661565b9050919050565b600073ffffffffffffffffffffffffffffffffffffffff82169050919050565b6000819050919050565b6000620006988262000681565b91507fffffffffffffffffffffffffffffffffffffffffffffffffffffffffffffffff821415620006ce57620006cd620006d9565b5b600182019050919050565b7f4e487b7100000000000000000000000000000000000000000000000000000000600052601160045260246000fd5b7f4e487b7100000000000000000000000000000000000000000000000000000000600052601260045260246000fd5b7f4e487b7100000000000000000000000000000000000000000000000000000000600052604160045260246000fd5b62000771816200064d565b81146200077d57600080fd5b50565b6200078b8162000681565b81146200079757600080fd5b50565b61121d80620007aa6000396000f3fe608060405234801561001057600080fd5b506004361061009e5760003560e01c806378e323eb1161006657806378e323eb1461016e5780638da5cb5b146101a0578063b178f45c146101be578063c1c7e8e9146101ee578063f2fde38b1461021e5761009e565b806314bfd6d0146100a35780631785f53c146100d357806324d7806c146101045780637048027514610134578063715018a614610164575b600080fd5b6100bd60048036038101906100b89190610cef565b61023a565b6040516100ca9190610eb4565b60405180910390f35b6100ed60048036038101906100e89190610c12565b610279565b6040516100fb929190610fee565b60405180910390f35b61011e60048036038101906101199190610c12565b6106b1565b60405161012b9190610f06565b60405180910390f35b61014e60048036038101906101499190610c12565b6106d1565b60405161015b9190610fd3565b60405180910390f35b61016c610816565b005b61018860048036038101906101839190610c77565b610950565b60405161019793929190610f3c565b60405180910390f35b6101a8610994565b6040516101b59190610eb4565b60405180910390f35b6101d860048036038101906101d39190610c3b565b6109bd565b6040516101e59190610f06565b60405180910390f35b61020860048036038101906102039190610ca0565b6109ec565b6040516102159190610f21565b60405180910390f35b61023860048036038101906102339190610c12565b610a22565b005b6002818154811061024a57600080fd5b906000526020600020016000915054906101000a900473ffffffffffffffffffffffffffffffffffffffff1681565b600080610284610bcb565b73ffffffffffffffffffffffffffffffffffffffff166102a2610994565b73ffffffffffffffffffffffffffffffffffffffff16146102f8576040517f08c379a00000000000000000000000000000000000000000000000000000000081526004016102ef90610f93565b60405180910390fd5b610300610994565b73ffffffffffffffffffffffffffffffffffffffff168373ffffffffffffffffffffffffffffffffffffffff16141561036e576040517f08c379a000000000000000000000000000000000000000000000000000000000815260040161036590610fb3565b60405180910390fd5b6000600160008573ffffffffffffffffffffffffffffffffffffffff1673ffffffffffffffffffffffffffffffffffffffff16815260200190815260200160002060006101000a81548160ff02191690831515021790555060005b600280549050811015610659578373ffffffffffffffffffffffffffffffffffffffff1660028281548110610427577f4e487b7100000000000000000000000000000000000000000000000000000000600052603260045260246000fd5b9060005260206000200160009054906101000a900473ffffffffffffffffffffffffffffffffffffffff1673ffffffffffffffffffffffffffffffffffffffff161461047257610646565b600260016002805490506104869190611028565b815481106104bd577f4e487b7100000000000000000000000000000000000000000000000000000000600052603260045260246000fd5b9060005260206000200160009054906101000a900473ffffffffffffffffffffffffffffffffffffffff1660028281548110610522577f4e487b7100000000000000000000000000000000000000000000000000000000600052603260045260246000fd5b9060005260206000200160006101000a81548173ffffffffffffffffffffffffffffffffffffffff021916908373ffffffffffffffffffffffffffffffffffffffff16021790555060028054806105a2577f4e487b7100000000000000000000000000000000000000000000000000000000600052603160045260246000fd5b6001900381819060005260206000200160006101000a81549073ffffffffffffffffffffffffffffffffffffffff0219169055905580925060028181548110610614577f4e487b7100000000000000000000000000000000000000000000000000000000600052603260045260246000fd5b9060005260206000200160009054906101000a900473ffffffffffffffffffffffffffffffffffffffff169150610659565b8080610651906110d3565b9150506103c9565b508273ffffffffffffffffffffffffffffffffffffffff167fb7f949511ee22189f148b1c8ea2780e68a4483e86e7e06aec3732d10a54454aa8284426040516106a493929190610ecf565b60405180910390a2915091565b60016020528060005260406000206000915054906101000a900460ff1681565b60006106db610bcb565b73ffffffffffffffffffffffffffffffffffffffff166106f9610994565b73ffffffffffffffffffffffffffffffffffffffff161461074f576040517f08c379a000000000000000000000000000000000000000000000000000000000815260040161074690610f93565b60405180910390fd5b60028054905090506002829080600181540180825580915050600190039060005260206000200160009091909190916101000a81548173ffffffffffffffffffffffffffffffffffffffff021916908373ffffffffffffffffffffffffffffffffffffffff16021790555060018060008473ffffffffffffffffffffffffffffffffffffffff1673ffffffffffffffffffffffffffffffffffffffff16815260200190815260200160002060006101000a81548160ff021916908315150217905550919050565b61081e610bcb565b73ffffffffffffffffffffffffffffffffffffffff1661083c610994565b73ffffffffffffffffffffffffffffffffffffffff1614610892576040517f08c379a000000000000000000000000000000000000000000000000000000000815260040161088990610f93565b60405180910390fd5b600073ffffffffffffffffffffffffffffffffffffffff1660008054906101000a900473ffffffffffffffffffffffffffffffffffffffff1673ffffffffffffffffffffffffffffffffffffffff167f8be0079c531659141344cd1fd0a4f28419497f9722a3daafe3b4186f6b6457e060405160405180910390a360008060006101000a81548173ffffffffffffffffffffffffffffffffffffffff021916908373ffffffffffffffffffffffffffffffffffffffff160217905550565b60036020528060005260406000206000915090508060000154908060010160009054906101000a900460ff16908060010160019054906101000a900460ff16905083565b60008060009054906101000a900473ffffffffffffffffffffffffffffffffffffffff16905090565b60046020528160005260406000206020528060005260406000206000915091509054906101000a900460ff1681565b6000838383604051602001610a0393929190610e77565b6040516020818303038152906040528051906020012090509392505050565b610a2a610bcb565b73ffffffffffffffffffffffffffffffffffffffff16610a48610994565b73ffffffffffffffffffffffffffffffffffffffff1614610a9e576040517f08c379a0000000000000000000000000000000000000000000000000000000008152600401610a9590610f93565b60405180910390fd5b600073ffffffffffffffffffffffffffffffffffffffff168173ffffffffffffffffffffffffffffffffffffffff161415610b0e576040517f08c379a0000000000000000000000000000000000000000000000000000000008152600401610b0590610f73565b60405180910390fd5b8073ffffffffffffffffffffffffffffffffffffffff1660008054906101000a900473ffffffffffffffffffffffffffffffffffffffff1673ffffffffffffffffffffffffffffffffffffffff167f8be0079c531659141344cd1fd0a4f28419497f9722a3daafe3b4186f6b6457e060405160405180910390a3806000806101000a81548173ffffffffffffffffffffffffffffffffffffffff021916908373ffffffffffffffffffffffffffffffffffffffff16021790555050565b600033905090565b600081359050610be2816111a2565b92915050565b600081359050610bf7816111b9565b92915050565b600081359050610c0c816111d0565b92915050565b600060208284031215610c2457600080fd5b6000610c3284828501610bd3565b91505092915050565b60008060408385031215610c4e57600080fd5b6000610c5c85828601610bd3565b9250506020610c6d85828601610be8565b9150509250929050565b600060208284031215610c8957600080fd5b6000610c9784828501610be8565b91505092915050565b600080600060608486031215610cb557600080fd5b6000610cc386828701610be8565b9350506020610cd486828701610bfd565b9250506040610ce586828701610bfd565b9150509250925092565b600060208284031215610d0157600080fd5b6000610d0f84828501610bfd565b91505092915050565b610d218161105c565b82525050565b610d308161106e565b82525050565b610d3f8161107a565b82525050565b610d56610d518261107a565b61111c565b82525050565b610d65816110c1565b82525050565b6000610d78602683611017565b91507f4f776e61626c653a206e6577206f776e657220697320746865207a65726f206160008301527f64647265737300000000000000000000000000000000000000000000000000006020830152604082019050919050565b6000610dde602083611017565b91507f4f776e61626c653a2063616c6c6572206973206e6f7420746865206f776e65726000830152602082019050919050565b6000610e1e601283611017565b91507f43616e27742072656d6f7665206f776e657200000000000000000000000000006000830152602082019050919050565b610e5a816110b7565b82525050565b610e71610e6c826110b7565b611126565b82525050565b6000610e838286610d45565b602082019150610e938285610e60565b602082019150610ea38284610e60565b602082019150819050949350505050565b6000602082019050610ec96000830184610d18565b92915050565b6000606082019050610ee46000830186610d18565b610ef16020830185610e51565b610efe6040830184610e51565b949350505050565b6000602082019050610f1b6000830184610d27565b92915050565b6000602082019050610f366000830184610d36565b92915050565b6000606082019050610f516000830186610d36565b610f5e6020830185610d5c565b610f6b6040830184610d27565b949350505050565b60006020820190508181036000830152610f8c81610d6b565b9050919050565b60006020820190508181036000830152610fac81610dd1565b9050919050565b60006020820190508181036000830152610fcc81610e11565b9050919050565b6000602082019050610fe86000830184610e51565b92915050565b60006040820190506110036000830185610e51565b6110106020830184610d18565b9392505050565b600082825260208201905092915050565b6000611033826110b7565b915061103e836110b7565b92508282101561105157611050611130565b5b828203905092915050565b600061106782611097565b9050919050565b60008115159050919050565b6000819050919050565b60008190506110928261118e565b919050565b600073ffffffffffffffffffffffffffffffffffffffff82169050919050565b6000819050919050565b60006110cc82611084565b9050919050565b60006110de826110b7565b91507fffffffffffffffffffffffffffffffffffffffffffffffffffffffffffffffff82141561111157611110611130565b5b600182019050919050565b6000819050919050565b6000819050919050565b7f4e487b7100000000000000000000000000000000000000000000000000000000600052601160045260246000fd5b7f4e487b7100000000000000000000000000000000000000000000000000000000600052602160045260246000fd5b6003811061119f5761119e61115f565b5b50565b6111ab8161105c565b81146111b657600080fd5b50565b6111c28161107a565b81146111cd57600080fd5b50565b6111d9816110b7565b81146111e457600080fd5b5056fea264697066735822122068648bcdf7197af2cf2c27bc776bee286a8027b2b689907b63afca1c6c8d9e8b64736f6c63430008000033",
  "immutableReferences": {},
  "source": "/**\r\n * @title General Multi-Sig\r\n * @author Phoenix \"CryptoPhoenix\" Angell\r\n * @notice Universal multi-sig voting contract that can be used for any function. V1 is inherited from, while V2 is an external contract. Requires a hash of the function's inputs and an ID number used by a child/external contract to record important data.\r\n * @dev This contract is not intended to keep a record of all multi-sig votes or the data for each vote's function inputs, it only facilitates the mechanism. Child contracts that inherit from this contract should have local structs and arrays that track data on-chain. This contract does map requestIDs to their Request structs, thus child contracts should store requestIDs in their on-chain data.\r\n * @dev This contract implements a basic Admin and Owner permissions setup, and assumes that all multi-sig requests and votes belong to a single organization without any roles or departments.\r\n */\r\n//SPDX-License-Identifier: MIT\r\npragma solidity ^0.8.0;\r\n\r\nimport \"./WalletAdminsV2.sol\";\r\n\r\ncontract GeneralMultiSigV1 is WalletAdminsV2 {\r\n\r\n  /**\\\r\n   * @param requestID Request identifier, derived from hashing inputs and counter variable\r\n   * @param approvalStatus Approval status: Pending, Approved, or Cancelled\r\n   * @param exists Flag indicating if request exists or not\r\n   */\r\n  struct Request {\r\n    bytes32 requestID;\r\n    APPROVE approvalStatus;\r\n    bool exists;\r\n  }\r\n\r\n  enum APPROVE { PENDING, APPROVED, CANCELLED }\r\n\r\n  // Maps Request's ID to its requestHistory entry\r\n  mapping(bytes32 => Request) public requestIDMap;\r\n  // Maps Admin address and requestID to its approval status \r\n   // adminApproved = true if Admin alread voted for requestID\r\n  mapping(address => mapping(bytes32 => bool)) public adminApproved;\r\n\r\n  // Counter used to salt requestIDs and prevent collisions\r\n  uint256 requestIDCounter;\r\n\r\n  // Number of Admin signatures required\r\n  uint numerator;\r\n  uint denominator;\r\n  uint adminsRequired = (admins.length * numerator) / denominator;\r\n\r\n  event RequestSubmitted(bytes32 indexed requestID, address indexed admin, uint256 timestamp);\r\n\r\n  /**\r\n   * @param _admins Array of Admin users with multi-sig voting permission\r\n   * @param _numerator Numerator of multi-signature threshold ratio\r\n   * @param _denominator Denominator of multi-signature threshold ratio\r\n   */\r\n  constructor(\r\n    address[] memory _admins, \r\n    uint _numerator, \r\n    uint _denominator\r\n  ) WalletAdminsV2(_admins) {\r\n    super;\r\n    // Check for impossible ratios\r\n    require(\r\n      _denominator != 0 &&\r\n      _numerator <= _denominator, \r\n      \"Impossible ratio\"\r\n    );\r\n\r\n    // Assign signature requirement ratio\r\n    numerator = _numerator;\r\n    denominator = _denominator;\r\n  }\r\n\r\n  // Checks that a Request exists and is still pending\r\n  modifier checkStatus(bytes32 _requestID) {\r\n    Request memory request = requestIDMap[_requestID];\r\n\r\n    // Check request exists\r\n    require(request.exists, \"Request does not exist\");\r\n    // Check request is pending\r\n    require(request.approvalStatus == APPROVE.PENDING, \"Request not pending\");\r\n\r\n    _;\r\n  }\r\n\r\n  // Generates the next requestID using a given input hash, transaction ID, and the value of requestIDCounter\r\n  function newRequestID(bytes32 _inputsHash, uint256 _txnID, uint256 _reqIDCounter) public pure returns (bytes32){\r\n    return keccak256(abi.encodePacked(_inputsHash, _txnID, _reqIDCounter));\r\n  }\r\n\r\n   /**\r\n    * @notice Submits a multi-sig request\r\n    *\r\n    * @param _inputsHash Hash of function's inputs\r\n    * @param _txnID Transaction ID used by child contract for record-keeping\r\n    *\r\n    * @return requestID Unique ID of multi-sig request, must be stored by child contract\r\n    */\r\n  function _submitRequest(bytes32 _inputsHash, uint256 _txnID) internal returns(bytes32){\r\n    // Generate requestID from hashed function inputs, transaction ID, and request counter\r\n    bytes32 requestID = newRequestID(_inputsHash, _txnID, requestIDCounter);\r\n\r\n    // Increment request ID counter variable\r\n    requestIDCounter++;\r\n\r\n    Request memory newRequest = Request({\r\n      requestID: requestID,\r\n      approvalStatus: APPROVE.PENDING,\r\n      exists: true\r\n    });\r\n\r\n    // Map newRequest to its requestID\r\n    requestIDMap[requestID] = newRequest;\r\n\r\n    // Emit submission event and return the requestID back to the child contract\r\n    emit RequestSubmitted(requestID, msg.sender, block.timestamp);\r\n    return requestID;\r\n  }\r\n\r\n  /**\r\n   * @notice Runs multi-sig confirmation logic for the given requestID\r\n   * @dev Child contract handles return value to determine next step after multi-sig\r\n   * has completed\r\n   */\r\n  function _confirmRequest(bytes32 _requestID) internal checkStatus(_requestID) returns (bool) {\r\n    // Declare local variables\r\n    Request memory approvedRequest = requestIDMap[_requestID];\r\n\r\n    // Check Admin has not already approved transaction\r\n    require(!adminApproved[msg.sender][_requestID], \"Admin approved\");\r\n    \r\n    // Update Admin's transaction approval\r\n    adminApproved[msg.sender][_requestID] = true;\r\n    \r\n    // Run multi-sig algorithm\r\n    if(_tallyVotes(approvedRequest.requestID)) {      \r\n      // If successful, then update approval status and return with true flag\r\n      requestIDMap[_requestID].approvalStatus = APPROVE.APPROVED;\r\n      return true;\r\n    }\r\n\r\n    // If unsuccessful, then return with false flag\r\n    else return false;\r\n  }\r\n\r\n  /**\r\n   * @notice Tallies up Admin approvals for multi-sig mechanism\r\n   * @dev Uses unchecked logic for tallying Admin approvals, as it will never overflow\r\n   */\r\n  function _tallyVotes(bytes32 _requestID) private view returns (bool) {\r\n    // 0. Initialize local variables\r\n    uint256 numApproved = 0;\r\n\r\n    // 1. Iterate through admins array and tally up approvals\r\n     // Unchecked because loop counter and numApproved will not exceed uint256 type size\r\n    unchecked {\r\n      for (uint256 i = 0; i < admins.length; i++) {\r\n        // Tertiary operator: If Admin approved then increment counter, if not then leave alone\r\n        adminApproved[admins[i]][_requestID] ?\r\n          numApproved++ :\r\n          numApproved;\r\n      }      \r\n    }\r\n\r\n    // 2. If approvals did not meet requirement, then return from function with false flag\r\n    if (numApproved < adminsRequired) {\r\n      return false;\r\n    }\r\n\r\n    // 3. Otherwise, return with true flag\r\n    return true;\r\n  }\r\n\r\n  function _cancelRequest(bytes32 _requestID) internal checkStatus(_requestID) returns (bool) {\r\n    // Update request approval status to Cancelled\r\n    requestIDMap[_requestID].approvalStatus = APPROVE.CANCELLED;\r\n    return true;\r\n  }\r\n\r\n}",
  "sourcePath": "D:\\Documents\\Solidity\\multisigcontracts\\contracts\\GeneralMultiSigV1.sol",
  "compiler": {
    "name": "solc",
    "version": "0.8.0+commit.c7dfd78e.Emscripten.clang"
  },
  "schemaVersion": "3.4.1",
  "updatedAt": "2022-07-05T22:05:53.126Z",
  "devdoc": {
    "kind": "dev",
    "methods": {
      "addAdmin(address)": {
        "details": "Override to implement multi-sig mechanism in child contract",
        "params": {
          "_adminAddress": "Address of Admin to add "
        },
        "returns": {
          "adminID": "Index value for new Admin "
        }
      },
      "constructor": {
        "params": {
          "_admins": "Array of Admin users with multi-sig voting permission",
          "_denominator": "Denominator of multi-signature threshold ratio",
          "_numerator": "Numerator of multi-signature threshold ratio"
        }
      },
      "owner()": {
        "details": "Returns the address of the current owner."
      },
      "removeAdmin(address)": {
        "details": "Override to implement multi-sig mechanism in child contract",
        "params": {
          "_adminAddress": "Address of Admin to remove "
        },
        "returns": {
          "movedAdmin": "Admin address that replaced the removed Admin",
          "movedAdminID": "New index value for Admin that replaced the removed Admin "
        }
      },
      "renounceOwnership()": {
        "details": "Leaves the contract without owner. It will not be possible to call `onlyOwner` functions anymore. Can only be called by the current owner. NOTE: Renouncing ownership will leave the contract without an owner, thereby removing any functionality that is only available to the owner."
      },
      "transferOwnership(address)": {
        "details": "Transfers ownership of the contract to a new account (`newOwner`). Can only be called by the current owner."
      }
    },
    "version": 1
  },
  "userdoc": {
    "kind": "user",
    "methods": {
      "addAdmin(address)": {
        "notice": "Adds a new Admin address, only the contract owner can call"
      },
      "removeAdmin(address)": {
        "notice": "Removes an Admin address, only the contract owner can call. Does not preserve order of Admin addresses, but is very light on gas."
      }
    },
    "version": 1
  }
}