{
  "contractName": "MultiWalletETH",
  "abi": [
    {
      "inputs": [
        {
          "internalType": "address[]",
          "name": "_admins",
          "type": "address[]"
        },
        {
          "internalType": "uint256",
          "name": "_numerator",
          "type": "uint256"
        },
        {
          "internalType": "uint256",
          "name": "_denominator",
          "type": "uint256"
        }
      ],
      "stateMutability": "nonpayable",
      "type": "constructor"
    },
    {
      "anonymous": false,
      "inputs": [
        {
          "indexed": true,
          "internalType": "uint256",
          "name": "txID",
          "type": "uint256"
        },
        {
          "indexed": false,
          "internalType": "address",
          "name": "admin",
          "type": "address"
        },
        {
          "indexed": false,
          "internalType": "uint256",
          "name": "timestamp",
          "type": "uint256"
        }
      ],
      "name": "AdminApproved",
      "type": "event"
    },
    {
      "anonymous": false,
      "inputs": [
        {
          "indexed": true,
          "internalType": "address",
          "name": "user",
          "type": "address"
        },
        {
          "indexed": false,
          "internalType": "uint256",
          "name": "amount",
          "type": "uint256"
        },
        {
          "indexed": false,
          "internalType": "uint256",
          "name": "currentBalance",
          "type": "uint256"
        },
        {
          "indexed": false,
          "internalType": "uint256",
          "name": "pendingBalance",
          "type": "uint256"
        },
        {
          "indexed": false,
          "internalType": "uint256",
          "name": "timestamp",
          "type": "uint256"
        }
      ],
      "name": "ETHDeposited",
      "type": "event"
    },
    {
      "anonymous": false,
      "inputs": [
        {
          "indexed": true,
          "internalType": "address",
          "name": "previousOwner",
          "type": "address"
        },
        {
          "indexed": true,
          "internalType": "address",
          "name": "newOwner",
          "type": "address"
        }
      ],
      "name": "OwnershipTransferred",
      "type": "event"
    },
    {
      "anonymous": false,
      "inputs": [
        {
          "indexed": true,
          "internalType": "uint256",
          "name": "txID",
          "type": "uint256"
        },
        {
          "indexed": false,
          "internalType": "uint256",
          "name": "timestamp",
          "type": "uint256"
        }
      ],
      "name": "TransactionApproved",
      "type": "event"
    },
    {
      "anonymous": false,
      "inputs": [
        {
          "indexed": true,
          "internalType": "uint256",
          "name": "txID",
          "type": "uint256"
        },
        {
          "indexed": false,
          "internalType": "address",
          "name": "caller",
          "type": "address"
        },
        {
          "indexed": false,
          "internalType": "uint256",
          "name": "timestamp",
          "type": "uint256"
        }
      ],
      "name": "TransactionCancelled",
      "type": "event"
    },
    {
      "anonymous": false,
      "inputs": [
        {
          "indexed": true,
          "internalType": "uint256",
          "name": "txID",
          "type": "uint256"
        },
        {
          "indexed": true,
          "internalType": "address",
          "name": "sender",
          "type": "address"
        },
        {
          "indexed": true,
          "internalType": "address",
          "name": "receiver",
          "type": "address"
        },
        {
          "indexed": false,
          "internalType": "uint256",
          "name": "amount",
          "type": "uint256"
        }
      ],
      "name": "TransactionDetails",
      "type": "event"
    },
    {
      "anonymous": false,
      "inputs": [
        {
          "indexed": true,
          "internalType": "uint256",
          "name": "txID",
          "type": "uint256"
        },
        {
          "indexed": false,
          "internalType": "uint256",
          "name": "timestamp",
          "type": "uint256"
        }
      ],
      "name": "TransactionSubmitted",
      "type": "event"
    },
    {
      "stateMutability": "nonpayable",
      "type": "fallback"
    },
    {
      "inputs": [
        {
          "internalType": "address",
          "name": "_address",
          "type": "address"
        }
      ],
      "name": "addAdmin",
      "outputs": [
        {
          "internalType": "uint256",
          "name": "adminID",
          "type": "uint256"
        }
      ],
      "stateMutability": "nonpayable",
      "type": "function"
    },
    {
      "inputs": [
        {
          "internalType": "address",
          "name": "",
          "type": "address"
        },
        {
          "internalType": "uint256",
          "name": "",
          "type": "uint256"
        }
      ],
      "name": "adminApproved",
      "outputs": [
        {
          "internalType": "bool",
          "name": "",
          "type": "bool"
        }
      ],
      "stateMutability": "view",
      "type": "function"
    },
    {
      "inputs": [
        {
          "internalType": "uint256",
          "name": "",
          "type": "uint256"
        }
      ],
      "name": "admins",
      "outputs": [
        {
          "internalType": "address",
          "name": "",
          "type": "address"
        }
      ],
      "stateMutability": "view",
      "type": "function"
    },
    {
      "inputs": [
        {
          "internalType": "address",
          "name": "",
          "type": "address"
        }
      ],
      "name": "isAdmin",
      "outputs": [
        {
          "internalType": "bool",
          "name": "",
          "type": "bool"
        }
      ],
      "stateMutability": "view",
      "type": "function"
    },
    {
      "inputs": [
        {
          "internalType": "uint256",
          "name": "_numerator",
          "type": "uint256"
        },
        {
          "internalType": "uint256",
          "name": "_denominator",
          "type": "uint256"
        }
      ],
      "name": "modifySignatureRatio",
      "outputs": [
        {
          "internalType": "bool",
          "name": "",
          "type": "bool"
        }
      ],
      "stateMutability": "nonpayable",
      "type": "function"
    },
    {
      "inputs": [],
      "name": "owner",
      "outputs": [
        {
          "internalType": "address",
          "name": "",
          "type": "address"
        }
      ],
      "stateMutability": "view",
      "type": "function"
    },
    {
      "inputs": [
        {
          "internalType": "address",
          "name": "",
          "type": "address"
        }
      ],
      "name": "pendingBalance",
      "outputs": [
        {
          "internalType": "uint256",
          "name": "",
          "type": "uint256"
        }
      ],
      "stateMutability": "view",
      "type": "function"
    },
    {
      "inputs": [
        {
          "internalType": "uint256",
          "name": "_adminID",
          "type": "uint256"
        }
      ],
      "name": "removeAdmin",
      "outputs": [],
      "stateMutability": "nonpayable",
      "type": "function"
    },
    {
      "inputs": [],
      "name": "renounceOwnership",
      "outputs": [],
      "stateMutability": "nonpayable",
      "type": "function"
    },
    {
      "inputs": [
        {
          "internalType": "address",
          "name": "newOwner",
          "type": "address"
        }
      ],
      "name": "transferOwnership",
      "outputs": [],
      "stateMutability": "nonpayable",
      "type": "function"
    },
    {
      "inputs": [
        {
          "internalType": "uint256",
          "name": "",
          "type": "uint256"
        }
      ],
      "name": "txnHistory",
      "outputs": [
        {
          "internalType": "uint256",
          "name": "txID",
          "type": "uint256"
        },
        {
          "internalType": "address payable",
          "name": "recipient",
          "type": "address"
        },
        {
          "internalType": "address",
          "name": "sender",
          "type": "address"
        },
        {
          "internalType": "uint256",
          "name": "amount",
          "type": "uint256"
        },
        {
          "internalType": "enum MultiWalletETH.APPROVE",
          "name": "approvalStatus",
          "type": "uint8"
        }
      ],
      "stateMutability": "view",
      "type": "function"
    },
    {
      "inputs": [
        {
          "internalType": "address",
          "name": "",
          "type": "address"
        }
      ],
      "name": "userBalance",
      "outputs": [
        {
          "internalType": "uint256",
          "name": "",
          "type": "uint256"
        }
      ],
      "stateMutability": "view",
      "type": "function"
    },
    {
      "stateMutability": "payable",
      "type": "receive"
    },
    {
      "inputs": [
        {
          "internalType": "address payable",
          "name": "_recipient",
          "type": "address"
        },
        {
          "internalType": "uint256",
          "name": "_amount",
          "type": "uint256"
        }
      ],
      "name": "submitTransaction",
      "outputs": [
        {
          "internalType": "bool",
          "name": "success",
          "type": "bool"
        },
        {
          "internalType": "uint256",
          "name": "txID",
          "type": "uint256"
        }
      ],
      "stateMutability": "nonpayable",
      "type": "function"
    },
    {
      "inputs": [
        {
          "internalType": "uint256",
          "name": "_txID",
          "type": "uint256"
        }
      ],
      "name": "confirmTransfer",
      "outputs": [
        {
          "internalType": "bool",
          "name": "txnApproved",
          "type": "bool"
        }
      ],
      "stateMutability": "nonpayable",
      "type": "function"
    },
    {
      "inputs": [
        {
          "internalType": "uint256",
          "name": "_txID",
          "type": "uint256"
        }
      ],
      "name": "cancelTransaction",
      "outputs": [],
      "stateMutability": "nonpayable",
      "type": "function"
    },
    {
      "inputs": [],
      "name": "depositETH",
      "outputs": [],
      "stateMutability": "payable",
      "type": "function"
    },
    {
      "inputs": [],
      "name": "getPending",
      "outputs": [
        {
          "internalType": "uint256[]",
          "name": "pendingTxnIDs",
          "type": "uint256[]"
        }
      ],
      "stateMutability": "view",
      "type": "function"
    }
  ],
  "bytecode": "0x60806040526005546004546003805490506200001c9190620005f2565b620000289190620005ba565b6006553480156200003857600080fd5b5060405162003fb838038062003fb883398181016040528101906200005e919062000473565b8282826000620000736200039b60201b60201c565b9050806000806101000a81548173ffffffffffffffffffffffffffffffffffffffff021916908373ffffffffffffffffffffffffffffffffffffffff1602179055508073ffffffffffffffffffffffffffffffffffffffff16600073ffffffffffffffffffffffffffffffffffffffff167f8be0079c531659141344cd1fd0a4f28419497f9722a3daafe3b4186f6b6457e060405160405180910390a35060008114158015620001235750808211155b62000165576040517f08c379a00000000000000000000000000000000000000000000000000000000081526004016200015c9062000524565b60405180910390fd5b81600481905550806005819055506003339080600181540180825580915050600190039060005260206000200160009091909190916101000a81548173ffffffffffffffffffffffffffffffffffffffff021916908373ffffffffffffffffffffffffffffffffffffffff1602179055506001600260003373ffffffffffffffffffffffffffffffffffffffff1673ffffffffffffffffffffffffffffffffffffffff16815260200190815260200160002060006101000a81548160ff02191690831515021790555060005b83518110156200038e57600384828151811062000277577f4e487b7100000000000000000000000000000000000000000000000000000000600052603260045260246000fd5b60200260200101519080600181540180825580915050600190039060005260206000200160009091909190916101000a81548173ffffffffffffffffffffffffffffffffffffffff021916908373ffffffffffffffffffffffffffffffffffffffff1602179055506001600260008684815181106200031f577f4e487b7100000000000000000000000000000000000000000000000000000000600052603260045260246000fd5b602002602001015173ffffffffffffffffffffffffffffffffffffffff1673ffffffffffffffffffffffffffffffffffffffff16815260200190815260200160002060006101000a81548160ff0219169083151502179055508080620003859062000691565b91505062000231565b50505050505050620007a0565b600033905090565b6000620003ba620003b4846200057a565b62000546565b90508083825260208201905082856020860282011115620003da57600080fd5b60005b858110156200040e5781620003f3888262000418565b845260208401935060208301925050600181019050620003dd565b5050509392505050565b60008151905062000429816200076c565b92915050565b600082601f8301126200044157600080fd5b815162000453848260208601620003a3565b91505092915050565b6000815190506200046d8162000786565b92915050565b6000806000606084860312156200048957600080fd5b600084015167ffffffffffffffff811115620004a457600080fd5b620004b2868287016200042f565b9350506020620004c5868287016200045c565b9250506040620004d8868287016200045c565b9150509250925092565b6000620004f1601083620005a9565b91507f496d706f737369626c6520726174696f000000000000000000000000000000006000830152602082019050919050565b600060208201905081810360008301526200053f81620004e2565b9050919050565b6000604051905081810181811067ffffffffffffffff8211171562000570576200056f6200073d565b5b8060405250919050565b600067ffffffffffffffff8211156200059857620005976200073d565b5b602082029050602081019050919050565b600082825260208201905092915050565b6000620005c78262000687565b9150620005d48362000687565b925082620005e757620005e66200070e565b5b828204905092915050565b6000620005ff8262000687565b91506200060c8362000687565b9250817fffffffffffffffffffffffffffffffffffffffffffffffffffffffffffffffff0483118215151615620006485762000647620006df565b5b828202905092915050565b6000620006608262000667565b9050919050565b600073ffffffffffffffffffffffffffffffffffffffff82169050919050565b6000819050919050565b60006200069e8262000687565b91507fffffffffffffffffffffffffffffffffffffffffffffffffffffffffffffffff821415620006d457620006d3620006df565b5b600182019050919050565b7f4e487b7100000000000000000000000000000000000000000000000000000000600052601160045260246000fd5b7f4e487b7100000000000000000000000000000000000000000000000000000000600052601260045260246000fd5b7f4e487b7100000000000000000000000000000000000000000000000000000000600052604160045260246000fd5b620007778162000653565b81146200078357600080fd5b50565b620007918162000687565b81146200079d57600080fd5b50565b61380880620007b06000396000f3fe6080604052600436106101025760003560e01c80633fe97077116100955780638da5cb5b116100645780638da5cb5b14610564578063ad7bbc291461058f578063c32cf65f146105b8578063f2fde38b146105f5578063f6326fb31461061e57610287565b80633fe970771461049257806370480275146104d3578063715018a61461051057806386cb41811461052757610287565b806324d7806c116100d157806324d7806c146103b25780632c48e7db146103ef5780633380c0d81461042c5780633736f85d1461045557610287565b80630103c92b146102cf57806311ae9ed21461030c57806314bfd6d0146103375780631d43b6531461037457610287565b366102875734600760003373ffffffffffffffffffffffffffffffffffffffff1673ffffffffffffffffffffffffffffffffffffffff168152602001908152602001600020600082825461015691906135c9565b9250508190555034600860003373ffffffffffffffffffffffffffffffffffffffff1673ffffffffffffffffffffffffffffffffffffffff16815260200190815260200160002060008282546101ac91906135c9565b925050819055503373ffffffffffffffffffffffffffffffffffffffff167fe6842e3c66982eec53fbf127ab93e36198f7d048a044b2761abd0e131b3f84a434600760003373ffffffffffffffffffffffffffffffffffffffff1673ffffffffffffffffffffffffffffffffffffffff16815260200190815260200160002054600860003373ffffffffffffffffffffffffffffffffffffffff1673ffffffffffffffffffffffffffffffffffffffff168152602001908152602001600020544260405161027d949392919061353a565b60405180910390a2005b34801561029357600080fd5b506040517f08c379a00000000000000000000000000000000000000000000000000000000081526004016102c6906133ac565b60405180910390fd5b3480156102db57600080fd5b506102f660048036038101906102f19190612ce6565b610628565b60405161030391906134cc565b60405180910390f35b34801561031857600080fd5b50610321610640565b60405161032e91906132a6565b60405180910390f35b34801561034357600080fd5b5061035e60048036038101906103599190612d87565b610c95565b60405161036b9190613262565b60405180910390f35b34801561038057600080fd5b5061039b60048036038101906103969190612d0f565b610cd4565b6040516103a99291906132e3565b60405180910390f35b3480156103be57600080fd5b506103d960048036038101906103d49190612ce6565b61101d565b6040516103e691906132c8565b60405180910390f35b3480156103fb57600080fd5b5061041660048036038101906104119190612d87565b61103d565b60405161042391906132c8565b60405180910390f35b34801561043857600080fd5b50610453600480360381019061044e9190612d87565b611653565b005b34801561046157600080fd5b5061047c60048036038101906104779190612ce6565b611aa5565b60405161048991906134cc565b60405180910390f35b34801561049e57600080fd5b506104b960048036038101906104b49190612d87565b611abd565b6040516104ca9594939291906134e7565b60405180910390f35b3480156104df57600080fd5b506104fa60048036038101906104f59190612ce6565b611b50565b60405161050791906134cc565b60405180910390f35b34801561051c57600080fd5b50610525611c96565b005b34801561053357600080fd5b5061054e60048036038101906105499190612db0565b611dd0565b60405161055b91906132c8565b60405180910390f35b34801561057057600080fd5b50610579611f15565b6040516105869190613262565b60405180910390f35b34801561059b57600080fd5b506105b660048036038101906105b19190612d87565b611f3e565b005b3480156105c457600080fd5b506105df60048036038101906105da9190612d4b565b6124c0565b6040516105ec91906132c8565b60405180910390f35b34801561060157600080fd5b5061061c60048036038101906106179190612ce6565b6124ef565b005b610626612698565b005b60076020528060005260406000206000915090505481565b60606000805b6009805490508110156109155760006009828154811061068f577f4e487b7100000000000000000000000000000000000000000000000000000000600052603260045260246000fd5b90600052602060002090600502016040518060a0016040529081600082015481526020016001820160009054906101000a900473ffffffffffffffffffffffffffffffffffffffff1673ffffffffffffffffffffffffffffffffffffffff1673ffffffffffffffffffffffffffffffffffffffff1681526020016002820160009054906101000a900473ffffffffffffffffffffffffffffffffffffffff1673ffffffffffffffffffffffffffffffffffffffff1673ffffffffffffffffffffffffffffffffffffffff168152602001600382015481526020016004820160009054906101000a900460ff1660038111156107b3577f4e487b7100000000000000000000000000000000000000000000000000000000600052602160045260246000fd5b60038111156107eb577f4e487b7100000000000000000000000000000000000000000000000000000000600052602160045260246000fd5b8152505090506002600381111561082b577f4e487b7100000000000000000000000000000000000000000000000000000000600052602160045260246000fd5b81608001516003811115610868577f4e487b7100000000000000000000000000000000000000000000000000000000600052602160045260246000fd5b14806108e757506003808111156108a8577f4e487b7100000000000000000000000000000000000000000000000000000000600052602160045260246000fd5b816080015160038111156108e5577f4e487b7100000000000000000000000000000000000000000000000000000000600052602160045260246000fd5b145b156108f25750610902565b82806108fd906136d2565b935050505b808061090d906136d2565b915050610646565b508067ffffffffffffffff811115610956577f4e487b7100000000000000000000000000000000000000000000000000000000600052604160045260246000fd5b6040519080825280602002602001820160405280156109845781602001602082028036833780820191505090505b50915060005b81811015610c90576000600982815481106109ce577f4e487b7100000000000000000000000000000000000000000000000000000000600052603260045260246000fd5b90600052602060002090600502016040518060a0016040529081600082015481526020016001820160009054906101000a900473ffffffffffffffffffffffffffffffffffffffff1673ffffffffffffffffffffffffffffffffffffffff1673ffffffffffffffffffffffffffffffffffffffff1681526020016002820160009054906101000a900473ffffffffffffffffffffffffffffffffffffffff1673ffffffffffffffffffffffffffffffffffffffff1673ffffffffffffffffffffffffffffffffffffffff168152602001600382015481526020016004820160009054906101000a900460ff166003811115610af2577f4e487b7100000000000000000000000000000000000000000000000000000000600052602160045260246000fd5b6003811115610b2a577f4e487b7100000000000000000000000000000000000000000000000000000000600052602160045260246000fd5b81525050905060026003811115610b6a577f4e487b7100000000000000000000000000000000000000000000000000000000600052602160045260246000fd5b81608001516003811115610ba7577f4e487b7100000000000000000000000000000000000000000000000000000000600052602160045260246000fd5b1480610c265750600380811115610be7577f4e487b7100000000000000000000000000000000000000000000000000000000600052602160045260246000fd5b81608001516003811115610c24577f4e487b7100000000000000000000000000000000000000000000000000000000600052602160045260246000fd5b145b15610c315750610c7d565b8060000151848381518110610c6f577f4e487b7100000000000000000000000000000000000000000000000000000000600052603260045260246000fd5b602002602001018181525050505b8080610c88906136d2565b91505061098a565b505090565b60038181548110610ca557600080fd5b906000526020600020016000915054906101000a900473ffffffffffffffffffffffffffffffffffffffff1681565b6000806009805490509050600033905083600860003373ffffffffffffffffffffffffffffffffffffffff1673ffffffffffffffffffffffffffffffffffffffff168152602001908152602001600020541015610d66576040517f08c379a0000000000000000000000000000000000000000000000000000000008152600401610d5d9061334c565b60405180910390fd5b60006040518060a001604052808481526020018773ffffffffffffffffffffffffffffffffffffffff1681526020018373ffffffffffffffffffffffffffffffffffffffff16815260200186815260200160006003811115610df1577f4e487b7100000000000000000000000000000000000000000000000000000000600052602160045260246000fd5b815250905060098190806001815401808255809150506001900390600052602060002090600502016000909190919091506000820151816000015560208201518160010160006101000a81548173ffffffffffffffffffffffffffffffffffffffff021916908373ffffffffffffffffffffffffffffffffffffffff16021790555060408201518160020160006101000a81548173ffffffffffffffffffffffffffffffffffffffff021916908373ffffffffffffffffffffffffffffffffffffffff1602179055506060820151816003015560808201518160040160006101000a81548160ff02191690836003811115610f15577f4e487b7100000000000000000000000000000000000000000000000000000000600052602160045260246000fd5b0217905550505084600860003373ffffffffffffffffffffffffffffffffffffffff1673ffffffffffffffffffffffffffffffffffffffff1681526020019081526020016000206000828254610f6b919061361f565b92505081905550827ffff5a2b874635399872c2a4ff63c24e7b8be58cdff5a8b99a063fdd7742e658a42604051610fa291906134cc565b60405180910390a28573ffffffffffffffffffffffffffffffffffffffff163373ffffffffffffffffffffffffffffffffffffffff16847f6767eff78758102f1c9b5e9f15e8267f0e0f37d559922ede7506098351d6f84b8860405161100891906134cc565b60405180910390a46001935050509250929050565b60026020528060005260406000206000915054906101000a900460ff1681565b6000806009838154811061107a577f4e487b7100000000000000000000000000000000000000000000000000000000600052603260045260246000fd5b90600052602060002090600502016040518060a0016040529081600082015481526020016001820160009054906101000a900473ffffffffffffffffffffffffffffffffffffffff1673ffffffffffffffffffffffffffffffffffffffff1673ffffffffffffffffffffffffffffffffffffffff1681526020016002820160009054906101000a900473ffffffffffffffffffffffffffffffffffffffff1673ffffffffffffffffffffffffffffffffffffffff1673ffffffffffffffffffffffffffffffffffffffff168152602001600382015481526020016004820160009054906101000a900460ff16600381111561119e577f4e487b7100000000000000000000000000000000000000000000000000000000600052602160045260246000fd5b60038111156111d6577f4e487b7100000000000000000000000000000000000000000000000000000000600052602160045260246000fd5b815250509050600081608001519050600260003373ffffffffffffffffffffffffffffffffffffffff1673ffffffffffffffffffffffffffffffffffffffff16815260200190815260200160002060009054906101000a900460ff16611271576040517f08c379a00000000000000000000000000000000000000000000000000000000081526004016112689061330c565b60405180910390fd5b600260038111156112ab577f4e487b7100000000000000000000000000000000000000000000000000000000600052602160045260246000fd5b8160038111156112e4577f4e487b7100000000000000000000000000000000000000000000000000000000600052602160045260246000fd5b1415611325576040517f08c379a000000000000000000000000000000000000000000000000000000000815260040161131c9061346c565b60405180910390fd5b60038081111561135e577f4e487b7100000000000000000000000000000000000000000000000000000000600052602160045260246000fd5b816003811115611397577f4e487b7100000000000000000000000000000000000000000000000000000000600052602160045260246000fd5b14156113d8576040517f08c379a00000000000000000000000000000000000000000000000000000000081526004016113cf906133ec565b60405180910390fd5b600160003373ffffffffffffffffffffffffffffffffffffffff1673ffffffffffffffffffffffffffffffffffffffff168152602001908152602001600020600085815260200190815260200160002060009054906101000a900460ff1615611476576040517f08c379a000000000000000000000000000000000000000000000000000000000815260040161146d906133cc565b60405180910390fd5b600060038111156114b0577f4e487b7100000000000000000000000000000000000000000000000000000000600052602160045260246000fd5b8160038111156114e9577f4e487b7100000000000000000000000000000000000000000000000000000000600052602160045260246000fd5b141561158a5760016009858154811061152b577f4e487b7100000000000000000000000000000000000000000000000000000000600052603260045260246000fd5b906000526020600020906005020160040160006101000a81548160ff02191690836003811115611584577f4e487b7100000000000000000000000000000000000000000000000000000000600052602160045260246000fd5b02179055505b60018060003373ffffffffffffffffffffffffffffffffffffffff1673ffffffffffffffffffffffffffffffffffffffff168152602001908152602001600020600086815260200190815260200160002060006101000a81548160ff021916908315150217905550837f24f468a2eaafe5cf853bc1dc9b780dd65674b1e57537ed16b1ceb3b0a7bd713b334260405161162492919061327d565b60405180910390a2611639826000015161285c565b15611647576001925061164c565b600092505b5050919050565b60006009828154811061168f577f4e487b7100000000000000000000000000000000000000000000000000000000600052603260045260246000fd5b90600052602060002090600502016040518060a0016040529081600082015481526020016001820160009054906101000a900473ffffffffffffffffffffffffffffffffffffffff1673ffffffffffffffffffffffffffffffffffffffff1673ffffffffffffffffffffffffffffffffffffffff1681526020016002820160009054906101000a900473ffffffffffffffffffffffffffffffffffffffff1673ffffffffffffffffffffffffffffffffffffffff1673ffffffffffffffffffffffffffffffffffffffff168152602001600382015481526020016004820160009054906101000a900460ff1660038111156117b3577f4e487b7100000000000000000000000000000000000000000000000000000000600052602160045260246000fd5b60038111156117eb577f4e487b7100000000000000000000000000000000000000000000000000000000600052602160045260246000fd5b8152505090506002600381111561182b577f4e487b7100000000000000000000000000000000000000000000000000000000600052602160045260246000fd5b81608001516003811115611868577f4e487b7100000000000000000000000000000000000000000000000000000000600052602160045260246000fd5b14156118a9576040517f08c379a00000000000000000000000000000000000000000000000000000000081526004016118a0906134ac565b60405180910390fd5b3373ffffffffffffffffffffffffffffffffffffffff16816040015173ffffffffffffffffffffffffffffffffffffffff1614806119305750600260003373ffffffffffffffffffffffffffffffffffffffff1673ffffffffffffffffffffffffffffffffffffffff16815260200190815260200160002060009054906101000a900460ff165b61196f576040517f08c379a00000000000000000000000000000000000000000000000000000000081526004016119669061336c565b60405180910390fd5b6003600983815481106119ab577f4e487b7100000000000000000000000000000000000000000000000000000000600052603260045260246000fd5b906000526020600020906005020160040160006101000a81548160ff02191690836003811115611a04577f4e487b7100000000000000000000000000000000000000000000000000000000600052602160045260246000fd5b0217905550806060015160086000836040015173ffffffffffffffffffffffffffffffffffffffff1673ffffffffffffffffffffffffffffffffffffffff1681526020019081526020016000206000828254611a6091906135c9565b92505081905550817ff29b51556b15ccef9ae2dae672fd2310236afd356ba6b020dfa202086568cdde3342604051611a9992919061327d565b60405180910390a25050565b60086020528060005260406000206000915090505481565b60098181548110611acd57600080fd5b90600052602060002090600502016000915090508060000154908060010160009054906101000a900473ffffffffffffffffffffffffffffffffffffffff16908060020160009054906101000a900473ffffffffffffffffffffffffffffffffffffffff16908060030154908060040160009054906101000a900460ff16905085565b6000611b5a612c9f565b73ffffffffffffffffffffffffffffffffffffffff16611b78611f15565b73ffffffffffffffffffffffffffffffffffffffff1614611bce576040517f08c379a0000000000000000000000000000000000000000000000000000000008152600401611bc59061342c565b60405180910390fd5b60038054905090506003829080600181540180825580915050600190039060005260206000200160009091909190916101000a81548173ffffffffffffffffffffffffffffffffffffffff021916908373ffffffffffffffffffffffffffffffffffffffff1602179055506001600260008473ffffffffffffffffffffffffffffffffffffffff1673ffffffffffffffffffffffffffffffffffffffff16815260200190815260200160002060006101000a81548160ff021916908315150217905550919050565b611c9e612c9f565b73ffffffffffffffffffffffffffffffffffffffff16611cbc611f15565b73ffffffffffffffffffffffffffffffffffffffff1614611d12576040517f08c379a0000000000000000000000000000000000000000000000000000000008152600401611d099061342c565b60405180910390fd5b600073ffffffffffffffffffffffffffffffffffffffff1660008054906101000a900473ffffffffffffffffffffffffffffffffffffffff1673ffffffffffffffffffffffffffffffffffffffff167f8be0079c531659141344cd1fd0a4f28419497f9722a3daafe3b4186f6b6457e060405160405180910390a360008060006101000a81548173ffffffffffffffffffffffffffffffffffffffff021916908373ffffffffffffffffffffffffffffffffffffffff160217905550565b6000611dda612c9f565b73ffffffffffffffffffffffffffffffffffffffff16611df8611f15565b73ffffffffffffffffffffffffffffffffffffffff1614611e4e576040517f08c379a0000000000000000000000000000000000000000000000000000000008152600401611e459061342c565b60405180910390fd5b60045483141580611e6157506005548214155b611ea0576040517f08c379a0000000000000000000000000000000000000000000000000000000008152600401611e979061340c565b60405180910390fd5b60008214158015611eb2575060008314155b8015611ebe5750818311155b611efd576040517f08c379a0000000000000000000000000000000000000000000000000000000008152600401611ef49061338c565b60405180910390fd5b82600481905550816005819055506001905092915050565b60008060009054906101000a900473ffffffffffffffffffffffffffffffffffffffff16905090565b611f46612c9f565b73ffffffffffffffffffffffffffffffffffffffff16611f64611f15565b73ffffffffffffffffffffffffffffffffffffffff1614611fba576040517f08c379a0000000000000000000000000000000000000000000000000000000008152600401611fb19061342c565b60405180910390fd5b600060038281548110611ff6577f4e487b7100000000000000000000000000000000000000000000000000000000600052603260045260246000fd5b9060005260206000200160009054906101000a900473ffffffffffffffffffffffffffffffffffffffff16905061202b611f15565b73ffffffffffffffffffffffffffffffffffffffff168173ffffffffffffffffffffffffffffffffffffffff161415612099576040517f08c379a00000000000000000000000000000000000000000000000000000000081526004016120909061344c565b60405180910390fd5b600060026000600385815481106120d9577f4e487b7100000000000000000000000000000000000000000000000000000000600052603260045260246000fd5b9060005260206000200160009054906101000a900473ffffffffffffffffffffffffffffffffffffffff1673ffffffffffffffffffffffffffffffffffffffff1673ffffffffffffffffffffffffffffffffffffffff16815260200190815260200160002060006101000a81548160ff02191690831515021790555060005b6003805490508110156124bb578173ffffffffffffffffffffffffffffffffffffffff16600382815481106121b6577f4e487b7100000000000000000000000000000000000000000000000000000000600052603260045260246000fd5b9060005260206000200160009054906101000a900473ffffffffffffffffffffffffffffffffffffffff1673ffffffffffffffffffffffffffffffffffffffff1614612201576124a8565b6001600380549050612213919061361f565b811415612325578173ffffffffffffffffffffffffffffffffffffffff166003828154811061226b577f4e487b7100000000000000000000000000000000000000000000000000000000600052603260045260246000fd5b9060005260206000200160009054906101000a900473ffffffffffffffffffffffffffffffffffffffff1673ffffffffffffffffffffffffffffffffffffffff1614156123205760038054806122ea577f4e487b7100000000000000000000000000000000000000000000000000000000600052603160045260246000fd5b6001900381819060005260206000200160006101000a81549073ffffffffffffffffffffffffffffffffffffffff021916905590555b6124bb565b600360018261233491906135c9565b8154811061236b577f4e487b7100000000000000000000000000000000000000000000000000000000600052603260045260246000fd5b9060005260206000200160009054906101000a900473ffffffffffffffffffffffffffffffffffffffff16600382815481106123d0577f4e487b7100000000000000000000000000000000000000000000000000000000600052603260045260246000fd5b9060005260206000200160006101000a81548173ffffffffffffffffffffffffffffffffffffffff021916908373ffffffffffffffffffffffffffffffffffffffff16021790555081600360018361242891906135c9565b8154811061245f577f4e487b7100000000000000000000000000000000000000000000000000000000600052603260045260246000fd5b9060005260206000200160006101000a81548173ffffffffffffffffffffffffffffffffffffffff021916908373ffffffffffffffffffffffffffffffffffffffff1602179055505b80806124b3906136d2565b915050612158565b505050565b60016020528160005260406000206020528060005260406000206000915091509054906101000a900460ff1681565b6124f7612c9f565b73ffffffffffffffffffffffffffffffffffffffff16612515611f15565b73ffffffffffffffffffffffffffffffffffffffff161461256b576040517f08c379a00000000000000000000000000000000000000000000000000000000081526004016125629061342c565b60405180910390fd5b600073ffffffffffffffffffffffffffffffffffffffff168173ffffffffffffffffffffffffffffffffffffffff1614156125db576040517f08c379a00000000000000000000000000000000000000000000000000000000081526004016125d29061332c565b60405180910390fd5b8073ffffffffffffffffffffffffffffffffffffffff1660008054906101000a900473ffffffffffffffffffffffffffffffffffffffff1673ffffffffffffffffffffffffffffffffffffffff167f8be0079c531659141344cd1fd0a4f28419497f9722a3daafe3b4186f6b6457e060405160405180910390a3806000806101000a81548173ffffffffffffffffffffffffffffffffffffffff021916908373ffffffffffffffffffffffffffffffffffffffff16021790555050565b60003414156126dc576040517f08c379a00000000000000000000000000000000000000000000000000000000081526004016126d39061348c565b60405180910390fd5b34600760003373ffffffffffffffffffffffffffffffffffffffff1673ffffffffffffffffffffffffffffffffffffffff168152602001908152602001600020600082825461272b91906135c9565b9250508190555034600860003373ffffffffffffffffffffffffffffffffffffffff1673ffffffffffffffffffffffffffffffffffffffff168152602001908152602001600020600082825461278191906135c9565b925050819055503373ffffffffffffffffffffffffffffffffffffffff167fe6842e3c66982eec53fbf127ab93e36198f7d048a044b2761abd0e131b3f84a434600760003373ffffffffffffffffffffffffffffffffffffffff1673ffffffffffffffffffffffffffffffffffffffff16815260200190815260200160002054600860003373ffffffffffffffffffffffffffffffffffffffff1673ffffffffffffffffffffffffffffffffffffffff1681526020019081526020016000205442604051612852949392919061353a565b60405180910390a2565b6000806000905060006009848154811061289f577f4e487b7100000000000000000000000000000000000000000000000000000000600052603260045260246000fd5b90600052602060002090600502016040518060a0016040529081600082015481526020016001820160009054906101000a900473ffffffffffffffffffffffffffffffffffffffff1673ffffffffffffffffffffffffffffffffffffffff1673ffffffffffffffffffffffffffffffffffffffff1681526020016002820160009054906101000a900473ffffffffffffffffffffffffffffffffffffffff1673ffffffffffffffffffffffffffffffffffffffff1673ffffffffffffffffffffffffffffffffffffffff168152602001600382015481526020016004820160009054906101000a900460ff1660038111156129c3577f4e487b7100000000000000000000000000000000000000000000000000000000600052602160045260246000fd5b60038111156129fb577f4e487b7100000000000000000000000000000000000000000000000000000000600052602160045260246000fd5b81525050905060005b600380549050811015612aff576001600060038381548110612a4f577f4e487b7100000000000000000000000000000000000000000000000000000000600052603260045260246000fd5b9060005260206000200160009054906101000a900473ffffffffffffffffffffffffffffffffffffffff1673ffffffffffffffffffffffffffffffffffffffff1673ffffffffffffffffffffffffffffffffffffffff168152602001908152602001600020600086815260200190815260200160002060009054906101000a900460ff16612add5782612aeb565b8280612ae8906136d2565b93505b508080612af7906136d2565b915050612a04565b506006548210612c9357600260098581548110612b45577f4e487b7100000000000000000000000000000000000000000000000000000000600052603260045260246000fd5b906000526020600020906005020160040160006101000a81548160ff02191690836003811115612b9e577f4e487b7100000000000000000000000000000000000000000000000000000000600052602160045260246000fd5b0217905550806060015160076000836040015173ffffffffffffffffffffffffffffffffffffffff1673ffffffffffffffffffffffffffffffffffffffff1681526020019081526020016000206000828254612bfa919061361f565b92505081905550806020015173ffffffffffffffffffffffffffffffffffffffff166108fc82606001519081150290604051600060405180830381858888f19350505050158015612c4f573d6000803e3d6000fd5b50837fd6a7c76a45e03d9556990632f59530fb53e0f887a2a219d138d8a9a80cf7d3a942604051612c8091906134cc565b60405180910390a2600192505050612c9a565b6000925050505b919050565b600033905090565b600081359050612cb68161378d565b92915050565b600081359050612ccb816137a4565b92915050565b600081359050612ce0816137bb565b92915050565b600060208284031215612cf857600080fd5b6000612d0684828501612ca7565b91505092915050565b60008060408385031215612d2257600080fd5b6000612d3085828601612cbc565b9250506020612d4185828601612cd1565b9150509250929050565b60008060408385031215612d5e57600080fd5b6000612d6c85828601612ca7565b9250506020612d7d85828601612cd1565b9150509250929050565b600060208284031215612d9957600080fd5b6000612da784828501612cd1565b91505092915050565b60008060408385031215612dc357600080fd5b6000612dd185828601612cd1565b9250506020612de285828601612cd1565b9150509250929050565b6000612df88383613244565b60208301905092915050565b612e0d81613665565b82525050565b612e1c81613653565b82525050565b6000612e2d8261358f565b612e3781856135a7565b9350612e428361357f565b8060005b83811015612e73578151612e5a8882612dec565b9750612e658361359a565b925050600181019050612e46565b5085935050505092915050565b612e8981613677565b82525050565b612e98816136c0565b82525050565b6000612eab600c836135b8565b91507f556e617574686f72697a656400000000000000000000000000000000000000006000830152602082019050919050565b6000612eeb6026836135b8565b91507f4f776e61626c653a206e6577206f776e657220697320746865207a65726f206160008301527f64647265737300000000000000000000000000000000000000000000000000006020830152604082019050919050565b6000612f516014836135b8565b91507f496e73756666696369656e742062616c616e63650000000000000000000000006000830152602082019050919050565b6000612f916011836135b8565b91507f4f6e6c792073656e6465722f41646d696e0000000000000000000000000000006000830152602082019050919050565b6000612fd16010836135b8565b91507f496d706f737369626c6520726174696f000000000000000000000000000000006000830152602082019050919050565b60006130116017836135b8565b91507f46756e6374696f6e20646f6573206e6f742065786973740000000000000000006000830152602082019050919050565b6000613051600e836135b8565b91507f41646d696e20617070726f7665640000000000000000000000000000000000006000830152602082019050919050565b60006130916015836135b8565b91507f5472616e73616374696f6e2063616e63656c6c656400000000000000000000006000830152602082019050919050565b60006130d16010836135b8565b91507f4e6f7468696e67206d6f646966696564000000000000000000000000000000006000830152602082019050919050565b60006131116020836135b8565b91507f4f776e61626c653a2063616c6c6572206973206e6f7420746865206f776e65726000830152602082019050919050565b60006131516012836135b8565b91507f43616e27742072656d6f7665206f776e657200000000000000000000000000006000830152602082019050919050565b60006131916014836135b8565b91507f5472616e73616374696f6e20617070726f7665640000000000000000000000006000830152602082019050919050565b60006131d1600b836135b8565b91507f416d6f756e74207a65726f0000000000000000000000000000000000000000006000830152602082019050919050565b6000613211600c836135b8565b91507f54786e20617070726f76656400000000000000000000000000000000000000006000830152602082019050919050565b61324d816136b6565b82525050565b61325c816136b6565b82525050565b60006020820190506132776000830184612e13565b92915050565b60006040820190506132926000830185612e13565b61329f6020830184613253565b9392505050565b600060208201905081810360008301526132c08184612e22565b905092915050565b60006020820190506132dd6000830184612e80565b92915050565b60006040820190506132f86000830185612e80565b6133056020830184613253565b9392505050565b6000602082019050818103600083015261332581612e9e565b9050919050565b6000602082019050818103600083015261334581612ede565b9050919050565b6000602082019050818103600083015261336581612f44565b9050919050565b6000602082019050818103600083015261338581612f84565b9050919050565b600060208201905081810360008301526133a581612fc4565b9050919050565b600060208201905081810360008301526133c581613004565b9050919050565b600060208201905081810360008301526133e581613044565b9050919050565b6000602082019050818103600083015261340581613084565b9050919050565b60006020820190508181036000830152613425816130c4565b9050919050565b6000602082019050818103600083015261344581613104565b9050919050565b6000602082019050818103600083015261346581613144565b9050919050565b6000602082019050818103600083015261348581613184565b9050919050565b600060208201905081810360008301526134a5816131c4565b9050919050565b600060208201905081810360008301526134c581613204565b9050919050565b60006020820190506134e16000830184613253565b92915050565b600060a0820190506134fc6000830188613253565b6135096020830187612e04565b6135166040830186612e13565b6135236060830185613253565b6135306080830184612e8f565b9695505050505050565b600060808201905061354f6000830187613253565b61355c6020830186613253565b6135696040830185613253565b6135766060830184613253565b95945050505050565b6000819050602082019050919050565b600081519050919050565b6000602082019050919050565b600082825260208201905092915050565b600082825260208201905092915050565b60006135d4826136b6565b91506135df836136b6565b9250827fffffffffffffffffffffffffffffffffffffffffffffffffffffffffffffffff038211156136145761361361371b565b5b828201905092915050565b600061362a826136b6565b9150613635836136b6565b9250828210156136485761364761371b565b5b828203905092915050565b600061365e82613696565b9050919050565b600061367082613696565b9050919050565b60008115159050919050565b600081905061369182613779565b919050565b600073ffffffffffffffffffffffffffffffffffffffff82169050919050565b6000819050919050565b60006136cb82613683565b9050919050565b60006136dd826136b6565b91507fffffffffffffffffffffffffffffffffffffffffffffffffffffffffffffffff8214156137105761370f61371b565b5b600182019050919050565b7f4e487b7100000000000000000000000000000000000000000000000000000000600052601160045260246000fd5b7f4e487b7100000000000000000000000000000000000000000000000000000000600052602160045260246000fd5b6004811061378a5761378961374a565b5b50565b61379681613653565b81146137a157600080fd5b50565b6137ad81613665565b81146137b857600080fd5b50565b6137c4816136b6565b81146137cf57600080fd5b5056fea26469706673582212201bab724ad63d70fa7ede5aa8efac80f592e9c51a6846905e6b74c48b49c2aa0f64736f6c63430008000033",
  "immutableReferences": {},
  "source": "/*\r\nThis is a simple multi-signature smart contract for managing ETH balances.\r\n- Multiple user accounts are managed under this contract.\r\n- Users can deposit ETH, submit transactions, and cancel transactions\r\n- Admins must reach a 2/3 majority to approve a transaction\r\n*/\r\n// SPDX-License-Identifier: MIT\r\npragma solidity ^0.8.0;\r\n\r\nimport \"./WalletAdmins.sol\";\r\n\r\ncontract MultiWalletETH is WalletAdmins {\r\n  \r\n  /**\r\n   * @notice Withdrawal request struct\r\n   *\r\n   * @param txID ID number of withdrawal\r\n   * @param recipient Recipient's address\r\n   * @param sender Sender requesting withdrawal\r\n   * @param amount Amount of ETH to send\r\n   * @param approvalStatus Approval status: Submitted, Pending, Approved, Cancelled\r\n   */\r\n  struct txnRequest {\r\n    uint txID;\r\n    address payable recipient;\r\n    address sender;\r\n    uint amount;\r\n    APPROVE approvalStatus;\r\n  }\r\n\r\n  // Approval status enum\r\n  enum APPROVE { SUBMITTED, PENDING, APPROVED, CANCELLED }\r\n\r\n  // Maps user's address to total ETH balance\r\n   // Updated when ETH is deposited or withdrawn\r\n  mapping(address => uint) public userBalance;\r\n  // Maps user's address to their pending balance\r\n   // Updated when transaction is submitted or cancelled\r\n  mapping(address => uint) public pendingBalance;\r\n\r\n  // History of all withdrawal requests:\r\n  txnRequest[] public txnHistory;\r\n\r\n  // EVENTS \\\\\r\n  // Fire when user submits new transaction\r\n  event TransactionSubmitted(uint indexed txID, uint timestamp);\r\n  event TransactionDetails(\r\n    uint indexed txID, \r\n    address indexed sender, \r\n    address indexed receiver, \r\n    uint amount\r\n  );\r\n  // Fires when transaction is approved\r\n  event TransactionApproved(uint indexed txID, uint timestamp);\r\n  // Fires when transaction is cancelled by user or Admin\r\n  event TransactionCancelled(uint indexed txID, address caller, uint timestamp);\r\n  // Fires when Admin approves transaction\r\n  event AdminApproved(uint indexed txID, address admin, uint timestamp);\r\n  // Fires when user deposits ether\r\n  event ETHDeposited(\r\n    address indexed user, \r\n    uint amount, \r\n    uint currentBalance, \r\n    uint pendingBalance, \r\n    uint timestamp\r\n  );\r\n\r\n  constructor(\r\n    address[] memory _admins, \r\n    uint _numerator, \r\n    uint _denominator\r\n  ) WalletAdmins(_admins, _numerator, _denominator) {\r\n    super;\r\n  }\r\n\r\n  // Submits a transaction request\r\n  /**\r\n   * @notice Submits a user's transaction request\r\n   *\r\n   * @param _recipient Transaction recipient\r\n   * @param _amount Amount of wei being sent\r\n   */\r\n  function submitTransaction(address payable _recipient, uint _amount) external returns (bool success, uint txID) {\r\n    // Declare local variables\r\n    txID = txnHistory.length;\r\n    address _sender = msg.sender;\r\n\r\n    // Check pending balance\r\n    require (pendingBalance[msg.sender] >= _amount, \"Insufficient balance\");\r\n\r\n\r\n    // Create new transaction request\r\n    txnRequest memory pendingRequest =\r\n    txnRequest(\r\n              txID,\r\n              _recipient,\r\n              _sender,\r\n              _amount,\r\n              APPROVE.SUBMITTED);\r\n\r\n    // Add transaction request to transaction history\r\n    txnHistory.push(pendingRequest);\r\n\r\n    // Adjust user's pending balance\r\n     // Note User's current balance is updated when ETH is deposited or transaction is approved\r\n    pendingBalance[msg.sender] -= _amount;\r\n\r\n    // Emit events, return success bool\r\n    emit TransactionSubmitted(txID, block.timestamp);\r\n    emit TransactionDetails(txID, msg.sender, _recipient, _amount);\r\n    success = true;\r\n  }\r\n\r\n  // Confirm transaction, only Admins may call\r\n  function confirmTransfer(uint _txID) external returns (bool txnApproved) {\r\n    // Declare local variables\r\n    txnRequest memory approvedTxn = txnHistory[_txID];\r\n    APPROVE status = approvedTxn.approvalStatus;\r\n    \r\n    // Check msg.sender has Admin status\r\n    require(isAdmin[msg.sender], \"Unauthorized\");\r\n    // Check transaction hasn't been approved already\r\n    require(status != APPROVE.APPROVED, \"Transaction approved\");\r\n    // Check transaction hasn't been cancelled\r\n    require(status != APPROVE.CANCELLED, \"Transaction cancelled\");\r\n    // Check Admin has not already approved transaction\r\n    require(!adminApproved[msg.sender][_txID], \"Admin approved\");\r\n\r\n\r\n    // If txnRequest was Submitted, then set to Pending    \r\n    if(status == APPROVE.SUBMITTED) {\r\n        txnHistory[_txID].approvalStatus = APPROVE.PENDING;\r\n      }\r\n    \r\n    // Update Admin's transaction approval\r\n    adminApproved[msg.sender][_txID] = true;\r\n    // Emit event alert for Admin's approval\r\n    emit AdminApproved(_txID, msg.sender, block.timestamp);\r\n    \r\n    // Run multi-sig check algorithm, return true if transaction is approved, false if not\r\n    if(_txnApproved(approvedTxn.txID)) txnApproved = true;\r\n    else txnApproved = false;\r\n  }\r\n\r\n  // Tallies up Admin approvals for transaction, performs transaction if multi-sig requirement is met\r\n  function _txnApproved(uint _txID) private returns (bool) {\r\n    // 0. Initialize local variables\r\n    uint numApproved = 0;\r\n    txnRequest memory transaction = txnHistory[_txID];\r\n\r\n    // 1. Iterate through admins array and tally up approvals\r\n    for (uint i = 0; i < admins.length; i++) {\r\n      // Tertiary operator: If Admin approved then increment counter, if not then leave alone\r\n      adminApproved[admins[i]][_txID] ?\r\n        numApproved++ :\r\n        numApproved;\r\n    }\r\n\r\n    // 2. If approvals meet or exceed multi-sig requirement, then process transaction and return true flag\r\n    if (numApproved >= adminsRequired) {\r\n\r\n      //*** EFFECTS ***\\\\      \r\n      // Update transaction's approval status to Approved\r\n      txnHistory[_txID].approvalStatus = APPROVE.APPROVED;\r\n      // Update user's current balance\r\n       // Note User's pendingBalance is updated during submission and cancellation\r\n      userBalance[transaction.sender] -= transaction.amount;\r\n\r\n      //*** INTERACTIONS ***\\\\\r\n      // Transfer ETH to recipient\r\n      transaction.recipient.transfer(transaction.amount);\r\n\r\n      // Emit approval event\r\n      emit TransactionApproved(_txID, block.timestamp);\r\n      // Return true flag\r\n      return true;\r\n\r\n    }\r\n\r\n    // 3. If approvals did not meet multi-sig requirement, then return false flag\r\n    return false;\r\n  }\r\n\r\n  // Cancel transaction, only user who submitted transaction or Admins may cancel\r\n  function cancelTransaction(uint _txID) external {\r\n    // Declare local variables\r\n    txnRequest memory transaction = txnHistory[_txID];\r\n\r\n    // Check transaction has not been approved\r\n    require(transaction.approvalStatus != APPROVE.APPROVED, \"Txn approved\");\r\n    // Check caller is transaction's sender or Admin\r\n    require (\r\n      transaction.sender == msg.sender || \r\n      isAdmin[msg.sender],\r\n      \"Only sender/Admin\"\r\n    );\r\n\r\n    // Update transaction approval status to Cancelled\r\n    txnHistory[_txID].approvalStatus = APPROVE.CANCELLED;\r\n    // Update user's pending balance\r\n     // Note User's current balance is updated when ETH is deposited or transaction is approved\r\n    pendingBalance[transaction.sender] += transaction.amount;\r\n\r\n    // Emit cancellation alert\r\n    emit TransactionCancelled(_txID, msg.sender, block.timestamp);\r\n  }\r\n\r\n  // Deposits ETH\r\n  function depositETH() external payable {\r\n    // Check amount is not zero\r\n    require(msg.value != 0, \"Amount zero\");\r\n\r\n    // Update user's balances\r\n    userBalance[msg.sender] += msg.value;\r\n    pendingBalance[msg.sender] += msg.value;\r\n\r\n    // Emit alert for new deposit\r\n    emit ETHDeposited(\r\n      msg.sender, \r\n      msg.value, \r\n      userBalance[msg.sender], \r\n      pendingBalance[msg.sender], \r\n      block.timestamp\r\n    );\r\n  }\r\n\r\n  // Runs same logic as depositETH, minus the requirement for a non-zero deposit\r\n  receive() external payable {\r\n    // Update user's balances\r\n    userBalance[msg.sender] += msg.value;\r\n    pendingBalance[msg.sender] += msg.value;\r\n    \r\n    // Emit alert for new deposit\r\n    emit ETHDeposited(\r\n      msg.sender, \r\n      msg.value, \r\n      userBalance[msg.sender], \r\n      pendingBalance[msg.sender], \r\n      block.timestamp\r\n    );\r\n  }\r\n\r\n  // Returns an error alerting user that function does not exist\r\n  fallback() external {\r\n    revert(\"Function does not exist\");\r\n  }\r\n\r\n  // Returns pending transaction IDs\r\n  function getPending() public view returns (uint[] memory pendingTxnIDs) {\r\n    // 0. Initialize arrayLength variable\r\n    uint arrayLength = 0;\r\n\r\n    // 1. Tally number of pending transactions to find arrayLength\r\n    for (uint i = 0; i < txnHistory.length; i++) {\r\n      // Store transaction in local memory\r\n      txnRequest memory transaction = txnHistory[i];\r\n\r\n        // If transaction was Approved or Cancelled, then skip to next transaction\r\n        if (\r\n          transaction.approvalStatus == APPROVE.APPROVED ||\r\n          transaction.approvalStatus == APPROVE.CANCELLED\r\n          ) {\r\n            continue;\r\n        }\r\n        // If transaction was not skipped, then increment arrayLength\r\n        arrayLength++;\r\n    }\r\n\r\n    // 2. Create, populate, and return a static array of pending transaction IDs\r\n    // 2a. Define size of pendingTxnIDs using arrayLength found in step 1\r\n    pendingTxnIDs = new uint[](arrayLength);\r\n\r\n    // 2b. Populate each pendingTxnIDs array element\r\n    for (uint i = 0; i < arrayLength; i++) {\r\n      // Store transaction in local memory\r\n      txnRequest memory transaction = txnHistory[i];\r\n\r\n      // If transaction was Approved or Cancelled, then skip to next transaction\r\n      if (\r\n        transaction.approvalStatus == APPROVE.APPROVED ||\r\n        transaction.approvalStatus == APPROVE.CANCELLED\r\n        ) {\r\n          continue;\r\n      }\r\n\r\n      // Add transaction ID to pendingTxnIDs\r\n      pendingTxnIDs[i] = transaction.txID;      \r\n    }\r\n\r\n    // 3. Return array of txnIDs\r\n    return pendingTxnIDs;\r\n  }\r\n\r\n}\r\n",
  "sourcePath": "D:/Documents/Solidity/multisigcontracts/contracts/MultiWalletETH.sol",
  "compiler": {
    "name": "solc",
    "version": "0.8.0+commit.c7dfd78e.Emscripten.clang"
  },
  "schemaVersion": "3.4.1",
  "updatedAt": "2022-06-28T21:31:35.780Z",
  "devdoc": {
    "kind": "dev",
    "methods": {
      "owner()": {
        "details": "Returns the address of the current owner."
      },
      "renounceOwnership()": {
        "details": "Leaves the contract without owner. It will not be possible to call `onlyOwner` functions anymore. Can only be called by the current owner. NOTE: Renouncing ownership will leave the contract without an owner, thereby removing any functionality that is only available to the owner."
      },
      "submitTransaction(address,uint256)": {
        "params": {
          "_amount": "Amount of wei being sent",
          "_recipient": "Transaction recipient"
        }
      },
      "transferOwnership(address)": {
        "details": "Transfers ownership of the contract to a new account (`newOwner`). Can only be called by the current owner."
      }
    },
    "version": 1
  },
  "userdoc": {
    "kind": "user",
    "methods": {
      "submitTransaction(address,uint256)": {
        "notice": "Submits a user's transaction request"
      }
    },
    "version": 1
  }
}