{
  "contractName": "MultiSigFunction",
  "abi": [
    {
      "inputs": [
        {
          "internalType": "address[]",
          "name": "_admins",
          "type": "address[]"
        },
        {
          "internalType": "uint256",
          "name": "_numerator",
          "type": "uint256"
        },
        {
          "internalType": "uint256",
          "name": "_denominator",
          "type": "uint256"
        }
      ],
      "stateMutability": "nonpayable",
      "type": "constructor"
    },
    {
      "anonymous": false,
      "inputs": [
        {
          "indexed": true,
          "internalType": "uint256",
          "name": "requestID",
          "type": "uint256"
        },
        {
          "indexed": false,
          "internalType": "address",
          "name": "admin",
          "type": "address"
        },
        {
          "indexed": false,
          "internalType": "uint256",
          "name": "timestamp",
          "type": "uint256"
        }
      ],
      "name": "AdminApproved",
      "type": "event"
    },
    {
      "anonymous": false,
      "inputs": [
        {
          "indexed": true,
          "internalType": "address",
          "name": "previousOwner",
          "type": "address"
        },
        {
          "indexed": true,
          "internalType": "address",
          "name": "newOwner",
          "type": "address"
        }
      ],
      "name": "OwnershipTransferred",
      "type": "event"
    },
    {
      "anonymous": false,
      "inputs": [
        {
          "indexed": true,
          "internalType": "uint256",
          "name": "requestID",
          "type": "uint256"
        },
        {
          "indexed": false,
          "internalType": "uint256",
          "name": "timestamp",
          "type": "uint256"
        }
      ],
      "name": "RequestApproved",
      "type": "event"
    },
    {
      "anonymous": false,
      "inputs": [
        {
          "indexed": true,
          "internalType": "uint256",
          "name": "requestID",
          "type": "uint256"
        },
        {
          "indexed": false,
          "internalType": "address",
          "name": "caller",
          "type": "address"
        },
        {
          "indexed": false,
          "internalType": "uint256",
          "name": "timestamp",
          "type": "uint256"
        }
      ],
      "name": "RequestCancelled",
      "type": "event"
    },
    {
      "anonymous": false,
      "inputs": [
        {
          "indexed": true,
          "internalType": "uint256",
          "name": "requestID",
          "type": "uint256"
        },
        {
          "indexed": false,
          "internalType": "uint8",
          "name": "funcParamsID",
          "type": "uint8"
        },
        {
          "indexed": false,
          "internalType": "uint256",
          "name": "timestamp",
          "type": "uint256"
        }
      ],
      "name": "RequestSubmitted",
      "type": "event"
    },
    {
      "anonymous": false,
      "inputs": [
        {
          "indexed": true,
          "internalType": "uint256",
          "name": "requestID",
          "type": "uint256"
        },
        {
          "indexed": false,
          "internalType": "address",
          "name": "from",
          "type": "address"
        },
        {
          "indexed": false,
          "internalType": "address",
          "name": "to",
          "type": "address"
        },
        {
          "indexed": false,
          "internalType": "uint256",
          "name": "amount",
          "type": "uint256"
        }
      ],
      "name": "TransferFromParams",
      "type": "event"
    },
    {
      "anonymous": false,
      "inputs": [
        {
          "indexed": true,
          "internalType": "uint256",
          "name": "requestID",
          "type": "uint256"
        },
        {
          "indexed": false,
          "internalType": "address",
          "name": "to",
          "type": "address"
        },
        {
          "indexed": false,
          "internalType": "uint256",
          "name": "amount",
          "type": "uint256"
        }
      ],
      "name": "TransferParams",
      "type": "event"
    },
    {
      "inputs": [
        {
          "internalType": "address",
          "name": "_address",
          "type": "address"
        }
      ],
      "name": "addAdmin",
      "outputs": [
        {
          "internalType": "uint256",
          "name": "adminID",
          "type": "uint256"
        }
      ],
      "stateMutability": "nonpayable",
      "type": "function"
    },
    {
      "inputs": [
        {
          "internalType": "address",
          "name": "",
          "type": "address"
        },
        {
          "internalType": "uint256",
          "name": "",
          "type": "uint256"
        }
      ],
      "name": "adminApproved",
      "outputs": [
        {
          "internalType": "bool",
          "name": "",
          "type": "bool"
        }
      ],
      "stateMutability": "view",
      "type": "function"
    },
    {
      "inputs": [
        {
          "internalType": "uint256",
          "name": "",
          "type": "uint256"
        }
      ],
      "name": "admins",
      "outputs": [
        {
          "internalType": "address",
          "name": "",
          "type": "address"
        }
      ],
      "stateMutability": "view",
      "type": "function"
    },
    {
      "inputs": [
        {
          "internalType": "uint256",
          "name": "",
          "type": "uint256"
        }
      ],
      "name": "functionCallHistory",
      "outputs": [
        {
          "internalType": "uint8",
          "name": "funcID",
          "type": "uint8"
        },
        {
          "internalType": "enum MultiSigFunction.APPROVE",
          "name": "approvalStatus",
          "type": "uint8"
        }
      ],
      "stateMutability": "view",
      "type": "function"
    },
    {
      "inputs": [
        {
          "internalType": "address",
          "name": "",
          "type": "address"
        }
      ],
      "name": "isAdmin",
      "outputs": [
        {
          "internalType": "bool",
          "name": "",
          "type": "bool"
        }
      ],
      "stateMutability": "view",
      "type": "function"
    },
    {
      "inputs": [
        {
          "internalType": "uint256",
          "name": "_numerator",
          "type": "uint256"
        },
        {
          "internalType": "uint256",
          "name": "_denominator",
          "type": "uint256"
        }
      ],
      "name": "modifySignatureRatio",
      "outputs": [
        {
          "internalType": "bool",
          "name": "",
          "type": "bool"
        }
      ],
      "stateMutability": "nonpayable",
      "type": "function"
    },
    {
      "inputs": [],
      "name": "owner",
      "outputs": [
        {
          "internalType": "address",
          "name": "",
          "type": "address"
        }
      ],
      "stateMutability": "view",
      "type": "function"
    },
    {
      "inputs": [
        {
          "internalType": "uint256",
          "name": "_adminID",
          "type": "uint256"
        }
      ],
      "name": "removeAdmin",
      "outputs": [],
      "stateMutability": "nonpayable",
      "type": "function"
    },
    {
      "inputs": [],
      "name": "renounceOwnership",
      "outputs": [],
      "stateMutability": "nonpayable",
      "type": "function"
    },
    {
      "inputs": [
        {
          "internalType": "uint256",
          "name": "",
          "type": "uint256"
        }
      ],
      "name": "transferFromParamsMap",
      "outputs": [
        {
          "internalType": "uint256",
          "name": "amount",
          "type": "uint256"
        },
        {
          "internalType": "address",
          "name": "contractAddress",
          "type": "address"
        },
        {
          "internalType": "address",
          "name": "from",
          "type": "address"
        },
        {
          "internalType": "address",
          "name": "to",
          "type": "address"
        }
      ],
      "stateMutability": "view",
      "type": "function"
    },
    {
      "inputs": [
        {
          "internalType": "address",
          "name": "newOwner",
          "type": "address"
        }
      ],
      "name": "transferOwnership",
      "outputs": [],
      "stateMutability": "nonpayable",
      "type": "function"
    },
    {
      "inputs": [
        {
          "internalType": "uint256",
          "name": "",
          "type": "uint256"
        }
      ],
      "name": "transferParamsMap",
      "outputs": [
        {
          "internalType": "uint256",
          "name": "amount",
          "type": "uint256"
        },
        {
          "internalType": "address",
          "name": "contractAddress",
          "type": "address"
        },
        {
          "internalType": "address",
          "name": "to",
          "type": "address"
        }
      ],
      "stateMutability": "view",
      "type": "function"
    },
    {
      "inputs": [
        {
          "internalType": "address",
          "name": "_contractAddress",
          "type": "address"
        },
        {
          "internalType": "address",
          "name": "_to",
          "type": "address"
        },
        {
          "internalType": "uint256",
          "name": "_amount",
          "type": "uint256"
        }
      ],
      "name": "submitTransferReq",
      "outputs": [
        {
          "internalType": "bool",
          "name": "success",
          "type": "bool"
        },
        {
          "internalType": "uint256",
          "name": "requestID",
          "type": "uint256"
        }
      ],
      "stateMutability": "nonpayable",
      "type": "function"
    },
    {
      "inputs": [
        {
          "internalType": "address",
          "name": "_contractAddress",
          "type": "address"
        },
        {
          "internalType": "address",
          "name": "_from",
          "type": "address"
        },
        {
          "internalType": "address",
          "name": "_to",
          "type": "address"
        },
        {
          "internalType": "uint256",
          "name": "_amount",
          "type": "uint256"
        }
      ],
      "name": "submitTransferFromReq",
      "outputs": [
        {
          "internalType": "bool",
          "name": "success",
          "type": "bool"
        },
        {
          "internalType": "uint256",
          "name": "requestID",
          "type": "uint256"
        }
      ],
      "stateMutability": "nonpayable",
      "type": "function"
    },
    {
      "inputs": [
        {
          "internalType": "uint256",
          "name": "_requestID",
          "type": "uint256"
        }
      ],
      "name": "confirmTransfer",
      "outputs": [
        {
          "internalType": "bool",
          "name": "requestApproved",
          "type": "bool"
        }
      ],
      "stateMutability": "nonpayable",
      "type": "function"
    },
    {
      "inputs": [
        {
          "internalType": "uint256",
          "name": "_requestID",
          "type": "uint256"
        }
      ],
      "name": "cancelRequest",
      "outputs": [
        {
          "internalType": "bool",
          "name": "",
          "type": "bool"
        }
      ],
      "stateMutability": "nonpayable",
      "type": "function"
    },
    {
      "inputs": [],
      "name": "getPendingRequestIDs",
      "outputs": [
        {
          "internalType": "uint256[]",
          "name": "pendingReqIDs",
          "type": "uint256[]"
        }
      ],
      "stateMutability": "view",
      "type": "function"
    }
  ],
  "bytecode": "0x60806040526005546004546003805490506200001c9190620005f2565b620000289190620005ba565b6006553480156200003857600080fd5b50604051620043ab380380620043ab83398181016040528101906200005e919062000473565b8282826000620000736200039b60201b60201c565b9050806000806101000a81548173ffffffffffffffffffffffffffffffffffffffff021916908373ffffffffffffffffffffffffffffffffffffffff1602179055508073ffffffffffffffffffffffffffffffffffffffff16600073ffffffffffffffffffffffffffffffffffffffff167f8be0079c531659141344cd1fd0a4f28419497f9722a3daafe3b4186f6b6457e060405160405180910390a35060008114158015620001235750808211155b62000165576040517f08c379a00000000000000000000000000000000000000000000000000000000081526004016200015c9062000524565b60405180910390fd5b81600481905550806005819055506003339080600181540180825580915050600190039060005260206000200160009091909190916101000a81548173ffffffffffffffffffffffffffffffffffffffff021916908373ffffffffffffffffffffffffffffffffffffffff1602179055506001600260003373ffffffffffffffffffffffffffffffffffffffff1673ffffffffffffffffffffffffffffffffffffffff16815260200190815260200160002060006101000a81548160ff02191690831515021790555060005b83518110156200038e57600384828151811062000277577f4e487b7100000000000000000000000000000000000000000000000000000000600052603260045260246000fd5b60200260200101519080600181540180825580915050600190039060005260206000200160009091909190916101000a81548173ffffffffffffffffffffffffffffffffffffffff021916908373ffffffffffffffffffffffffffffffffffffffff1602179055506001600260008684815181106200031f577f4e487b7100000000000000000000000000000000000000000000000000000000600052603260045260246000fd5b602002602001015173ffffffffffffffffffffffffffffffffffffffff1673ffffffffffffffffffffffffffffffffffffffff16815260200190815260200160002060006101000a81548160ff0219169083151502179055508080620003859062000691565b91505062000231565b50505050505050620007a0565b600033905090565b6000620003ba620003b4846200057a565b62000546565b90508083825260208201905082856020860282011115620003da57600080fd5b60005b858110156200040e5781620003f3888262000418565b845260208401935060208301925050600181019050620003dd565b5050509392505050565b60008151905062000429816200076c565b92915050565b600082601f8301126200044157600080fd5b815162000453848260208601620003a3565b91505092915050565b6000815190506200046d8162000786565b92915050565b6000806000606084860312156200048957600080fd5b600084015167ffffffffffffffff811115620004a457600080fd5b620004b2868287016200042f565b9350506020620004c5868287016200045c565b9250506040620004d8868287016200045c565b9150509250925092565b6000620004f1601083620005a9565b91507f496d706f737369626c6520726174696f000000000000000000000000000000006000830152602082019050919050565b600060208201905081810360008301526200053f81620004e2565b9050919050565b6000604051905081810181811067ffffffffffffffff8211171562000570576200056f6200073d565b5b8060405250919050565b600067ffffffffffffffff8211156200059857620005976200073d565b5b602082029050602081019050919050565b600082825260208201905092915050565b6000620005c78262000687565b9150620005d48362000687565b925082620005e757620005e66200070e565b5b828204905092915050565b6000620005ff8262000687565b91506200060c8362000687565b9250817fffffffffffffffffffffffffffffffffffffffffffffffffffffffffffffffff0483118215151615620006485762000647620006df565b5b828202905092915050565b6000620006608262000667565b9050919050565b600073ffffffffffffffffffffffffffffffffffffffff82169050919050565b6000819050919050565b60006200069e8262000687565b91507fffffffffffffffffffffffffffffffffffffffffffffffffffffffffffffffff821415620006d457620006d3620006df565b5b600182019050919050565b7f4e487b7100000000000000000000000000000000000000000000000000000000600052601160045260246000fd5b7f4e487b7100000000000000000000000000000000000000000000000000000000600052601260045260246000fd5b7f4e487b7100000000000000000000000000000000000000000000000000000000600052604160045260246000fd5b620007778162000653565b81146200078357600080fd5b50565b620007918162000687565b81146200079d57600080fd5b50565b613bfb80620007b06000396000f3fe608060405234801561001057600080fd5b506004361061010b5760003560e01c806386cb4181116100a2578063c32cf65f11610071578063c32cf65f1461030a578063ce8a40a81461033a578063d117a2da1461036b578063d8639e441461039c578063f2fde38b146103ba5761010b565b806386cb41811461026f5780638da5cb5b1461029f578063ad7bbc29146102bd578063ba380b18146102d95761010b565b80633048430a116100de5780633048430a146101d05780635d77151c146102025780637048027514610235578063715018a6146102655761010b565b806314bfd6d01461011057806324d7806c146101405780632c48e7db146101705780633015394c146101a0575b600080fd5b61012a600480360381019061012591906130b5565b6103d6565b6040516101379190613597565b60405180910390f35b61015a60048036038101906101559190612f75565b610415565b604051610167919061365d565b60405180910390f35b61018a600480360381019061018591906130b5565b610435565b604051610197919061365d565b60405180910390f35b6101ba60048036038101906101b591906130b5565b610af1565b6040516101c7919061365d565b60405180910390f35b6101ea60048036038101906101e591906130b5565b610e87565b6040516101f9939291906138ae565b60405180910390f35b61021c600480360381019061021791906130b5565b610ef1565b60405161022c94939291906138e5565b60405180910390f35b61024f600480360381019061024a9190612f75565b610f81565b60405161025c9190613893565b60405180910390f35b61026d6110c7565b005b61028960048036038101906102849190613107565b611201565b604051610296919061365d565b60405180910390f35b6102a7611346565b6040516102b49190613597565b60405180910390f35b6102d760048036038101906102d291906130b5565b61136f565b005b6102f360048036038101906102ee91906130b5565b6118f1565b60405161030192919061392a565b60405180910390f35b610324600480360381019061031f9190613050565b61193b565b604051610331919061365d565b60405180910390f35b610354600480360381019061034f9190612f9e565b61196a565b604051610362929190613678565b60405180910390f35b61038560048036038101906103809190613001565b611e2e565b604051610393929190613678565b60405180910390f35b6103a46121f5565b6040516103b1919061363b565b60405180910390f35b6103d460048036038101906103cf9190612f75565b6126f8565b005b600381815481106103e657600080fd5b906000526020600020016000915054906101000a900473ffffffffffffffffffffffffffffffffffffffff1681565b60026020528060005260406000206000915054906101000a900460ff1681565b6000600260003373ffffffffffffffffffffffffffffffffffffffff1673ffffffffffffffffffffffffffffffffffffffff16815260200190815260200160002060009054906101000a900460ff166104c3576040517f08c379a00000000000000000000000000000000000000000000000000000000081526004016104ba906137d3565b60405180910390fd5b6000600783815481106104ff577f4e487b7100000000000000000000000000000000000000000000000000000000600052603260045260246000fd5b906000526020600020016040518060400160405290816000820160009054906101000a900460ff1660ff1660ff1681526020016000820160019054906101000a900460ff16600381111561057c577f4e487b7100000000000000000000000000000000000000000000000000000000600052602160045260246000fd5b60038111156105b4577f4e487b7100000000000000000000000000000000000000000000000000000000600052602160045260246000fd5b815250509050600081602001519050600260038111156105fd577f4e487b7100000000000000000000000000000000000000000000000000000000600052602160045260246000fd5b816003811115610636577f4e487b7100000000000000000000000000000000000000000000000000000000600052602160045260246000fd5b1415610677576040517f08c379a000000000000000000000000000000000000000000000000000000000815260040161066e906137f3565b60405180910390fd5b6003808111156106b0577f4e487b7100000000000000000000000000000000000000000000000000000000600052602160045260246000fd5b8160038111156106e9577f4e487b7100000000000000000000000000000000000000000000000000000000600052602160045260246000fd5b141561072a576040517f08c379a000000000000000000000000000000000000000000000000000000000815260040161072190613713565b60405180910390fd5b600160003373ffffffffffffffffffffffffffffffffffffffff1673ffffffffffffffffffffffffffffffffffffffff168152602001908152602001600020600085815260200190815260200160002060009054906101000a900460ff16156107c8576040517f08c379a00000000000000000000000000000000000000000000000000000000081526004016107bf90613813565b60405180910390fd5b60096000858152602001908152602001600020600001546009600086815260200190815260200160002060010160009054906101000a900473ffffffffffffffffffffffffffffffffffffffff1673ffffffffffffffffffffffffffffffffffffffff166370a082316009600088815260200190815260200160002060020160009054906101000a900473ffffffffffffffffffffffffffffffffffffffff166040518263ffffffff1660e01b81526004016108849190613597565b60206040518083038186803b15801561089c57600080fd5b505afa1580156108b0573d6000803e3d6000fd5b505050506040513d601f19601f820116820180604052508101906108d491906130de565b1015610915576040517f08c379a000000000000000000000000000000000000000000000000000000000815260040161090c906136f3565b60405180910390fd5b6000600381111561094f577f4e487b7100000000000000000000000000000000000000000000000000000000600052602160045260246000fd5b816003811115610988577f4e487b7100000000000000000000000000000000000000000000000000000000600052602160045260246000fd5b1415610a25576001600785815481106109ca577f4e487b7100000000000000000000000000000000000000000000000000000000600052603260045260246000fd5b9060005260206000200160000160016101000a81548160ff02191690836003811115610a1f577f4e487b7100000000000000000000000000000000000000000000000000000000600052602160045260246000fd5b02179055505b60018060003373ffffffffffffffffffffffffffffffffffffffff1673ffffffffffffffffffffffffffffffffffffffff168152602001908152602001600020600086815260200190815260200160002060006101000a81548160ff021916908315150217905550837f24f468a2eaafe5cf853bc1dc9b780dd65674b1e57537ed16b1ceb3b0a7bd713b3342604051610abf929190613612565b60405180910390a2610ad7826000015160ff166128a1565b15610ae55760019250610aea565b600092505b5050919050565b6000600260003373ffffffffffffffffffffffffffffffffffffffff1673ffffffffffffffffffffffffffffffffffffffff16815260200190815260200160002060009054906101000a900460ff16610b7f576040517f08c379a0000000000000000000000000000000000000000000000000000000008152600401610b76906137d3565b60405180910390fd5b600060078381548110610bbb577f4e487b7100000000000000000000000000000000000000000000000000000000600052603260045260246000fd5b906000526020600020016040518060400160405290816000820160009054906101000a900460ff1660ff1660ff1681526020016000820160019054906101000a900460ff166003811115610c38577f4e487b7100000000000000000000000000000000000000000000000000000000600052602160045260246000fd5b6003811115610c70577f4e487b7100000000000000000000000000000000000000000000000000000000600052602160045260246000fd5b81525050905060026003811115610cb0577f4e487b7100000000000000000000000000000000000000000000000000000000600052602160045260246000fd5b81602001516003811115610ced577f4e487b7100000000000000000000000000000000000000000000000000000000600052602160045260246000fd5b141580610d6e5750600380811115610d2e577f4e487b7100000000000000000000000000000000000000000000000000000000600052602160045260246000fd5b81602001516003811115610d6b577f4e487b7100000000000000000000000000000000000000000000000000000000600052602160045260246000fd5b14155b610dad576040517f08c379a0000000000000000000000000000000000000000000000000000000008152600401610da490613753565b60405180910390fd5b600360078481548110610de9577f4e487b7100000000000000000000000000000000000000000000000000000000600052603260045260246000fd5b9060005260206000200160000160016101000a81548160ff02191690836003811115610e3e577f4e487b7100000000000000000000000000000000000000000000000000000000600052602160045260246000fd5b0217905550827f3796cd2bbde8f185a2341d1c3fb8207b168febf5cd44d360661956cfdc70a1773342604051610e75929190613612565b60405180910390a26001915050919050565b60086020528060005260406000206000915090508060000154908060010160009054906101000a900473ffffffffffffffffffffffffffffffffffffffff16908060020160009054906101000a900473ffffffffffffffffffffffffffffffffffffffff16905083565b60096020528060005260406000206000915090508060000154908060010160009054906101000a900473ffffffffffffffffffffffffffffffffffffffff16908060020160009054906101000a900473ffffffffffffffffffffffffffffffffffffffff16908060030160009054906101000a900473ffffffffffffffffffffffffffffffffffffffff16905084565b6000610f8b612f19565b73ffffffffffffffffffffffffffffffffffffffff16610fa9611346565b73ffffffffffffffffffffffffffffffffffffffff1614610fff576040517f08c379a0000000000000000000000000000000000000000000000000000000008152600401610ff690613853565b60405180910390fd5b60038054905090506003829080600181540180825580915050600190039060005260206000200160009091909190916101000a81548173ffffffffffffffffffffffffffffffffffffffff021916908373ffffffffffffffffffffffffffffffffffffffff1602179055506001600260008473ffffffffffffffffffffffffffffffffffffffff1673ffffffffffffffffffffffffffffffffffffffff16815260200190815260200160002060006101000a81548160ff021916908315150217905550919050565b6110cf612f19565b73ffffffffffffffffffffffffffffffffffffffff166110ed611346565b73ffffffffffffffffffffffffffffffffffffffff1614611143576040517f08c379a000000000000000000000000000000000000000000000000000000000815260040161113a90613853565b60405180910390fd5b600073ffffffffffffffffffffffffffffffffffffffff1660008054906101000a900473ffffffffffffffffffffffffffffffffffffffff1673ffffffffffffffffffffffffffffffffffffffff167f8be0079c531659141344cd1fd0a4f28419497f9722a3daafe3b4186f6b6457e060405160405180910390a360008060006101000a81548173ffffffffffffffffffffffffffffffffffffffff021916908373ffffffffffffffffffffffffffffffffffffffff160217905550565b600061120b612f19565b73ffffffffffffffffffffffffffffffffffffffff16611229611346565b73ffffffffffffffffffffffffffffffffffffffff161461127f576040517f08c379a000000000000000000000000000000000000000000000000000000000815260040161127690613853565b60405180910390fd5b6004548314158061129257506005548214155b6112d1576040517f08c379a00000000000000000000000000000000000000000000000000000000081526004016112c890613833565b60405180910390fd5b600082141580156112e3575060008314155b80156112ef5750818311155b61132e576040517f08c379a000000000000000000000000000000000000000000000000000000000815260040161132590613793565b60405180910390fd5b82600481905550816005819055506001905092915050565b60008060009054906101000a900473ffffffffffffffffffffffffffffffffffffffff16905090565b611377612f19565b73ffffffffffffffffffffffffffffffffffffffff16611395611346565b73ffffffffffffffffffffffffffffffffffffffff16146113eb576040517f08c379a00000000000000000000000000000000000000000000000000000000081526004016113e290613853565b60405180910390fd5b600060038281548110611427577f4e487b7100000000000000000000000000000000000000000000000000000000600052603260045260246000fd5b9060005260206000200160009054906101000a900473ffffffffffffffffffffffffffffffffffffffff16905061145c611346565b73ffffffffffffffffffffffffffffffffffffffff168173ffffffffffffffffffffffffffffffffffffffff1614156114ca576040517f08c379a00000000000000000000000000000000000000000000000000000000081526004016114c190613873565b60405180910390fd5b6000600260006003858154811061150a577f4e487b7100000000000000000000000000000000000000000000000000000000600052603260045260246000fd5b9060005260206000200160009054906101000a900473ffffffffffffffffffffffffffffffffffffffff1673ffffffffffffffffffffffffffffffffffffffff1673ffffffffffffffffffffffffffffffffffffffff16815260200190815260200160002060006101000a81548160ff02191690831515021790555060005b6003805490508110156118ec578173ffffffffffffffffffffffffffffffffffffffff16600382815481106115e7577f4e487b7100000000000000000000000000000000000000000000000000000000600052603260045260246000fd5b9060005260206000200160009054906101000a900473ffffffffffffffffffffffffffffffffffffffff1673ffffffffffffffffffffffffffffffffffffffff1614611632576118d9565b600160038054905061164491906139f3565b811415611756578173ffffffffffffffffffffffffffffffffffffffff166003828154811061169c577f4e487b7100000000000000000000000000000000000000000000000000000000600052603260045260246000fd5b9060005260206000200160009054906101000a900473ffffffffffffffffffffffffffffffffffffffff1673ffffffffffffffffffffffffffffffffffffffff16141561175157600380548061171b577f4e487b7100000000000000000000000000000000000000000000000000000000600052603160045260246000fd5b6001900381819060005260206000200160006101000a81549073ffffffffffffffffffffffffffffffffffffffff021916905590555b6118ec565b6003600182611765919061399d565b8154811061179c577f4e487b7100000000000000000000000000000000000000000000000000000000600052603260045260246000fd5b9060005260206000200160009054906101000a900473ffffffffffffffffffffffffffffffffffffffff1660038281548110611801577f4e487b7100000000000000000000000000000000000000000000000000000000600052603260045260246000fd5b9060005260206000200160006101000a81548173ffffffffffffffffffffffffffffffffffffffff021916908373ffffffffffffffffffffffffffffffffffffffff160217905550816003600183611859919061399d565b81548110611890577f4e487b7100000000000000000000000000000000000000000000000000000000600052603260045260246000fd5b9060005260206000200160006101000a81548173ffffffffffffffffffffffffffffffffffffffff021916908373ffffffffffffffffffffffffffffffffffffffff1602179055505b80806118e490613ac5565b915050611589565b505050565b6007818154811061190157600080fd5b906000526020600020016000915090508060000160009054906101000a900460ff16908060000160019054906101000a900460ff16905082565b60016020528160005260406000206020528060005260406000206000915091509054906101000a900460ff1681565b6000806007805490509050600073ffffffffffffffffffffffffffffffffffffffff168473ffffffffffffffffffffffffffffffffffffffff1614156119e5576040517f08c379a00000000000000000000000000000000000000000000000000000000081526004016119dc906137b3565b60405180910390fd5b60008311611a28576040517f08c379a0000000000000000000000000000000000000000000000000000000008152600401611a1f90613773565b60405180910390fd5b828673ffffffffffffffffffffffffffffffffffffffff1663dd62ed3e87306040518363ffffffff1660e01b8152600401611a649291906135b2565b60206040518083038186803b158015611a7c57600080fd5b505afa158015611a90573d6000803e3d6000fd5b505050506040513d601f19601f82011682018060405250810190611ab491906130de565b1015611abf57600080fd5b828673ffffffffffffffffffffffffffffffffffffffff166370a08231876040518263ffffffff1660e01b8152600401611af99190613597565b60206040518083038186803b158015611b1157600080fd5b505afa158015611b25573d6000803e3d6000fd5b505050506040513d601f19601f82011682018060405250810190611b4991906130de565b1015611b5457600080fd5b60006040518060400160405280600260ff16815260200160006003811115611ba5577f4e487b7100000000000000000000000000000000000000000000000000000000600052602160045260246000fd5b8152509050600060405180608001604052808681526020018973ffffffffffffffffffffffffffffffffffffffff1681526020018873ffffffffffffffffffffffffffffffffffffffff1681526020018773ffffffffffffffffffffffffffffffffffffffff1681525090506007829080600181540180825580915050600190039060005260206000200160009091909190915060008201518160000160006101000a81548160ff021916908360ff16021790555060208201518160000160016101000a81548160ff02191690836003811115611cab577f4e487b7100000000000000000000000000000000000000000000000000000000600052602160045260246000fd5b0217905550505080600960008581526020019081526020016000206000820151816000015560208201518160010160006101000a81548173ffffffffffffffffffffffffffffffffffffffff021916908373ffffffffffffffffffffffffffffffffffffffff16021790555060408201518160020160006101000a81548173ffffffffffffffffffffffffffffffffffffffff021916908373ffffffffffffffffffffffffffffffffffffffff16021790555060608201518160030160006101000a81548173ffffffffffffffffffffffffffffffffffffffff021916908373ffffffffffffffffffffffffffffffffffffffff160217905550905050827f4af8576600f58114758d9f51865153ac574b3d6b63940f9f101bfe275ab1d443600242604051611ddb9291906136ca565b60405180910390a2827faf56d5b2c744a6dd2c4c13fc061416e0cb06eca96df7e20d023fe9d955c282a0888888604051611e17939291906135db565b60405180910390a260019350505094509492505050565b6000806007805490509050600073ffffffffffffffffffffffffffffffffffffffff168473ffffffffffffffffffffffffffffffffffffffff161415611ea9576040517f08c379a0000000000000000000000000000000000000000000000000000000008152600401611ea0906137b3565b60405180910390fd5b60008311611eec576040517f08c379a0000000000000000000000000000000000000000000000000000000008152600401611ee390613773565b60405180910390fd5b828573ffffffffffffffffffffffffffffffffffffffff166370a08231306040518263ffffffff1660e01b8152600401611f269190613597565b60206040518083038186803b158015611f3e57600080fd5b505afa158015611f52573d6000803e3d6000fd5b505050506040513d601f19601f82011682018060405250810190611f7691906130de565b1015611f8157600080fd5b60006040518060400160405280600160ff16815260200160006003811115611fd2577f4e487b7100000000000000000000000000000000000000000000000000000000600052602160045260246000fd5b8152509050600060405180606001604052808681526020018873ffffffffffffffffffffffffffffffffffffffff1681526020018773ffffffffffffffffffffffffffffffffffffffff1681525090506007829080600181540180825580915050600190039060005260206000200160009091909190915060008201518160000160006101000a81548160ff021916908360ff16021790555060208201518160000160016101000a81548160ff021916908360038111156120bc577f4e487b7100000000000000000000000000000000000000000000000000000000600052602160045260246000fd5b0217905550505080600860008581526020019081526020016000206000820151816000015560208201518160010160006101000a81548173ffffffffffffffffffffffffffffffffffffffff021916908373ffffffffffffffffffffffffffffffffffffffff16021790555060408201518160020160006101000a81548173ffffffffffffffffffffffffffffffffffffffff021916908373ffffffffffffffffffffffffffffffffffffffff160217905550905050827f4af8576600f58114758d9f51865153ac574b3d6b63940f9f101bfe275ab1d4436001426040516121a59291906136a1565b60405180910390a2827f0193daadd0029d85b349ed5cd0ec3457718d8a6948c19653df899701d99a773387876040516121df929190613612565b60405180910390a2600193505050935093915050565b606060008060005b60078054905081101561241957600060078281548110612246577f4e487b7100000000000000000000000000000000000000000000000000000000600052603260045260246000fd5b906000526020600020016040518060400160405290816000820160009054906101000a900460ff1660ff1660ff1681526020016000820160019054906101000a900460ff1660038111156122c3577f4e487b7100000000000000000000000000000000000000000000000000000000600052602160045260246000fd5b60038111156122fb577f4e487b7100000000000000000000000000000000000000000000000000000000600052602160045260246000fd5b8152505090506002600381111561233b577f4e487b7100000000000000000000000000000000000000000000000000000000600052602160045260246000fd5b81602001516003811115612378577f4e487b7100000000000000000000000000000000000000000000000000000000600052602160045260246000fd5b14806123f757506003808111156123b8577f4e487b7100000000000000000000000000000000000000000000000000000000600052602160045260246000fd5b816020015160038111156123f5577f4e487b7100000000000000000000000000000000000000000000000000000000600052602160045260246000fd5b145b15612402575061240c565b8380600101945050505b80806001019150506121fd565b508167ffffffffffffffff81111561245a577f4e487b7100000000000000000000000000000000000000000000000000000000600052604160045260246000fd5b6040519080825280602002602001820160405280156124885781602001602082028036833780820191505090505b50925060005b828110156126f2576000600782815481106124d2577f4e487b7100000000000000000000000000000000000000000000000000000000600052603260045260246000fd5b906000526020600020016040518060400160405290816000820160009054906101000a900460ff1660ff1660ff1681526020016000820160019054906101000a900460ff16600381111561254f577f4e487b7100000000000000000000000000000000000000000000000000000000600052602160045260246000fd5b6003811115612587577f4e487b7100000000000000000000000000000000000000000000000000000000600052602160045260246000fd5b815250509050600260038111156125c7577f4e487b7100000000000000000000000000000000000000000000000000000000600052602160045260246000fd5b81602001516003811115612604577f4e487b7100000000000000000000000000000000000000000000000000000000600052602160045260246000fd5b14806126835750600380811115612644577f4e487b7100000000000000000000000000000000000000000000000000000000600052602160045260246000fd5b81602001516003811115612681577f4e487b7100000000000000000000000000000000000000000000000000000000600052602160045260246000fd5b145b1561268e57506126e5565b806000015160ff168584815181106126cf577f4e487b7100000000000000000000000000000000000000000000000000000000600052603260045260246000fd5b6020026020010181815250508280600101935050505b808060010191505061248e565b50505090565b612700612f19565b73ffffffffffffffffffffffffffffffffffffffff1661271e611346565b73ffffffffffffffffffffffffffffffffffffffff1614612774576040517f08c379a000000000000000000000000000000000000000000000000000000000815260040161276b90613853565b60405180910390fd5b600073ffffffffffffffffffffffffffffffffffffffff168173ffffffffffffffffffffffffffffffffffffffff1614156127e4576040517f08c379a00000000000000000000000000000000000000000000000000000000081526004016127db90613733565b60405180910390fd5b8073ffffffffffffffffffffffffffffffffffffffff1660008054906101000a900473ffffffffffffffffffffffffffffffffffffffff1673ffffffffffffffffffffffffffffffffffffffff167f8be0079c531659141344cd1fd0a4f28419497f9722a3daafe3b4186f6b6457e060405160405180910390a3806000806101000a81548173ffffffffffffffffffffffffffffffffffffffff021916908373ffffffffffffffffffffffffffffffffffffffff16021790555050565b600080600090506000600784815481106128e4577f4e487b7100000000000000000000000000000000000000000000000000000000600052603260045260246000fd5b906000526020600020016040518060400160405290816000820160009054906101000a900460ff1660ff1660ff1681526020016000820160019054906101000a900460ff166003811115612961577f4e487b7100000000000000000000000000000000000000000000000000000000600052602160045260246000fd5b6003811115612999577f4e487b7100000000000000000000000000000000000000000000000000000000600052602160045260246000fd5b81525050905060005b600380549050811015612a915760016000600383815481106129ed577f4e487b7100000000000000000000000000000000000000000000000000000000600052603260045260246000fd5b9060005260206000200160009054906101000a900473ffffffffffffffffffffffffffffffffffffffff1673ffffffffffffffffffffffffffffffffffffffff1673ffffffffffffffffffffffffffffffffffffffff168152602001908152602001600020600086815260200190815260200160002060009054906101000a900460ff16612a7b5782612a83565b828060010193505b5080806001019150506129a2565b50600654821015612aa757600092505050612f14565b600260078581548110612ae3577f4e487b7100000000000000000000000000000000000000000000000000000000600052603260045260246000fd5b9060005260206000200160000160016101000a81548160ff02191690836003811115612b38577f4e487b7100000000000000000000000000000000000000000000000000000000600052602160045260246000fd5b0217905550837f99593786774c6f33049716fd956b1672f46813adf0f67f51f81345b36ba0b84742604051612b6d9190613893565b60405180910390a26001816000015160ff161415612d1357600060086000868152602001908152602001600020604051806060016040529081600082015481526020016001820160009054906101000a900473ffffffffffffffffffffffffffffffffffffffff1673ffffffffffffffffffffffffffffffffffffffff1673ffffffffffffffffffffffffffffffffffffffff1681526020016002820160009054906101000a900473ffffffffffffffffffffffffffffffffffffffff1673ffffffffffffffffffffffffffffffffffffffff1673ffffffffffffffffffffffffffffffffffffffff16815250509050806020015173ffffffffffffffffffffffffffffffffffffffff1663a9059cbb826040015183600001516040518363ffffffff1660e01b8152600401612ca4929190613612565b602060405180830381600087803b158015612cbe57600080fd5b505af1158015612cd2573d6000803e3d6000fd5b505050506040513d601f19601f82011682018060405250810190612cf6919061308c565b15612d075760019350505050612f14565b60009350505050612f14565b6002816000015160ff161415612f0d57600060096000868152602001908152602001600020604051806080016040529081600082015481526020016001820160009054906101000a900473ffffffffffffffffffffffffffffffffffffffff1673ffffffffffffffffffffffffffffffffffffffff1673ffffffffffffffffffffffffffffffffffffffff1681526020016002820160009054906101000a900473ffffffffffffffffffffffffffffffffffffffff1673ffffffffffffffffffffffffffffffffffffffff1673ffffffffffffffffffffffffffffffffffffffff1681526020016003820160009054906101000a900473ffffffffffffffffffffffffffffffffffffffff1673ffffffffffffffffffffffffffffffffffffffff1673ffffffffffffffffffffffffffffffffffffffff16815250509050806020015173ffffffffffffffffffffffffffffffffffffffff166323b872dd8260400151836060015184600001516040518463ffffffff1660e01b8152600401612e9e939291906135db565b602060405180830381600087803b158015612eb857600080fd5b505af1158015612ecc573d6000803e3d6000fd5b505050506040513d601f19601f82011682018060405250810190612ef0919061308c565b15612f015760019350505050612f14565b60009350505050612f14565b6000925050505b919050565b600033905090565b600081359050612f3081613b80565b92915050565b600081519050612f4581613b97565b92915050565b600081359050612f5a81613bae565b92915050565b600081519050612f6f81613bae565b92915050565b600060208284031215612f8757600080fd5b6000612f9584828501612f21565b91505092915050565b60008060008060808587031215612fb457600080fd5b6000612fc287828801612f21565b9450506020612fd387828801612f21565b9350506040612fe487828801612f21565b9250506060612ff587828801612f4b565b91505092959194509250565b60008060006060848603121561301657600080fd5b600061302486828701612f21565b935050602061303586828701612f21565b925050604061304686828701612f4b565b9150509250925092565b6000806040838503121561306357600080fd5b600061307185828601612f21565b925050602061308285828601612f4b565b9150509250929050565b60006020828403121561309e57600080fd5b60006130ac84828501612f36565b91505092915050565b6000602082840312156130c757600080fd5b60006130d584828501612f4b565b91505092915050565b6000602082840312156130f057600080fd5b60006130fe84828501612f60565b91505092915050565b6000806040838503121561311a57600080fd5b600061312885828601612f4b565b925050602061313985828601612f4b565b9150509250929050565b600061314f838361356a565b60208301905092915050565b61316481613a27565b82525050565b600061317582613963565b61317f818561397b565b935061318a83613953565b8060005b838110156131bb5781516131a28882613143565b97506131ad8361396e565b92505060018101905061318e565b5085935050505092915050565b6131d181613a39565b82525050565b6131e081613a8f565b82525050565b6131ef81613aa1565b82525050565b6131fe81613ab3565b82525050565b6000613211601b8361398c565b91507f496e73756666696369656e742073656e6465722062616c616e636500000000006000830152602082019050919050565b600061325160118361398c565b91507f526571756573742063616e63656c6c65640000000000000000000000000000006000830152602082019050919050565b600061329160268361398c565b91507f4f776e61626c653a206e6577206f776e657220697320746865207a65726f206160008301527f64647265737300000000000000000000000000000000000000000000000000006020830152604082019050919050565b60006132f7601d8361398c565b91507f5265717565737420617070726f766564206f722063616e63656c6c65640000006000830152602082019050919050565b6000613337600b8361398c565b91507f5a65726f20616d6f756e740000000000000000000000000000000000000000006000830152602082019050919050565b600061337760108361398c565b91507f496d706f737369626c6520726174696f000000000000000000000000000000006000830152602082019050919050565b60006133b7600c8361398c565b91507f5a65726f206164647265737300000000000000000000000000000000000000006000830152602082019050919050565b60006133f7600b8361398c565b91507f4f6e6c792041646d696e730000000000000000000000000000000000000000006000830152602082019050919050565b600061343760108361398c565b91507f5265717565737420617070726f766564000000000000000000000000000000006000830152602082019050919050565b6000613477600e8361398c565b91507f41646d696e20617070726f7665640000000000000000000000000000000000006000830152602082019050919050565b60006134b760108361398c565b91507f4e6f7468696e67206d6f646966696564000000000000000000000000000000006000830152602082019050919050565b60006134f760208361398c565b91507f4f776e61626c653a2063616c6c6572206973206e6f7420746865206f776e65726000830152602082019050919050565b600061353760128361398c565b91507f43616e27742072656d6f7665206f776e657200000000000000000000000000006000830152602082019050919050565b61357381613a78565b82525050565b61358281613a78565b82525050565b61359181613a82565b82525050565b60006020820190506135ac600083018461315b565b92915050565b60006040820190506135c7600083018561315b565b6135d4602083018461315b565b9392505050565b60006060820190506135f0600083018661315b565b6135fd602083018561315b565b61360a6040830184613579565b949350505050565b6000604082019050613627600083018561315b565b6136346020830184613579565b9392505050565b60006020820190508181036000830152613655818461316a565b905092915050565b600060208201905061367260008301846131c8565b92915050565b600060408201905061368d60008301856131c8565b61369a6020830184613579565b9392505050565b60006040820190506136b660008301856131e6565b6136c36020830184613579565b9392505050565b60006040820190506136df60008301856131f5565b6136ec6020830184613579565b9392505050565b6000602082019050818103600083015261370c81613204565b9050919050565b6000602082019050818103600083015261372c81613244565b9050919050565b6000602082019050818103600083015261374c81613284565b9050919050565b6000602082019050818103600083015261376c816132ea565b9050919050565b6000602082019050818103600083015261378c8161332a565b9050919050565b600060208201905081810360008301526137ac8161336a565b9050919050565b600060208201905081810360008301526137cc816133aa565b9050919050565b600060208201905081810360008301526137ec816133ea565b9050919050565b6000602082019050818103600083015261380c8161342a565b9050919050565b6000602082019050818103600083015261382c8161346a565b9050919050565b6000602082019050818103600083015261384c816134aa565b9050919050565b6000602082019050818103600083015261386c816134ea565b9050919050565b6000602082019050818103600083015261388c8161352a565b9050919050565b60006020820190506138a86000830184613579565b92915050565b60006060820190506138c36000830186613579565b6138d0602083018561315b565b6138dd604083018461315b565b949350505050565b60006080820190506138fa6000830187613579565b613907602083018661315b565b613914604083018561315b565b613921606083018461315b565b95945050505050565b600060408201905061393f6000830185613588565b61394c60208301846131d7565b9392505050565b6000819050602082019050919050565b600081519050919050565b6000602082019050919050565b600082825260208201905092915050565b600082825260208201905092915050565b60006139a882613a78565b91506139b383613a78565b9250827fffffffffffffffffffffffffffffffffffffffffffffffffffffffffffffffff038211156139e8576139e7613b0e565b5b828201905092915050565b60006139fe82613a78565b9150613a0983613a78565b925082821015613a1c57613a1b613b0e565b5b828203905092915050565b6000613a3282613a58565b9050919050565b60008115159050919050565b6000819050613a5382613b6c565b919050565b600073ffffffffffffffffffffffffffffffffffffffff82169050919050565b6000819050919050565b600060ff82169050919050565b6000613a9a82613a45565b9050919050565b6000613aac82613a82565b9050919050565b6000613abe82613a82565b9050919050565b6000613ad082613a78565b91507fffffffffffffffffffffffffffffffffffffffffffffffffffffffffffffffff821415613b0357613b02613b0e565b5b600182019050919050565b7f4e487b7100000000000000000000000000000000000000000000000000000000600052601160045260246000fd5b7f4e487b7100000000000000000000000000000000000000000000000000000000600052602160045260246000fd5b60048110613b7d57613b7c613b3d565b5b50565b613b8981613a27565b8114613b9457600080fd5b50565b613ba081613a39565b8114613bab57600080fd5b50565b613bb781613a78565b8114613bc257600080fd5b5056fea26469706673582212202b46969d10fe73a5a1346f6b1048ef4efa4c0cc9a0b3150908ffb7866c190c0864736f6c63430008000033",
  "immutableReferences": {},
  "source": "/**\r\n * @title Multi-Signature Functions\r\n * @author Phoenix \"CryptoPhoenix\" Angell\r\n * @notice A multi-signature contract template used for calling functions via a multi-sig mechanism and tracking the function inputs on-chain.\r\n * @dev Inherits from WalletAdmins, but can be implemented with any kind of access control system.\r\n * @dev Multi-sig mechanism is contained within this contract, which may take up too much space for multiple functions. A more effective implementation may use GeneralMultiSig.sol as an external contract, and to use this contract for its functionCallHistory array and each function's mapping.\r\n * @dev Uses function IDs to internally determine which mapping to use for function inputs. Each function locked with a multi-sig has its own inputs struct and a mapping to the index value of its function call request. This allows all functions locked by this contract to have their input values tracked on-chain.\r\n */\r\n// SPDX-License-Identifier: MIT\r\npragma solidity ^0.8.0;\r\n\r\nimport \"./WalletAdmins.sol\";\r\nimport \"./OpenZeppelinDependencies/IERC20.sol\";\r\n\r\ncontract MultiSigFunction is WalletAdmins {\r\n  \r\n  /*** MULTI-SIG STRUCT AND DATA STORAGE ***\\\\\r\n  /**\r\n   * @notice Function call request, general request struct stored in request history array\r\n   * @dev This struct is needed for the multi-sig mechanism, and prevents the need for\r\n   * multiple arrays for each function's parameters.\r\n   * @dev Each functionCallRequest is mapped to a <function name>Params struct by its index value\r\n   *\r\n   * @param funcID Function parameter ID, corresponds to function parameter structs\r\n   * note There is no way a single contract can hold more than 256 parameter structs and functions, \r\n   * so uint8 is used to save storage\r\n   * @param approvalStatus Approval status: Submitted, Pending, Approved, Cancelled\r\n   */\r\n  struct functionCallRequest {\r\n    uint8 funcID;\r\n    APPROVE approvalStatus;\r\n  }\r\n\r\n  // Approval status enum\r\n  enum APPROVE { SUBMITTED, PENDING, APPROVED, CANCELLED }\r\n\r\n  // History of all requests:\r\n  functionCallRequest[] public functionCallHistory;\r\n\r\n\r\n  //*** FUNCTION PARAMETER STRUCTS AND MAPPINGS ***\\\\\r\n  /**\r\n   * @notice Function input parameters for funcID 1, IERC20.transfer\r\n   * @dev All parameters correspond to IERC20 parameters, except contractAddress\r\n   *\r\n   * @param contractAddress Address for ERC20 token contract\r\n   */\r\n  struct transferParams {\r\n    uint256 amount;\r\n    address contractAddress;\r\n    address to;\r\n  }\r\n\r\n  /**\r\n   * @notice Function input parameters for funcID 2, IERC20.transferFrom\r\n   * @dev All parameters correspond to IERC20 parameters, except contractAddress\r\n   *\r\n   * @param contractAddress Address for ERC20 token contract\r\n   */\r\n  struct transferFromParams {\r\n    uint256 amount;\r\n    address contractAddress;\r\n    address from;\r\n    address to;\r\n  }\r\n\r\n  // Maps function request ID (index value) to its input parameter struct\r\n  mapping(uint256 => transferParams) public transferParamsMap; // Function ID 1\r\n  mapping(uint256 => transferFromParams) public transferFromParamsMap; // Function ID 2\r\n  //mapping(uint256 => <function name>Params) public <function name>Request;\r\n\r\n\r\n  //*** MULTI-SIG EVENTS ***\\\\\r\n  // Fires when user submits new function call request\r\n  event RequestSubmitted(uint256 indexed requestID, uint8 funcParamsID, uint256 timestamp);\r\n  // Fires when request is approved\r\n  event RequestApproved(uint256 indexed requestID, uint256 timestamp);\r\n  // Fires when request is cancelled by user or Admin\r\n  event RequestCancelled(uint256 indexed requestID, address caller, uint256 timestamp);\r\n  // Fires when Admin approves request\r\n  event AdminApproved(uint256 indexed requestID, address admin, uint256 timestamp);\r\n\r\n  //*** PARAMETER EVENTS***\\\\\r\n  // Lists all parameters for IERC20.transfer request\r\n  event TransferParams(uint256 indexed requestID, address to, uint256 amount);\r\n  // Lists all parameters for IERC20.transferFrom request\r\n  event TransferFromParams(uint256 indexed requestID, address from, address to, uint256 amount);\r\n\r\n  /**\r\n   * @param _admins Array of all Admins with multi-sig permissions\r\n   * @param _numerator Numerator of multi-sig requirement ratio\r\n   * @param _denominator Denominator of multi-sig requirement ratio\r\n   */\r\n  constructor(\r\n    address[] memory _admins, \r\n    uint256 _numerator, \r\n    uint256 _denominator\r\n  ) WalletAdmins(_admins, _numerator, _denominator) {\r\n    super;\r\n  }\r\n\r\n  /**\r\n   * @notice Submits a function call request for IERC20.transfer\r\n   *\r\n   * @param _to Recipient\r\n   * @param _amount Amount\r\n   *\r\n   * @return success Bool flag indicating completion of submission, not necessary\r\n   * @return requestID Array index position of function call request\r\n   * @dev Emits RequestSubmitted event\r\n   * @dev Emits TransferParams event\r\n   */\r\n  function submitTransferReq(address _contractAddress, address _to, uint256 _amount) external returns (bool success, uint256 requestID) {\r\n    // Declare local variables\r\n    requestID = functionCallHistory.length;\r\n\r\n    // Sanity checks\r\n    require(_to != address(0), \"Zero address\");\r\n    require(_amount > 0, \"Zero amount\");\r\n    require(IERC20(_contractAddress).balanceOf(address(this)) >= _amount);\r\n    // ***ADMIN PERMISSION CHECKS GO HERE, IF NEEDED*** \\\\\r\n\r\n    // Create new function call request\r\n    functionCallRequest memory pendingRequest =\r\n    functionCallRequest(\r\n      1, // ID 1 corresponds to IERC20.transfer\r\n      APPROVE.SUBMITTED\r\n    );\r\n\r\n    // Create input parameters struct for transferParams\r\n    transferParams memory requestParams = \r\n    transferParams({\r\n      contractAddress: _contractAddress,\r\n      to: _to,\r\n      amount: _amount\r\n      });\r\n\r\n    // Add function request to request history array\r\n    functionCallHistory.push(pendingRequest);\r\n    // Map requestID to its transferParams struct\r\n    transferParamsMap[requestID] = requestParams;\r\n\r\n    // Emit events, return success bool\r\n    emit RequestSubmitted(requestID, 1, block.timestamp);\r\n    emit TransferParams(requestID, _to, _amount);\r\n    success = true;\r\n  }\r\n\r\n  /**\r\n   * @notice Submits a request for function ID 2: IERC20.transferFrom\r\n   * @dev This contract must be approved before submitting transferFrom request\r\n   *\r\n   * @param _from Sender\r\n   * @param _to Recipient\r\n   * @param _amount Amount\r\n   *\r\n   * @return success Bool flag indicating completion of submission, not necessary\r\n   * @return requestID Array index position of function call request\r\n   * @dev Emits RequestSubmitted event\r\n   * @dev Emits TransferFromParams event\r\n   */\r\n  function submitTransferFromReq(address _contractAddress, address _from, address _to, uint256 _amount) external returns (bool success, uint256 requestID) {\r\n    // Declare local variables\r\n    requestID = functionCallHistory.length;\r\n\r\n    // Sanity checks\r\n    require(_to != address(0), \"Zero address\");\r\n    require(_amount > 0, \"Zero amount\");\r\n    require(IERC20(_contractAddress).allowance(_from, address(this)) >= _amount);\r\n    require(IERC20(_contractAddress).balanceOf(_from) >= _amount);\r\n    // ***ADMIN PERMISSION CHECKS GO HERE, IF NEEDED*** \\\\\r\n\r\n    // Create new function call request\r\n    functionCallRequest memory pendingRequest =\r\n    functionCallRequest(\r\n      2, // ID 2 corresponds to IERC20.transferFrom\r\n      APPROVE.SUBMITTED\r\n    );\r\n\r\n    // Create struct for inputs\r\n    transferFromParams memory requestParams = \r\n    transferFromParams({\r\n      contractAddress: _contractAddress,\r\n      from: _from,\r\n      to: _to,\r\n      amount: _amount\r\n    });\r\n\r\n    // Add function request to request history\r\n    functionCallHistory.push(pendingRequest);\r\n    // Map requestID to its transferFromParams struct\r\n    transferFromParamsMap[requestID] = requestParams;\r\n\r\n    // Emit events, return success bool\r\n    emit RequestSubmitted(requestID, 2, block.timestamp);\r\n    emit TransferFromParams(requestID, _from, _to, _amount);\r\n    success = true;\r\n  }  \r\n\r\n  // Confirm request, only Admins may call\r\n  function confirmTransfer(uint256 _requestID) external onlyAdmin returns (bool requestApproved) {\r\n    // Declare local variables\r\n    functionCallRequest memory request = functionCallHistory[_requestID];\r\n    APPROVE status = request.approvalStatus;\r\n    \r\n    //*** CHECKS ***\\\\\r\n    // Check request hasn't been approved already\r\n    require(status != APPROVE.APPROVED, \"Request approved\");\r\n    // Check request hasn't been cancelled\r\n    require(status != APPROVE.CANCELLED, \"Request cancelled\");\r\n    // Check Admin has not already approved request\r\n    require(!adminApproved[msg.sender][_requestID], \"Admin approved\");\r\n\r\n    //*** ERC20 SANITY CHECK FOR TRANSFERFROM ***\\\\\r\n    // Prevents a transferFrom request from being approved with insufficient balance, which\r\n    // would require resubmitting the request and redoing the multi-sig vote if the request\r\n    // is approved but fails to transfer.\r\n    require(\r\n      IERC20(transferFromParamsMap[_requestID].contractAddress)\r\n      .balanceOf(transferFromParamsMap[_requestID].from) \r\n      >= transferFromParamsMap[_requestID].amount,\r\n      \"Insufficient sender balance\"\r\n      );\r\n    //*** ADDITIONAL CONTRACT SANITY CHECKS ARE PERFORMED HERE ***\\\\\r\n\r\n    //*** EFFECTS ***\\\\\r\n    // If functionCallRequest was Submitted, then set to Pending    \r\n    if(status == APPROVE.SUBMITTED) {\r\n        functionCallHistory[_requestID].approvalStatus = APPROVE.PENDING;\r\n      }\r\n    \r\n    // Update Admin's request approval\r\n    adminApproved[msg.sender][_requestID] = true;\r\n    // Emit event alert for Admin's approval\r\n    emit AdminApproved(_requestID, msg.sender, block.timestamp);\r\n    \r\n    // Run multi-sig approval algorithm, return true if request is approved, false if not\r\n    if(_requestApproval(request.funcID)) requestApproved = true;\r\n    else requestApproved = false;\r\n  }\r\n\r\n  // Tallies up Admin approvals for request, performs request if multi-sig requirement is met\r\n  function _requestApproval(uint256 _requestID) private returns (bool) {\r\n    // 0. Initialize local variables\r\n    uint256 numApproved = 0;\r\n    functionCallRequest memory request = functionCallHistory[_requestID];\r\n\r\n    //*** ADMIN AND SANITY CHECKS WERE COMPLETED IN PARENT FUNCTION ***\\\\\r\n\r\n    // 1. Iterate through admins array and tally up approvals\r\n     // Unchecked to save gas, overflow errors highly unlikely\r\n    unchecked {\r\n      for (uint256 i = 0; i < admins.length; i++) {\r\n        // Tertiary operator: If Admin approved then increment counter, if not then leave alone\r\n        adminApproved[admins[i]][_requestID] ?\r\n          numApproved++ :\r\n          numApproved;\r\n      }\r\n    }\r\n\r\n    // 2. If approvals do not meet requirement, then return from function with false flag\r\n     // Check for this first to save gas on condition checking\r\n    if (numApproved < adminsRequired) return false;\r\n\r\n    // 3. If previous condition was not met, then proceed with function call\r\n\r\n    //*** EFFECTS ***\\\\      \r\n    // Update request's approval status to Approved\r\n    functionCallHistory[_requestID].approvalStatus = APPROVE.APPROVED;\r\n\r\n    // Emit approval event\r\n    emit RequestApproved(_requestID, block.timestamp);\r\n\r\n    //*** INTERACTIONS ***\\\\\r\n    // Function ID 1 (transfer)\r\n    if(request.funcID == 1){\r\n      // Retrieve and store input parameters for IERC20.transfer\r\n      transferParams memory params = transferParamsMap[_requestID];\r\n\r\n      // Call IERC20.transfer using parameters from params\r\n      if(IERC20(params.contractAddress).transfer(params.to, params.amount)){\r\n        return true;\r\n      }\r\n      return false;\r\n    }\r\n\r\n    // Function ID 2 (transferFrom)\r\n    if(request.funcID == 2){\r\n      // Retrieve and store input parameters for IERC20.transferFrom\r\n      transferFromParams memory params = transferFromParamsMap[_requestID];\r\n\r\n      // Call IERC20.transferFrom using parameters from transferFromParams\r\n      if(IERC20(params.contractAddress).transferFrom(params.from, params.to, params.amount)){\r\n        return true;\r\n      }\r\n      return false;\r\n    }\r\n\r\n    //*** ADDITIONAL FUNCTION ID BRANCHES WOULD GO HERE ***\\\\\r\n\r\n    else return false;\r\n\r\n  }\r\n\r\n  // Cancel request, only user who submitted request or Admins may cancel\r\n  function cancelRequest(uint256 _requestID) external onlyAdmin returns(bool) {\r\n    // Declare local variables\r\n    functionCallRequest memory request = functionCallHistory[_requestID];\r\n\r\n    // Check request has not been approved or cancelled\r\n    require(\r\n      request.approvalStatus != APPROVE.APPROVED ||\r\n      request.approvalStatus != APPROVE.CANCELLED,\r\n      \"Request approved or cancelled\");\r\n\r\n    // Update request approval status to Cancelled\r\n    functionCallHistory[_requestID].approvalStatus = APPROVE.CANCELLED;\r\n\r\n    // Emit cancellation alert\r\n    emit RequestCancelled(_requestID, msg.sender, block.timestamp);\r\n    return true;\r\n  }\r\n\r\n  // Returns pending request IDs\r\n  function getPendingRequestIDs() public view returns (uint256[] memory pendingReqIDs) {\r\n    // 0. Initialize variables\r\n    uint256 arrayLength = 0; // Length of pendingReqIDs\r\n    uint256 j = 0; // Index values for pendingReqIDs\r\n\r\n    // 1. Tally number of pending transactions to find arrayLength\r\n     // Unchecked to save gas for smart contract interactions, overflow unlikely\r\n    unchecked {\r\n      for (uint256 i = 0; i < functionCallHistory.length; i++) {\r\n        // Store request in local memory\r\n        functionCallRequest memory request = functionCallHistory[i];\r\n\r\n          // If request was Approved or Cancelled, then skip to next request\r\n          if (\r\n            request.approvalStatus == APPROVE.APPROVED ||\r\n            request.approvalStatus == APPROVE.CANCELLED\r\n            ) {\r\n              continue;\r\n          }\r\n          // If request was not skipped, then increment arrayLength     \r\n            arrayLength++;\r\n      }\r\n\r\n      // 2. Create, populate, and return a static array of pending request IDs\r\n      pendingReqIDs = new uint256[](arrayLength);\r\n\r\n      // 2b. Populate each pendingReqIDs array element\r\n      for (uint256 i = 0; i < arrayLength; i++) {\r\n        // Store request in local memory\r\n        functionCallRequest memory request = functionCallHistory[i];\r\n\r\n        // If request was Approved or Cancelled, then skip to next request\r\n        if (\r\n          request.approvalStatus == APPROVE.APPROVED ||\r\n          request.approvalStatus == APPROVE.CANCELLED\r\n          ) {\r\n            continue;\r\n          }\r\n\r\n        // If request was not skipped, then add request ID to pendingReqIDs\r\n        pendingReqIDs[j] = request.funcID;      \r\n        j++;\r\n      }\r\n    }\r\n\r\n    // 3. Return array of funcIDs\r\n    return pendingReqIDs;\r\n  }\r\n\r\n\r\n\r\n}\r\n",
  "sourcePath": "D:/Documents/Solidity/multisigcontracts/contracts/MultiSigContract.sol",
  "compiler": {
    "name": "solc",
    "version": "0.8.0+commit.c7dfd78e.Emscripten.clang"
  },
  "schemaVersion": "3.4.1",
  "updatedAt": "2022-07-05T22:06:11.391Z",
  "devdoc": {
    "kind": "dev",
    "methods": {
      "constructor": {
        "params": {
          "_admins": "Array of all Admins with multi-sig permissions",
          "_denominator": "Denominator of multi-sig requirement ratio",
          "_numerator": "Numerator of multi-sig requirement ratio"
        }
      },
      "owner()": {
        "details": "Returns the address of the current owner."
      },
      "renounceOwnership()": {
        "details": "Leaves the contract without owner. It will not be possible to call `onlyOwner` functions anymore. Can only be called by the current owner. NOTE: Renouncing ownership will leave the contract without an owner, thereby removing any functionality that is only available to the owner."
      },
      "submitTransferFromReq(address,address,address,uint256)": {
        "details": "This contract must be approved before submitting transferFrom requestEmits RequestSubmitted eventEmits TransferFromParams event",
        "params": {
          "_amount": "Amount",
          "_from": "Sender",
          "_to": "Recipient"
        },
        "returns": {
          "requestID": "Array index position of function call request",
          "success": "Bool flag indicating completion of submission, not necessary"
        }
      },
      "submitTransferReq(address,address,uint256)": {
        "details": "Emits RequestSubmitted eventEmits TransferParams event",
        "params": {
          "_amount": "Amount",
          "_to": "Recipient"
        },
        "returns": {
          "requestID": "Array index position of function call request",
          "success": "Bool flag indicating completion of submission, not necessary"
        }
      },
      "transferOwnership(address)": {
        "details": "Transfers ownership of the contract to a new account (`newOwner`). Can only be called by the current owner."
      }
    },
    "version": 1
  },
  "userdoc": {
    "kind": "user",
    "methods": {
      "submitTransferFromReq(address,address,address,uint256)": {
        "notice": "Submits a request for function ID 2: IERC20.transferFrom"
      },
      "submitTransferReq(address,address,uint256)": {
        "notice": "Submits a function call request for IERC20.transfer"
      }
    },
    "version": 1
  }
}