{
  "contractName": "SimpleMultiSig",
  "abi": [
    {
      "inputs": [
        {
          "internalType": "address[]",
          "name": "_admins",
          "type": "address[]"
        },
        {
          "internalType": "uint256",
          "name": "_numerator",
          "type": "uint256"
        },
        {
          "internalType": "uint256",
          "name": "_denominator",
          "type": "uint256"
        }
      ],
      "stateMutability": "nonpayable",
      "type": "constructor"
    },
    {
      "anonymous": false,
      "inputs": [
        {
          "indexed": true,
          "internalType": "uint256",
          "name": "txID",
          "type": "uint256"
        },
        {
          "indexed": false,
          "internalType": "address",
          "name": "admin",
          "type": "address"
        },
        {
          "indexed": false,
          "internalType": "uint256",
          "name": "timestamp",
          "type": "uint256"
        }
      ],
      "name": "AdminApproved",
      "type": "event"
    },
    {
      "anonymous": false,
      "inputs": [
        {
          "indexed": true,
          "internalType": "address",
          "name": "user",
          "type": "address"
        },
        {
          "indexed": false,
          "internalType": "uint256",
          "name": "amount",
          "type": "uint256"
        },
        {
          "indexed": false,
          "internalType": "uint256",
          "name": "currentBalance",
          "type": "uint256"
        },
        {
          "indexed": false,
          "internalType": "uint256",
          "name": "availableBalance",
          "type": "uint256"
        },
        {
          "indexed": false,
          "internalType": "uint256",
          "name": "timestamp",
          "type": "uint256"
        }
      ],
      "name": "ETHDeposited",
      "type": "event"
    },
    {
      "anonymous": false,
      "inputs": [
        {
          "indexed": true,
          "internalType": "address",
          "name": "previousOwner",
          "type": "address"
        },
        {
          "indexed": true,
          "internalType": "address",
          "name": "newOwner",
          "type": "address"
        }
      ],
      "name": "OwnershipTransferred",
      "type": "event"
    },
    {
      "anonymous": false,
      "inputs": [
        {
          "indexed": true,
          "internalType": "uint256",
          "name": "txID",
          "type": "uint256"
        },
        {
          "indexed": false,
          "internalType": "uint256",
          "name": "timestamp",
          "type": "uint256"
        }
      ],
      "name": "TransactionApproved",
      "type": "event"
    },
    {
      "anonymous": false,
      "inputs": [
        {
          "indexed": true,
          "internalType": "uint256",
          "name": "txID",
          "type": "uint256"
        },
        {
          "indexed": false,
          "internalType": "address",
          "name": "caller",
          "type": "address"
        },
        {
          "indexed": false,
          "internalType": "uint256",
          "name": "timestamp",
          "type": "uint256"
        }
      ],
      "name": "TransactionCancelled",
      "type": "event"
    },
    {
      "anonymous": false,
      "inputs": [
        {
          "indexed": true,
          "internalType": "uint256",
          "name": "txID",
          "type": "uint256"
        },
        {
          "indexed": true,
          "internalType": "address",
          "name": "sender",
          "type": "address"
        },
        {
          "indexed": true,
          "internalType": "address",
          "name": "receiver",
          "type": "address"
        },
        {
          "indexed": false,
          "internalType": "uint256",
          "name": "amount",
          "type": "uint256"
        }
      ],
      "name": "TransactionDetails",
      "type": "event"
    },
    {
      "anonymous": false,
      "inputs": [
        {
          "indexed": true,
          "internalType": "uint256",
          "name": "txID",
          "type": "uint256"
        },
        {
          "indexed": false,
          "internalType": "uint256",
          "name": "timestamp",
          "type": "uint256"
        }
      ],
      "name": "TransactionSubmitted",
      "type": "event"
    },
    {
      "stateMutability": "nonpayable",
      "type": "fallback"
    },
    {
      "inputs": [
        {
          "internalType": "address",
          "name": "_address",
          "type": "address"
        }
      ],
      "name": "addAdmin",
      "outputs": [
        {
          "internalType": "uint256",
          "name": "adminID",
          "type": "uint256"
        }
      ],
      "stateMutability": "nonpayable",
      "type": "function"
    },
    {
      "inputs": [
        {
          "internalType": "address",
          "name": "",
          "type": "address"
        },
        {
          "internalType": "uint256",
          "name": "",
          "type": "uint256"
        }
      ],
      "name": "adminApproved",
      "outputs": [
        {
          "internalType": "bool",
          "name": "",
          "type": "bool"
        }
      ],
      "stateMutability": "view",
      "type": "function"
    },
    {
      "inputs": [
        {
          "internalType": "uint256",
          "name": "",
          "type": "uint256"
        }
      ],
      "name": "admins",
      "outputs": [
        {
          "internalType": "address",
          "name": "",
          "type": "address"
        }
      ],
      "stateMutability": "view",
      "type": "function"
    },
    {
      "inputs": [],
      "name": "availableBalance",
      "outputs": [
        {
          "internalType": "uint256",
          "name": "",
          "type": "uint256"
        }
      ],
      "stateMutability": "view",
      "type": "function"
    },
    {
      "inputs": [
        {
          "internalType": "address",
          "name": "",
          "type": "address"
        }
      ],
      "name": "isAdmin",
      "outputs": [
        {
          "internalType": "bool",
          "name": "",
          "type": "bool"
        }
      ],
      "stateMutability": "view",
      "type": "function"
    },
    {
      "inputs": [
        {
          "internalType": "uint256",
          "name": "_numerator",
          "type": "uint256"
        },
        {
          "internalType": "uint256",
          "name": "_denominator",
          "type": "uint256"
        }
      ],
      "name": "modifySignatureRatio",
      "outputs": [
        {
          "internalType": "bool",
          "name": "",
          "type": "bool"
        }
      ],
      "stateMutability": "nonpayable",
      "type": "function"
    },
    {
      "inputs": [],
      "name": "owner",
      "outputs": [
        {
          "internalType": "address",
          "name": "",
          "type": "address"
        }
      ],
      "stateMutability": "view",
      "type": "function"
    },
    {
      "inputs": [
        {
          "internalType": "uint256",
          "name": "_adminID",
          "type": "uint256"
        }
      ],
      "name": "removeAdmin",
      "outputs": [],
      "stateMutability": "nonpayable",
      "type": "function"
    },
    {
      "inputs": [],
      "name": "renounceOwnership",
      "outputs": [],
      "stateMutability": "nonpayable",
      "type": "function"
    },
    {
      "inputs": [
        {
          "internalType": "address",
          "name": "newOwner",
          "type": "address"
        }
      ],
      "name": "transferOwnership",
      "outputs": [],
      "stateMutability": "nonpayable",
      "type": "function"
    },
    {
      "inputs": [],
      "name": "trueBalance",
      "outputs": [
        {
          "internalType": "uint256",
          "name": "",
          "type": "uint256"
        }
      ],
      "stateMutability": "view",
      "type": "function"
    },
    {
      "inputs": [
        {
          "internalType": "uint256",
          "name": "",
          "type": "uint256"
        }
      ],
      "name": "txnHistory",
      "outputs": [
        {
          "internalType": "uint256",
          "name": "txID",
          "type": "uint256"
        },
        {
          "internalType": "address payable",
          "name": "recipient",
          "type": "address"
        },
        {
          "internalType": "address",
          "name": "sender",
          "type": "address"
        },
        {
          "internalType": "uint256",
          "name": "amount",
          "type": "uint256"
        },
        {
          "internalType": "enum SimpleMultiSig.APPROVE",
          "name": "approvalStatus",
          "type": "uint8"
        }
      ],
      "stateMutability": "view",
      "type": "function"
    },
    {
      "stateMutability": "payable",
      "type": "receive"
    },
    {
      "inputs": [
        {
          "internalType": "address payable",
          "name": "_recipient",
          "type": "address"
        },
        {
          "internalType": "uint256",
          "name": "_amount",
          "type": "uint256"
        }
      ],
      "name": "submitTransaction",
      "outputs": [
        {
          "internalType": "bool",
          "name": "success",
          "type": "bool"
        },
        {
          "internalType": "uint256",
          "name": "txID",
          "type": "uint256"
        }
      ],
      "stateMutability": "nonpayable",
      "type": "function"
    },
    {
      "inputs": [
        {
          "internalType": "uint256",
          "name": "_txID",
          "type": "uint256"
        }
      ],
      "name": "confirmTransfer",
      "outputs": [
        {
          "internalType": "bool",
          "name": "txnApproved",
          "type": "bool"
        }
      ],
      "stateMutability": "nonpayable",
      "type": "function"
    },
    {
      "inputs": [
        {
          "internalType": "uint256",
          "name": "_txID",
          "type": "uint256"
        }
      ],
      "name": "cancelTransaction",
      "outputs": [],
      "stateMutability": "nonpayable",
      "type": "function"
    },
    {
      "inputs": [],
      "name": "depositETH",
      "outputs": [],
      "stateMutability": "payable",
      "type": "function"
    },
    {
      "inputs": [],
      "name": "getPending",
      "outputs": [
        {
          "internalType": "uint256[]",
          "name": "pendingTxnIDs",
          "type": "uint256[]"
        }
      ],
      "stateMutability": "view",
      "type": "function"
    }
  ],
  "bytecode": "0x60806040526005546004546003805490506200001c9190620005f2565b620000289190620005ba565b6006553480156200003857600080fd5b5060405162003cd538038062003cd583398181016040528101906200005e919062000473565b8282826000620000736200039b60201b60201c565b9050806000806101000a81548173ffffffffffffffffffffffffffffffffffffffff021916908373ffffffffffffffffffffffffffffffffffffffff1602179055508073ffffffffffffffffffffffffffffffffffffffff16600073ffffffffffffffffffffffffffffffffffffffff167f8be0079c531659141344cd1fd0a4f28419497f9722a3daafe3b4186f6b6457e060405160405180910390a35060008114158015620001235750808211155b62000165576040517f08c379a00000000000000000000000000000000000000000000000000000000081526004016200015c9062000524565b60405180910390fd5b81600481905550806005819055506003339080600181540180825580915050600190039060005260206000200160009091909190916101000a81548173ffffffffffffffffffffffffffffffffffffffff021916908373ffffffffffffffffffffffffffffffffffffffff1602179055506001600260003373ffffffffffffffffffffffffffffffffffffffff1673ffffffffffffffffffffffffffffffffffffffff16815260200190815260200160002060006101000a81548160ff02191690831515021790555060005b83518110156200038e57600384828151811062000277577f4e487b7100000000000000000000000000000000000000000000000000000000600052603260045260246000fd5b60200260200101519080600181540180825580915050600190039060005260206000200160009091909190916101000a81548173ffffffffffffffffffffffffffffffffffffffff021916908373ffffffffffffffffffffffffffffffffffffffff1602179055506001600260008684815181106200031f577f4e487b7100000000000000000000000000000000000000000000000000000000600052603260045260246000fd5b602002602001015173ffffffffffffffffffffffffffffffffffffffff1673ffffffffffffffffffffffffffffffffffffffff16815260200190815260200160002060006101000a81548160ff0219169083151502179055508080620003859062000691565b91505062000231565b50505050505050620007a0565b600033905090565b6000620003ba620003b4846200057a565b62000546565b90508083825260208201905082856020860282011115620003da57600080fd5b60005b858110156200040e5781620003f3888262000418565b845260208401935060208301925050600181019050620003dd565b5050509392505050565b60008151905062000429816200076c565b92915050565b600082601f8301126200044157600080fd5b815162000453848260208601620003a3565b91505092915050565b6000815190506200046d8162000786565b92915050565b6000806000606084860312156200048957600080fd5b600084015167ffffffffffffffff811115620004a457600080fd5b620004b2868287016200042f565b9350506020620004c5868287016200045c565b9250506040620004d8868287016200045c565b9150509250925092565b6000620004f1601083620005a9565b91507f496d706f737369626c6520726174696f000000000000000000000000000000006000830152602082019050919050565b600060208201905081810360008301526200053f81620004e2565b9050919050565b6000604051905081810181811067ffffffffffffffff8211171562000570576200056f6200073d565b5b8060405250919050565b600067ffffffffffffffff8211156200059857620005976200073d565b5b602082029050602081019050919050565b600082825260208201905092915050565b6000620005c78262000687565b9150620005d48362000687565b925082620005e757620005e66200070e565b5b828204905092915050565b6000620005ff8262000687565b91506200060c8362000687565b9250817fffffffffffffffffffffffffffffffffffffffffffffffffffffffffffffffff0483118215151615620006485762000647620006df565b5b828202905092915050565b6000620006608262000667565b9050919050565b600073ffffffffffffffffffffffffffffffffffffffff82169050919050565b6000819050919050565b60006200069e8262000687565b91507fffffffffffffffffffffffffffffffffffffffffffffffffffffffffffffffff821415620006d457620006d3620006df565b5b600182019050919050565b7f4e487b7100000000000000000000000000000000000000000000000000000000600052601160045260246000fd5b7f4e487b7100000000000000000000000000000000000000000000000000000000600052601260045260246000fd5b7f4e487b7100000000000000000000000000000000000000000000000000000000600052604160045260246000fd5b620007778162000653565b81146200078357600080fd5b50565b620007918162000687565b81146200079d57600080fd5b50565b61352580620007b06000396000f3fe6080604052600436106101025760003560e01c8063715018a611610095578063ad7bbc2911610064578063ad7bbc291461044c578063c32cf65f14610475578063e4cfb039146104b2578063f2fde38b146104dd578063f6326fb31461050657610193565b8063715018a6146103a257806386cb4181146103b95780638da5cb5b146103f6578063ab2f0e511461042157610193565b80632c48e7db116100d15780632c48e7db146102be5780633380c0d8146102fb5780633fe9707714610324578063704802751461036557610193565b806311ae9ed2146101db57806314bfd6d0146102065780631d43b6531461024357806324d7806c1461028157610193565b3661019357346007600082825461011991906132e6565b92505081905550346008600082825461013291906132e6565b925050819055503373ffffffffffffffffffffffffffffffffffffffff167fe6842e3c66982eec53fbf127ab93e36198f7d048a044b2761abd0e131b3f84a434600754600854426040516101899493929190613257565b60405180910390a2005b34801561019f57600080fd5b506040517f08c379a00000000000000000000000000000000000000000000000000000000081526004016101d2906130c9565b60405180910390fd5b3480156101e757600080fd5b506101f0610510565b6040516101fd9190612fc3565b60405180910390f35b34801561021257600080fd5b5061022d60048036038101906102289190612aa4565b610b65565b60405161023a9190612f7f565b60405180910390f35b34801561024f57600080fd5b5061026a60048036038101906102659190612a2c565b610ba4565b604051610278929190613000565b60405180910390f35b34801561028d57600080fd5b506102a860048036038101906102a39190612a03565b610e73565b6040516102b59190612fe5565b60405180910390f35b3480156102ca57600080fd5b506102e560048036038101906102e09190612aa4565b610e93565b6040516102f29190612fe5565b60405180910390f35b34801561030757600080fd5b50610322600480360381019061031d9190612aa4565b6114a9565b005b34801561033057600080fd5b5061034b60048036038101906103469190612aa4565b6118ba565b60405161035c959493929190613204565b60405180910390f35b34801561037157600080fd5b5061038c60048036038101906103879190612a03565b61194d565b60405161039991906131e9565b60405180910390f35b3480156103ae57600080fd5b506103b7611a93565b005b3480156103c557600080fd5b506103e060048036038101906103db9190612acd565b611bcd565b6040516103ed9190612fe5565b60405180910390f35b34801561040257600080fd5b5061040b611d12565b6040516104189190612f7f565b60405180910390f35b34801561042d57600080fd5b50610436611d3b565b60405161044391906131e9565b60405180910390f35b34801561045857600080fd5b50610473600480360381019061046e9190612aa4565b611d41565b005b34801561048157600080fd5b5061049c60048036038101906104979190612a68565b6122c3565b6040516104a99190612fe5565b60405180910390f35b3480156104be57600080fd5b506104c76122f2565b6040516104d491906131e9565b60405180910390f35b3480156104e957600080fd5b5061050460048036038101906104ff9190612a03565b6122f8565b005b61050e6124a1565b005b60606000805b6009805490508110156107e55760006009828154811061055f577f4e487b7100000000000000000000000000000000000000000000000000000000600052603260045260246000fd5b90600052602060002090600502016040518060a0016040529081600082015481526020016001820160009054906101000a900473ffffffffffffffffffffffffffffffffffffffff1673ffffffffffffffffffffffffffffffffffffffff1673ffffffffffffffffffffffffffffffffffffffff1681526020016002820160009054906101000a900473ffffffffffffffffffffffffffffffffffffffff1673ffffffffffffffffffffffffffffffffffffffff1673ffffffffffffffffffffffffffffffffffffffff168152602001600382015481526020016004820160009054906101000a900460ff166003811115610683577f4e487b7100000000000000000000000000000000000000000000000000000000600052602160045260246000fd5b60038111156106bb577f4e487b7100000000000000000000000000000000000000000000000000000000600052602160045260246000fd5b815250509050600260038111156106fb577f4e487b7100000000000000000000000000000000000000000000000000000000600052602160045260246000fd5b81608001516003811115610738577f4e487b7100000000000000000000000000000000000000000000000000000000600052602160045260246000fd5b14806107b75750600380811115610778577f4e487b7100000000000000000000000000000000000000000000000000000000600052602160045260246000fd5b816080015160038111156107b5577f4e487b7100000000000000000000000000000000000000000000000000000000600052602160045260246000fd5b145b156107c257506107d2565b82806107cd906133ef565b935050505b80806107dd906133ef565b915050610516565b508067ffffffffffffffff811115610826577f4e487b7100000000000000000000000000000000000000000000000000000000600052604160045260246000fd5b6040519080825280602002602001820160405280156108545781602001602082028036833780820191505090505b50915060005b81811015610b605760006009828154811061089e577f4e487b7100000000000000000000000000000000000000000000000000000000600052603260045260246000fd5b90600052602060002090600502016040518060a0016040529081600082015481526020016001820160009054906101000a900473ffffffffffffffffffffffffffffffffffffffff1673ffffffffffffffffffffffffffffffffffffffff1673ffffffffffffffffffffffffffffffffffffffff1681526020016002820160009054906101000a900473ffffffffffffffffffffffffffffffffffffffff1673ffffffffffffffffffffffffffffffffffffffff1673ffffffffffffffffffffffffffffffffffffffff168152602001600382015481526020016004820160009054906101000a900460ff1660038111156109c2577f4e487b7100000000000000000000000000000000000000000000000000000000600052602160045260246000fd5b60038111156109fa577f4e487b7100000000000000000000000000000000000000000000000000000000600052602160045260246000fd5b81525050905060026003811115610a3a577f4e487b7100000000000000000000000000000000000000000000000000000000600052602160045260246000fd5b81608001516003811115610a77577f4e487b7100000000000000000000000000000000000000000000000000000000600052602160045260246000fd5b1480610af65750600380811115610ab7577f4e487b7100000000000000000000000000000000000000000000000000000000600052602160045260246000fd5b81608001516003811115610af4577f4e487b7100000000000000000000000000000000000000000000000000000000600052602160045260246000fd5b145b15610b015750610b4d565b8060000151848381518110610b3f577f4e487b7100000000000000000000000000000000000000000000000000000000600052603260045260246000fd5b602002602001018181525050505b8080610b58906133ef565b91505061085a565b505090565b60038181548110610b7557600080fd5b906000526020600020016000915054906101000a900473ffffffffffffffffffffffffffffffffffffffff1681565b60008060098054905090506000339050836008541015610bf9576040517f08c379a0000000000000000000000000000000000000000000000000000000008152600401610bf090613069565b60405180910390fd5b60006040518060a001604052808481526020018773ffffffffffffffffffffffffffffffffffffffff1681526020018373ffffffffffffffffffffffffffffffffffffffff16815260200186815260200160006003811115610c84577f4e487b7100000000000000000000000000000000000000000000000000000000600052602160045260246000fd5b815250905060098190806001815401808255809150506001900390600052602060002090600502016000909190919091506000820151816000015560208201518160010160006101000a81548173ffffffffffffffffffffffffffffffffffffffff021916908373ffffffffffffffffffffffffffffffffffffffff16021790555060408201518160020160006101000a81548173ffffffffffffffffffffffffffffffffffffffff021916908373ffffffffffffffffffffffffffffffffffffffff1602179055506060820151816003015560808201518160040160006101000a81548160ff02191690836003811115610da8577f4e487b7100000000000000000000000000000000000000000000000000000000600052602160045260246000fd5b021790555050508460086000828254610dc1919061333c565b92505081905550827ffff5a2b874635399872c2a4ff63c24e7b8be58cdff5a8b99a063fdd7742e658a42604051610df891906131e9565b60405180910390a28573ffffffffffffffffffffffffffffffffffffffff163373ffffffffffffffffffffffffffffffffffffffff16847f6767eff78758102f1c9b5e9f15e8267f0e0f37d559922ede7506098351d6f84b88604051610e5e91906131e9565b60405180910390a46001935050509250929050565b60026020528060005260406000206000915054906101000a900460ff1681565b60008060098381548110610ed0577f4e487b7100000000000000000000000000000000000000000000000000000000600052603260045260246000fd5b90600052602060002090600502016040518060a0016040529081600082015481526020016001820160009054906101000a900473ffffffffffffffffffffffffffffffffffffffff1673ffffffffffffffffffffffffffffffffffffffff1673ffffffffffffffffffffffffffffffffffffffff1681526020016002820160009054906101000a900473ffffffffffffffffffffffffffffffffffffffff1673ffffffffffffffffffffffffffffffffffffffff1673ffffffffffffffffffffffffffffffffffffffff168152602001600382015481526020016004820160009054906101000a900460ff166003811115610ff4577f4e487b7100000000000000000000000000000000000000000000000000000000600052602160045260246000fd5b600381111561102c577f4e487b7100000000000000000000000000000000000000000000000000000000600052602160045260246000fd5b815250509050600081608001519050600260003373ffffffffffffffffffffffffffffffffffffffff1673ffffffffffffffffffffffffffffffffffffffff16815260200190815260200160002060009054906101000a900460ff166110c7576040517f08c379a00000000000000000000000000000000000000000000000000000000081526004016110be90613029565b60405180910390fd5b60026003811115611101577f4e487b7100000000000000000000000000000000000000000000000000000000600052602160045260246000fd5b81600381111561113a577f4e487b7100000000000000000000000000000000000000000000000000000000600052602160045260246000fd5b141561117b576040517f08c379a000000000000000000000000000000000000000000000000000000000815260040161117290613189565b60405180910390fd5b6003808111156111b4577f4e487b7100000000000000000000000000000000000000000000000000000000600052602160045260246000fd5b8160038111156111ed577f4e487b7100000000000000000000000000000000000000000000000000000000600052602160045260246000fd5b141561122e576040517f08c379a000000000000000000000000000000000000000000000000000000000815260040161122590613109565b60405180910390fd5b600160003373ffffffffffffffffffffffffffffffffffffffff1673ffffffffffffffffffffffffffffffffffffffff168152602001908152602001600020600085815260200190815260200160002060009054906101000a900460ff16156112cc576040517f08c379a00000000000000000000000000000000000000000000000000000000081526004016112c3906130e9565b60405180910390fd5b60006003811115611306577f4e487b7100000000000000000000000000000000000000000000000000000000600052602160045260246000fd5b81600381111561133f577f4e487b7100000000000000000000000000000000000000000000000000000000600052602160045260246000fd5b14156113e057600160098581548110611381577f4e487b7100000000000000000000000000000000000000000000000000000000600052603260045260246000fd5b906000526020600020906005020160040160006101000a81548160ff021916908360038111156113da577f4e487b7100000000000000000000000000000000000000000000000000000000600052602160045260246000fd5b02179055505b60018060003373ffffffffffffffffffffffffffffffffffffffff1673ffffffffffffffffffffffffffffffffffffffff168152602001908152602001600020600086815260200190815260200160002060006101000a81548160ff021916908315150217905550837f24f468a2eaafe5cf853bc1dc9b780dd65674b1e57537ed16b1ceb3b0a7bd713b334260405161147a929190612f9a565b60405180910390a261148f8260000151612571565b1561149d57600192506114a2565b600092505b5050919050565b6000600982815481106114e5577f4e487b7100000000000000000000000000000000000000000000000000000000600052603260045260246000fd5b90600052602060002090600502016040518060a0016040529081600082015481526020016001820160009054906101000a900473ffffffffffffffffffffffffffffffffffffffff1673ffffffffffffffffffffffffffffffffffffffff1673ffffffffffffffffffffffffffffffffffffffff1681526020016002820160009054906101000a900473ffffffffffffffffffffffffffffffffffffffff1673ffffffffffffffffffffffffffffffffffffffff1673ffffffffffffffffffffffffffffffffffffffff168152602001600382015481526020016004820160009054906101000a900460ff166003811115611609577f4e487b7100000000000000000000000000000000000000000000000000000000600052602160045260246000fd5b6003811115611641577f4e487b7100000000000000000000000000000000000000000000000000000000600052602160045260246000fd5b81525050905060026003811115611681577f4e487b7100000000000000000000000000000000000000000000000000000000600052602160045260246000fd5b816080015160038111156116be577f4e487b7100000000000000000000000000000000000000000000000000000000600052602160045260246000fd5b14156116ff576040517f08c379a00000000000000000000000000000000000000000000000000000000081526004016116f6906131c9565b60405180910390fd5b3373ffffffffffffffffffffffffffffffffffffffff16816040015173ffffffffffffffffffffffffffffffffffffffff1614806117865750600260003373ffffffffffffffffffffffffffffffffffffffff1673ffffffffffffffffffffffffffffffffffffffff16815260200190815260200160002060009054906101000a900460ff165b6117c5576040517f08c379a00000000000000000000000000000000000000000000000000000000081526004016117bc90613089565b60405180910390fd5b600360098381548110611801577f4e487b7100000000000000000000000000000000000000000000000000000000600052603260045260246000fd5b906000526020600020906005020160040160006101000a81548160ff0219169083600381111561185a577f4e487b7100000000000000000000000000000000000000000000000000000000600052602160045260246000fd5b021790555080606001516008600082825461187591906132e6565b92505081905550817ff29b51556b15ccef9ae2dae672fd2310236afd356ba6b020dfa202086568cdde33426040516118ae929190612f9a565b60405180910390a25050565b600981815481106118ca57600080fd5b90600052602060002090600502016000915090508060000154908060010160009054906101000a900473ffffffffffffffffffffffffffffffffffffffff16908060020160009054906101000a900473ffffffffffffffffffffffffffffffffffffffff16908060030154908060040160009054906101000a900460ff16905085565b60006119576129bc565b73ffffffffffffffffffffffffffffffffffffffff16611975611d12565b73ffffffffffffffffffffffffffffffffffffffff16146119cb576040517f08c379a00000000000000000000000000000000000000000000000000000000081526004016119c290613149565b60405180910390fd5b60038054905090506003829080600181540180825580915050600190039060005260206000200160009091909190916101000a81548173ffffffffffffffffffffffffffffffffffffffff021916908373ffffffffffffffffffffffffffffffffffffffff1602179055506001600260008473ffffffffffffffffffffffffffffffffffffffff1673ffffffffffffffffffffffffffffffffffffffff16815260200190815260200160002060006101000a81548160ff021916908315150217905550919050565b611a9b6129bc565b73ffffffffffffffffffffffffffffffffffffffff16611ab9611d12565b73ffffffffffffffffffffffffffffffffffffffff1614611b0f576040517f08c379a0000000000000000000000000000000000000000000000000000000008152600401611b0690613149565b60405180910390fd5b600073ffffffffffffffffffffffffffffffffffffffff1660008054906101000a900473ffffffffffffffffffffffffffffffffffffffff1673ffffffffffffffffffffffffffffffffffffffff167f8be0079c531659141344cd1fd0a4f28419497f9722a3daafe3b4186f6b6457e060405160405180910390a360008060006101000a81548173ffffffffffffffffffffffffffffffffffffffff021916908373ffffffffffffffffffffffffffffffffffffffff160217905550565b6000611bd76129bc565b73ffffffffffffffffffffffffffffffffffffffff16611bf5611d12565b73ffffffffffffffffffffffffffffffffffffffff1614611c4b576040517f08c379a0000000000000000000000000000000000000000000000000000000008152600401611c4290613149565b60405180910390fd5b60045483141580611c5e57506005548214155b611c9d576040517f08c379a0000000000000000000000000000000000000000000000000000000008152600401611c9490613129565b60405180910390fd5b60008214158015611caf575060008314155b8015611cbb5750818311155b611cfa576040517f08c379a0000000000000000000000000000000000000000000000000000000008152600401611cf1906130a9565b60405180910390fd5b82600481905550816005819055506001905092915050565b60008060009054906101000a900473ffffffffffffffffffffffffffffffffffffffff16905090565b60085481565b611d496129bc565b73ffffffffffffffffffffffffffffffffffffffff16611d67611d12565b73ffffffffffffffffffffffffffffffffffffffff1614611dbd576040517f08c379a0000000000000000000000000000000000000000000000000000000008152600401611db490613149565b60405180910390fd5b600060038281548110611df9577f4e487b7100000000000000000000000000000000000000000000000000000000600052603260045260246000fd5b9060005260206000200160009054906101000a900473ffffffffffffffffffffffffffffffffffffffff169050611e2e611d12565b73ffffffffffffffffffffffffffffffffffffffff168173ffffffffffffffffffffffffffffffffffffffff161415611e9c576040517f08c379a0000000000000000000000000000000000000000000000000000000008152600401611e9390613169565b60405180910390fd5b60006002600060038581548110611edc577f4e487b7100000000000000000000000000000000000000000000000000000000600052603260045260246000fd5b9060005260206000200160009054906101000a900473ffffffffffffffffffffffffffffffffffffffff1673ffffffffffffffffffffffffffffffffffffffff1673ffffffffffffffffffffffffffffffffffffffff16815260200190815260200160002060006101000a81548160ff02191690831515021790555060005b6003805490508110156122be578173ffffffffffffffffffffffffffffffffffffffff1660038281548110611fb9577f4e487b7100000000000000000000000000000000000000000000000000000000600052603260045260246000fd5b9060005260206000200160009054906101000a900473ffffffffffffffffffffffffffffffffffffffff1673ffffffffffffffffffffffffffffffffffffffff1614612004576122ab565b6001600380549050612016919061333c565b811415612128578173ffffffffffffffffffffffffffffffffffffffff166003828154811061206e577f4e487b7100000000000000000000000000000000000000000000000000000000600052603260045260246000fd5b9060005260206000200160009054906101000a900473ffffffffffffffffffffffffffffffffffffffff1673ffffffffffffffffffffffffffffffffffffffff1614156121235760038054806120ed577f4e487b7100000000000000000000000000000000000000000000000000000000600052603160045260246000fd5b6001900381819060005260206000200160006101000a81549073ffffffffffffffffffffffffffffffffffffffff021916905590555b6122be565b600360018261213791906132e6565b8154811061216e577f4e487b7100000000000000000000000000000000000000000000000000000000600052603260045260246000fd5b9060005260206000200160009054906101000a900473ffffffffffffffffffffffffffffffffffffffff16600382815481106121d3577f4e487b7100000000000000000000000000000000000000000000000000000000600052603260045260246000fd5b9060005260206000200160006101000a81548173ffffffffffffffffffffffffffffffffffffffff021916908373ffffffffffffffffffffffffffffffffffffffff16021790555081600360018361222b91906132e6565b81548110612262577f4e487b7100000000000000000000000000000000000000000000000000000000600052603260045260246000fd5b9060005260206000200160006101000a81548173ffffffffffffffffffffffffffffffffffffffff021916908373ffffffffffffffffffffffffffffffffffffffff1602179055505b80806122b6906133ef565b915050611f5b565b505050565b60016020528160005260406000206020528060005260406000206000915091509054906101000a900460ff1681565b60075481565b6123006129bc565b73ffffffffffffffffffffffffffffffffffffffff1661231e611d12565b73ffffffffffffffffffffffffffffffffffffffff1614612374576040517f08c379a000000000000000000000000000000000000000000000000000000000815260040161236b90613149565b60405180910390fd5b600073ffffffffffffffffffffffffffffffffffffffff168173ffffffffffffffffffffffffffffffffffffffff1614156123e4576040517f08c379a00000000000000000000000000000000000000000000000000000000081526004016123db90613049565b60405180910390fd5b8073ffffffffffffffffffffffffffffffffffffffff1660008054906101000a900473ffffffffffffffffffffffffffffffffffffffff1673ffffffffffffffffffffffffffffffffffffffff167f8be0079c531659141344cd1fd0a4f28419497f9722a3daafe3b4186f6b6457e060405160405180910390a3806000806101000a81548173ffffffffffffffffffffffffffffffffffffffff021916908373ffffffffffffffffffffffffffffffffffffffff16021790555050565b60003414156124e5576040517f08c379a00000000000000000000000000000000000000000000000000000000081526004016124dc906131a9565b60405180910390fd5b34600760008282546124f791906132e6565b92505081905550346008600082825461251091906132e6565b925050819055503373ffffffffffffffffffffffffffffffffffffffff167fe6842e3c66982eec53fbf127ab93e36198f7d048a044b2761abd0e131b3f84a434600754600854426040516125679493929190613257565b60405180910390a2565b600080600090506000600984815481106125b4577f4e487b7100000000000000000000000000000000000000000000000000000000600052603260045260246000fd5b90600052602060002090600502016040518060a0016040529081600082015481526020016001820160009054906101000a900473ffffffffffffffffffffffffffffffffffffffff1673ffffffffffffffffffffffffffffffffffffffff1673ffffffffffffffffffffffffffffffffffffffff1681526020016002820160009054906101000a900473ffffffffffffffffffffffffffffffffffffffff1673ffffffffffffffffffffffffffffffffffffffff1673ffffffffffffffffffffffffffffffffffffffff168152602001600382015481526020016004820160009054906101000a900460ff1660038111156126d8577f4e487b7100000000000000000000000000000000000000000000000000000000600052602160045260246000fd5b6003811115612710577f4e487b7100000000000000000000000000000000000000000000000000000000600052602160045260246000fd5b81525050905060005b600380549050811015612814576001600060038381548110612764577f4e487b7100000000000000000000000000000000000000000000000000000000600052603260045260246000fd5b9060005260206000200160009054906101000a900473ffffffffffffffffffffffffffffffffffffffff1673ffffffffffffffffffffffffffffffffffffffff1673ffffffffffffffffffffffffffffffffffffffff168152602001908152602001600020600086815260200190815260200160002060009054906101000a900460ff166127f25782612800565b82806127fd906133ef565b93505b50808061280c906133ef565b915050612719565b5060065482106129b05780606001516007541015612867576040517f08c379a000000000000000000000000000000000000000000000000000000000815260040161285e90613069565b60405180910390fd5b6002600985815481106128a3577f4e487b7100000000000000000000000000000000000000000000000000000000600052603260045260246000fd5b906000526020600020906005020160040160006101000a81548160ff021916908360038111156128fc577f4e487b7100000000000000000000000000000000000000000000000000000000600052602160045260246000fd5b0217905550806060015160076000828254612917919061333c565b92505081905550806020015173ffffffffffffffffffffffffffffffffffffffff166108fc82606001519081150290604051600060405180830381858888f1935050505015801561296c573d6000803e3d6000fd5b50837fd6a7c76a45e03d9556990632f59530fb53e0f887a2a219d138d8a9a80cf7d3a94260405161299d91906131e9565b60405180910390a26001925050506129b7565b6000925050505b919050565b600033905090565b6000813590506129d3816134aa565b92915050565b6000813590506129e8816134c1565b92915050565b6000813590506129fd816134d8565b92915050565b600060208284031215612a1557600080fd5b6000612a23848285016129c4565b91505092915050565b60008060408385031215612a3f57600080fd5b6000612a4d858286016129d9565b9250506020612a5e858286016129ee565b9150509250929050565b60008060408385031215612a7b57600080fd5b6000612a89858286016129c4565b9250506020612a9a858286016129ee565b9150509250929050565b600060208284031215612ab657600080fd5b6000612ac4848285016129ee565b91505092915050565b60008060408385031215612ae057600080fd5b6000612aee858286016129ee565b9250506020612aff858286016129ee565b9150509250929050565b6000612b158383612f61565b60208301905092915050565b612b2a81613382565b82525050565b612b3981613370565b82525050565b6000612b4a826132ac565b612b5481856132c4565b9350612b5f8361329c565b8060005b83811015612b90578151612b778882612b09565b9750612b82836132b7565b925050600181019050612b63565b5085935050505092915050565b612ba681613394565b82525050565b612bb5816133dd565b82525050565b6000612bc8600c836132d5565b91507f556e617574686f72697a656400000000000000000000000000000000000000006000830152602082019050919050565b6000612c086026836132d5565b91507f4f776e61626c653a206e6577206f776e657220697320746865207a65726f206160008301527f64647265737300000000000000000000000000000000000000000000000000006020830152604082019050919050565b6000612c6e6014836132d5565b91507f496e73756666696369656e742062616c616e63650000000000000000000000006000830152602082019050919050565b6000612cae6011836132d5565b91507f4f6e6c792073656e6465722f41646d696e0000000000000000000000000000006000830152602082019050919050565b6000612cee6010836132d5565b91507f496d706f737369626c6520726174696f000000000000000000000000000000006000830152602082019050919050565b6000612d2e6017836132d5565b91507f46756e6374696f6e20646f6573206e6f742065786973740000000000000000006000830152602082019050919050565b6000612d6e600e836132d5565b91507f41646d696e20617070726f7665640000000000000000000000000000000000006000830152602082019050919050565b6000612dae6015836132d5565b91507f5472616e73616374696f6e2063616e63656c6c656400000000000000000000006000830152602082019050919050565b6000612dee6010836132d5565b91507f4e6f7468696e67206d6f646966696564000000000000000000000000000000006000830152602082019050919050565b6000612e2e6020836132d5565b91507f4f776e61626c653a2063616c6c6572206973206e6f7420746865206f776e65726000830152602082019050919050565b6000612e6e6012836132d5565b91507f43616e27742072656d6f7665206f776e657200000000000000000000000000006000830152602082019050919050565b6000612eae6014836132d5565b91507f5472616e73616374696f6e20617070726f7665640000000000000000000000006000830152602082019050919050565b6000612eee600b836132d5565b91507f416d6f756e74207a65726f0000000000000000000000000000000000000000006000830152602082019050919050565b6000612f2e600c836132d5565b91507f54786e20617070726f76656400000000000000000000000000000000000000006000830152602082019050919050565b612f6a816133d3565b82525050565b612f79816133d3565b82525050565b6000602082019050612f946000830184612b30565b92915050565b6000604082019050612faf6000830185612b30565b612fbc6020830184612f70565b9392505050565b60006020820190508181036000830152612fdd8184612b3f565b905092915050565b6000602082019050612ffa6000830184612b9d565b92915050565b60006040820190506130156000830185612b9d565b6130226020830184612f70565b9392505050565b6000602082019050818103600083015261304281612bbb565b9050919050565b6000602082019050818103600083015261306281612bfb565b9050919050565b6000602082019050818103600083015261308281612c61565b9050919050565b600060208201905081810360008301526130a281612ca1565b9050919050565b600060208201905081810360008301526130c281612ce1565b9050919050565b600060208201905081810360008301526130e281612d21565b9050919050565b6000602082019050818103600083015261310281612d61565b9050919050565b6000602082019050818103600083015261312281612da1565b9050919050565b6000602082019050818103600083015261314281612de1565b9050919050565b6000602082019050818103600083015261316281612e21565b9050919050565b6000602082019050818103600083015261318281612e61565b9050919050565b600060208201905081810360008301526131a281612ea1565b9050919050565b600060208201905081810360008301526131c281612ee1565b9050919050565b600060208201905081810360008301526131e281612f21565b9050919050565b60006020820190506131fe6000830184612f70565b92915050565b600060a0820190506132196000830188612f70565b6132266020830187612b21565b6132336040830186612b30565b6132406060830185612f70565b61324d6080830184612bac565b9695505050505050565b600060808201905061326c6000830187612f70565b6132796020830186612f70565b6132866040830185612f70565b6132936060830184612f70565b95945050505050565b6000819050602082019050919050565b600081519050919050565b6000602082019050919050565b600082825260208201905092915050565b600082825260208201905092915050565b60006132f1826133d3565b91506132fc836133d3565b9250827fffffffffffffffffffffffffffffffffffffffffffffffffffffffffffffffff0382111561333157613330613438565b5b828201905092915050565b6000613347826133d3565b9150613352836133d3565b92508282101561336557613364613438565b5b828203905092915050565b600061337b826133b3565b9050919050565b600061338d826133b3565b9050919050565b60008115159050919050565b60008190506133ae82613496565b919050565b600073ffffffffffffffffffffffffffffffffffffffff82169050919050565b6000819050919050565b60006133e8826133a0565b9050919050565b60006133fa826133d3565b91507fffffffffffffffffffffffffffffffffffffffffffffffffffffffffffffffff82141561342d5761342c613438565b5b600182019050919050565b7f4e487b7100000000000000000000000000000000000000000000000000000000600052601160045260246000fd5b7f4e487b7100000000000000000000000000000000000000000000000000000000600052602160045260246000fd5b600481106134a7576134a6613467565b5b50565b6134b381613370565b81146134be57600080fd5b50565b6134ca81613382565b81146134d557600080fd5b50565b6134e1816133d3565b81146134ec57600080fd5b5056fea264697066735822122098e38c3e330e6c3adbdb1b188b8d5c538e75d37b224ed186e4099196ee08d3fe64736f6c63430008000033",
  "immutableReferences": {},
  "source": "/**\r\n * @title Simple Multi Sig\r\n * @author Phoenix \"CryptoPhoenix\" Angell\r\n * @notice A simple multi-signature smart contract for managing a shared ETH balance.\r\n * @dev Inherits from WalletAdmins, which allows for adjustable multi-sig requirements.\r\n * @dev Multi-sig mechanism is internal to this contract.\r\n */\r\n// SPDX-License-Identifier: MIT\r\npragma solidity ^0.8.0;\r\n\r\nimport \"./WalletAdmins.sol\";\r\n\r\ncontract SimpleMultiSig is WalletAdmins {\r\n  \r\n  /**\r\n   * @notice Withdrawal request struct\r\n   *\r\n   * @param txID ID number of withdrawal\r\n   * @param recipient Recipient's address\r\n   * @param sender Sender requesting withdrawal\r\n   * @param amount Amount of ETH to send\r\n   * @param approvalStatus Approval status: Submitted, Pending, Approved, Cancelled\r\n   */\r\n  struct txnRequest {\r\n    uint txID;\r\n    address payable recipient;\r\n    address sender;\r\n    uint amount;\r\n    APPROVE approvalStatus;\r\n  }\r\n\r\n  // Approval status enum\r\n  enum APPROVE { SUBMITTED, PENDING, APPROVED, CANCELLED }\r\n\r\n\r\n  uint256 public trueBalance;\r\n  uint256 public availableBalance;\r\n\r\n  // History of all withdrawal requests:\r\n  txnRequest[] public txnHistory;\r\n\r\n  // EVENTS \\\\\r\n  // Fire when user submits new transaction\r\n  event TransactionSubmitted(uint indexed txID, uint timestamp);\r\n  event TransactionDetails(\r\n    uint indexed txID, \r\n    address indexed sender, \r\n    address indexed receiver, \r\n    uint amount\r\n  );\r\n  // Fires when transaction is approved\r\n  event TransactionApproved(uint indexed txID, uint timestamp);\r\n  // Fires when transaction is cancelled by user or Admin\r\n  event TransactionCancelled(uint indexed txID, address caller, uint timestamp);\r\n  // Fires when Admin approves transaction\r\n  event AdminApproved(uint indexed txID, address admin, uint timestamp);\r\n  // Fires when user deposits ether\r\n  event ETHDeposited(\r\n    address indexed user, \r\n    uint amount, \r\n    uint currentBalance, \r\n    uint availableBalance, \r\n    uint timestamp\r\n  );\r\n\r\n  constructor(\r\n    address[] memory _admins, \r\n    uint _numerator, \r\n    uint _denominator\r\n  ) WalletAdmins(_admins, _numerator, _denominator) {\r\n    super;\r\n  }\r\n\r\n  // Submits a transaction request\r\n  /**\r\n   * @notice Submits a user's transaction request\r\n   *\r\n   * @param _recipient Transaction recipient\r\n   * @param _amount Amount of wei being sent\r\n   */\r\n  function submitTransaction(address payable _recipient, uint _amount) external returns (bool success, uint txID) {\r\n    // Declare local variables\r\n    txID = txnHistory.length;\r\n    address _sender = msg.sender;\r\n\r\n    // Check pending balance\r\n    require (availableBalance >= _amount, \"Insufficient balance\");\r\n\r\n\r\n    // Create new transaction request\r\n    txnRequest memory pendingRequest =\r\n    txnRequest(\r\n              txID,\r\n              _recipient,\r\n              _sender,\r\n              _amount,\r\n              APPROVE.SUBMITTED);\r\n\r\n    // Add transaction request to transaction history\r\n    txnHistory.push(pendingRequest);\r\n\r\n    // Adjust contract's pending balance\r\n    availableBalance -= _amount;\r\n\r\n    // Emit events, return success bool\r\n    emit TransactionSubmitted(txID, block.timestamp);\r\n    emit TransactionDetails(txID, msg.sender, _recipient, _amount);\r\n    success = true;\r\n  }\r\n\r\n  // Confirm transaction, only Admins may call\r\n  function confirmTransfer(uint _txID) external returns (bool txnApproved) {\r\n    // Declare local variables\r\n    txnRequest memory approvedTxn = txnHistory[_txID];\r\n    APPROVE status = approvedTxn.approvalStatus;\r\n    \r\n    // Check msg.sender has Admin status\r\n    require(isAdmin[msg.sender], \"Unauthorized\");\r\n    // Check transaction hasn't been approved already\r\n    require(status != APPROVE.APPROVED, \"Transaction approved\");\r\n    // Check transaction hasn't been cancelled\r\n    require(status != APPROVE.CANCELLED, \"Transaction cancelled\");\r\n    // Check Admin has not already approved transaction\r\n    require(!adminApproved[msg.sender][_txID], \"Admin approved\");\r\n\r\n\r\n    // If txnRequest was Submitted, then set to Pending    \r\n    if(status == APPROVE.SUBMITTED) {\r\n        txnHistory[_txID].approvalStatus = APPROVE.PENDING;\r\n      }\r\n    \r\n    // Update Admin's transaction approval\r\n    adminApproved[msg.sender][_txID] = true;\r\n    // Emit event alert for Admin's approval\r\n    emit AdminApproved(_txID, msg.sender, block.timestamp);\r\n    \r\n    // Run multi-sig check algorithm, return true if transaction is approved, false if not\r\n    if(_txnApproved(approvedTxn.txID)) txnApproved = true;\r\n    else txnApproved = false;\r\n  }\r\n\r\n  // Tallies up Admin approvals for transaction, performs transaction if multi-sig requirement is met\r\n  function _txnApproved(uint _txID) private returns (bool) {\r\n    // 0. Initialize local variables\r\n    uint numApproved = 0;\r\n    txnRequest memory transaction = txnHistory[_txID];\r\n\r\n    // 1. Iterate through admins array and tally up approvals\r\n    for (uint i = 0; i < admins.length; i++) {\r\n      // Tertiary operator: If Admin approved then increment counter, if not then leave alone\r\n      adminApproved[admins[i]][_txID] ?\r\n        numApproved++ :\r\n        numApproved;\r\n    }\r\n\r\n    // 2. If approvals meet or exceed multi-sig requirement, then process transaction and return true flag\r\n    if (numApproved >= adminsRequired) {\r\n\r\n      //*** CHECKS ***\\\\\r\n      require(trueBalance >= transaction.amount, \"Insufficient balance\");\r\n\r\n      //*** EFFECTS ***\\\\      \r\n      // Update transaction's approval status to Approved\r\n      txnHistory[_txID].approvalStatus = APPROVE.APPROVED;\r\n      // Update contract's current balance\r\n      trueBalance -= transaction.amount;\r\n\r\n      //*** INTERACTIONS ***\\\\\r\n      // Transfer ETH to recipient\r\n      transaction.recipient.transfer(transaction.amount);\r\n\r\n      // Emit approval event\r\n      emit TransactionApproved(_txID, block.timestamp);\r\n      // Return true flag\r\n      return true;\r\n\r\n    }\r\n\r\n    // 3. If approvals did not meet multi-sig requirement, then return false flag\r\n    return false;\r\n  }\r\n\r\n  // Cancel transaction, only user who submitted transaction or Admins may cancel\r\n  function cancelTransaction(uint _txID) external {\r\n    // Declare local variables\r\n    txnRequest memory transaction = txnHistory[_txID];\r\n\r\n    // Check transaction has not been approved\r\n    require(transaction.approvalStatus != APPROVE.APPROVED, \"Txn approved\");\r\n    // Check caller is transaction's sender or Admin\r\n    require (\r\n      transaction.sender == msg.sender || \r\n      isAdmin[msg.sender],\r\n      \"Only sender/Admin\"\r\n    );\r\n\r\n    // Update transaction approval status to Cancelled\r\n    txnHistory[_txID].approvalStatus = APPROVE.CANCELLED;\r\n    // Update contract's pending balance\r\n    availableBalance += transaction.amount;\r\n\r\n    // Emit cancellation alert\r\n    emit TransactionCancelled(_txID, msg.sender, block.timestamp);\r\n  }\r\n\r\n  // Deposits ETH\r\n  function depositETH() external payable {\r\n    // Check amount is not zero\r\n    require(msg.value != 0, \"Amount zero\");\r\n\r\n    // Update contract's balances\r\n    trueBalance += msg.value;\r\n    availableBalance += msg.value;\r\n\r\n    // Emit alert for new deposit\r\n    emit ETHDeposited(\r\n      msg.sender, \r\n      msg.value, \r\n      trueBalance, \r\n      availableBalance, \r\n      block.timestamp\r\n    );\r\n  }\r\n\r\n  // Runs same logic as depositETH, minus the requirement for a non-zero deposit\r\n  receive() external payable {\r\n    // Update contract's balances\r\n    trueBalance += msg.value;\r\n    availableBalance += msg.value;\r\n    \r\n    // Emit alert for new deposit\r\n    emit ETHDeposited(\r\n      msg.sender, \r\n      msg.value, \r\n      trueBalance, \r\n       availableBalance, \r\n      block.timestamp\r\n    );\r\n  }\r\n\r\n  // Returns an error alerting sender that function does not exist\r\n  fallback() external {\r\n    revert(\"Function does not exist\");\r\n  }\r\n\r\n  // Returns pending transaction IDs\r\n  function getPending() public view returns (uint[] memory pendingTxnIDs) {\r\n    // 0. Initialize arrayLength variable\r\n    uint arrayLength = 0;\r\n\r\n    // 1. Tally number of pending transactions to find arrayLength\r\n    for (uint i = 0; i < txnHistory.length; i++) {\r\n      // Store transaction in local memory\r\n      txnRequest memory transaction = txnHistory[i];\r\n\r\n        // If transaction was Approved or Cancelled, then skip to next transaction\r\n        if (\r\n          transaction.approvalStatus == APPROVE.APPROVED ||\r\n          transaction.approvalStatus == APPROVE.CANCELLED\r\n          ) {\r\n            continue;\r\n        }\r\n        // If transaction was not skipped, then increment arrayLength\r\n        arrayLength++;\r\n    }\r\n\r\n    // 2. Create, populate, and return a static array of pending transaction IDs\r\n    // 2a. Define size of pendingTxnIDs using arrayLength found in step 1\r\n    pendingTxnIDs = new uint[](arrayLength);\r\n\r\n    // 2b. Populate each pendingTxnIDs array element\r\n    for (uint i = 0; i < arrayLength; i++) {\r\n      // Store transaction in local memory\r\n      txnRequest memory transaction = txnHistory[i];\r\n\r\n      // If transaction was Approved or Cancelled, then skip to next transaction\r\n      if (\r\n        transaction.approvalStatus == APPROVE.APPROVED ||\r\n        transaction.approvalStatus == APPROVE.CANCELLED\r\n        ) {\r\n          continue;\r\n      }\r\n\r\n      // Add transaction ID to pendingTxnIDs\r\n      pendingTxnIDs[i] = transaction.txID;      \r\n    }\r\n\r\n    // 3. Return array of txnIDs\r\n    return pendingTxnIDs;\r\n  }\r\n\r\n}\r\n",
  "sourcePath": "D:/Documents/Solidity/multisigcontracts/contracts/SimpleMultiSig.sol",
  "compiler": {
    "name": "solc",
    "version": "0.8.0+commit.c7dfd78e.Emscripten.clang"
  },
  "schemaVersion": "3.4.1",
  "updatedAt": "2022-07-05T22:07:14.840Z",
  "devdoc": {
    "kind": "dev",
    "methods": {
      "owner()": {
        "details": "Returns the address of the current owner."
      },
      "renounceOwnership()": {
        "details": "Leaves the contract without owner. It will not be possible to call `onlyOwner` functions anymore. Can only be called by the current owner. NOTE: Renouncing ownership will leave the contract without an owner, thereby removing any functionality that is only available to the owner."
      },
      "submitTransaction(address,uint256)": {
        "params": {
          "_amount": "Amount of wei being sent",
          "_recipient": "Transaction recipient"
        }
      },
      "transferOwnership(address)": {
        "details": "Transfers ownership of the contract to a new account (`newOwner`). Can only be called by the current owner."
      }
    },
    "version": 1
  },
  "userdoc": {
    "kind": "user",
    "methods": {
      "submitTransaction(address,uint256)": {
        "notice": "Submits a user's transaction request"
      }
    },
    "version": 1
  }
}