{
  "contractName": "SimpleMultiSigV2",
  "abi": [
    {
      "inputs": [
        {
          "internalType": "address[]",
          "name": "_admins",
          "type": "address[]"
        },
        {
          "internalType": "uint256",
          "name": "_numerator",
          "type": "uint256"
        },
        {
          "internalType": "uint256",
          "name": "_denominator",
          "type": "uint256"
        }
      ],
      "stateMutability": "nonpayable",
      "type": "constructor"
    },
    {
      "anonymous": false,
      "inputs": [
        {
          "indexed": true,
          "internalType": "uint256",
          "name": "txID",
          "type": "uint256"
        },
        {
          "indexed": false,
          "internalType": "address",
          "name": "admin",
          "type": "address"
        },
        {
          "indexed": false,
          "internalType": "uint256",
          "name": "timestamp",
          "type": "uint256"
        }
      ],
      "name": "AdminApproved",
      "type": "event"
    },
    {
      "anonymous": false,
      "inputs": [
        {
          "indexed": false,
          "internalType": "string",
          "name": "ticker",
          "type": "string"
        },
        {
          "indexed": false,
          "internalType": "bytes32",
          "name": "tickerHash",
          "type": "bytes32"
        },
        {
          "indexed": false,
          "internalType": "address",
          "name": "tokenAddress",
          "type": "address"
        },
        {
          "indexed": false,
          "internalType": "uint256",
          "name": "timestamp",
          "type": "uint256"
        }
      ],
      "name": "ERC20Added",
      "type": "event"
    },
    {
      "anonymous": false,
      "inputs": [
        {
          "indexed": true,
          "internalType": "address",
          "name": "previousOwner",
          "type": "address"
        },
        {
          "indexed": true,
          "internalType": "address",
          "name": "newOwner",
          "type": "address"
        }
      ],
      "name": "OwnershipTransferred",
      "type": "event"
    },
    {
      "anonymous": false,
      "inputs": [
        {
          "indexed": true,
          "internalType": "uint256",
          "name": "txID",
          "type": "uint256"
        },
        {
          "indexed": false,
          "internalType": "uint256",
          "name": "timestamp",
          "type": "uint256"
        }
      ],
      "name": "TransactionApproved",
      "type": "event"
    },
    {
      "anonymous": false,
      "inputs": [
        {
          "indexed": true,
          "internalType": "uint256",
          "name": "txID",
          "type": "uint256"
        },
        {
          "indexed": false,
          "internalType": "address",
          "name": "caller",
          "type": "address"
        },
        {
          "indexed": false,
          "internalType": "uint256",
          "name": "timestamp",
          "type": "uint256"
        }
      ],
      "name": "TransactionCancelled",
      "type": "event"
    },
    {
      "anonymous": false,
      "inputs": [
        {
          "indexed": true,
          "internalType": "uint256",
          "name": "txID",
          "type": "uint256"
        },
        {
          "indexed": true,
          "internalType": "address",
          "name": "sender",
          "type": "address"
        },
        {
          "indexed": true,
          "internalType": "address",
          "name": "receiver",
          "type": "address"
        },
        {
          "indexed": false,
          "internalType": "uint256",
          "name": "amount",
          "type": "uint256"
        }
      ],
      "name": "TransactionDetails",
      "type": "event"
    },
    {
      "anonymous": false,
      "inputs": [
        {
          "indexed": true,
          "internalType": "uint256",
          "name": "txID",
          "type": "uint256"
        },
        {
          "indexed": false,
          "internalType": "uint256",
          "name": "timestamp",
          "type": "uint256"
        }
      ],
      "name": "TransactionSubmitted",
      "type": "event"
    },
    {
      "inputs": [
        {
          "internalType": "address",
          "name": "_address",
          "type": "address"
        }
      ],
      "name": "addAdmin",
      "outputs": [
        {
          "internalType": "uint256",
          "name": "adminID",
          "type": "uint256"
        }
      ],
      "stateMutability": "nonpayable",
      "type": "function"
    },
    {
      "inputs": [
        {
          "internalType": "address",
          "name": "",
          "type": "address"
        },
        {
          "internalType": "uint256",
          "name": "",
          "type": "uint256"
        }
      ],
      "name": "adminApproved",
      "outputs": [
        {
          "internalType": "bool",
          "name": "",
          "type": "bool"
        }
      ],
      "stateMutability": "view",
      "type": "function"
    },
    {
      "inputs": [
        {
          "internalType": "uint256",
          "name": "",
          "type": "uint256"
        }
      ],
      "name": "admins",
      "outputs": [
        {
          "internalType": "address",
          "name": "",
          "type": "address"
        }
      ],
      "stateMutability": "view",
      "type": "function"
    },
    {
      "inputs": [
        {
          "internalType": "address",
          "name": "",
          "type": "address"
        }
      ],
      "name": "isAdmin",
      "outputs": [
        {
          "internalType": "bool",
          "name": "",
          "type": "bool"
        }
      ],
      "stateMutability": "view",
      "type": "function"
    },
    {
      "inputs": [
        {
          "internalType": "uint256",
          "name": "_numerator",
          "type": "uint256"
        },
        {
          "internalType": "uint256",
          "name": "_denominator",
          "type": "uint256"
        }
      ],
      "name": "modifySignatureRatio",
      "outputs": [
        {
          "internalType": "bool",
          "name": "",
          "type": "bool"
        }
      ],
      "stateMutability": "nonpayable",
      "type": "function"
    },
    {
      "inputs": [],
      "name": "owner",
      "outputs": [
        {
          "internalType": "address",
          "name": "",
          "type": "address"
        }
      ],
      "stateMutability": "view",
      "type": "function"
    },
    {
      "inputs": [
        {
          "internalType": "bytes32",
          "name": "",
          "type": "bytes32"
        }
      ],
      "name": "pendingBalance",
      "outputs": [
        {
          "internalType": "uint256",
          "name": "",
          "type": "uint256"
        }
      ],
      "stateMutability": "view",
      "type": "function"
    },
    {
      "inputs": [
        {
          "internalType": "uint256",
          "name": "_adminID",
          "type": "uint256"
        }
      ],
      "name": "removeAdmin",
      "outputs": [],
      "stateMutability": "nonpayable",
      "type": "function"
    },
    {
      "inputs": [],
      "name": "renounceOwnership",
      "outputs": [],
      "stateMutability": "nonpayable",
      "type": "function"
    },
    {
      "inputs": [
        {
          "internalType": "bytes32",
          "name": "",
          "type": "bytes32"
        }
      ],
      "name": "tokenAddress",
      "outputs": [
        {
          "internalType": "address",
          "name": "",
          "type": "address"
        }
      ],
      "stateMutability": "view",
      "type": "function"
    },
    {
      "inputs": [
        {
          "internalType": "address",
          "name": "newOwner",
          "type": "address"
        }
      ],
      "name": "transferOwnership",
      "outputs": [],
      "stateMutability": "nonpayable",
      "type": "function"
    },
    {
      "inputs": [
        {
          "internalType": "bytes32",
          "name": "",
          "type": "bytes32"
        }
      ],
      "name": "trueBalance",
      "outputs": [
        {
          "internalType": "uint256",
          "name": "",
          "type": "uint256"
        }
      ],
      "stateMutability": "view",
      "type": "function"
    },
    {
      "inputs": [
        {
          "internalType": "uint256",
          "name": "",
          "type": "uint256"
        }
      ],
      "name": "txnHistory",
      "outputs": [
        {
          "internalType": "uint256",
          "name": "txID",
          "type": "uint256"
        },
        {
          "internalType": "address payable",
          "name": "recipient",
          "type": "address"
        },
        {
          "internalType": "address",
          "name": "sender",
          "type": "address"
        },
        {
          "internalType": "uint256",
          "name": "amount",
          "type": "uint256"
        },
        {
          "internalType": "bytes32",
          "name": "ticker",
          "type": "bytes32"
        },
        {
          "internalType": "enum SimpleMultiSigV2.APPROVE",
          "name": "approvalStatus",
          "type": "uint8"
        }
      ],
      "stateMutability": "view",
      "type": "function"
    },
    {
      "inputs": [
        {
          "internalType": "string",
          "name": "_ticker",
          "type": "string"
        }
      ],
      "name": "tickerHash",
      "outputs": [
        {
          "internalType": "bytes32",
          "name": "",
          "type": "bytes32"
        }
      ],
      "stateMutability": "pure",
      "type": "function"
    },
    {
      "inputs": [
        {
          "internalType": "address payable",
          "name": "_recipient",
          "type": "address"
        },
        {
          "internalType": "uint256",
          "name": "_amount",
          "type": "uint256"
        },
        {
          "internalType": "string",
          "name": "_tokenTicker",
          "type": "string"
        }
      ],
      "name": "submitTransaction",
      "outputs": [
        {
          "internalType": "bool",
          "name": "success",
          "type": "bool"
        },
        {
          "internalType": "uint256",
          "name": "txID",
          "type": "uint256"
        }
      ],
      "stateMutability": "nonpayable",
      "type": "function"
    },
    {
      "inputs": [
        {
          "internalType": "uint256",
          "name": "_txID",
          "type": "uint256"
        }
      ],
      "name": "confirmTransfer",
      "outputs": [
        {
          "internalType": "bool",
          "name": "txnApproved",
          "type": "bool"
        }
      ],
      "stateMutability": "nonpayable",
      "type": "function"
    },
    {
      "inputs": [
        {
          "internalType": "uint256",
          "name": "_txID",
          "type": "uint256"
        }
      ],
      "name": "cancelTransaction",
      "outputs": [
        {
          "internalType": "bool",
          "name": "",
          "type": "bool"
        }
      ],
      "stateMutability": "nonpayable",
      "type": "function"
    },
    {
      "inputs": [
        {
          "internalType": "string",
          "name": "_ticker",
          "type": "string"
        },
        {
          "internalType": "uint256",
          "name": "_amount",
          "type": "uint256"
        }
      ],
      "name": "depositToken",
      "outputs": [
        {
          "internalType": "bool",
          "name": "",
          "type": "bool"
        }
      ],
      "stateMutability": "payable",
      "type": "function"
    },
    {
      "inputs": [
        {
          "internalType": "string",
          "name": "_ticker",
          "type": "string"
        },
        {
          "internalType": "address",
          "name": "_tokenAddress",
          "type": "address"
        }
      ],
      "name": "addToken",
      "outputs": [],
      "stateMutability": "nonpayable",
      "type": "function"
    },
    {
      "inputs": [
        {
          "internalType": "string",
          "name": "_ticker",
          "type": "string"
        },
        {
          "internalType": "address",
          "name": "_tokenAddress",
          "type": "address"
        }
      ],
      "name": "modifyTokenAddress",
      "outputs": [],
      "stateMutability": "nonpayable",
      "type": "function"
    },
    {
      "inputs": [],
      "name": "getPending",
      "outputs": [
        {
          "internalType": "uint256[]",
          "name": "pendingTxnIDs",
          "type": "uint256[]"
        }
      ],
      "stateMutability": "view",
      "type": "function"
    }
  ],
  "bytecode": "0x60806040526005546004546003805490506200001c9190620005f2565b620000289190620005ba565b6006553480156200003857600080fd5b506040516200468e3803806200468e83398181016040528101906200005e919062000473565b8282826000620000736200039b60201b60201c565b9050806000806101000a81548173ffffffffffffffffffffffffffffffffffffffff021916908373ffffffffffffffffffffffffffffffffffffffff1602179055508073ffffffffffffffffffffffffffffffffffffffff16600073ffffffffffffffffffffffffffffffffffffffff167f8be0079c531659141344cd1fd0a4f28419497f9722a3daafe3b4186f6b6457e060405160405180910390a35060008114158015620001235750808211155b62000165576040517f08c379a00000000000000000000000000000000000000000000000000000000081526004016200015c9062000524565b60405180910390fd5b81600481905550806005819055506003339080600181540180825580915050600190039060005260206000200160009091909190916101000a81548173ffffffffffffffffffffffffffffffffffffffff021916908373ffffffffffffffffffffffffffffffffffffffff1602179055506001600260003373ffffffffffffffffffffffffffffffffffffffff1673ffffffffffffffffffffffffffffffffffffffff16815260200190815260200160002060006101000a81548160ff02191690831515021790555060005b83518110156200038e57600384828151811062000277577f4e487b7100000000000000000000000000000000000000000000000000000000600052603260045260246000fd5b60200260200101519080600181540180825580915050600190039060005260206000200160009091909190916101000a81548173ffffffffffffffffffffffffffffffffffffffff021916908373ffffffffffffffffffffffffffffffffffffffff1602179055506001600260008684815181106200031f577f4e487b7100000000000000000000000000000000000000000000000000000000600052603260045260246000fd5b602002602001015173ffffffffffffffffffffffffffffffffffffffff1673ffffffffffffffffffffffffffffffffffffffff16815260200190815260200160002060006101000a81548160ff0219169083151502179055508080620003859062000691565b91505062000231565b50505050505050620007a0565b600033905090565b6000620003ba620003b4846200057a565b62000546565b90508083825260208201905082856020860282011115620003da57600080fd5b60005b858110156200040e5781620003f3888262000418565b845260208401935060208301925050600181019050620003dd565b5050509392505050565b60008151905062000429816200076c565b92915050565b600082601f8301126200044157600080fd5b815162000453848260208601620003a3565b91505092915050565b6000815190506200046d8162000786565b92915050565b6000806000606084860312156200048957600080fd5b600084015167ffffffffffffffff811115620004a457600080fd5b620004b2868287016200042f565b9350506020620004c5868287016200045c565b9250506040620004d8868287016200045c565b9150509250925092565b6000620004f1601083620005a9565b91507f496d706f737369626c6520726174696f000000000000000000000000000000006000830152602082019050919050565b600060208201905081810360008301526200053f81620004e2565b9050919050565b6000604051905081810181811067ffffffffffffffff8211171562000570576200056f6200073d565b5b8060405250919050565b600067ffffffffffffffff8211156200059857620005976200073d565b5b602082029050602081019050919050565b600082825260208201905092915050565b6000620005c78262000687565b9150620005d48362000687565b925082620005e757620005e66200070e565b5b828204905092915050565b6000620005ff8262000687565b91506200060c8362000687565b9250817fffffffffffffffffffffffffffffffffffffffffffffffffffffffffffffffff0483118215151615620006485762000647620006df565b5b828202905092915050565b6000620006608262000667565b9050919050565b600073ffffffffffffffffffffffffffffffffffffffff82169050919050565b6000819050919050565b60006200069e8262000687565b91507fffffffffffffffffffffffffffffffffffffffffffffffffffffffffffffffff821415620006d457620006d3620006df565b5b600182019050919050565b7f4e487b7100000000000000000000000000000000000000000000000000000000600052601160045260246000fd5b7f4e487b7100000000000000000000000000000000000000000000000000000000600052601260045260246000fd5b7f4e487b7100000000000000000000000000000000000000000000000000000000600052604160045260246000fd5b620007778162000653565b81146200078357600080fd5b50565b620007918162000687565b81146200079d57600080fd5b50565b613ede80620007b06000396000f3fe60806040526004361061012a5760003560e01c806370480275116100ab578063a1983e891161006f578063a1983e891461045d578063ad7bbc291461049a578063b0b22c2c146104c3578063c32cf65f146104ec578063d10c680214610529578063f2fde38b146105665761012a565b80637048027514610364578063715018a6146103a157806386cb4181146103b85780638da5cb5b146103f557806397bb3ce9146104205761012a565b80632e50aef3116100f25780632e50aef31461024f5780633380c0d81461027857806333ad57e4146102b55780633fe97077146102e557806355fec134146103275761012a565b806303d79d281461012f57806311ae9ed21461016d57806314bfd6d01461019857806324d7806c146101d55780632c48e7db14610212575b600080fd5b34801561013b57600080fd5b5061015660048036038101906101519190612ffa565b61058f565b6040516101649291906138ae565b60405180910390f35b34801561017957600080fd5b506101826108a1565b60405161018f9190613871565b60405180910390f35b3480156101a457600080fd5b506101bf60048036038101906101ba91906131e9565b610f0a565b6040516101cc91906137cd565b60405180910390f35b3480156101e157600080fd5b506101fc60048036038101906101f79190612fd1565b610f49565b6040516102099190613893565b60405180910390f35b34801561021e57600080fd5b50610239600480360381019061023491906131e9565b610f69565b6040516102469190613893565b60405180910390f35b34801561025b57600080fd5b5061027660048036038101906102719190613139565b611589565b005b34801561028457600080fd5b5061029f600480360381019061029a91906131e9565b611675565b6040516102ac9190613893565b60405180910390f35b6102cf60048036038101906102ca9190613191565b611aac565b6040516102dc9190613893565b60405180910390f35b3480156102f157600080fd5b5061030c600480360381019061030791906131e9565b611c95565b60405161031e96959493929190613b5b565b60405180910390f35b34801561033357600080fd5b5061034e600480360381019061034991906130cb565b611d2e565b60405161035b9190613b40565b60405180910390f35b34801561037057600080fd5b5061038b60048036038101906103869190612fd1565b611d46565b6040516103989190613b40565b60405180910390f35b3480156103ad57600080fd5b506103b6611e8c565b005b3480156103c457600080fd5b506103df60048036038101906103da9190613212565b611fc6565b6040516103ec9190613893565b60405180910390f35b34801561040157600080fd5b5061040a61210b565b60405161041791906137cd565b60405180910390f35b34801561042c57600080fd5b50610447600480360381019061044291906130cb565b612134565b60405161045491906137cd565b60405180910390f35b34801561046957600080fd5b50610484600480360381019061047f91906130cb565b612167565b6040516104919190613b40565b60405180910390f35b3480156104a657600080fd5b506104c160048036038101906104bc91906131e9565b61217f565b005b3480156104cf57600080fd5b506104ea60048036038101906104e59190613139565b612701565b005b3480156104f857600080fd5b50610513600480360381019061050e9190613066565b612867565b6040516105209190613893565b60405180910390f35b34801561053557600080fd5b50610550600480360381019061054b91906130f4565b612896565b60405161055d91906138d7565b60405180910390f35b34801561057257600080fd5b5061058d60048036038101906105889190612fd1565b6128c9565b005b600080600a805490509050600033905060006105ab8686612896565b90508660086000838152602001908152602001600020541015610603576040517f08c379a00000000000000000000000000000000000000000000000000000000081526004016105fa906139a0565b60405180910390fd5b60006040518060c001604052808581526020018a73ffffffffffffffffffffffffffffffffffffffff1681526020018473ffffffffffffffffffffffffffffffffffffffff16815260200189815260200183815260200160006003811115610694577f4e487b7100000000000000000000000000000000000000000000000000000000600052602160045260246000fd5b8152509050600a8190806001815401808255809150506001900390600052602060002090600602016000909190919091506000820151816000015560208201518160010160006101000a81548173ffffffffffffffffffffffffffffffffffffffff021916908373ffffffffffffffffffffffffffffffffffffffff16021790555060408201518160020160006101000a81548173ffffffffffffffffffffffffffffffffffffffff021916908373ffffffffffffffffffffffffffffffffffffffff160217905550606082015181600301556080820151816004015560a08201518160050160006101000a81548160ff021916908360038111156107c2577f4e487b7100000000000000000000000000000000000000000000000000000000600052602160045260246000fd5b02179055505050876008600084815260200190815260200160002060008282546107ec9190613c67565b92505081905550837ffff5a2b874635399872c2a4ff63c24e7b8be58cdff5a8b99a063fdd7742e658a426040516108239190613b40565b60405180910390a28873ffffffffffffffffffffffffffffffffffffffff163373ffffffffffffffffffffffffffffffffffffffff16857f6767eff78758102f1c9b5e9f15e8267f0e0f37d559922ede7506098351d6f84b8b6040516108899190613b40565b60405180910390a46001945050505094509492505050565b60606000805b600a80549050811015610b80576000600a82815481106108f0577f4e487b7100000000000000000000000000000000000000000000000000000000600052603260045260246000fd5b90600052602060002090600602016040518060c0016040529081600082015481526020016001820160009054906101000a900473ffffffffffffffffffffffffffffffffffffffff1673ffffffffffffffffffffffffffffffffffffffff1673ffffffffffffffffffffffffffffffffffffffff1681526020016002820160009054906101000a900473ffffffffffffffffffffffffffffffffffffffff1673ffffffffffffffffffffffffffffffffffffffff1673ffffffffffffffffffffffffffffffffffffffff16815260200160038201548152602001600482015481526020016005820160009054906101000a900460ff166003811115610a1e577f4e487b7100000000000000000000000000000000000000000000000000000000600052602160045260246000fd5b6003811115610a56577f4e487b7100000000000000000000000000000000000000000000000000000000600052602160045260246000fd5b81525050905060026003811115610a96577f4e487b7100000000000000000000000000000000000000000000000000000000600052602160045260246000fd5b8160a001516003811115610ad3577f4e487b7100000000000000000000000000000000000000000000000000000000600052602160045260246000fd5b1480610b525750600380811115610b13577f4e487b7100000000000000000000000000000000000000000000000000000000600052602160045260246000fd5b8160a001516003811115610b50577f4e487b7100000000000000000000000000000000000000000000000000000000600052602160045260246000fd5b145b15610b5d5750610b6d565b8280610b6890613d69565b935050505b8080610b7890613d69565b9150506108a7565b508067ffffffffffffffff811115610bc1577f4e487b7100000000000000000000000000000000000000000000000000000000600052604160045260246000fd5b604051908082528060200260200182016040528015610bef5781602001602082028036833780820191505090505b50915060005b81811015610f05576000600a8281548110610c39577f4e487b7100000000000000000000000000000000000000000000000000000000600052603260045260246000fd5b90600052602060002090600602016040518060c0016040529081600082015481526020016001820160009054906101000a900473ffffffffffffffffffffffffffffffffffffffff1673ffffffffffffffffffffffffffffffffffffffff1673ffffffffffffffffffffffffffffffffffffffff1681526020016002820160009054906101000a900473ffffffffffffffffffffffffffffffffffffffff1673ffffffffffffffffffffffffffffffffffffffff1673ffffffffffffffffffffffffffffffffffffffff16815260200160038201548152602001600482015481526020016005820160009054906101000a900460ff166003811115610d67577f4e487b7100000000000000000000000000000000000000000000000000000000600052602160045260246000fd5b6003811115610d9f577f4e487b7100000000000000000000000000000000000000000000000000000000600052602160045260246000fd5b81525050905060026003811115610ddf577f4e487b7100000000000000000000000000000000000000000000000000000000600052602160045260246000fd5b8160a001516003811115610e1c577f4e487b7100000000000000000000000000000000000000000000000000000000600052602160045260246000fd5b1480610e9b5750600380811115610e5c577f4e487b7100000000000000000000000000000000000000000000000000000000600052602160045260246000fd5b8160a001516003811115610e99577f4e487b7100000000000000000000000000000000000000000000000000000000600052602160045260246000fd5b145b15610ea65750610ef2565b8060000151848381518110610ee4577f4e487b7100000000000000000000000000000000000000000000000000000000600052603260045260246000fd5b602002602001018181525050505b8080610efd90613d69565b915050610bf5565b505090565b60038181548110610f1a57600080fd5b906000526020600020016000915054906101000a900473ffffffffffffffffffffffffffffffffffffffff1681565b60026020528060005260406000206000915054906101000a900460ff1681565b600080600a8381548110610fa6577f4e487b7100000000000000000000000000000000000000000000000000000000600052603260045260246000fd5b90600052602060002090600602016040518060c0016040529081600082015481526020016001820160009054906101000a900473ffffffffffffffffffffffffffffffffffffffff1673ffffffffffffffffffffffffffffffffffffffff1673ffffffffffffffffffffffffffffffffffffffff1681526020016002820160009054906101000a900473ffffffffffffffffffffffffffffffffffffffff1673ffffffffffffffffffffffffffffffffffffffff1673ffffffffffffffffffffffffffffffffffffffff16815260200160038201548152602001600482015481526020016005820160009054906101000a900460ff1660038111156110d4577f4e487b7100000000000000000000000000000000000000000000000000000000600052602160045260246000fd5b600381111561110c577f4e487b7100000000000000000000000000000000000000000000000000000000600052602160045260246000fd5b81525050905060008160a001519050600260003373ffffffffffffffffffffffffffffffffffffffff1673ffffffffffffffffffffffffffffffffffffffff16815260200190815260200160002060009054906101000a900460ff166111a7576040517f08c379a000000000000000000000000000000000000000000000000000000000815260040161119e90613940565b60405180910390fd5b600260038111156111e1577f4e487b7100000000000000000000000000000000000000000000000000000000600052602160045260246000fd5b81600381111561121a577f4e487b7100000000000000000000000000000000000000000000000000000000600052602160045260246000fd5b141561125b576040517f08c379a000000000000000000000000000000000000000000000000000000000815260040161125290613ac0565b60405180910390fd5b600380811115611294577f4e487b7100000000000000000000000000000000000000000000000000000000600052602160045260246000fd5b8160038111156112cd577f4e487b7100000000000000000000000000000000000000000000000000000000600052602160045260246000fd5b141561130e576040517f08c379a000000000000000000000000000000000000000000000000000000000815260040161130590613a20565b60405180910390fd5b600160003373ffffffffffffffffffffffffffffffffffffffff1673ffffffffffffffffffffffffffffffffffffffff168152602001908152602001600020600085815260200190815260200160002060009054906101000a900460ff16156113ac576040517f08c379a00000000000000000000000000000000000000000000000000000000081526004016113a390613a00565b60405180910390fd5b600060038111156113e6577f4e487b7100000000000000000000000000000000000000000000000000000000600052602160045260246000fd5b81600381111561141f577f4e487b7100000000000000000000000000000000000000000000000000000000600052602160045260246000fd5b14156114c0576001600a8581548110611461577f4e487b7100000000000000000000000000000000000000000000000000000000600052603260045260246000fd5b906000526020600020906006020160050160006101000a81548160ff021916908360038111156114ba577f4e487b7100000000000000000000000000000000000000000000000000000000600052602160045260246000fd5b02179055505b60018060003373ffffffffffffffffffffffffffffffffffffffff1673ffffffffffffffffffffffffffffffffffffffff168152602001908152602001600020600086815260200190815260200160002060006101000a81548160ff021916908315150217905550837f24f468a2eaafe5cf853bc1dc9b780dd65674b1e57537ed16b1ceb3b0a7bd713b334260405161155a929190613848565b60405180910390a261156f8260000151612a72565b1561157d5760019250611582565b600092505b5050919050565b600260003373ffffffffffffffffffffffffffffffffffffffff1673ffffffffffffffffffffffffffffffffffffffff16815260200190815260200160002060009054906101000a900460ff16611615576040517f08c379a000000000000000000000000000000000000000000000000000000000815260040161160c90613ae0565b60405180910390fd5b80600960006116248686612896565b815260200190815260200160002060006101000a81548173ffffffffffffffffffffffffffffffffffffffff021916908373ffffffffffffffffffffffffffffffffffffffff160217905550505050565b600080600a83815481106116b2577f4e487b7100000000000000000000000000000000000000000000000000000000600052603260045260246000fd5b90600052602060002090600602016040518060c0016040529081600082015481526020016001820160009054906101000a900473ffffffffffffffffffffffffffffffffffffffff1673ffffffffffffffffffffffffffffffffffffffff1673ffffffffffffffffffffffffffffffffffffffff1681526020016002820160009054906101000a900473ffffffffffffffffffffffffffffffffffffffff1673ffffffffffffffffffffffffffffffffffffffff1673ffffffffffffffffffffffffffffffffffffffff16815260200160038201548152602001600482015481526020016005820160009054906101000a900460ff1660038111156117e0577f4e487b7100000000000000000000000000000000000000000000000000000000600052602160045260246000fd5b6003811115611818577f4e487b7100000000000000000000000000000000000000000000000000000000600052602160045260246000fd5b81525050905060026003811115611858577f4e487b7100000000000000000000000000000000000000000000000000000000600052602160045260246000fd5b8160a001516003811115611895577f4e487b7100000000000000000000000000000000000000000000000000000000600052602160045260246000fd5b14156118d6576040517f08c379a00000000000000000000000000000000000000000000000000000000081526004016118cd90613b20565b60405180910390fd5b3373ffffffffffffffffffffffffffffffffffffffff16816040015173ffffffffffffffffffffffffffffffffffffffff16148061195d5750600260003373ffffffffffffffffffffffffffffffffffffffff1673ffffffffffffffffffffffffffffffffffffffff16815260200190815260200160002060009054906101000a900460ff165b61199c576040517f08c379a0000000000000000000000000000000000000000000000000000000008152600401611993906139c0565b60405180910390fd5b6003600a84815481106119d8577f4e487b7100000000000000000000000000000000000000000000000000000000600052603260045260246000fd5b906000526020600020906006020160050160006101000a81548160ff02191690836003811115611a31577f4e487b7100000000000000000000000000000000000000000000000000000000600052602160045260246000fd5b0217905550806060015160086000836080015181526020019081526020016000206000828254611a619190613c11565b92505081905550827ff29b51556b15ccef9ae2dae672fd2310236afd356ba6b020dfa202086568cdde3342604051611a9a929190613848565b60405180910390a26001915050919050565b600080611ab98585612896565b905060006009600083815260200190815260200160002060009054906101000a900473ffffffffffffffffffffffffffffffffffffffff169050600073ffffffffffffffffffffffffffffffffffffffff168173ffffffffffffffffffffffffffffffffffffffff161415611b63576040517f08c379a0000000000000000000000000000000000000000000000000000000008152600401611b5a90613aa0565b60405180910390fd5b6000841415611ba7576040517f08c379a0000000000000000000000000000000000000000000000000000000008152600401611b9e90613b00565b60405180910390fd5b83600760008481526020019081526020016000206000828254611bca9190613c11565b9250508190555083600860008481526020019081526020016000206000828254611bf49190613c11565b925050819055508073ffffffffffffffffffffffffffffffffffffffff166323b872dd3330876040518463ffffffff1660e01b8152600401611c3893929190613811565b602060405180830381600087803b158015611c5257600080fd5b505af1158015611c66573d6000803e3d6000fd5b505050506040513d601f19601f82011682018060405250810190611c8a91906130a2565b925050509392505050565b600a8181548110611ca557600080fd5b90600052602060002090600602016000915090508060000154908060010160009054906101000a900473ffffffffffffffffffffffffffffffffffffffff16908060020160009054906101000a900473ffffffffffffffffffffffffffffffffffffffff16908060030154908060040154908060050160009054906101000a900460ff16905086565b60086020528060005260406000206000915090505481565b6000611d50612f16565b73ffffffffffffffffffffffffffffffffffffffff16611d6e61210b565b73ffffffffffffffffffffffffffffffffffffffff1614611dc4576040517f08c379a0000000000000000000000000000000000000000000000000000000008152600401611dbb90613a60565b60405180910390fd5b60038054905090506003829080600181540180825580915050600190039060005260206000200160009091909190916101000a81548173ffffffffffffffffffffffffffffffffffffffff021916908373ffffffffffffffffffffffffffffffffffffffff1602179055506001600260008473ffffffffffffffffffffffffffffffffffffffff1673ffffffffffffffffffffffffffffffffffffffff16815260200190815260200160002060006101000a81548160ff021916908315150217905550919050565b611e94612f16565b73ffffffffffffffffffffffffffffffffffffffff16611eb261210b565b73ffffffffffffffffffffffffffffffffffffffff1614611f08576040517f08c379a0000000000000000000000000000000000000000000000000000000008152600401611eff90613a60565b60405180910390fd5b600073ffffffffffffffffffffffffffffffffffffffff1660008054906101000a900473ffffffffffffffffffffffffffffffffffffffff1673ffffffffffffffffffffffffffffffffffffffff167f8be0079c531659141344cd1fd0a4f28419497f9722a3daafe3b4186f6b6457e060405160405180910390a360008060006101000a81548173ffffffffffffffffffffffffffffffffffffffff021916908373ffffffffffffffffffffffffffffffffffffffff160217905550565b6000611fd0612f16565b73ffffffffffffffffffffffffffffffffffffffff16611fee61210b565b73ffffffffffffffffffffffffffffffffffffffff1614612044576040517f08c379a000000000000000000000000000000000000000000000000000000000815260040161203b90613a60565b60405180910390fd5b6004548314158061205757506005548214155b612096576040517f08c379a000000000000000000000000000000000000000000000000000000000815260040161208d90613a40565b60405180910390fd5b600082141580156120a8575060008314155b80156120b45750818311155b6120f3576040517f08c379a00000000000000000000000000000000000000000000000000000000081526004016120ea906139e0565b60405180910390fd5b82600481905550816005819055506001905092915050565b60008060009054906101000a900473ffffffffffffffffffffffffffffffffffffffff16905090565b60096020528060005260406000206000915054906101000a900473ffffffffffffffffffffffffffffffffffffffff1681565b60076020528060005260406000206000915090505481565b612187612f16565b73ffffffffffffffffffffffffffffffffffffffff166121a561210b565b73ffffffffffffffffffffffffffffffffffffffff16146121fb576040517f08c379a00000000000000000000000000000000000000000000000000000000081526004016121f290613a60565b60405180910390fd5b600060038281548110612237577f4e487b7100000000000000000000000000000000000000000000000000000000600052603260045260246000fd5b9060005260206000200160009054906101000a900473ffffffffffffffffffffffffffffffffffffffff16905061226c61210b565b73ffffffffffffffffffffffffffffffffffffffff168173ffffffffffffffffffffffffffffffffffffffff1614156122da576040517f08c379a00000000000000000000000000000000000000000000000000000000081526004016122d190613a80565b60405180910390fd5b6000600260006003858154811061231a577f4e487b7100000000000000000000000000000000000000000000000000000000600052603260045260246000fd5b9060005260206000200160009054906101000a900473ffffffffffffffffffffffffffffffffffffffff1673ffffffffffffffffffffffffffffffffffffffff1673ffffffffffffffffffffffffffffffffffffffff16815260200190815260200160002060006101000a81548160ff02191690831515021790555060005b6003805490508110156126fc578173ffffffffffffffffffffffffffffffffffffffff16600382815481106123f7577f4e487b7100000000000000000000000000000000000000000000000000000000600052603260045260246000fd5b9060005260206000200160009054906101000a900473ffffffffffffffffffffffffffffffffffffffff1673ffffffffffffffffffffffffffffffffffffffff1614612442576126e9565b60016003805490506124549190613c67565b811415612566578173ffffffffffffffffffffffffffffffffffffffff16600382815481106124ac577f4e487b7100000000000000000000000000000000000000000000000000000000600052603260045260246000fd5b9060005260206000200160009054906101000a900473ffffffffffffffffffffffffffffffffffffffff1673ffffffffffffffffffffffffffffffffffffffff16141561256157600380548061252b577f4e487b7100000000000000000000000000000000000000000000000000000000600052603160045260246000fd5b6001900381819060005260206000200160006101000a81549073ffffffffffffffffffffffffffffffffffffffff021916905590555b6126fc565b60036001826125759190613c11565b815481106125ac577f4e487b7100000000000000000000000000000000000000000000000000000000600052603260045260246000fd5b9060005260206000200160009054906101000a900473ffffffffffffffffffffffffffffffffffffffff1660038281548110612611577f4e487b7100000000000000000000000000000000000000000000000000000000600052603260045260246000fd5b9060005260206000200160006101000a81548173ffffffffffffffffffffffffffffffffffffffff021916908373ffffffffffffffffffffffffffffffffffffffff1602179055508160036001836126699190613c11565b815481106126a0577f4e487b7100000000000000000000000000000000000000000000000000000000600052603260045260246000fd5b9060005260206000200160006101000a81548173ffffffffffffffffffffffffffffffffffffffff021916908373ffffffffffffffffffffffffffffffffffffffff1602179055505b80806126f490613d69565b915050612399565b505050565b600083836040516020016127169291906137b4565b604051602081830303815290604052805190602001209050600073ffffffffffffffffffffffffffffffffffffffff166009600083815260200190815260200160002060009054906101000a900473ffffffffffffffffffffffffffffffffffffffff1673ffffffffffffffffffffffffffffffffffffffff16146127d0576040517f08c379a00000000000000000000000000000000000000000000000000000000081526004016127c790613980565b60405180910390fd5b816009600083815260200190815260200160002060006101000a81548173ffffffffffffffffffffffffffffffffffffffff021916908373ffffffffffffffffffffffffffffffffffffffff1602179055507f7a5ac0e54ddf7495d0e1c10f9c4bff0e09008514a3384940877bac3d6d7c62e884848385426040516128599594939291906138f2565b60405180910390a150505050565b60016020528160005260406000206020528060005260406000206000915091509054906101000a900460ff1681565b600082826040516020016128ab9291906137b4565b60405160208183030381529060405280519060200120905092915050565b6128d1612f16565b73ffffffffffffffffffffffffffffffffffffffff166128ef61210b565b73ffffffffffffffffffffffffffffffffffffffff1614612945576040517f08c379a000000000000000000000000000000000000000000000000000000000815260040161293c90613a60565b60405180910390fd5b600073ffffffffffffffffffffffffffffffffffffffff168173ffffffffffffffffffffffffffffffffffffffff1614156129b5576040517f08c379a00000000000000000000000000000000000000000000000000000000081526004016129ac90613960565b60405180910390fd5b8073ffffffffffffffffffffffffffffffffffffffff1660008054906101000a900473ffffffffffffffffffffffffffffffffffffffff1673ffffffffffffffffffffffffffffffffffffffff167f8be0079c531659141344cd1fd0a4f28419497f9722a3daafe3b4186f6b6457e060405160405180910390a3806000806101000a81548173ffffffffffffffffffffffffffffffffffffffff021916908373ffffffffffffffffffffffffffffffffffffffff16021790555050565b600080600090506000600a8481548110612ab5577f4e487b7100000000000000000000000000000000000000000000000000000000600052603260045260246000fd5b90600052602060002090600602016040518060c0016040529081600082015481526020016001820160009054906101000a900473ffffffffffffffffffffffffffffffffffffffff1673ffffffffffffffffffffffffffffffffffffffff1673ffffffffffffffffffffffffffffffffffffffff1681526020016002820160009054906101000a900473ffffffffffffffffffffffffffffffffffffffff1673ffffffffffffffffffffffffffffffffffffffff1673ffffffffffffffffffffffffffffffffffffffff16815260200160038201548152602001600482015481526020016005820160009054906101000a900460ff166003811115612be3577f4e487b7100000000000000000000000000000000000000000000000000000000600052602160045260246000fd5b6003811115612c1b577f4e487b7100000000000000000000000000000000000000000000000000000000600052602160045260246000fd5b81525050905060005b600380549050811015612d1f576001600060038381548110612c6f577f4e487b7100000000000000000000000000000000000000000000000000000000600052603260045260246000fd5b9060005260206000200160009054906101000a900473ffffffffffffffffffffffffffffffffffffffff1673ffffffffffffffffffffffffffffffffffffffff1673ffffffffffffffffffffffffffffffffffffffff168152602001908152602001600020600086815260200190815260200160002060009054906101000a900460ff16612cfd5782612d0b565b8280612d0890613d69565b93505b508080612d1790613d69565b915050612c24565b506006548210612f0a576002600a8581548110612d65577f4e487b7100000000000000000000000000000000000000000000000000000000600052603260045260246000fd5b906000526020600020906006020160050160006101000a81548160ff02191690836003811115612dbe577f4e487b7100000000000000000000000000000000000000000000000000000000600052602160045260246000fd5b0217905550806060015160076000836080015181526020019081526020016000206000828254612dee9190613c67565b92505081905550600960008260800151815260200190815260200160002060009054906101000a900473ffffffffffffffffffffffffffffffffffffffff1673ffffffffffffffffffffffffffffffffffffffff1663a9059cbb826020015183606001516040518363ffffffff1660e01b8152600401612e6f9291906137e8565b602060405180830381600087803b158015612e8957600080fd5b505af1158015612e9d573d6000803e3d6000fd5b505050506040513d601f19601f82011682018060405250810190612ec191906130a2565b15612f0957837fd6a7c76a45e03d9556990632f59530fb53e0f887a2a219d138d8a9a80cf7d3a942604051612ef69190613b40565b60405180910390a2600192505050612f11565b5b6000925050505b919050565b600033905090565b600081359050612f2d81613e35565b92915050565b600081359050612f4281613e4c565b92915050565b600081519050612f5781613e63565b92915050565b600081359050612f6c81613e7a565b92915050565b60008083601f840112612f8457600080fd5b8235905067ffffffffffffffff811115612f9d57600080fd5b602083019150836001820283011115612fb557600080fd5b9250929050565b600081359050612fcb81613e91565b92915050565b600060208284031215612fe357600080fd5b6000612ff184828501612f1e565b91505092915050565b6000806000806060858703121561301057600080fd5b600061301e87828801612f33565b945050602061302f87828801612fbc565b935050604085013567ffffffffffffffff81111561304c57600080fd5b61305887828801612f72565b925092505092959194509250565b6000806040838503121561307957600080fd5b600061308785828601612f1e565b925050602061309885828601612fbc565b9150509250929050565b6000602082840312156130b457600080fd5b60006130c284828501612f48565b91505092915050565b6000602082840312156130dd57600080fd5b60006130eb84828501612f5d565b91505092915050565b6000806020838503121561310757600080fd5b600083013567ffffffffffffffff81111561312157600080fd5b61312d85828601612f72565b92509250509250929050565b60008060006040848603121561314e57600080fd5b600084013567ffffffffffffffff81111561316857600080fd5b61317486828701612f72565b9350935050602061318786828701612f1e565b9150509250925092565b6000806000604084860312156131a657600080fd5b600084013567ffffffffffffffff8111156131c057600080fd5b6131cc86828701612f72565b935093505060206131df86828701612fbc565b9150509250925092565b6000602082840312156131fb57600080fd5b600061320984828501612fbc565b91505092915050565b6000806040838503121561322557600080fd5b600061323385828601612fbc565b925050602061324485828601612fbc565b9150509250929050565b600061325a8383613796565b60208301905092915050565b61326f81613d12565b82525050565b61327e81613cad565b82525050565b61328d81613c9b565b82525050565b600061329e82613bcc565b6132a88185613be4565b93506132b383613bbc565b8060005b838110156132e45781516132cb888261324e565b97506132d683613bd7565b9250506001810190506132b7565b5085935050505092915050565b6132fa81613cbf565b82525050565b61330981613ccb565b82525050565b61331881613d24565b82525050565b600061332a8385613bf5565b9350613337838584613d5a565b61334083613e10565b840190509392505050565b60006133578385613c06565b9350613364838584613d5a565b82840190509392505050565b600061337d600c83613bf5565b91507f556e617574686f72697a656400000000000000000000000000000000000000006000830152602082019050919050565b60006133bd602683613bf5565b91507f4f776e61626c653a206e6577206f776e657220697320746865207a65726f206160008301527f64647265737300000000000000000000000000000000000000000000000000006020830152604082019050919050565b6000613423600c83613bf5565b91507f546f6b656e2065786973747300000000000000000000000000000000000000006000830152602082019050919050565b6000613463601483613bf5565b91507f496e73756666696369656e742062616c616e63650000000000000000000000006000830152602082019050919050565b60006134a3601183613bf5565b91507f4f6e6c792073656e6465722f41646d696e0000000000000000000000000000006000830152602082019050919050565b60006134e3601083613bf5565b91507f496d706f737369626c6520726174696f000000000000000000000000000000006000830152602082019050919050565b6000613523600e83613bf5565b91507f41646d696e20617070726f7665640000000000000000000000000000000000006000830152602082019050919050565b6000613563601583613bf5565b91507f5472616e73616374696f6e2063616e63656c6c656400000000000000000000006000830152602082019050919050565b60006135a3601083613bf5565b91507f4e6f7468696e67206d6f646966696564000000000000000000000000000000006000830152602082019050919050565b60006135e3602083613bf5565b91507f4f776e61626c653a2063616c6c6572206973206e6f7420746865206f776e65726000830152602082019050919050565b6000613623601283613bf5565b91507f43616e27742072656d6f7665206f776e657200000000000000000000000000006000830152602082019050919050565b6000613663600f83613bf5565b91507f41646420746f6b656e20666972737400000000000000000000000000000000006000830152602082019050919050565b60006136a3601483613bf5565b91507f5472616e73616374696f6e20617070726f7665640000000000000000000000006000830152602082019050919050565b60006136e3600a83613bf5565b91507f4f6e6c792041646d696e000000000000000000000000000000000000000000006000830152602082019050919050565b6000613723600b83613bf5565b91507f416d6f756e74207a65726f0000000000000000000000000000000000000000006000830152602082019050919050565b6000613763600c83613bf5565b91507f54786e20617070726f76656400000000000000000000000000000000000000006000830152602082019050919050565b61379f81613d08565b82525050565b6137ae81613d08565b82525050565b60006137c182848661334b565b91508190509392505050565b60006020820190506137e26000830184613284565b92915050565b60006040820190506137fd6000830185613266565b61380a60208301846137a5565b9392505050565b60006060820190506138266000830186613284565b6138336020830185613284565b61384060408301846137a5565b949350505050565b600060408201905061385d6000830185613284565b61386a60208301846137a5565b9392505050565b6000602082019050818103600083015261388b8184613293565b905092915050565b60006020820190506138a860008301846132f1565b92915050565b60006040820190506138c360008301856132f1565b6138d060208301846137a5565b9392505050565b60006020820190506138ec6000830184613300565b92915050565b6000608082019050818103600083015261390d81878961331e565b905061391c6020830186613300565b6139296040830185613284565b61393660608301846137a5565b9695505050505050565b6000602082019050818103600083015261395981613370565b9050919050565b60006020820190508181036000830152613979816133b0565b9050919050565b6000602082019050818103600083015261399981613416565b9050919050565b600060208201905081810360008301526139b981613456565b9050919050565b600060208201905081810360008301526139d981613496565b9050919050565b600060208201905081810360008301526139f9816134d6565b9050919050565b60006020820190508181036000830152613a1981613516565b9050919050565b60006020820190508181036000830152613a3981613556565b9050919050565b60006020820190508181036000830152613a5981613596565b9050919050565b60006020820190508181036000830152613a79816135d6565b9050919050565b60006020820190508181036000830152613a9981613616565b9050919050565b60006020820190508181036000830152613ab981613656565b9050919050565b60006020820190508181036000830152613ad981613696565b9050919050565b60006020820190508181036000830152613af9816136d6565b9050919050565b60006020820190508181036000830152613b1981613716565b9050919050565b60006020820190508181036000830152613b3981613756565b9050919050565b6000602082019050613b5560008301846137a5565b92915050565b600060c082019050613b7060008301896137a5565b613b7d6020830188613275565b613b8a6040830187613284565b613b9760608301866137a5565b613ba46080830185613300565b613bb160a083018461330f565b979650505050505050565b6000819050602082019050919050565b600081519050919050565b6000602082019050919050565b600082825260208201905092915050565b600082825260208201905092915050565b600081905092915050565b6000613c1c82613d08565b9150613c2783613d08565b9250827fffffffffffffffffffffffffffffffffffffffffffffffffffffffffffffffff03821115613c5c57613c5b613db2565b5b828201905092915050565b6000613c7282613d08565b9150613c7d83613d08565b925082821015613c9057613c8f613db2565b5b828203905092915050565b6000613ca682613ce8565b9050919050565b6000613cb882613ce8565b9050919050565b60008115159050919050565b6000819050919050565b6000819050613ce382613e21565b919050565b600073ffffffffffffffffffffffffffffffffffffffff82169050919050565b6000819050919050565b6000613d1d82613d36565b9050919050565b6000613d2f82613cd5565b9050919050565b6000613d4182613d48565b9050919050565b6000613d5382613ce8565b9050919050565b82818337600083830152505050565b6000613d7482613d08565b91507fffffffffffffffffffffffffffffffffffffffffffffffffffffffffffffffff821415613da757613da6613db2565b5b600182019050919050565b7f4e487b7100000000000000000000000000000000000000000000000000000000600052601160045260246000fd5b7f4e487b7100000000000000000000000000000000000000000000000000000000600052602160045260246000fd5b6000601f19601f8301169050919050565b60048110613e3257613e31613de1565b5b50565b613e3e81613c9b565b8114613e4957600080fd5b50565b613e5581613cad565b8114613e6057600080fd5b50565b613e6c81613cbf565b8114613e7757600080fd5b50565b613e8381613ccb565b8114613e8e57600080fd5b50565b613e9a81613d08565b8114613ea557600080fd5b5056fea26469706673582212203b92650d885176301b19dc315823e70500484292151100f74d6f4c02723e9d4f64736f6c63430008000033",
  "immutableReferences": {},
  "source": "/**\r\n * @title Simple Multi-Signature Wallet V2\r\n * @author Phoenix \"CryptoPhoenix\" Angell\r\n * @notice A simple multi-signature smart contract for managing shared ETH and ERC20 token balances.\r\n * @dev Inherits from WalletAdmins, which allows for adjustable multi-sig requirements.\r\n * @dev Multi-sig mechanism is internal to this contract.\r\n */\r\n// SPDX-License-Identifier: MIT\r\npragma solidity ^0.8.0;\r\n\r\nimport \"./WalletAdmins.sol\";\r\nimport \"./OpenZeppelinDependencies/IERC20.sol\";\r\n\r\ncontract SimpleMultiSigV2 is WalletAdmins {\r\n  \r\n  /**\r\n   * @notice Withdrawal request struct\r\n   *\r\n   * @param txID ID number of withdrawal\r\n   * @param recipient Recipient's address\r\n   * @param sender Sender requesting withdrawal\r\n   * @param amount Amount of ETH to send\r\n   * @param ticker ERC20 token ticker's keccak256 hash\r\n   * @param approvalStatus Approval status: Submitted, Pending, Approved, Cancelled\r\n   */\r\n  struct txnRequest {\r\n    uint txID;\r\n    address payable recipient;\r\n    address sender;\r\n    uint amount;\r\n    bytes32 ticker;\r\n    APPROVE approvalStatus;\r\n  }\r\n\r\n  // Approval status enum\r\n  enum APPROVE { SUBMITTED, PENDING, APPROVED, CANCELLED }\r\n\r\n  // Maps token's ticker hash to contract's total balance\r\n  mapping(bytes32 => uint) public trueBalance;\r\n  // Maps token's ticker hash to contract's pending balance\r\n  mapping(bytes32 => uint) public pendingBalance;\r\n\r\n  // Maps a token's keccak256 ticker to its contract address\r\n  mapping(bytes32 => address) public tokenAddress;\r\n\r\n  // History of all withdrawal requests:\r\n  txnRequest[] public txnHistory;\r\n\r\n  // EVENTS \\\\\r\n  // Fire when user submits new transaction\r\n  event TransactionSubmitted(uint indexed txID, uint timestamp);\r\n  event TransactionDetails(\r\n    uint indexed txID, \r\n    address indexed sender, \r\n    address indexed receiver, \r\n    uint amount\r\n  );\r\n  // Fires when transaction is approved\r\n  event TransactionApproved(uint indexed txID, uint timestamp);\r\n  // Fires when transaction is cancelled by user or Admin\r\n  event TransactionCancelled(uint indexed txID, address caller, uint timestamp);\r\n  // Fires when Admin approves transaction\r\n  event AdminApproved(uint indexed txID, address admin, uint timestamp);\r\n  // Fires when user adds a new ERC20 token\r\n  event ERC20Added(string ticker, bytes32 tickerHash, address tokenAddress, uint256 timestamp);\r\n\r\n  constructor(\r\n    address[] memory _admins, \r\n    uint _numerator, \r\n    uint _denominator\r\n  ) WalletAdmins(_admins, _numerator, _denominator) {\r\n    super;\r\n  }\r\n\r\n  /**\r\n   * @notice Used for hashing ticker strings without storing on-chain\r\n   */\r\n  function tickerHash(string calldata _ticker) public pure returns (bytes32) {\r\n    return keccak256(abi.encodePacked(_ticker));\r\n  }\r\n\r\n  // Submits a transaction request\r\n  /**\r\n   * @notice Submits a user's transaction request\r\n   *\r\n   * @param _recipient Transaction recipient\r\n   * @param _amount Amount of ERC20 tokens being sent\r\n   * @param _tokenTicker Ticker symbol of ERC20 token being transferred\r\n   */\r\n  function submitTransaction(address payable _recipient, uint _amount, string calldata _tokenTicker) external returns (bool success, uint txID) {\r\n    // Declare local variables\r\n    txID = txnHistory.length;\r\n    address _sender = msg.sender;\r\n    bytes32 tokenTickerBytes = tickerHash(_tokenTicker);\r\n\r\n    // Check pending balance\r\n    require (pendingBalance[tokenTickerBytes] >= _amount, \"Insufficient balance\");\r\n\r\n\r\n    // Create new transaction request\r\n    txnRequest memory pendingRequest =\r\n    txnRequest(\r\n              txID,\r\n              _recipient,\r\n              _sender,\r\n              _amount,\r\n              tokenTickerBytes,\r\n              APPROVE.SUBMITTED);\r\n\r\n    // Add transaction request to transaction history\r\n    txnHistory.push(pendingRequest);\r\n\r\n    // Adjust user's pending balance\r\n     // Note User's true balance is updated when tokens are deposited or transaction is approved\r\n    pendingBalance[tokenTickerBytes] -= _amount;\r\n\r\n    // Emit events, return success bool\r\n    emit TransactionSubmitted(txID, block.timestamp);\r\n    emit TransactionDetails(txID, msg.sender, _recipient, _amount);\r\n    success = true;\r\n  }\r\n\r\n  // Confirm transaction, only Admins may call\r\n  function confirmTransfer(uint _txID) external returns (bool txnApproved) {\r\n    // Declare local variables\r\n    txnRequest memory approvedTxn = txnHistory[_txID];\r\n    APPROVE status = approvedTxn.approvalStatus;\r\n    \r\n    // Check msg.sender has Admin status\r\n    require(isAdmin[msg.sender], \"Unauthorized\");\r\n    // Check transaction hasn't been approved already\r\n    require(status != APPROVE.APPROVED, \"Transaction approved\");\r\n    // Check transaction hasn't been cancelled\r\n    require(status != APPROVE.CANCELLED, \"Transaction cancelled\");\r\n    // Check Admin has not already approved transaction\r\n    require(!adminApproved[msg.sender][_txID], \"Admin approved\");\r\n\r\n\r\n    // If txnRequest was Submitted, then set to Pending    \r\n    if(status == APPROVE.SUBMITTED) {\r\n        txnHistory[_txID].approvalStatus = APPROVE.PENDING;\r\n      }\r\n    \r\n    // Update Admin's transaction approval\r\n    adminApproved[msg.sender][_txID] = true;\r\n    // Emit event alert for Admin's approval\r\n    emit AdminApproved(_txID, msg.sender, block.timestamp);\r\n    \r\n    // Run multi-sig check algorithm, return true if transaction is approved, false if not\r\n    if(_txnApproval(approvedTxn.txID)) txnApproved = true;\r\n    else txnApproved = false;\r\n  }\r\n\r\n  // Tallies up Admin approvals for transaction, performs transaction if multi-sig requirement is met\r\n   // Returns bool flag indicating transaction approval\r\n  function _txnApproval(uint _txID) private returns (bool) {\r\n    // 0. Initialize local variables\r\n    uint numApproved = 0;\r\n    txnRequest memory transaction = txnHistory[_txID];\r\n\r\n    // 1. Iterate through admins array and tally up approvals\r\n    for (uint i = 0; i < admins.length; i++) {\r\n      // Tertiary operator: If Admin approved then increment counter, if not then leave alone\r\n      adminApproved[admins[i]][_txID] ?\r\n        numApproved++ :\r\n        numApproved;\r\n    }\r\n\r\n    // 2. If approvals meet or exceed multi-sig requirement, then process transaction and return true flag\r\n     // Note There's no reason why it should exceed multi-sig requirement, but keep it just in case\r\n    if (numApproved >= adminsRequired) {\r\n\r\n      //*** EFFECTS ***\\\\      \r\n      // Update transaction's approval status to Approved\r\n      txnHistory[_txID].approvalStatus = APPROVE.APPROVED;\r\n      // Update user's true balance\r\n       // Note User's pendingBalance is updated during submission and cancellation\r\n      trueBalance[transaction.ticker] -= transaction.amount;\r\n\r\n      //*** INTERACTIONS ***\\\\\r\n      // Transfer token to recipient, returns true if successful, false if not\r\n      if(IERC20(tokenAddress[transaction.ticker]).transfer(transaction.recipient, transaction.amount)){\r\n        // Emit approval event\r\n        emit TransactionApproved(_txID, block.timestamp);\r\n        return true;\r\n      }\r\n    }\r\n\r\n    // 3. If approvals did not meet multi-sig requirement, then return false flag\r\n    return false;\r\n  }\r\n\r\n\r\n  // Cancel transaction, only user who submitted transaction or Admins may cancel\r\n  function cancelTransaction(uint _txID) external returns(bool) {\r\n    // Declare local variables\r\n    txnRequest memory transaction = txnHistory[_txID];\r\n\r\n    // Check transaction has not been approved\r\n    require(transaction.approvalStatus != APPROVE.APPROVED, \"Txn approved\");\r\n    // Check caller is transaction's sender or Admin\r\n    require (\r\n      transaction.sender == msg.sender || \r\n      isAdmin[msg.sender],\r\n      \"Only sender/Admin\"\r\n    );\r\n\r\n    // Update transaction approval status to Cancelled\r\n    txnHistory[_txID].approvalStatus = APPROVE.CANCELLED;\r\n    // Update user's pending balance\r\n     // Note User's true balance is updated when ETH is deposited or transaction is approved\r\n    pendingBalance[transaction.ticker] += transaction.amount;\r\n\r\n    // Emit cancellation alert\r\n    emit TransactionCancelled(_txID, msg.sender, block.timestamp);\r\n    return true;\r\n  }\r\n\r\n  // Deposits ERC20 token amount, requires approval prior to calling\r\n  function depositToken(string calldata _ticker, uint256 _amount) external payable returns(bool) {\r\n    // Declare local variables\r\n    bytes32 tickerBytes = tickerHash(_ticker);\r\n    address token = tokenAddress[tickerBytes];\r\n\r\n    //*** CHECKS ***\\\\\r\n    // Check token exists in this contract\r\n    require(token != address(0), \"Add token first\");\r\n    // Check amount is not zero\r\n    require(_amount != 0, \"Amount zero\");\r\n\r\n    //*** EFFECTS ***\\\\\r\n    // Update user's balances\r\n    trueBalance[tickerBytes] += _amount;\r\n    pendingBalance[tickerBytes] += _amount;\r\n\r\n    //*** INTERACTIONS ***\\\\\r\n    // Call ERC20 contract's transferFrom\r\n    return(IERC20(token).transferFrom(msg.sender, address(this), _amount));\r\n  }\r\n\r\n  // Adds a new ERC20 token to the contract, permissionless\r\n  function addToken(string calldata _ticker, address _tokenAddress) external {\r\n    // Hash token's ticker symbol\r\n    bytes32 tokenTickerBytes = keccak256(abi.encodePacked(_ticker));\r\n\r\n    // Check that token doesn't already exist\r\n    require(tokenAddress[tokenTickerBytes] == address(0), \"Token exists\");\r\n\r\n    // Map ticker symbol hash to its contract address\r\n    tokenAddress[tokenTickerBytes] = _tokenAddress;\r\n\r\n    // Emit alert\r\n    emit ERC20Added(_ticker, tokenTickerBytes, _tokenAddress, block.timestamp);\r\n  }\r\n\r\n  // Modifies existing token address data, only Admin may call\r\n  function modifyTokenAddress(string calldata _ticker, address _tokenAddress) external {\r\n    // Check caller is Admin\r\n    require(isAdmin[msg.sender], \"Only Admin\");\r\n\r\n    // Update token contract's address\r\n    tokenAddress[tickerHash(_ticker)] = _tokenAddress;\r\n  }\r\n\r\n  // Returns pending transaction IDs\r\n  function getPending() public view returns (uint[] memory pendingTxnIDs) {\r\n    // 0. Initialize arrayLength variable\r\n    uint arrayLength = 0;\r\n\r\n    // 1. Tally number of pending transactions to find arrayLength\r\n    for (uint i = 0; i < txnHistory.length; i++) {\r\n      // Store transaction in local memory\r\n      txnRequest memory transaction = txnHistory[i];\r\n\r\n        // If transaction was Approved or Cancelled, then skip to next transaction\r\n        if (\r\n          transaction.approvalStatus == APPROVE.APPROVED ||\r\n          transaction.approvalStatus == APPROVE.CANCELLED\r\n          ) {\r\n            continue;\r\n        }\r\n        // If transaction was not skipped, then increment arrayLength\r\n        arrayLength++;\r\n    }\r\n\r\n    // 2. Create, populate, and return a static array of pending transaction IDs\r\n    // 2a. Define size of pendingTxnIDs using arrayLength found in step 1\r\n    pendingTxnIDs = new uint[](arrayLength);\r\n\r\n    // 2b. Populate each pendingTxnIDs array element\r\n    for (uint i = 0; i < arrayLength; i++) {\r\n      // Store transaction in local memory\r\n      txnRequest memory transaction = txnHistory[i];\r\n\r\n      // If transaction was Approved or Cancelled, then skip to next transaction\r\n      if (\r\n        transaction.approvalStatus == APPROVE.APPROVED ||\r\n        transaction.approvalStatus == APPROVE.CANCELLED\r\n        ) {\r\n          continue;\r\n      }\r\n\r\n      // Add transaction ID to pendingTxnIDs\r\n      pendingTxnIDs[i] = transaction.txID;      \r\n    }\r\n\r\n    // 3. Return array of txnIDs\r\n    return pendingTxnIDs;\r\n  }\r\n\r\n\r\n\r\n}\r\n",
  "sourcePath": "D:/Documents/Solidity/multisigcontracts/contracts/SimpleMultiSigV2.sol",
  "compiler": {
    "name": "solc",
    "version": "0.8.0+commit.c7dfd78e.Emscripten.clang"
  },
  "schemaVersion": "3.4.1",
  "updatedAt": "2022-07-05T22:07:23.912Z",
  "devdoc": {
    "kind": "dev",
    "methods": {
      "owner()": {
        "details": "Returns the address of the current owner."
      },
      "renounceOwnership()": {
        "details": "Leaves the contract without owner. It will not be possible to call `onlyOwner` functions anymore. Can only be called by the current owner. NOTE: Renouncing ownership will leave the contract without an owner, thereby removing any functionality that is only available to the owner."
      },
      "submitTransaction(address,uint256,string)": {
        "params": {
          "_amount": "Amount of ERC20 tokens being sent",
          "_recipient": "Transaction recipient",
          "_tokenTicker": "Ticker symbol of ERC20 token being transferred"
        }
      },
      "transferOwnership(address)": {
        "details": "Transfers ownership of the contract to a new account (`newOwner`). Can only be called by the current owner."
      }
    },
    "version": 1
  },
  "userdoc": {
    "kind": "user",
    "methods": {
      "submitTransaction(address,uint256,string)": {
        "notice": "Submits a user's transaction request"
      },
      "tickerHash(string)": {
        "notice": "Used for hashing ticker strings without storing on-chain"
      }
    },
    "version": 1
  }
}