{
  "contractName": "Treasury",
  "abi": [
    {
      "inputs": [
        {
          "internalType": "address[]",
          "name": "_admins",
          "type": "address[]"
        },
        {
          "internalType": "uint256",
          "name": "_mainAccountID",
          "type": "uint256"
        },
        {
          "internalType": "string[]",
          "name": "_tickers",
          "type": "string[]"
        },
        {
          "internalType": "address[]",
          "name": "_tokenContracts",
          "type": "address[]"
        },
        {
          "internalType": "uint256",
          "name": "_numerator",
          "type": "uint256"
        },
        {
          "internalType": "uint256",
          "name": "_denominator",
          "type": "uint256"
        }
      ],
      "stateMutability": "nonpayable",
      "type": "constructor"
    },
    {
      "anonymous": false,
      "inputs": [
        {
          "indexed": true,
          "internalType": "uint256",
          "name": "txID",
          "type": "uint256"
        },
        {
          "indexed": false,
          "internalType": "address",
          "name": "admin",
          "type": "address"
        },
        {
          "indexed": false,
          "internalType": "uint256",
          "name": "timestamp",
          "type": "uint256"
        }
      ],
      "name": "AdminApproved",
      "type": "event"
    },
    {
      "anonymous": false,
      "inputs": [
        {
          "indexed": false,
          "internalType": "string",
          "name": "ticker",
          "type": "string"
        },
        {
          "indexed": false,
          "internalType": "bytes32",
          "name": "tickerHash",
          "type": "bytes32"
        },
        {
          "indexed": false,
          "internalType": "address",
          "name": "tokenAddress",
          "type": "address"
        },
        {
          "indexed": false,
          "internalType": "uint256",
          "name": "timestamp",
          "type": "uint256"
        }
      ],
      "name": "ERC20Added",
      "type": "event"
    },
    {
      "anonymous": false,
      "inputs": [
        {
          "indexed": false,
          "internalType": "string",
          "name": "ticker",
          "type": "string"
        },
        {
          "indexed": false,
          "internalType": "bytes32",
          "name": "tickerHash",
          "type": "bytes32"
        },
        {
          "indexed": false,
          "internalType": "address",
          "name": "oldAddress",
          "type": "address"
        },
        {
          "indexed": false,
          "internalType": "address",
          "name": "newAddress",
          "type": "address"
        },
        {
          "indexed": false,
          "internalType": "uint256",
          "name": "timestamp",
          "type": "uint256"
        }
      ],
      "name": "ERC20Modified",
      "type": "event"
    },
    {
      "anonymous": false,
      "inputs": [
        {
          "indexed": false,
          "internalType": "uint256",
          "name": "accountID",
          "type": "uint256"
        },
        {
          "indexed": false,
          "internalType": "uint256",
          "name": "amount",
          "type": "uint256"
        },
        {
          "indexed": false,
          "internalType": "uint256",
          "name": "timestamp",
          "type": "uint256"
        }
      ],
      "name": "ETHDeposited",
      "type": "event"
    },
    {
      "anonymous": false,
      "inputs": [
        {
          "indexed": false,
          "internalType": "string",
          "name": "ticker",
          "type": "string"
        },
        {
          "indexed": false,
          "internalType": "uint256",
          "name": "amount",
          "type": "uint256"
        },
        {
          "indexed": false,
          "internalType": "uint256",
          "name": "accountFrom",
          "type": "uint256"
        },
        {
          "indexed": false,
          "internalType": "uint256",
          "name": "accountTo",
          "type": "uint256"
        },
        {
          "indexed": false,
          "internalType": "address",
          "name": "admin",
          "type": "address"
        },
        {
          "indexed": false,
          "internalType": "uint256",
          "name": "timestamp",
          "type": "uint256"
        }
      ],
      "name": "InternalTransfer",
      "type": "event"
    },
    {
      "anonymous": false,
      "inputs": [
        {
          "indexed": true,
          "internalType": "address",
          "name": "previousOwner",
          "type": "address"
        },
        {
          "indexed": true,
          "internalType": "address",
          "name": "newOwner",
          "type": "address"
        }
      ],
      "name": "OwnershipTransferred",
      "type": "event"
    },
    {
      "anonymous": false,
      "inputs": [
        {
          "indexed": true,
          "internalType": "uint256",
          "name": "txID",
          "type": "uint256"
        },
        {
          "indexed": false,
          "internalType": "uint256",
          "name": "timestamp",
          "type": "uint256"
        }
      ],
      "name": "TransactionApproved",
      "type": "event"
    },
    {
      "anonymous": false,
      "inputs": [
        {
          "indexed": true,
          "internalType": "uint256",
          "name": "txID",
          "type": "uint256"
        },
        {
          "indexed": false,
          "internalType": "address",
          "name": "caller",
          "type": "address"
        },
        {
          "indexed": false,
          "internalType": "uint256",
          "name": "timestamp",
          "type": "uint256"
        }
      ],
      "name": "TransactionCancelled",
      "type": "event"
    },
    {
      "anonymous": false,
      "inputs": [
        {
          "indexed": true,
          "internalType": "uint256",
          "name": "txID",
          "type": "uint256"
        },
        {
          "indexed": true,
          "internalType": "uint256",
          "name": "accountID",
          "type": "uint256"
        },
        {
          "indexed": false,
          "internalType": "address",
          "name": "receiver",
          "type": "address"
        },
        {
          "indexed": false,
          "internalType": "uint256",
          "name": "amount",
          "type": "uint256"
        }
      ],
      "name": "TransactionDetails",
      "type": "event"
    },
    {
      "anonymous": false,
      "inputs": [
        {
          "indexed": true,
          "internalType": "uint256",
          "name": "txID",
          "type": "uint256"
        },
        {
          "indexed": false,
          "internalType": "uint256",
          "name": "timestamp",
          "type": "uint256"
        }
      ],
      "name": "TransactionSubmitted",
      "type": "event"
    },
    {
      "stateMutability": "payable",
      "type": "fallback"
    },
    {
      "inputs": [
        {
          "internalType": "address",
          "name": "_address",
          "type": "address"
        }
      ],
      "name": "addAdmin",
      "outputs": [
        {
          "internalType": "uint256",
          "name": "adminID",
          "type": "uint256"
        }
      ],
      "stateMutability": "nonpayable",
      "type": "function"
    },
    {
      "inputs": [
        {
          "internalType": "address",
          "name": "",
          "type": "address"
        },
        {
          "internalType": "uint256",
          "name": "",
          "type": "uint256"
        }
      ],
      "name": "adminApproved",
      "outputs": [
        {
          "internalType": "bool",
          "name": "",
          "type": "bool"
        }
      ],
      "stateMutability": "view",
      "type": "function"
    },
    {
      "inputs": [
        {
          "internalType": "uint256",
          "name": "",
          "type": "uint256"
        }
      ],
      "name": "admins",
      "outputs": [
        {
          "internalType": "address",
          "name": "",
          "type": "address"
        }
      ],
      "stateMutability": "view",
      "type": "function"
    },
    {
      "inputs": [
        {
          "internalType": "address",
          "name": "",
          "type": "address"
        }
      ],
      "name": "isAdmin",
      "outputs": [
        {
          "internalType": "bool",
          "name": "",
          "type": "bool"
        }
      ],
      "stateMutability": "view",
      "type": "function"
    },
    {
      "inputs": [
        {
          "internalType": "uint256",
          "name": "",
          "type": "uint256"
        }
      ],
      "name": "isPublic",
      "outputs": [
        {
          "internalType": "bool",
          "name": "",
          "type": "bool"
        }
      ],
      "stateMutability": "view",
      "type": "function"
    },
    {
      "inputs": [],
      "name": "mainAccountID",
      "outputs": [
        {
          "internalType": "uint256",
          "name": "",
          "type": "uint256"
        }
      ],
      "stateMutability": "view",
      "type": "function"
    },
    {
      "inputs": [
        {
          "internalType": "uint256",
          "name": "_numerator",
          "type": "uint256"
        },
        {
          "internalType": "uint256",
          "name": "_denominator",
          "type": "uint256"
        }
      ],
      "name": "modifySignatureRatio",
      "outputs": [
        {
          "internalType": "bool",
          "name": "",
          "type": "bool"
        }
      ],
      "stateMutability": "nonpayable",
      "type": "function"
    },
    {
      "inputs": [],
      "name": "owner",
      "outputs": [
        {
          "internalType": "address",
          "name": "",
          "type": "address"
        }
      ],
      "stateMutability": "view",
      "type": "function"
    },
    {
      "inputs": [
        {
          "internalType": "uint256",
          "name": "",
          "type": "uint256"
        },
        {
          "internalType": "bytes32",
          "name": "",
          "type": "bytes32"
        }
      ],
      "name": "pendingBalance",
      "outputs": [
        {
          "internalType": "uint256",
          "name": "",
          "type": "uint256"
        }
      ],
      "stateMutability": "view",
      "type": "function"
    },
    {
      "inputs": [],
      "name": "pendingTxns",
      "outputs": [
        {
          "internalType": "uint256",
          "name": "",
          "type": "uint256"
        }
      ],
      "stateMutability": "view",
      "type": "function"
    },
    {
      "inputs": [
        {
          "internalType": "uint256",
          "name": "_adminID",
          "type": "uint256"
        }
      ],
      "name": "removeAdmin",
      "outputs": [],
      "stateMutability": "nonpayable",
      "type": "function"
    },
    {
      "inputs": [],
      "name": "renounceOwnership",
      "outputs": [],
      "stateMutability": "nonpayable",
      "type": "function"
    },
    {
      "inputs": [
        {
          "internalType": "bytes32",
          "name": "",
          "type": "bytes32"
        }
      ],
      "name": "tokenAddress",
      "outputs": [
        {
          "internalType": "address",
          "name": "",
          "type": "address"
        }
      ],
      "stateMutability": "view",
      "type": "function"
    },
    {
      "inputs": [
        {
          "internalType": "string",
          "name": "",
          "type": "string"
        }
      ],
      "name": "tokenTicker",
      "outputs": [
        {
          "internalType": "bytes32",
          "name": "",
          "type": "bytes32"
        }
      ],
      "stateMutability": "view",
      "type": "function"
    },
    {
      "inputs": [
        {
          "internalType": "address",
          "name": "newOwner",
          "type": "address"
        }
      ],
      "name": "transferOwnership",
      "outputs": [],
      "stateMutability": "nonpayable",
      "type": "function"
    },
    {
      "inputs": [
        {
          "internalType": "uint256",
          "name": "",
          "type": "uint256"
        },
        {
          "internalType": "bytes32",
          "name": "",
          "type": "bytes32"
        }
      ],
      "name": "trueBalance",
      "outputs": [
        {
          "internalType": "uint256",
          "name": "",
          "type": "uint256"
        }
      ],
      "stateMutability": "view",
      "type": "function"
    },
    {
      "inputs": [
        {
          "internalType": "uint256",
          "name": "",
          "type": "uint256"
        }
      ],
      "name": "txnHistory",
      "outputs": [
        {
          "internalType": "uint256",
          "name": "txID",
          "type": "uint256"
        },
        {
          "internalType": "uint256",
          "name": "timestamp",
          "type": "uint256"
        },
        {
          "internalType": "uint256",
          "name": "accountID",
          "type": "uint256"
        },
        {
          "internalType": "uint256",
          "name": "amount",
          "type": "uint256"
        },
        {
          "internalType": "bytes32",
          "name": "ticker",
          "type": "bytes32"
        },
        {
          "internalType": "address payable",
          "name": "recipient",
          "type": "address"
        },
        {
          "internalType": "enum Treasury.APPROVE",
          "name": "approvalStatus",
          "type": "uint8"
        }
      ],
      "stateMutability": "view",
      "type": "function"
    },
    {
      "stateMutability": "payable",
      "type": "receive"
    },
    {
      "inputs": [
        {
          "internalType": "uint256",
          "name": "_accountID",
          "type": "uint256"
        },
        {
          "internalType": "address payable",
          "name": "_recipient",
          "type": "address"
        },
        {
          "internalType": "uint256",
          "name": "_amount",
          "type": "uint256"
        },
        {
          "internalType": "string",
          "name": "_tokenTicker",
          "type": "string"
        }
      ],
      "name": "submitTransaction",
      "outputs": [
        {
          "internalType": "bool",
          "name": "success",
          "type": "bool"
        },
        {
          "internalType": "uint256",
          "name": "txID",
          "type": "uint256"
        }
      ],
      "stateMutability": "nonpayable",
      "type": "function"
    },
    {
      "inputs": [
        {
          "internalType": "uint256",
          "name": "_txID",
          "type": "uint256"
        }
      ],
      "name": "confirmTransfer",
      "outputs": [
        {
          "internalType": "bool",
          "name": "txnApproved",
          "type": "bool"
        }
      ],
      "stateMutability": "nonpayable",
      "type": "function"
    },
    {
      "inputs": [
        {
          "internalType": "uint256",
          "name": "_txID",
          "type": "uint256"
        }
      ],
      "name": "cancelTransaction",
      "outputs": [
        {
          "internalType": "bool",
          "name": "",
          "type": "bool"
        }
      ],
      "stateMutability": "nonpayable",
      "type": "function"
    },
    {
      "inputs": [
        {
          "internalType": "string",
          "name": "_ticker",
          "type": "string"
        },
        {
          "internalType": "uint256",
          "name": "_amount",
          "type": "uint256"
        },
        {
          "internalType": "uint256",
          "name": "_accountID",
          "type": "uint256"
        }
      ],
      "name": "depositToken",
      "outputs": [
        {
          "internalType": "bool",
          "name": "",
          "type": "bool"
        }
      ],
      "stateMutability": "nonpayable",
      "type": "function"
    },
    {
      "inputs": [
        {
          "internalType": "uint256",
          "name": "_accountID",
          "type": "uint256"
        }
      ],
      "name": "depositETH",
      "outputs": [
        {
          "internalType": "bool",
          "name": "",
          "type": "bool"
        }
      ],
      "stateMutability": "payable",
      "type": "function"
    },
    {
      "inputs": [
        {
          "internalType": "string",
          "name": "_ticker",
          "type": "string"
        },
        {
          "internalType": "uint256",
          "name": "_amount",
          "type": "uint256"
        },
        {
          "internalType": "uint256",
          "name": "_accountIDFrom",
          "type": "uint256"
        },
        {
          "internalType": "uint256",
          "name": "_accountIDTo",
          "type": "uint256"
        }
      ],
      "name": "internalTransfer",
      "outputs": [
        {
          "internalType": "bool",
          "name": "",
          "type": "bool"
        }
      ],
      "stateMutability": "nonpayable",
      "type": "function"
    },
    {
      "inputs": [
        {
          "internalType": "string",
          "name": "_ticker",
          "type": "string"
        },
        {
          "internalType": "address",
          "name": "_tokenAddress",
          "type": "address"
        }
      ],
      "name": "modifyToken",
      "outputs": [
        {
          "internalType": "bool",
          "name": "",
          "type": "bool"
        }
      ],
      "stateMutability": "nonpayable",
      "type": "function"
    },
    {
      "inputs": [
        {
          "internalType": "uint256",
          "name": "_accountID",
          "type": "uint256"
        },
        {
          "internalType": "bool",
          "name": "_isPublic",
          "type": "bool"
        }
      ],
      "name": "setAccountPermission",
      "outputs": [
        {
          "internalType": "bool",
          "name": "",
          "type": "bool"
        }
      ],
      "stateMutability": "nonpayable",
      "type": "function"
    },
    {
      "inputs": [],
      "name": "getPendingIDs",
      "outputs": [
        {
          "internalType": "uint256[]",
          "name": "pendingTxnIDs",
          "type": "uint256[]"
        }
      ],
      "stateMutability": "view",
      "type": "function"
    }
  ],
  "bytecode": "0x60806040526005546004546003805490506200001c919062000cf1565b62000028919062000cb9565b6006553480156200003857600080fd5b50604051620065b1380380620065b183398181016040528101906200005e9190620008b3565b858282600062000073620006d760201b60201c565b9050806000806101000a81548173ffffffffffffffffffffffffffffffffffffffff021916908373ffffffffffffffffffffffffffffffffffffffff1602179055508073ffffffffffffffffffffffffffffffffffffffff16600073ffffffffffffffffffffffffffffffffffffffff167f8be0079c531659141344cd1fd0a4f28419497f9722a3daafe3b4186f6b6457e060405160405180910390a35060008114158015620001235750808211155b62000165576040517f08c379a00000000000000000000000000000000000000000000000000000000081526004016200015c9062000b89565b60405180910390fd5b81600481905550806005819055506003339080600181540180825580915050600190039060005260206000200160009091909190916101000a81548173ffffffffffffffffffffffffffffffffffffffff021916908373ffffffffffffffffffffffffffffffffffffffff1602179055506001600260003373ffffffffffffffffffffffffffffffffffffffff1673ffffffffffffffffffffffffffffffffffffffff16815260200190815260200160002060006101000a81548160ff02191690831515021790555060005b83518110156200038e57600384828151811062000277577f4e487b7100000000000000000000000000000000000000000000000000000000600052603260045260246000fd5b60200260200101519080600181540180825580915050600190039060005260206000200160009091909190916101000a81548173ffffffffffffffffffffffffffffffffffffffff021916908373ffffffffffffffffffffffffffffffffffffffff1602179055506001600260008684815181106200031f577f4e487b7100000000000000000000000000000000000000000000000000000000600052603260045260246000fd5b602002602001015173ffffffffffffffffffffffffffffffffffffffff1673ffffffffffffffffffffffffffffffffffffffff16815260200190815260200160002060006101000a81548160ff0219169083151502179055508080620003859062000dd0565b91505062000231565b505050508251845114620003d9576040517f08c379a0000000000000000000000000000000000000000000000000000000008152600401620003d09062000bab565b60405180910390fd5b604051602001620003ea9062000b1e565b60405160208183030381529060405280519060200120600d81905550600d54600b604051620004199062000b1e565b90815260200160405180910390208190555030600a6000600d54815260200190815260200160002060006101000a81548173ffffffffffffffffffffffffffffffffffffffff021916908373ffffffffffffffffffffffffffffffffffffffff16021790555084600e8190555060005b8451811015620006ca576000858281518110620004cf577f4e487b7100000000000000000000000000000000000000000000000000000000600052603260045260246000fd5b6020026020010151604051602001620004e9919062000b05565b60405160208183030381529060405280519060200120905080600b8784815181106200053e577f4e487b7100000000000000000000000000000000000000000000000000000000600052603260045260246000fd5b602002602001015160405162000555919062000b05565b908152602001604051809103902081905550848281518110620005a1577f4e487b7100000000000000000000000000000000000000000000000000000000600052603260045260246000fd5b6020026020010151600a600083815260200190815260200160002060006101000a81548173ffffffffffffffffffffffffffffffffffffffff021916908373ffffffffffffffffffffffffffffffffffffffff1602179055507f7a5ac0e54ddf7495d0e1c10f9c4bff0e09008514a3384940877bac3d6d7c62e886838151811062000655577f4e487b7100000000000000000000000000000000000000000000000000000000600052603260045260246000fd5b60200260200101518287858151811062000698577f4e487b7100000000000000000000000000000000000000000000000000000000600052603260045260246000fd5b602002602001015142604051620006b3949392919062000b35565b60405180910390a150808060010191505062000489565b5050505050505062000ef0565b600033905090565b6000620006f6620006f08462000c01565b62000bcd565b905080838252602082019050828560208602820111156200071657600080fd5b60005b858110156200074a57816200072f8882620007fe565b84526020840193506020830192505060018101905062000719565b5050509392505050565b60006200076b620007658462000c30565b62000bcd565b9050808382526020820190508260005b85811015620007af57815185016200079488826200086f565b8452602084019350602083019250506001810190506200077b565b5050509392505050565b6000620007d0620007ca8462000c5f565b62000bcd565b905082815260208101848484011115620007e957600080fd5b620007f684828562000d9a565b509392505050565b6000815190506200080f8162000ebc565b92915050565b600082601f8301126200082757600080fd5b815162000839848260208601620006df565b91505092915050565b600082601f8301126200085457600080fd5b81516200086684826020860162000754565b91505092915050565b600082601f8301126200088157600080fd5b815162000893848260208601620007b9565b91505092915050565b600081519050620008ad8162000ed6565b92915050565b60008060008060008060c08789031215620008cd57600080fd5b600087015167ffffffffffffffff811115620008e857600080fd5b620008f689828a0162000815565b96505060206200090989828a016200089c565b955050604087015167ffffffffffffffff8111156200092757600080fd5b6200093589828a0162000842565b945050606087015167ffffffffffffffff8111156200095357600080fd5b6200096189828a0162000815565b93505060806200097489828a016200089c565b92505060a06200098789828a016200089c565b9150509295509295509295565b6200099f8162000d52565b82525050565b620009b08162000d66565b82525050565b6000620009c38262000c92565b620009cf818562000c9d565b9350620009e181856020860162000d9a565b620009ec8162000eab565b840191505092915050565b600062000a048262000c92565b62000a10818562000cae565b935062000a2281856020860162000d9a565b80840191505092915050565b600062000a3d60108362000c9d565b91507f496d706f737369626c6520726174696f000000000000000000000000000000006000830152602082019050919050565b600062000a7f60188362000c9d565b91507f4172726179206c656e67746873206d69736d61746368656400000000000000006000830152602082019050919050565b600062000ac160038362000cae565b91507f45544800000000000000000000000000000000000000000000000000000000006000830152600382019050919050565b62000aff8162000d90565b82525050565b600062000b138284620009f7565b915081905092915050565b600062000b2b8262000ab2565b9150819050919050565b6000608082019050818103600083015262000b518187620009b6565b905062000b626020830186620009a5565b62000b71604083018562000994565b62000b80606083018462000af4565b95945050505050565b6000602082019050818103600083015262000ba48162000a2e565b9050919050565b6000602082019050818103600083015262000bc68162000a70565b9050919050565b6000604051905081810181811067ffffffffffffffff8211171562000bf75762000bf662000e7c565b5b8060405250919050565b600067ffffffffffffffff82111562000c1f5762000c1e62000e7c565b5b602082029050602081019050919050565b600067ffffffffffffffff82111562000c4e5762000c4d62000e7c565b5b602082029050602081019050919050565b600067ffffffffffffffff82111562000c7d5762000c7c62000e7c565b5b601f19601f8301169050602081019050919050565b600081519050919050565b600082825260208201905092915050565b600081905092915050565b600062000cc68262000d90565b915062000cd38362000d90565b92508262000ce65762000ce562000e4d565b5b828204905092915050565b600062000cfe8262000d90565b915062000d0b8362000d90565b9250817fffffffffffffffffffffffffffffffffffffffffffffffffffffffffffffffff048311821515161562000d475762000d4662000e1e565b5b828202905092915050565b600062000d5f8262000d70565b9050919050565b6000819050919050565b600073ffffffffffffffffffffffffffffffffffffffff82169050919050565b6000819050919050565b60005b8381101562000dba57808201518184015260208101905062000d9d565b8381111562000dca576000848401525b50505050565b600062000ddd8262000d90565b91507fffffffffffffffffffffffffffffffffffffffffffffffffffffffffffffffff82141562000e135762000e1262000e1e565b5b600182019050919050565b7f4e487b7100000000000000000000000000000000000000000000000000000000600052601160045260246000fd5b7f4e487b7100000000000000000000000000000000000000000000000000000000600052601260045260246000fd5b7f4e487b7100000000000000000000000000000000000000000000000000000000600052604160045260246000fd5b6000601f19601f8301169050919050565b62000ec78162000d52565b811462000ed357600080fd5b50565b62000ee18162000d90565b811462000eed57600080fd5b50565b6156b18062000f006000396000f3fe6080604052600436106101845760003560e01c80635358fbda116100d15780638da5cb5b1161008a578063c32cf65f11610064578063c32cf65f14610737578063d8089f3614610774578063f00e198a146107b1578063f2fde38b146107ee57610246565b80638da5cb5b146106a657806397bb3ce9146106d1578063ad7bbc291461070e57610246565b80635358fbda1461057d5780635b2dfeb8146105ad57806370480275146105ea578063715018a6146106275780637724359c1461063e57806386cb41811461066957610246565b80632f1f026c1161013e57806339a1f6531161011857806339a1f653146104955780633bb41085146104c05780633fe97077146104fd578063433d63181461054057610246565b80632f1f026c146103dd5780633380c0d81461041a57806336ab91781461045757610246565b80622a68f71461028157806314bfd6d0146102ac578063184eaeca146102e9578063203f25341461032657806324d7806c146103635780632c48e7db146103a057610246565b36610246573460076000600e5481526020019081526020016000206000600d54815260200190815260200160002060008282546101c1919061538b565b925050819055503460086000600e5481526020019081526020016000206000600d5481526020019081526020016000206000828254610200919061538b565b925050819055507f3bca748872de6e5d322fa60303dd12a52794cfd3a9da138a7ffdf914299cb378600e54344260405161023c9392919061522f565b60405180910390a1005b6040517f08c379a000000000000000000000000000000000000000000000000000000000815260040161027890615134565b60405180910390fd5b34801561028d57600080fd5b50610296610817565b6040516102a39190615214565b60405180910390f35b3480156102b857600080fd5b506102d360048036038101906102ce91906144bf565b61081d565b6040516102e09190614d1b565b60405180910390f35b3480156102f557600080fd5b50610310600480360381019061030b9190614568565b61085c565b60405161031d9190614de1565b60405180910390f35b34801561033257600080fd5b5061034d6004803603810190610348919061433a565b61091f565b60405161035a9190614de1565b60405180910390f35b34801561036f57600080fd5b5061038a60048036038101906103859190614283565b610cb1565b6040516103979190614de1565b60405180910390f35b3480156103ac57600080fd5b506103c760048036038101906103c291906144bf565b610cd1565b6040516103d49190614de1565b60405180910390f35b3480156103e957600080fd5b5061040460048036038101906103ff91906145a4565b61139e565b6040516104119190615214565b60405180910390f35b34801561042657600080fd5b50610441600480360381019061043c91906144bf565b6113c3565b60405161044e9190614de1565b60405180910390f35b34801561046357600080fd5b5061047e600480360381019061047991906144e8565b6118aa565b60405161048c929190614dfc565b60405180910390f35b3480156104a157600080fd5b506104aa61205f565b6040516104b79190615214565b60405180910390f35b3480156104cc57600080fd5b506104e760048036038101906104e291906145a4565b612065565b6040516104f49190615214565b60405180910390f35b34801561050957600080fd5b50610524600480360381019061051f91906144bf565b61208a565b6040516105379796959493929190615266565b60405180910390f35b34801561054c57600080fd5b5061056760048036038101906105629190614392565b612109565b6040516105749190614de1565b60405180910390f35b610597600480360381019061059291906144bf565b61270d565b6040516105a49190614de1565b60405180910390f35b3480156105b957600080fd5b506105d460048036038101906105cf91906144bf565b6129c8565b6040516105e19190614de1565b60405180910390f35b3480156105f657600080fd5b50610611600480360381019061060c9190614283565b6129e8565b60405161061e9190615214565b60405180910390f35b34801561063357600080fd5b5061063c612b2e565b005b34801561064a57600080fd5b50610653612c68565b6040516106609190614dbf565b60405180910390f35b34801561067557600080fd5b50610690600480360381019061068b91906145e0565b613014565b60405161069d9190614de1565b60405180910390f35b3480156106b257600080fd5b506106bb613159565b6040516106c89190614d1b565b60405180910390f35b3480156106dd57600080fd5b506106f860048036038101906106f39190614311565b613182565b6040516107059190614d1b565b60405180910390f35b34801561071a57600080fd5b50610735600480360381019061073091906144bf565b6131b5565b005b34801561074357600080fd5b5061075e600480360381019061075991906142ac565b613737565b60405161076b9190614de1565b60405180910390f35b34801561078057600080fd5b5061079b600480360381019061079691906143fe565b613766565b6040516107a89190614de1565b60405180910390f35b3480156107bd57600080fd5b506107d860048036038101906107d3919061447e565b6139ed565b6040516107e59190614e25565b60405180910390f35b3480156107fa57600080fd5b5061081560048036038101906108109190614283565b613a1b565b005b600e5481565b6003818154811061082d57600080fd5b906000526020600020016000915054906101000a900473ffffffffffffffffffffffffffffffffffffffff1681565b6000600260003373ffffffffffffffffffffffffffffffffffffffff1673ffffffffffffffffffffffffffffffffffffffff16815260200190815260200160002060009054906101000a900460ff166108ea576040517f08c379a00000000000000000000000000000000000000000000000000000000081526004016108e190615074565b60405180910390fd5b816009600085815260200190815260200160002060006101000a81548160ff0219169083151502179055506001905092915050565b6000600260003373ffffffffffffffffffffffffffffffffffffffff1673ffffffffffffffffffffffffffffffffffffffff16815260200190815260200160002060009054906101000a900460ff166109ad576040517f08c379a00000000000000000000000000000000000000000000000000000000081526004016109a490615074565b60405180910390fd5b600084846040516020016109c2929190614d02565b604051602081830303815290604052805190602001209050600d54600b86866040516109ef929190614d02565b90815260200160405180910390205414158015610a6b57503073ffffffffffffffffffffffffffffffffffffffff16600a600083815260200190815260200160002060009054906101000a900473ffffffffffffffffffffffffffffffffffffffff1673ffffffffffffffffffffffffffffffffffffffff1614155b8015610aa357503073ffffffffffffffffffffffffffffffffffffffff168373ffffffffffffffffffffffffffffffffffffffff1614155b610ae2576040517f08c379a0000000000000000000000000000000000000000000000000000000008152600401610ad9906151f4565b60405180910390fd5b80600b8686604051610af5929190614d02565b908152602001604051809103902054141580610b705750600073ffffffffffffffffffffffffffffffffffffffff16600a600083815260200190815260200160002060009054906101000a900473ffffffffffffffffffffffffffffffffffffffff1673ffffffffffffffffffffffffffffffffffffffff16145b15610bde5780600b8686604051610b88929190614d02565b9081526020016040518091039020819055507f7a5ac0e54ddf7495d0e1c10f9c4bff0e09008514a3384940877bac3d6d7c62e88585838642604051610bd1959493929190614e9c565b60405180910390a1610c53565b7fc1f18f35528e1daefc5d8603694ce905d6c55e0ea356d63dcfb259208789751e858583600a600086815260200190815260200160002060009054906101000a900473ffffffffffffffffffffffffffffffffffffffff168742604051610c4a96959493929190614e40565b60405180910390a15b82600a600083815260200190815260200160002060006101000a81548173ffffffffffffffffffffffffffffffffffffffff021916908373ffffffffffffffffffffffffffffffffffffffff16021790555060019150509392505050565b60026020528060005260406000206000915054906101000a900460ff1681565b6000600260003373ffffffffffffffffffffffffffffffffffffffff1673ffffffffffffffffffffffffffffffffffffffff16815260200190815260200160002060009054906101000a900460ff16610d5f576040517f08c379a0000000000000000000000000000000000000000000000000000000008152600401610d5690615074565b60405180910390fd5b6000600c8381548110610d9b577f4e487b7100000000000000000000000000000000000000000000000000000000600052603260045260246000fd5b90600052602060002090600602016040518060e001604052908160008201548152602001600182015481526020016002820154815260200160038201548152602001600482015481526020016005820160009054906101000a900473ffffffffffffffffffffffffffffffffffffffff1673ffffffffffffffffffffffffffffffffffffffff1673ffffffffffffffffffffffffffffffffffffffff1681526020016005820160149054906101000a900460ff166003811115610e87577f4e487b7100000000000000000000000000000000000000000000000000000000600052602160045260246000fd5b6003811115610ebf577f4e487b7100000000000000000000000000000000000000000000000000000000600052602160045260246000fd5b81525050905060008160c001519050600073ffffffffffffffffffffffffffffffffffffffff16600a60008460800151815260200190815260200160002060009054906101000a900473ffffffffffffffffffffffffffffffffffffffff1673ffffffffffffffffffffffffffffffffffffffff161415610f75576040517f08c379a0000000000000000000000000000000000000000000000000000000008152600401610f6c90615194565b60405180910390fd5b600c805490508410610fbc576040517f08c379a0000000000000000000000000000000000000000000000000000000008152600401610fb390615174565b60405180910390fd5b60026003811115610ff6577f4e487b7100000000000000000000000000000000000000000000000000000000600052602160045260246000fd5b81600381111561102f577f4e487b7100000000000000000000000000000000000000000000000000000000600052602160045260246000fd5b1415611070576040517f08c379a000000000000000000000000000000000000000000000000000000000815260040161106790615094565b60405180910390fd5b6003808111156110a9577f4e487b7100000000000000000000000000000000000000000000000000000000600052602160045260246000fd5b8160038111156110e2577f4e487b7100000000000000000000000000000000000000000000000000000000600052602160045260246000fd5b1415611123576040517f08c379a000000000000000000000000000000000000000000000000000000000815260040161111a90614f74565b60405180910390fd5b600160003373ffffffffffffffffffffffffffffffffffffffff1673ffffffffffffffffffffffffffffffffffffffff168152602001908152602001600020600085815260200190815260200160002060009054906101000a900460ff16156111c1576040517f08c379a00000000000000000000000000000000000000000000000000000000081526004016111b8906150b4565b60405180910390fd5b600060038111156111fb577f4e487b7100000000000000000000000000000000000000000000000000000000600052602160045260246000fd5b816003811115611234577f4e487b7100000000000000000000000000000000000000000000000000000000600052602160045260246000fd5b14156112d5576001600c8581548110611276577f4e487b7100000000000000000000000000000000000000000000000000000000600052603260045260246000fd5b906000526020600020906006020160050160146101000a81548160ff021916908360038111156112cf577f4e487b7100000000000000000000000000000000000000000000000000000000600052602160045260246000fd5b02179055505b60018060003373ffffffffffffffffffffffffffffffffffffffff1673ffffffffffffffffffffffffffffffffffffffff168152602001908152602001600020600086815260200190815260200160002060006101000a81548160ff021916908315150217905550837f24f468a2eaafe5cf853bc1dc9b780dd65674b1e57537ed16b1ceb3b0a7bd713b334260405161136f929190614d96565b60405180910390a26113848260000151613bc4565b156113925760019250611397565b600092505b5050919050565b6007602052816000526040600020602052806000526040600020600091509150505481565b6000600260003373ffffffffffffffffffffffffffffffffffffffff1673ffffffffffffffffffffffffffffffffffffffff16815260200190815260200160002060009054906101000a900460ff16611451576040517f08c379a000000000000000000000000000000000000000000000000000000000815260040161144890615074565b60405180910390fd5b6000600c838154811061148d577f4e487b7100000000000000000000000000000000000000000000000000000000600052603260045260246000fd5b90600052602060002090600602016040518060e001604052908160008201548152602001600182015481526020016002820154815260200160038201548152602001600482015481526020016005820160009054906101000a900473ffffffffffffffffffffffffffffffffffffffff1673ffffffffffffffffffffffffffffffffffffffff1673ffffffffffffffffffffffffffffffffffffffff1681526020016005820160149054906101000a900460ff166003811115611579577f4e487b7100000000000000000000000000000000000000000000000000000000600052602160045260246000fd5b60038111156115b1577f4e487b7100000000000000000000000000000000000000000000000000000000600052602160045260246000fd5b815250509050600c8054905083106115fe576040517f08c379a00000000000000000000000000000000000000000000000000000000081526004016115f590614f54565b60405180910390fd5b60026003811115611638577f4e487b7100000000000000000000000000000000000000000000000000000000600052602160045260246000fd5b8160c001516003811115611675577f4e487b7100000000000000000000000000000000000000000000000000000000600052602160045260246000fd5b14156116b6576040517f08c379a00000000000000000000000000000000000000000000000000000000081526004016116ad90615094565b60405180910390fd5b6003808111156116ef577f4e487b7100000000000000000000000000000000000000000000000000000000600052602160045260246000fd5b8160c00151600381111561172c577f4e487b7100000000000000000000000000000000000000000000000000000000600052602160045260246000fd5b141561176d576040517f08c379a000000000000000000000000000000000000000000000000000000000815260040161176490614f74565b60405180910390fd5b6003600c84815481106117a9577f4e487b7100000000000000000000000000000000000000000000000000000000600052603260045260246000fd5b906000526020600020906006020160050160146101000a81548160ff02191690836003811115611802577f4e487b7100000000000000000000000000000000000000000000000000000000600052602160045260246000fd5b0217905550806060015160086000836040015181526020019081526020016000206000836080015181526020019081526020016000206000828254611847919061538b565b92505081905550600f6000815480929190611861906154e3565b9190505550827ff29b51556b15ccef9ae2dae672fd2310236afd356ba6b020dfa202086568cdde3342604051611898929190614d96565b60405180910390a26001915050919050565b600080866009600082815260200190815260200160002060009054906101000a900460ff1615611c5057600c8054905091506000600b86866040516118f0929190614d02565b9081526020016040518091039020549050600073ffffffffffffffffffffffffffffffffffffffff16600a600083815260200190815260200160002060009054906101000a900473ffffffffffffffffffffffffffffffffffffffff1673ffffffffffffffffffffffffffffffffffffffff1614156119a4576040517f08c379a000000000000000000000000000000000000000000000000000000000815260040161199b90615034565b60405180910390fd5b86600860008b81526020019081526020016000206000838152602001908152602001600020541015611a0b576040517f08c379a0000000000000000000000000000000000000000000000000000000008152600401611a0290614fd4565b60405180910390fd5b60006040518060e001604052808581526020014281526020018b81526020018981526020018381526020018a73ffffffffffffffffffffffffffffffffffffffff16815260200160006003811115611a8c577f4e487b7100000000000000000000000000000000000000000000000000000000600052602160045260246000fd5b8152509050600c819080600181540180825580915050600190039060005260206000209060060201600090919091909150600082015181600001556020820151816001015560408201518160020155606082015181600301556080820151816004015560a08201518160050160006101000a81548173ffffffffffffffffffffffffffffffffffffffff021916908373ffffffffffffffffffffffffffffffffffffffff16021790555060c08201518160050160146101000a81548160ff02191690836003811115611b87577f4e487b7100000000000000000000000000000000000000000000000000000000600052602160045260246000fd5b02179055505050600f6000815480929190600101919050555087600860008c8152602001908152602001600020600084815260200190815260200160002060008282540392505081905550837ffff5a2b874635399872c2a4ff63c24e7b8be58cdff5a8b99a063fdd7742e658a42604051611c029190615214565b60405180910390a289847fc3046eecbfe53d59be5df79e3619168c7a4c4b9ccfa109d8a10017f02a0713fa8b8b604051611c3d929190614d36565b60405180910390a3600194505050612054565b600260003373ffffffffffffffffffffffffffffffffffffffff1673ffffffffffffffffffffffffffffffffffffffff16815260200190815260200160002060009054906101000a900460ff16611cdc576040517f08c379a0000000000000000000000000000000000000000000000000000000008152600401611cd3906151b4565b60405180910390fd5b600c8054905091506000600b8686604051611cf8929190614d02565b9081526020016040518091039020549050600073ffffffffffffffffffffffffffffffffffffffff16600a600083815260200190815260200160002060009054906101000a900473ffffffffffffffffffffffffffffffffffffffff1673ffffffffffffffffffffffffffffffffffffffff161415611dac576040517f08c379a0000000000000000000000000000000000000000000000000000000008152600401611da390615034565b60405180910390fd5b86600860008b81526020019081526020016000206000838152602001908152602001600020541015611e13576040517f08c379a0000000000000000000000000000000000000000000000000000000008152600401611e0a90614fd4565b60405180910390fd5b60006040518060e001604052808581526020014281526020018b81526020018981526020018381526020018a73ffffffffffffffffffffffffffffffffffffffff16815260200160006003811115611e94577f4e487b7100000000000000000000000000000000000000000000000000000000600052602160045260246000fd5b8152509050600c819080600181540180825580915050600190039060005260206000209060060201600090919091909150600082015181600001556020820151816001015560408201518160020155606082015181600301556080820151816004015560a08201518160050160006101000a81548173ffffffffffffffffffffffffffffffffffffffff021916908373ffffffffffffffffffffffffffffffffffffffff16021790555060c08201518160050160146101000a81548160ff02191690836003811115611f8f577f4e487b7100000000000000000000000000000000000000000000000000000000600052602160045260246000fd5b02179055505050600f6000815480929190600101919050555087600860008c8152602001908152602001600020600084815260200190815260200160002060008282540392505081905550837ffff5a2b874635399872c2a4ff63c24e7b8be58cdff5a8b99a063fdd7742e658a4260405161200a9190615214565b60405180910390a289847fc3046eecbfe53d59be5df79e3619168c7a4c4b9ccfa109d8a10017f02a0713fa8b8b604051612045929190614d36565b60405180910390a36001945050505b509550959350505050565b600f5481565b6008602052816000526040600020602052806000526040600020600091509150505481565b600c818154811061209a57600080fd5b90600052602060002090600602016000915090508060000154908060010154908060020154908060030154908060040154908060050160009054906101000a900473ffffffffffffffffffffffffffffffffffffffff16908060050160149054906101000a900460ff16905087565b6000816009600082815260200190815260200160002060009054906101000a900460ff16156123d7576000600b8787604051612146929190614d02565b90815260200160405180910390205490506000600a600083815260200190815260200160002060009054906101000a900473ffffffffffffffffffffffffffffffffffffffff169050600d548214156121d4576040517f08c379a00000000000000000000000000000000000000000000000000000000081526004016121cb90615054565b60405180910390fd5b600073ffffffffffffffffffffffffffffffffffffffff168173ffffffffffffffffffffffffffffffffffffffff161415612244576040517f08c379a000000000000000000000000000000000000000000000000000000000815260040161223b90615154565b60405180910390fd5b6000861415612288576040517f08c379a000000000000000000000000000000000000000000000000000000000815260040161227f906151d4565b60405180910390fd5b8560076000878152602001908152602001600020600084815260200190815260200160002060008282546122bc919061538b565b925050819055508560086000878152602001908152602001600020600084815260200190815260200160002060008282546122f7919061538b565b925050819055508073ffffffffffffffffffffffffffffffffffffffff166323b872dd3330896040518463ffffffff1660e01b815260040161233b93929190614d5f565b602060405180830381600087803b15801561235557600080fd5b505af1158015612369573d6000803e3d6000fd5b505050506040513d601f19601f8201168201806040525081019061238d91906142e8565b6123cc576040517f08c379a00000000000000000000000000000000000000000000000000000000081526004016123c390614fb4565b60405180910390fd5b600193505050612704565b600260003373ffffffffffffffffffffffffffffffffffffffff1673ffffffffffffffffffffffffffffffffffffffff16815260200190815260200160002060009054906101000a900460ff16612463576040517f08c379a000000000000000000000000000000000000000000000000000000000815260040161245a906151b4565b60405180910390fd5b6000600b8787604051612477929190614d02565b90815260200160405180910390205490506000600a600083815260200190815260200160002060009054906101000a900473ffffffffffffffffffffffffffffffffffffffff169050600d54821415612505576040517f08c379a00000000000000000000000000000000000000000000000000000000081526004016124fc90615054565b60405180910390fd5b600073ffffffffffffffffffffffffffffffffffffffff168173ffffffffffffffffffffffffffffffffffffffff161415612575576040517f08c379a000000000000000000000000000000000000000000000000000000000815260040161256c90615154565b60405180910390fd5b60008614156125b9576040517f08c379a00000000000000000000000000000000000000000000000000000000081526004016125b0906151d4565b60405180910390fd5b8560076000878152602001908152602001600020600084815260200190815260200160002060008282546125ed919061538b565b92505081905550856008600087815260200190815260200160002060008481526020019081526020016000206000828254612628919061538b565b925050819055508073ffffffffffffffffffffffffffffffffffffffff166323b872dd3330896040518463ffffffff1660e01b815260040161266c93929190614d5f565b602060405180830381600087803b15801561268657600080fd5b505af115801561269a573d6000803e3d6000fd5b505050506040513d601f19601f820116820180604052508101906126be91906142e8565b6126fd576040517f08c379a00000000000000000000000000000000000000000000000000000000081526004016126f490614fb4565b60405180910390fd5b6001935050505b50949350505050565b6000816009600082815260200190815260200160002060009054906101000a900460ff161561283857600034141561277a576040517f08c379a0000000000000000000000000000000000000000000000000000000008152600401612771906151d4565b60405180910390fd5b34600760008581526020019081526020016000206000600d54815260200190815260200160002060008282546127b0919061538b565b9250508190555034600860008581526020019081526020016000206000600d54815260200190815260200160002060008282546127ed919061538b565b925050819055507f3bca748872de6e5d322fa60303dd12a52794cfd3a9da138a7ffdf914299cb3788334426040516128279392919061522f565b60405180910390a1600191506129c2565b600260003373ffffffffffffffffffffffffffffffffffffffff1673ffffffffffffffffffffffffffffffffffffffff16815260200190815260200160002060009054906101000a900460ff166128c4576040517f08c379a00000000000000000000000000000000000000000000000000000000081526004016128bb906151b4565b60405180910390fd5b6000341415612908576040517f08c379a00000000000000000000000000000000000000000000000000000000081526004016128ff906151d4565b60405180910390fd5b34600760008581526020019081526020016000206000600d548152602001908152602001600020600082825461293e919061538b565b9250508190555034600860008581526020019081526020016000206000600d548152602001908152602001600020600082825461297b919061538b565b925050819055507f3bca748872de6e5d322fa60303dd12a52794cfd3a9da138a7ffdf914299cb3788334426040516129b59392919061522f565b60405180910390a1600191505b50919050565b60096020528060005260406000206000915054906101000a900460ff1681565b60006129f261414b565b73ffffffffffffffffffffffffffffffffffffffff16612a10613159565b73ffffffffffffffffffffffffffffffffffffffff1614612a66576040517f08c379a0000000000000000000000000000000000000000000000000000000008152600401612a5d906150f4565b60405180910390fd5b60038054905090506003829080600181540180825580915050600190039060005260206000200160009091909190916101000a81548173ffffffffffffffffffffffffffffffffffffffff021916908373ffffffffffffffffffffffffffffffffffffffff1602179055506001600260008473ffffffffffffffffffffffffffffffffffffffff1673ffffffffffffffffffffffffffffffffffffffff16815260200190815260200160002060006101000a81548160ff021916908315150217905550919050565b612b3661414b565b73ffffffffffffffffffffffffffffffffffffffff16612b54613159565b73ffffffffffffffffffffffffffffffffffffffff1614612baa576040517f08c379a0000000000000000000000000000000000000000000000000000000008152600401612ba1906150f4565b60405180910390fd5b600073ffffffffffffffffffffffffffffffffffffffff1660008054906101000a900473ffffffffffffffffffffffffffffffffffffffff1673ffffffffffffffffffffffffffffffffffffffff167f8be0079c531659141344cd1fd0a4f28419497f9722a3daafe3b4186f6b6457e060405160405180910390a360008060006101000a81548173ffffffffffffffffffffffffffffffffffffffff021916908373ffffffffffffffffffffffffffffffffffffffff160217905550565b60606000600f5411612caf576040517f08c379a0000000000000000000000000000000000000000000000000000000008152600401612ca690614ff4565b60405180910390fd5b600080600c805490509050600f5467ffffffffffffffff811115612cfc577f4e487b7100000000000000000000000000000000000000000000000000000000600052604160045260246000fd5b604051908082528060200260200182016040528015612d2a5781602001602082028036833780820191505090505b5092505b600f5482108015612d3f5750600081115b1561300f576000600c6001830381548110612d83577f4e487b7100000000000000000000000000000000000000000000000000000000600052603260045260246000fd5b90600052602060002090600602016040518060e001604052908160008201548152602001600182015481526020016002820154815260200160038201548152602001600482015481526020016005820160009054906101000a900473ffffffffffffffffffffffffffffffffffffffff1673ffffffffffffffffffffffffffffffffffffffff1673ffffffffffffffffffffffffffffffffffffffff1681526020016005820160149054906101000a900460ff166003811115612e6f577f4e487b7100000000000000000000000000000000000000000000000000000000600052602160045260246000fd5b6003811115612ea7577f4e487b7100000000000000000000000000000000000000000000000000000000600052602160045260246000fd5b81525050905081806001900392505060026003811115612ef0577f4e487b7100000000000000000000000000000000000000000000000000000000600052602160045260246000fd5b8160c001516003811115612f2d577f4e487b7100000000000000000000000000000000000000000000000000000000600052602160045260246000fd5b1480612fac5750600380811115612f6d577f4e487b7100000000000000000000000000000000000000000000000000000000600052602160045260246000fd5b8160c001516003811115612faa577f4e487b7100000000000000000000000000000000000000000000000000000000600052602160045260246000fd5b145b15612fb75750612d2e565b8060000151848481518110612ff5577f4e487b7100000000000000000000000000000000000000000000000000000000600052603260045260246000fd5b602002602001018181525050828060010193505050612d2e565b505090565b600061301e61414b565b73ffffffffffffffffffffffffffffffffffffffff1661303c613159565b73ffffffffffffffffffffffffffffffffffffffff1614613092576040517f08c379a0000000000000000000000000000000000000000000000000000000008152600401613089906150f4565b60405180910390fd5b600454831415806130a557506005548214155b6130e4576040517f08c379a00000000000000000000000000000000000000000000000000000000081526004016130db906150d4565b60405180910390fd5b600082141580156130f6575060008314155b80156131025750818311155b613141576040517f08c379a000000000000000000000000000000000000000000000000000000000815260040161313890615014565b60405180910390fd5b82600481905550816005819055506001905092915050565b60008060009054906101000a900473ffffffffffffffffffffffffffffffffffffffff16905090565b600a6020528060005260406000206000915054906101000a900473ffffffffffffffffffffffffffffffffffffffff1681565b6131bd61414b565b73ffffffffffffffffffffffffffffffffffffffff166131db613159565b73ffffffffffffffffffffffffffffffffffffffff1614613231576040517f08c379a0000000000000000000000000000000000000000000000000000000008152600401613228906150f4565b60405180910390fd5b60006003828154811061326d577f4e487b7100000000000000000000000000000000000000000000000000000000600052603260045260246000fd5b9060005260206000200160009054906101000a900473ffffffffffffffffffffffffffffffffffffffff1690506132a2613159565b73ffffffffffffffffffffffffffffffffffffffff168173ffffffffffffffffffffffffffffffffffffffff161415613310576040517f08c379a000000000000000000000000000000000000000000000000000000000815260040161330790615114565b60405180910390fd5b60006002600060038581548110613350577f4e487b7100000000000000000000000000000000000000000000000000000000600052603260045260246000fd5b9060005260206000200160009054906101000a900473ffffffffffffffffffffffffffffffffffffffff1673ffffffffffffffffffffffffffffffffffffffff1673ffffffffffffffffffffffffffffffffffffffff16815260200190815260200160002060006101000a81548160ff02191690831515021790555060005b600380549050811015613732578173ffffffffffffffffffffffffffffffffffffffff166003828154811061342d577f4e487b7100000000000000000000000000000000000000000000000000000000600052603260045260246000fd5b9060005260206000200160009054906101000a900473ffffffffffffffffffffffffffffffffffffffff1673ffffffffffffffffffffffffffffffffffffffff16146134785761371f565b600160038054905061348a91906153e1565b81141561359c578173ffffffffffffffffffffffffffffffffffffffff16600382815481106134e2577f4e487b7100000000000000000000000000000000000000000000000000000000600052603260045260246000fd5b9060005260206000200160009054906101000a900473ffffffffffffffffffffffffffffffffffffffff1673ffffffffffffffffffffffffffffffffffffffff161415613597576003805480613561577f4e487b7100000000000000000000000000000000000000000000000000000000600052603160045260246000fd5b6001900381819060005260206000200160006101000a81549073ffffffffffffffffffffffffffffffffffffffff021916905590555b613732565b60036001826135ab919061538b565b815481106135e2577f4e487b7100000000000000000000000000000000000000000000000000000000600052603260045260246000fd5b9060005260206000200160009054906101000a900473ffffffffffffffffffffffffffffffffffffffff1660038281548110613647577f4e487b7100000000000000000000000000000000000000000000000000000000600052603260045260246000fd5b9060005260206000200160006101000a81548173ffffffffffffffffffffffffffffffffffffffff021916908373ffffffffffffffffffffffffffffffffffffffff16021790555081600360018361369f919061538b565b815481106136d6577f4e487b7100000000000000000000000000000000000000000000000000000000600052603260045260246000fd5b9060005260206000200160006101000a81548173ffffffffffffffffffffffffffffffffffffffff021916908373ffffffffffffffffffffffffffffffffffffffff1602179055505b808061372a9061550d565b9150506133cf565b505050565b60016020528160005260406000206020528060005260406000206000915091509054906101000a900460ff1681565b6000600260003373ffffffffffffffffffffffffffffffffffffffff1673ffffffffffffffffffffffffffffffffffffffff16815260200190815260200160002060009054906101000a900460ff166137f4576040517f08c379a00000000000000000000000000000000000000000000000000000000081526004016137eb90615074565b60405180910390fd5b6000600b8787604051613808929190614d02565b90815260200160405180910390205490508460086000868152602001908152602001600020600083815260200190815260200160002054101580156138715750846007600086815260200190815260200160002060008381526020019081526020016000205410155b6138b0576040517f08c379a00000000000000000000000000000000000000000000000000000000081526004016138a790614fd4565b60405180910390fd5b8460076000868152602001908152602001600020600083815260200190815260200160002060008282546138e491906153e1565b9250508190555084600860008681526020019081526020016000206000838152602001908152602001600020600082825461391f91906153e1565b9250508190555084600760008581526020019081526020016000206000838152602001908152602001600020600082825461395a919061538b565b92505081905550846008600085815260200190815260200160002060008381526020019081526020016000206000828254613995919061538b565b925050819055507f2329bef3e0eb8759add9653f0576b801a60199cbd66596ff17a32f56f03de6ed878787878733426040516139d79796959493929190614eea565b60405180910390a1600191505095945050505050565b600b818051602081018201805184825260208301602085012081835280955050505050506000915090505481565b613a2361414b565b73ffffffffffffffffffffffffffffffffffffffff16613a41613159565b73ffffffffffffffffffffffffffffffffffffffff1614613a97576040517f08c379a0000000000000000000000000000000000000000000000000000000008152600401613a8e906150f4565b60405180910390fd5b600073ffffffffffffffffffffffffffffffffffffffff168173ffffffffffffffffffffffffffffffffffffffff161415613b07576040517f08c379a0000000000000000000000000000000000000000000000000000000008152600401613afe90614f94565b60405180910390fd5b8073ffffffffffffffffffffffffffffffffffffffff1660008054906101000a900473ffffffffffffffffffffffffffffffffffffffff1673ffffffffffffffffffffffffffffffffffffffff167f8be0079c531659141344cd1fd0a4f28419497f9722a3daafe3b4186f6b6457e060405160405180910390a3806000806101000a81548173ffffffffffffffffffffffffffffffffffffffff021916908373ffffffffffffffffffffffffffffffffffffffff16021790555050565b600080600090506000600c8481548110613c07577f4e487b7100000000000000000000000000000000000000000000000000000000600052603260045260246000fd5b90600052602060002090600602016040518060e001604052908160008201548152602001600182015481526020016002820154815260200160038201548152602001600482015481526020016005820160009054906101000a900473ffffffffffffffffffffffffffffffffffffffff1673ffffffffffffffffffffffffffffffffffffffff1673ffffffffffffffffffffffffffffffffffffffff1681526020016005820160149054906101000a900460ff166003811115613cf3577f4e487b7100000000000000000000000000000000000000000000000000000000600052602160045260246000fd5b6003811115613d2b577f4e487b7100000000000000000000000000000000000000000000000000000000600052602160045260246000fd5b81525050905060005b600380549050811015613e23576001600060038381548110613d7f577f4e487b7100000000000000000000000000000000000000000000000000000000600052603260045260246000fd5b9060005260206000200160009054906101000a900473ffffffffffffffffffffffffffffffffffffffff1673ffffffffffffffffffffffffffffffffffffffff1673ffffffffffffffffffffffffffffffffffffffff168152602001908152602001600020600086815260200190815260200160002060009054906101000a900460ff16613e0d5782613e15565b828060010193505b508080600101915050613d34565b50600654821015613e3957600092505050614146565b6002600c8581548110613e75577f4e487b7100000000000000000000000000000000000000000000000000000000600052603260045260246000fd5b906000526020600020906006020160050160146101000a81548160ff02191690836003811115613ece577f4e487b7100000000000000000000000000000000000000000000000000000000600052602160045260246000fd5b0217905550806060015160076000836040015181526020019081526020016000206000836080015181526020019081526020016000206000828254613f1391906153e1565b92505081905550600f6000815480929190613f2d906154e3565b9190505550837fd6a7c76a45e03d9556990632f59530fb53e0f887a2a219d138d8a9a80cf7d3a942604051613f629190615214565b60405180910390a23073ffffffffffffffffffffffffffffffffffffffff16600a60008360800151815260200190815260200160002060009054906101000a900473ffffffffffffffffffffffffffffffffffffffff1673ffffffffffffffffffffffffffffffffffffffff16141561402f578060a0015173ffffffffffffffffffffffffffffffffffffffff166108fc82606001519081150290604051600060405180830381858888f19350505050158015614023573d6000803e3d6000fd5b50600192505050614146565b600a60008260800151815260200190815260200160002060009054906101000a900473ffffffffffffffffffffffffffffffffffffffff1673ffffffffffffffffffffffffffffffffffffffff1663a9059cbb8260a0015183606001516040518363ffffffff1660e01b81526004016140a9929190614d36565b602060405180830381600087803b1580156140c357600080fd5b505af11580156140d7573d6000803e3d6000fd5b505050506040513d601f19601f820116820180604052508101906140fb91906142e8565b1561410b57600192505050614146565b6040517f08c379a000000000000000000000000000000000000000000000000000000000815260040161413d90614fb4565b60405180910390fd5b919050565b600033905090565b600061416661416184615306565b6152d5565b90508281526020810184848401111561417e57600080fd5b6141898482856154d4565b509392505050565b6000813590506141a081615608565b92915050565b6000813590506141b58161561f565b92915050565b6000813590506141ca81615636565b92915050565b6000815190506141df81615636565b92915050565b6000813590506141f48161564d565b92915050565b60008083601f84011261420c57600080fd5b8235905067ffffffffffffffff81111561422557600080fd5b60208301915083600182028301111561423d57600080fd5b9250929050565b600082601f83011261425557600080fd5b8135614265848260208601614153565b91505092915050565b60008135905061427d81615664565b92915050565b60006020828403121561429557600080fd5b60006142a384828501614191565b91505092915050565b600080604083850312156142bf57600080fd5b60006142cd85828601614191565b92505060206142de8582860161426e565b9150509250929050565b6000602082840312156142fa57600080fd5b6000614308848285016141d0565b91505092915050565b60006020828403121561432357600080fd5b6000614331848285016141e5565b91505092915050565b60008060006040848603121561434f57600080fd5b600084013567ffffffffffffffff81111561436957600080fd5b614375868287016141fa565b9350935050602061438886828701614191565b9150509250925092565b600080600080606085870312156143a857600080fd5b600085013567ffffffffffffffff8111156143c257600080fd5b6143ce878288016141fa565b945094505060206143e18782880161426e565b92505060406143f28782880161426e565b91505092959194509250565b60008060008060006080868803121561441657600080fd5b600086013567ffffffffffffffff81111561443057600080fd5b61443c888289016141fa565b9550955050602061444f8882890161426e565b93505060406144608882890161426e565b92505060606144718882890161426e565b9150509295509295909350565b60006020828403121561449057600080fd5b600082013567ffffffffffffffff8111156144aa57600080fd5b6144b684828501614244565b91505092915050565b6000602082840312156144d157600080fd5b60006144df8482850161426e565b91505092915050565b60008060008060006080868803121561450057600080fd5b600061450e8882890161426e565b955050602061451f888289016141a6565b94505060406145308882890161426e565b935050606086013567ffffffffffffffff81111561454d57600080fd5b614559888289016141fa565b92509250509295509295909350565b6000806040838503121561457b57600080fd5b60006145898582860161426e565b925050602061459a858286016141bb565b9150509250929050565b600080604083850312156145b757600080fd5b60006145c58582860161426e565b92505060206145d6858286016141e5565b9150509250929050565b600080604083850312156145f357600080fd5b60006146018582860161426e565b92505060206146128582860161426e565b9150509250929050565b60006146288383614ce4565b60208301905092915050565b61463d8161548c565b82525050565b61464c81615427565b82525050565b61465b81615415565b82525050565b600061466c82615346565b614676818561535e565b935061468183615336565b8060005b838110156146b2578151614699888261461c565b97506146a483615351565b925050600181019050614685565b5085935050505092915050565b6146c881615439565b82525050565b6146d781615445565b82525050565b6146e68161549e565b82525050565b60006146f8838561536f565b93506147058385846154d4565b61470e836155e3565b840190509392505050565b60006147258385615380565b93506147328385846154d4565b82840190509392505050565b600061474b60158361536f565b91507f5265717565737420646f65736e277420657869737400000000000000000000006000830152602082019050919050565b600061478b60118361536f565b91507f526571756573742063616e63656c6c65640000000000000000000000000000006000830152602082019050919050565b60006147cb60268361536f565b91507f4f776e61626c653a206e6577206f776e657220697320746865207a65726f206160008301527f64647265737300000000000000000000000000000000000000000000000000006020830152604082019050919050565b6000614831600f8361536f565b91507f5472616e73666572206661696c656400000000000000000000000000000000006000830152602082019050919050565b600061487160148361536f565b91507f496e73756666696369656e742062616c616e63650000000000000000000000006000830152602082019050919050565b60006148b160138361536f565b91507f4e6f2070656e64696e67207265717565737473000000000000000000000000006000830152602082019050919050565b60006148f160108361536f565b91507f496d706f737369626c6520726174696f000000000000000000000000000000006000830152602082019050919050565b600061493160148361536f565b91507f546f6b656e20646f6573206e6f742065786973740000000000000000000000006000830152602082019050919050565b6000614971600e8361536f565b91507f557365206465706f7369744554480000000000000000000000000000000000006000830152602082019050919050565b60006149b1600b8361536f565b91507f4f6e6c792041646d696e730000000000000000000000000000000000000000006000830152602082019050919050565b60006149f160108361536f565b91507f5265717565737420617070726f766564000000000000000000000000000000006000830152602082019050919050565b6000614a31600e8361536f565b91507f41646d696e20617070726f7665640000000000000000000000000000000000006000830152602082019050919050565b6000614a7160108361536f565b91507f4e6f7468696e67206d6f646966696564000000000000000000000000000000006000830152602082019050919050565b6000614ab160208361536f565b91507f4f776e61626c653a2063616c6c6572206973206e6f7420746865206f776e65726000830152602082019050919050565b6000614af160128361536f565b91507f43616e27742072656d6f7665206f776e657200000000000000000000000000006000830152602082019050919050565b6000614b3160108361536f565b91507f496e76616c69642066756e6374696f6e000000000000000000000000000000006000830152602082019050919050565b6000614b71600f8361536f565b91507f41646420746f6b656e20666972737400000000000000000000000000000000006000830152602082019050919050565b6000614bb160168361536f565b91507f5265717565737420646f6573206e6f74206578697374000000000000000000006000830152602082019050919050565b6000614bf1600d8361536f565b91507f546f6b656e2064656c65746564000000000000000000000000000000000000006000830152602082019050919050565b6000614c31600a8361536f565b91507f4f6e6c792041646d696e000000000000000000000000000000000000000000006000830152602082019050919050565b6000614c71600b8361536f565b91507f416d6f756e74207a65726f0000000000000000000000000000000000000000006000830152602082019050919050565b6000614cb1601f8361536f565b91507f43616e6e6f74206f76657272696465204554482061737369676e6d656e7473006000830152602082019050919050565b614ced81615482565b82525050565b614cfc81615482565b82525050565b6000614d0f828486614719565b91508190509392505050565b6000602082019050614d306000830184614652565b92915050565b6000604082019050614d4b6000830185614634565b614d586020830184614cf3565b9392505050565b6000606082019050614d746000830186614652565b614d816020830185614652565b614d8e6040830184614cf3565b949350505050565b6000604082019050614dab6000830185614652565b614db86020830184614cf3565b9392505050565b60006020820190508181036000830152614dd98184614661565b905092915050565b6000602082019050614df660008301846146bf565b92915050565b6000604082019050614e1160008301856146bf565b614e1e6020830184614cf3565b9392505050565b6000602082019050614e3a60008301846146ce565b92915050565b600060a0820190508181036000830152614e5b81888a6146ec565b9050614e6a60208301876146ce565b614e776040830186614652565b614e846060830185614652565b614e916080830184614cf3565b979650505050505050565b60006080820190508181036000830152614eb78187896146ec565b9050614ec660208301866146ce565b614ed36040830185614652565b614ee06060830184614cf3565b9695505050505050565b600060c0820190508181036000830152614f0581898b6146ec565b9050614f146020830188614cf3565b614f216040830187614cf3565b614f2e6060830186614cf3565b614f3b6080830185614652565b614f4860a0830184614cf3565b98975050505050505050565b60006020820190508181036000830152614f6d8161473e565b9050919050565b60006020820190508181036000830152614f8d8161477e565b9050919050565b60006020820190508181036000830152614fad816147be565b9050919050565b60006020820190508181036000830152614fcd81614824565b9050919050565b60006020820190508181036000830152614fed81614864565b9050919050565b6000602082019050818103600083015261500d816148a4565b9050919050565b6000602082019050818103600083015261502d816148e4565b9050919050565b6000602082019050818103600083015261504d81614924565b9050919050565b6000602082019050818103600083015261506d81614964565b9050919050565b6000602082019050818103600083015261508d816149a4565b9050919050565b600060208201905081810360008301526150ad816149e4565b9050919050565b600060208201905081810360008301526150cd81614a24565b9050919050565b600060208201905081810360008301526150ed81614a64565b9050919050565b6000602082019050818103600083015261510d81614aa4565b9050919050565b6000602082019050818103600083015261512d81614ae4565b9050919050565b6000602082019050818103600083015261514d81614b24565b9050919050565b6000602082019050818103600083015261516d81614b64565b9050919050565b6000602082019050818103600083015261518d81614ba4565b9050919050565b600060208201905081810360008301526151ad81614be4565b9050919050565b600060208201905081810360008301526151cd81614c24565b9050919050565b600060208201905081810360008301526151ed81614c64565b9050919050565b6000602082019050818103600083015261520d81614ca4565b9050919050565b60006020820190506152296000830184614cf3565b92915050565b60006060820190506152446000830186614cf3565b6152516020830185614cf3565b61525e6040830184614cf3565b949350505050565b600060e08201905061527b600083018a614cf3565b6152886020830189614cf3565b6152956040830188614cf3565b6152a26060830187614cf3565b6152af60808301866146ce565b6152bc60a0830185614643565b6152c960c08301846146dd565b98975050505050505050565b6000604051905081810181811067ffffffffffffffff821117156152fc576152fb6155b4565b5b8060405250919050565b600067ffffffffffffffff821115615321576153206155b4565b5b601f19601f8301169050602081019050919050565b6000819050602082019050919050565b600081519050919050565b6000602082019050919050565b600082825260208201905092915050565b600082825260208201905092915050565b600081905092915050565b600061539682615482565b91506153a183615482565b9250827fffffffffffffffffffffffffffffffffffffffffffffffffffffffffffffffff038211156153d6576153d5615556565b5b828201905092915050565b60006153ec82615482565b91506153f783615482565b92508282101561540a57615409615556565b5b828203905092915050565b600061542082615462565b9050919050565b600061543282615462565b9050919050565b60008115159050919050565b6000819050919050565b600081905061545d826155f4565b919050565b600073ffffffffffffffffffffffffffffffffffffffff82169050919050565b6000819050919050565b6000615497826154b0565b9050919050565b60006154a98261544f565b9050919050565b60006154bb826154c2565b9050919050565b60006154cd82615462565b9050919050565b82818337600083830152505050565b60006154ee82615482565b9150600082141561550257615501615556565b5b600182039050919050565b600061551882615482565b91507fffffffffffffffffffffffffffffffffffffffffffffffffffffffffffffffff82141561554b5761554a615556565b5b600182019050919050565b7f4e487b7100000000000000000000000000000000000000000000000000000000600052601160045260246000fd5b7f4e487b7100000000000000000000000000000000000000000000000000000000600052602160045260246000fd5b7f4e487b7100000000000000000000000000000000000000000000000000000000600052604160045260246000fd5b6000601f19601f8301169050919050565b6004811061560557615604615585565b5b50565b61561181615415565b811461561c57600080fd5b50565b61562881615427565b811461563357600080fd5b50565b61563f81615439565b811461564a57600080fd5b50565b61565681615445565b811461566157600080fd5b50565b61566d81615482565b811461567857600080fd5b5056fea2646970667358221220240de1a5feb1a84957c9bf0f9451f57be44cdb5947fd4a81c9d8ea125d0d2e1364736f6c63430008000033",
  "immutableReferences": {},
  "source": "/*\r\nThis multi-sig contract is used for a development team's treasury reserves, capable\r\nof managing both ERC20 tokens and ETH deposits.\r\n\r\nInstead of mapping addresses to balances, it maps account IDs to balances. This is\r\nfor allocation of funds to specific contexts, such as development, operations, or\r\nresearch. Multi-sig voting is not required for transferring funds between accounts.\r\n\r\nEvery account has two balances, one for the \"true\" balance and one for the\r\n\"pending\" balance. The true balance is the actual internal balance, while the pending\r\nbalance is the available balance not awaiting multi-sig approval.\r\n\r\nImplementing OpenZeppelin's AccessControl contract would be best for specializing\r\nwho is permitted to modify tokens, transfer balances between accounts, or submit\r\ntransaction requests.\r\n*/\r\n// SPDX-License-Identifier: MIT\r\npragma solidity ^0.8.0;\r\n\r\nimport \"./WalletAdmins.sol\";\r\nimport \"./OpenZeppelinDependencies/IERC20.sol\";\r\n\r\ncontract Treasury is WalletAdmins {\r\n  \r\n  /**\r\n   * @notice Withdrawal request struct\r\n   *\r\n   * @param txID ID number of withdrawal\r\n   * @param timestamp Block timestamp when transaction request was submitted\r\n   * @param recipient Recipient's address\r\n   * @param acountID ID of sending account\r\n   * @param amount Amount of ETH to send\r\n   * @param ticker ERC20 token ticker's keccak256 hash\r\n   * @param approvalStatus Approval status: Submitted, Pending, Approved, Cancelled\r\n   */\r\n  struct txnRequest {\r\n    uint256 txID;\r\n    uint256 timestamp;\r\n    uint256 accountID;\r\n    uint256 amount;\r\n    bytes32 ticker;\r\n    address payable recipient;\r\n    APPROVE approvalStatus;\r\n  }\r\n\r\n  // Approval status enum\r\n  enum APPROVE { SUBMITTED, PENDING, APPROVED, CANCELLED }\r\n\r\n  // Maps account IDs to internal balance\r\n   // Updated when tokens/ETH are deposited or withdrawn\r\n  mapping(uint256 => mapping(bytes32 => uint256)) public trueBalance;\r\n  // Maps account IDs to their pending balances\r\n   // Updated when transactions are submitted or cancelled\r\n   // Used to prevent over-spending before multi-sig vote can finish\r\n  mapping(uint256 => mapping(bytes32 => uint256)) public pendingBalance;\r\n  // Maps account IDs to public use permissions\r\n   // Allows non-Admins to interact with / deposit into some accounts\r\n  mapping(uint256 => bool) public isPublic;\r\n\r\n  // Maps a token's keccak256 ticker to its contract address\r\n  mapping(bytes32 => address) public tokenAddress;\r\n  // Maps a token's string ticker to its keccak256 hash\r\n  mapping(string => bytes32) public tokenTicker;\r\n  \r\n  // History of all withdrawal requests:\r\n  txnRequest[] public txnHistory;\r\n\r\n  // Ticker hash for ether\r\n  bytes32 private ETH;\r\n  // Account that receives ether through receive function\r\n  uint256 public mainAccountID;\r\n  // Tracks number of pending transactions\r\n  uint256 public pendingTxns;\r\n\r\n  // EVENTS \\\\\r\n  // Fire when Admin submits new transaction\r\n  event TransactionSubmitted(uint256 indexed txID, uint256 timestamp);\r\n  event TransactionDetails(\r\n    uint256 indexed txID,\r\n    uint256 indexed accountID, \r\n    address receiver, \r\n    uint256 amount\r\n  );\r\n  // Fires when transaction is approved\r\n  event TransactionApproved(uint256 indexed txID, uint256 timestamp);\r\n  // Fires when transaction is cancelled by Admin or Admin\r\n  event TransactionCancelled(uint256 indexed txID, address caller, uint256 timestamp);\r\n  // Fires when Admin approves transaction\r\n  event AdminApproved(uint256 indexed txID, address admin, uint256 timestamp);\r\n  // Fires when Admin adds a new ERC20 token\r\n  event ERC20Added(\r\n    string ticker, \r\n    bytes32 tickerHash, \r\n    address tokenAddress, \r\n    uint256 timestamp\r\n  );\r\n  // Fires when Admin modifies an existing ERC20 token\r\n  event ERC20Modified(\r\n    string ticker, \r\n    bytes32 tickerHash, \r\n    address oldAddress, \r\n    address newAddress, \r\n    uint256 timestamp\r\n  );\r\n  // Fires when Admin performs an internal transfer\r\n  event InternalTransfer(\r\n    string ticker, \r\n    uint256 amount, \r\n    uint256 accountFrom, \r\n    uint256 accountTo, \r\n    address admin, \r\n    uint256 timestamp\r\n  );\r\n  // Fires when ETH is deposited via depositETH or receive function\r\n  event ETHDeposited(uint256 accountID, uint256 amount, uint256 timestamp);\r\n\r\n\r\n  /**\r\n   * @dev Passing 0 for _numerator is permitted at construction, but once modified\r\n   * cannot be set back to 0. This is to bypass the multi-sig mechanism until the team\r\n   * is ready to activate it.\r\n   *\r\n   * @param _admins Array of all Admins added into WalletAdmins\r\n   * @param _mainAccountID Default account ETH is sent to via receive function\r\n   * @param _tickers Array of ERC20 ticker strings\r\n   * @param _tokenContracts Array of ERC20 token contract addresses\r\n   * @param _numerator Numerator of multi-sig requirement ratio\r\n   * @param _denominator Denominator of multi-sig requirement ratio\r\n   */\r\n  constructor(\r\n    address[] memory _admins, \r\n    uint256 _mainAccountID,\r\n    string[] memory _tickers,\r\n    address[] memory _tokenContracts,\r\n    uint256 _numerator, \r\n    uint256 _denominator\r\n  ) WalletAdmins(_admins, _numerator, _denominator) {\r\n    require(_tickers.length == _tokenContracts.length, \"Array lengths mismatched\");\r\n\r\n    super;\r\n    // Add ETH's ticker to contract, using address(this) as its tokenAddress\r\n    ETH = keccak256(abi.encodePacked(\"ETH\"));\r\n    tokenTicker[\"ETH\"] = ETH;\r\n    tokenAddress[ETH] = address(this);\r\n    mainAccountID = _mainAccountID; // Main ETH receiving account\r\n\r\n    // Upload ERC20 tokens into contract\r\n     // Unchecked because counter variable will never exceed length of _tickers array\r\n    unchecked {\r\n      for(uint256 i = 0; i < _tickers.length; i++){\r\n        // Hash token's ticker string\r\n        bytes32 tokenTickerBytes = keccak256(abi.encodePacked(_tickers[i]));\r\n        \r\n        // Map token ticker string to its hash\r\n        tokenTicker[_tickers[i]] = tokenTickerBytes;\r\n        // Map ticker symbol hash to its contract address\r\n        tokenAddress[tokenTickerBytes] = _tokenContracts[i];\r\n\r\n        // Emit ERC20Added alert\r\n        emit ERC20Added(\r\n          _tickers[i], \r\n          tokenTickerBytes, \r\n          _tokenContracts[i], \r\n          block.timestamp\r\n        );\r\n      }\r\n    }\r\n  }\r\n\r\n\r\n  /**\r\n   * @notice Handles logic for permissioned/permissionless accounts\r\n   * @dev Used for depositing tokens and submitting transfer requests, which\r\n   * may sometimes be placed by users in some conditions.\r\n   */\r\n  modifier checkAccountPermissions(uint256 _accountID) {\r\n    if(isPublic[_accountID]){\r\n      _;\r\n    }\r\n    else{\r\n      require(isAdmin[msg.sender], \"Only Admin\");\r\n      _;\r\n    }\r\n  }\r\n\r\n  /**\r\n   * @notice Submits a transaction request\r\n   *\r\n   * @param _accountID ID of account to withdraw from\r\n   * @param _recipient Transaction recipient\r\n   * @param _amount Amount of tokens/ETH being sent\r\n   * @param _tokenTicker Ticker symbol of token/ETH being transferred\r\n\r\n    UNIT TESTS:\r\n    it(\"Should not submit a transaction greater than its pending balance\")\r\n    it(\"Should add the request to the txnHistory array\")\r\n    it(\"Should adjust the account's pendingBalance by the amount\")\r\n   */\r\n  function submitTransaction(\r\n    uint256 _accountID, \r\n    address payable _recipient, \r\n    uint256 _amount, \r\n    string calldata _tokenTicker\r\n  ) external checkAccountPermissions(_accountID) returns (bool success, uint256 txID) {\r\n    // Declare local variables\r\n    txID = txnHistory.length;\r\n    bytes32 tokenTickerBytes = tokenTicker[_tokenTicker];\r\n\r\n    // Check token exists\r\n    require(tokenAddress[tokenTickerBytes] != address(0), \"Token does not exist\");\r\n    // Check pending balance\r\n    require (pendingBalance[_accountID][tokenTickerBytes] >= _amount, \"Insufficient balance\");\r\n\r\n    // Create new transaction request\r\n    txnRequest memory pendingRequest =\r\n    txnRequest({\r\n              txID: txID,\r\n              timestamp: block.timestamp,\r\n              recipient: _recipient,\r\n              accountID: _accountID,\r\n              amount: _amount,\r\n              ticker: tokenTickerBytes,\r\n              approvalStatus: APPROVE.SUBMITTED\r\n            });\r\n    // Underflow should not be a problem, as pendingBalance was already checked against _amount\r\n    unchecked {\r\n      // Push transaction request to transaction history\r\n      txnHistory.push(pendingRequest);\r\n      // Increment pendingTxns\r\n      pendingTxns++;\r\n\r\n      // Adjust account's pending balance\r\n      // Note account's true balance is updated when tokens are deposited or transaction is approved\r\n      pendingBalance[_accountID][tokenTickerBytes] -= _amount;\r\n    }\r\n\r\n    // Emit events, return success bool\r\n    emit TransactionSubmitted(txID, block.timestamp);\r\n    emit TransactionDetails(txID, _accountID, _recipient, _amount);\r\n    success = true;\r\n  }\r\n\r\n  /**\r\n   * @notice Votes to confirms a transaction\r\n\r\n    UNIT TESTS PART 1:\r\n    it(\"Should revert if token was deleted after submission\")\r\n    it(\"Should revert if request does not exist\")\r\n    it(\"Should change Submitted status to Pending\")\r\n    it(\"Should update Admin's approval status for the request\")\r\n    it(\"Should not allow Admin to confirm twice\")\r\n    it(\"Should not confirm if multi-sig requirement is not reached\")\r\n    it(\"Should confirm when multi-sig requirement is reached\")\r\n    it(\"Should adjust trueBalance when confirmed\")\r\n    it(\"Should transfer ETH correctly\")\r\n    it(\"Should transfer tokens correctly\")\r\n\r\n    UNIT TESTS PART 2:\r\n    it(\"Should throw when confirming an Approved transfer\")\r\n    it(\"Should throw when confirming a Cancelled transfer\")\r\n   */\r\n  function confirmTransfer(uint256 _txID) external onlyAdmin returns (bool txnApproved) {\r\n    // Declare local variables\r\n    txnRequest memory approvedTxn = txnHistory[_txID];\r\n    APPROVE status = approvedTxn.approvalStatus;\r\n    \r\n    // Check token was not deleted after submission\r\n    require(tokenAddress[approvedTxn.ticker] != address(0), \"Token deleted\");\r\n    // Check transaction exists\r\n    require(_txID < txnHistory.length, \"Request does not exist\");\r\n    // Check transaction hasn't been approved already\r\n    require(status != APPROVE.APPROVED, \"Request approved\");\r\n    // Check transaction hasn't been cancelled\r\n    require(status != APPROVE.CANCELLED, \"Request cancelled\");\r\n    // Check Admin has not already approved transaction\r\n    require(!adminApproved[msg.sender][_txID], \"Admin approved\");\r\n\r\n    // If txnRequest was Submitted, then set storage approvalStatus to Pending    \r\n    if(status == APPROVE.SUBMITTED) {\r\n        txnHistory[_txID].approvalStatus = APPROVE.PENDING;\r\n    }\r\n    \r\n    // Update Admin's transaction approval\r\n    adminApproved[msg.sender][_txID] = true;\r\n    // Emit event alert for Admin's approval\r\n    emit AdminApproved(_txID, msg.sender, block.timestamp);\r\n    \r\n    // Run multi-sig check algorithm, return true if transaction is approved, false if not\r\n    if(_txnApproval(approvedTxn.txID)) txnApproved = true;\r\n    else txnApproved = false;\r\n  }\r\n\r\n  /**\r\n   * @notice Tallies up Admin approvals for transaction, processes transaction if multi-sig \r\n   * requirement is met\r\n   * @dev Uses unchecked logic for tallying Admin approvals, but uses checked logic for adjusting\r\n   * trueBalance. Further testing is needed to determine if trueBalance can ever underflow, and\r\n   * if not then it should be unchecked as well to save gas.\r\n   */\r\n  function _txnApproval(uint256 _txID) private returns (bool) {\r\n    // 0. Initialize local variables\r\n    uint256 numApproved = 0;\r\n    txnRequest memory transaction = txnHistory[_txID];\r\n\r\n    // 1. Iterate through admins array and tally up approvals\r\n     // Unchecked because loop counter and numApproved will not exceed uint256 type size\r\n    unchecked {\r\n      for (uint256 i = 0; i < admins.length; i++) {\r\n        // Tertiary operator: If Admin approved then increment counter, if not then leave alone\r\n        adminApproved[admins[i]][_txID] ?\r\n          numApproved++ :\r\n          numApproved;\r\n      }      \r\n    }\r\n\r\n    // 2. If approvals did not meet requirement, then return from function with false flag\r\n    if (numApproved < adminsRequired) {\r\n      return false;\r\n    }\r\n\r\n    // 3. Otherwise, proceed with transfer\r\n\r\n    //*** EFFECTS ***\\\\      \r\n    // Update transaction's approval status to Approved\r\n    txnHistory[_txID].approvalStatus = APPROVE.APPROVED;\r\n    // Update account's true balance\r\n    trueBalance[transaction.accountID][transaction.ticker] -= transaction.amount;\r\n    // Decrement pendingTxns\r\n    pendingTxns--;\r\n\r\n    // Emit approval event\r\n    emit TransactionApproved(_txID, block.timestamp);\r\n\r\n    //*** INTERACTIONS ***\\\\\r\n    // Logic for transferring ETH\r\n    if(tokenAddress[transaction.ticker] == address(this)){\r\n      // Transfer ETH to recipient, then return from function\r\n      transaction.recipient.transfer(transaction.amount);\r\n      return true;\r\n    }\r\n    // Logic for ERC20 transfer\r\n    else if(\r\n      IERC20(tokenAddress[transaction.ticker])\r\n      .transfer(transaction.recipient, transaction.amount)\r\n    ){\r\n      return true;\r\n    }\r\n\r\n    // If function has not returned yet, then all conditionals failed, and therefore transfer failed,\r\n    // revert with an error message\r\n    revert(\"Transfer failed\");\r\n  }\r\n\r\n  /**\r\n   * @notice Cancels Pending transaction\r\n    UNIT TESTS:\r\n    it(\"Should revert for non-existent requests\")\r\n    it(\"Should revert for Approved requests\")\r\n    it(\"Should revert for Cancelled requests\")\r\n    it(\"Should update status to Cancelled\")\r\n    it(\"Should update account's pendingBalance\")\r\n   */\r\n  function cancelTransaction(uint256 _txID) external onlyAdmin returns(bool) {\r\n    // Declare local variables\r\n    txnRequest memory transaction = txnHistory[_txID];\r\n\r\n    // Check transaction exists\r\n    require(_txID < txnHistory.length, \"Request doesn't exist\");\r\n    // Check transaction hasn't been approved already\r\n    require(transaction.approvalStatus != APPROVE.APPROVED, \"Request approved\");\r\n    // Check transaction hasn't been cancelled\r\n    require(transaction.approvalStatus != APPROVE.CANCELLED, \"Request cancelled\");\r\n\r\n    // Update transaction approval status to Cancelled\r\n    txnHistory[_txID].approvalStatus = APPROVE.CANCELLED;\r\n    // Update account's pending balance\r\n    pendingBalance[transaction.accountID][transaction.ticker] += transaction.amount;\r\n    // Decrement pendingTxns\r\n    pendingTxns--;\r\n\r\n    // Emit cancellation alert\r\n    emit TransactionCancelled(_txID, msg.sender, block.timestamp);\r\n    return true;\r\n  }\r\n\r\n  /**\r\n   * @notice Deposits ERC20 token amount\r\n   * @dev Most accounts require Admin permissions to deposit, but some accounts that are made\r\n   * \"public\" can be deposited into by non-Admins\r\n   *\r\n   * @param _ticker ERC20 ticker symbol\r\n   * @param _amount Amount to deposit\r\n   * @param _accountID Treasury account to deposit token into\r\n\r\n    UNIT TESTS:\r\n    it(\"Should not work for ticker ETH\")\r\n    it(\"Should not work for tokens that weren't added\")\r\n    it(\"Should not work for zero amounts\")\r\n    it(\"Should revert for insufficient allowance\")\r\n    it(\"Should update account's trueBalance\")\r\n    it(\"Should update account's pendingBalance\")\r\n   */\r\n  function depositToken(string calldata _ticker, uint256 _amount, uint256 _accountID) external checkAccountPermissions(_accountID) returns(bool) {\r\n    // Declare local variables\r\n    bytes32 tickerBytes = tokenTicker[_ticker];\r\n    address tokenAddr = tokenAddress[tickerBytes];\r\n\r\n    //*** CHECKS ***\\\\\r\n    // Check Admin is not depositing ETH\r\n    require(tickerBytes != ETH, \"Use depositETH\");\r\n    // Check token exists in this contract\r\n    require(tokenAddr != address(0), \"Add token first\");\r\n    // Check amount is not zero\r\n    require(_amount != 0, \"Amount zero\");\r\n\r\n    //*** EFFECTS ***\\\\\r\n    // Update account's balances\r\n    trueBalance[_accountID][tickerBytes] += _amount;\r\n    pendingBalance[_accountID][tickerBytes] += _amount;\r\n\r\n    //*** INTERACTIONS ***\\\\\r\n    // Call ERC20 contract's transferFrom function\r\n    require(IERC20(tokenAddr).transferFrom(msg.sender, address(this), _amount), \"Transfer failed\");\r\n    return true;\r\n  }\r\n\r\n  /**\r\n   * @notice Deposits ETH amount\r\n   * @dev Most accounts require Admin permissions to deposit, but some accounts that are made\r\n   * \"public\" can be deposited into by non-Admins\r\n    UNIT TESTS:\r\n    it(\"Should revert if 0 ether is sent\")\r\n    it(\"Should update correct account's trueBalance\")\r\n    it(\"Should update correct account's pendingBalance\")\r\n   */\r\n  function depositETH(uint256 _accountID) external payable checkAccountPermissions(_accountID) returns(bool) {\r\n    // Check amount is not zero\r\n    require(msg.value != 0, \"Amount zero\");\r\n\r\n    // Update account's balances\r\n    trueBalance[_accountID][ETH] += msg.value;\r\n    pendingBalance[_accountID][ETH] += msg.value;\r\n\r\n    emit ETHDeposited(_accountID, msg.value, block.timestamp);\r\n    return true;\r\n  }  \r\n\r\n  /**\r\n   * @notice Moves tokens from one account to another\r\n   * @dev This is not a multi-sig operation, but should be permissioned to a role\r\n   * @dev Multi-sig mechanism can be modified to allow internal transfers to require\r\n   * multi-sig authorization, but will increase contract complexity substantially.\r\n\r\n    UNIT TESTS:\r\n    it(\"Should not transfer tokens from account with insufficient pendingBalance\")\r\n    it(\"Should update both accounts' balances correctly\")\r\n   */\r\n  function internalTransfer(\r\n    string calldata _ticker, \r\n    uint256 _amount, \r\n    uint256 _accountIDFrom, \r\n    uint256 _accountIDTo\r\n  ) external onlyAdmin returns(bool) {\r\n    bytes32 tickerHash = tokenTicker[_ticker];\r\n    // Check that sending account has sufficient balances\r\n    require(\r\n      pendingBalance[_accountIDFrom][tickerHash] >= _amount &&\r\n      trueBalance[_accountIDFrom][tickerHash] >= _amount, // This may not be necessary\r\n      \"Insufficient balance\"\r\n    );\r\n\r\n    // Update internal balances\r\n    trueBalance[_accountIDFrom][tickerHash] -= _amount;\r\n    pendingBalance[_accountIDFrom][tickerHash] -= _amount;\r\n    trueBalance[_accountIDTo][tickerHash] += _amount;\r\n    pendingBalance[_accountIDTo][tickerHash] += _amount;\r\n\r\n    // Emit alert for internal transfer\r\n    emit InternalTransfer(_ticker, _amount, _accountIDFrom, _accountIDTo, msg.sender, block.timestamp);\r\n    return true;\r\n  }\r\n\r\n  /**\r\n   * @notice Deposits ETH into main account \r\n    it(\"Should update trueBalance and pendingBalance when ETH is deposited\")\r\n   */\r\n  receive() external payable {\r\n    // Update main account's balances\r\n    trueBalance[mainAccountID][ETH] += msg.value;\r\n    pendingBalance[mainAccountID][ETH] += msg.value;    \r\n\r\n    emit ETHDeposited(mainAccountID, msg.value, block.timestamp);\r\n  }\r\n\r\n  // Throws error message when invalid function is called with/without ETH\r\n  fallback() external payable {\r\n    revert(\"Invalid function\");\r\n  }\r\n\r\n  /**\r\n   * @notice Adds or modifies an ERC20 token\r\n   * @dev Admins can use address(0) to delete a token\r\n   *\r\n   * @param _ticker ERC20 ticker symbol, cannot be ETH\r\n   * @param _tokenAddress ERC20 contract address, cannot be address(this)\r\n\r\n    UNIT TESTS:\r\n    it(\"Should revert for ETH ticker\")\r\n    it(\"Should assign tokenTicker mapping correctly if new\")\r\n    it(\"Should not change tokenTicker mapping if token exists\")\r\n    it(\"Should assign/reassign address correctly\")\r\n   */\r\n  function modifyToken(string calldata _ticker, address _tokenAddress) external onlyAdmin returns (bool) {\r\n    // Hash token's ticker symbol\r\n    bytes32 tokenTickerBytes = keccak256(abi.encodePacked(_ticker));\r\n\r\n    // Check caller is not overriding ETH assignments\r\n    require(\r\n      tokenTicker[_ticker] != ETH &&\r\n      tokenAddress[tokenTickerBytes] != address(this) &&\r\n      _tokenAddress != address(this),\r\n      \"Cannot override ETH assignments\"\r\n    );\r\n\r\n    // If token does not exist or was deleted, then update ticker hash and fire event\r\n    if(\r\n      tokenTicker[_ticker] != tokenTickerBytes || \r\n      tokenAddress[tokenTickerBytes] == address(0)\r\n      ){\r\n      // Map token ticker string to its hash\r\n      tokenTicker[_ticker] = tokenTickerBytes;\r\n\r\n      // Emit ERC20Added alert\r\n      emit ERC20Added(\r\n        _ticker, \r\n        tokenTickerBytes, \r\n        _tokenAddress, \r\n        block.timestamp\r\n      );\r\n    }\r\n    // Otherwise, emit ERC20Modified event\r\n    else {\r\n      emit ERC20Modified(\r\n        _ticker, \r\n        tokenTickerBytes, \r\n        tokenAddress[tokenTickerBytes], \r\n        _tokenAddress, \r\n        block.timestamp\r\n      );\r\n    }\r\n\r\n    // Map ticker symbol hash to its contract address\r\n    tokenAddress[tokenTickerBytes] = _tokenAddress;\r\n\r\n    return true;\r\n  }\r\n\r\n  /**\r\n   * @notice Sets an account's permissions, either Public or Admin\r\n   * @dev All accounts are Admin-restricted by default\r\n   * @dev Upgrade to OpenZeppelin's AccessControl system for greater flexibility\r\n   */\r\n  function setAccountPermission(uint256 _accountID, bool _isPublic) external onlyAdmin returns (bool) {\r\n    isPublic[_accountID] = _isPublic;\r\n\r\n    return true;\r\n  }\r\n\r\n  /**\r\n   * @notice Returns pending transaction IDs, sorted from most recent to oldest\r\n   * @dev While this is a view function, it is gas-optimized for smart contract use.\r\n   * An alternative design can be made which does not use a state variable to track\r\n   * number of pending transactions, but it adds a second loop to this function and\r\n   * requires iterating through entire txnHistory array, which may be rejected by a\r\n   * node even if it is view-only, should txnHistory contain hundreds/thousands of \r\n   * elements.\r\n   * @dev Front end: Feed this function's output into the txnHistory array's public\r\n   * getter function to produce an array of all pending transaction details.\r\n   */\r\n  function getPendingIDs() public view returns (uint256[] memory pendingTxnIDs) {\r\n    // Check for pending requests\r\n    require(pendingTxns > 0, \"No pending requests\");\r\n\r\n    // Initialize variables\r\n    uint256 j = 0; // Index counter for pendingTxnIDs\r\n    uint i = txnHistory.length; // Starting point for loop counter\r\n    // Define size of pendingTxnIDs as pendingTxns\r\n    pendingTxnIDs = new uint256[](pendingTxns);\r\n\r\n    // Unchecked because i underflow is prevented by loop conditions\r\n    unchecked {\r\n      // Populate pendingTxnIDs\r\n      while(j < pendingTxns && i > 0){\r\n        // Store transaction in local memory and decrement i\r\n        txnRequest memory transaction = txnHistory[i - 1];\r\n        i--;\r\n\r\n        // If transaction was Approved or Cancelled, then skip to next transaction\r\n        if (\r\n          transaction.approvalStatus == APPROVE.APPROVED ||\r\n          transaction.approvalStatus == APPROVE.CANCELLED\r\n          ) {\r\n            continue;\r\n        }\r\n\r\n        // Add transaction ID to pendingTxnIDs and increment j\r\n        pendingTxnIDs[j] = transaction.txID;\r\n        j++;\r\n      }      \r\n    }\r\n    \r\n    // Return completed array of transaction IDs\r\n    return pendingTxnIDs;\r\n  }\r\n\r\n\r\n\r\n}\r\n",
  "sourcePath": "D:/Documents/Solidity/multisigcontracts/contracts/Treasury.sol",
  "compiler": {
    "name": "solc",
    "version": "0.8.0+commit.c7dfd78e.Emscripten.clang"
  },
  "schemaVersion": "3.4.1",
  "updatedAt": "2022-06-27T20:31:45.373Z",
  "devdoc": {
    "kind": "dev",
    "methods": {
      "constructor": {
        "details": "Passing 0 for _numerator is permitted at construction, but once modified cannot be set back to 0. This is to bypass the multi-sig mechanism until the team is ready to activate it.",
        "params": {
          "_admins": "Array of all Admins added into WalletAdmins",
          "_denominator": "Denominator of multi-sig requirement ratio",
          "_mainAccountID": "Default account ETH is sent to via receive function",
          "_numerator": "Numerator of multi-sig requirement ratio",
          "_tickers": "Array of ERC20 ticker strings",
          "_tokenContracts": "Array of ERC20 token contract addresses"
        }
      },
      "depositETH(uint256)": {
        "details": "Most accounts require Admin permissions to deposit, but some accounts that are made \"public\" can be deposited into by non-Admins UNIT TESTS: it(\"Should revert if 0 ether is sent\") it(\"Should update correct account's trueBalance\") it(\"Should update correct account's pendingBalance\")"
      },
      "depositToken(string,uint256,uint256)": {
        "details": "Most accounts require Admin permissions to deposit, but some accounts that are made \"public\" can be deposited into by non-Admins",
        "params": {
          "_accountID": "Treasury account to deposit token into UNIT TESTS: it(\"Should not work for ticker ETH\") it(\"Should not work for tokens that weren't added\") it(\"Should not work for zero amounts\") it(\"Should revert for insufficient allowance\") it(\"Should update account's trueBalance\") it(\"Should update account's pendingBalance\")",
          "_amount": "Amount to deposit",
          "_ticker": "ERC20 ticker symbol"
        }
      },
      "getPendingIDs()": {
        "details": "While this is a view function, it is gas-optimized for smart contract use. An alternative design can be made which does not use a state variable to track number of pending transactions, but it adds a second loop to this function and requires iterating through entire txnHistory array, which may be rejected by a node even if it is view-only, should txnHistory contain hundreds/thousands of  elements.Front end: Feed this function's output into the txnHistory array's public getter function to produce an array of all pending transaction details."
      },
      "internalTransfer(string,uint256,uint256,uint256)": {
        "details": "This is not a multi-sig operation, but should be permissioned to a roleMulti-sig mechanism can be modified to allow internal transfers to require multi-sig authorization, but will increase contract complexity substantially. UNIT TESTS: it(\"Should not transfer tokens from account with insufficient pendingBalance\") it(\"Should update both accounts' balances correctly\")"
      },
      "modifyToken(string,address)": {
        "details": "Admins can use address(0) to delete a token",
        "params": {
          "_ticker": "ERC20 ticker symbol, cannot be ETH",
          "_tokenAddress": "ERC20 contract address, cannot be address(this) UNIT TESTS: it(\"Should revert for ETH ticker\") it(\"Should assign tokenTicker mapping correctly if new\") it(\"Should not change tokenTicker mapping if token exists\") it(\"Should assign/reassign address correctly\")"
        }
      },
      "owner()": {
        "details": "Returns the address of the current owner."
      },
      "renounceOwnership()": {
        "details": "Leaves the contract without owner. It will not be possible to call `onlyOwner` functions anymore. Can only be called by the current owner. NOTE: Renouncing ownership will leave the contract without an owner, thereby removing any functionality that is only available to the owner."
      },
      "setAccountPermission(uint256,bool)": {
        "details": "All accounts are Admin-restricted by defaultUpgrade to OpenZeppelin's AccessControl system for greater flexibility"
      },
      "submitTransaction(uint256,address,uint256,string)": {
        "params": {
          "_accountID": "ID of account to withdraw from",
          "_amount": "Amount of tokens/ETH being sent",
          "_recipient": "Transaction recipient",
          "_tokenTicker": "Ticker symbol of token/ETH being transferred UNIT TESTS: it(\"Should not submit a transaction greater than its pending balance\") it(\"Should add the request to the txnHistory array\") it(\"Should adjust the account's pendingBalance by the amount\")"
        }
      },
      "transferOwnership(address)": {
        "details": "Transfers ownership of the contract to a new account (`newOwner`). Can only be called by the current owner."
      }
    },
    "version": 1
  },
  "userdoc": {
    "kind": "user",
    "methods": {
      "cancelTransaction(uint256)": {
        "notice": "Cancels Pending transaction UNIT TESTS: it(\"Should revert for non-existent requests\") it(\"Should revert for Approved requests\") it(\"Should revert for Cancelled requests\") it(\"Should update status to Cancelled\") it(\"Should update account's pendingBalance\")"
      },
      "confirmTransfer(uint256)": {
        "notice": "Votes to confirms a transaction UNIT TESTS PART 1: it(\"Should revert if token was deleted after submission\") it(\"Should revert if request does not exist\") it(\"Should change Submitted status to Pending\") it(\"Should update Admin's approval status for the request\") it(\"Should not allow Admin to confirm twice\") it(\"Should not confirm if multi-sig requirement is not reached\") it(\"Should confirm when multi-sig requirement is reached\") it(\"Should adjust trueBalance when confirmed\") it(\"Should transfer ETH correctly\") it(\"Should transfer tokens correctly\") UNIT TESTS PART 2: it(\"Should throw when confirming an Approved transfer\") it(\"Should throw when confirming a Cancelled transfer\")"
      },
      "depositETH(uint256)": {
        "notice": "Deposits ETH amount"
      },
      "depositToken(string,uint256,uint256)": {
        "notice": "Deposits ERC20 token amount"
      },
      "getPendingIDs()": {
        "notice": "Returns pending transaction IDs, sorted from most recent to oldest"
      },
      "internalTransfer(string,uint256,uint256,uint256)": {
        "notice": "Moves tokens from one account to another"
      },
      "modifyToken(string,address)": {
        "notice": "Adds or modifies an ERC20 token"
      },
      "setAccountPermission(uint256,bool)": {
        "notice": "Sets an account's permissions, either Public or Admin"
      },
      "submitTransaction(uint256,address,uint256,string)": {
        "notice": "Submits a transaction request"
      }
    },
    "version": 1
  }
}