{
  "contractName": "WalletAdmins",
  "abi": [
    {
      "inputs": [
        {
          "internalType": "address[]",
          "name": "_admins",
          "type": "address[]"
        },
        {
          "internalType": "uint256",
          "name": "_numerator",
          "type": "uint256"
        },
        {
          "internalType": "uint256",
          "name": "_denominator",
          "type": "uint256"
        }
      ],
      "stateMutability": "nonpayable",
      "type": "constructor"
    },
    {
      "anonymous": false,
      "inputs": [
        {
          "indexed": true,
          "internalType": "address",
          "name": "previousOwner",
          "type": "address"
        },
        {
          "indexed": true,
          "internalType": "address",
          "name": "newOwner",
          "type": "address"
        }
      ],
      "name": "OwnershipTransferred",
      "type": "event"
    },
    {
      "inputs": [
        {
          "internalType": "address",
          "name": "",
          "type": "address"
        },
        {
          "internalType": "uint256",
          "name": "",
          "type": "uint256"
        }
      ],
      "name": "adminApproved",
      "outputs": [
        {
          "internalType": "bool",
          "name": "",
          "type": "bool"
        }
      ],
      "stateMutability": "view",
      "type": "function"
    },
    {
      "inputs": [
        {
          "internalType": "uint256",
          "name": "",
          "type": "uint256"
        }
      ],
      "name": "admins",
      "outputs": [
        {
          "internalType": "address",
          "name": "",
          "type": "address"
        }
      ],
      "stateMutability": "view",
      "type": "function"
    },
    {
      "inputs": [
        {
          "internalType": "address",
          "name": "",
          "type": "address"
        }
      ],
      "name": "isAdmin",
      "outputs": [
        {
          "internalType": "bool",
          "name": "",
          "type": "bool"
        }
      ],
      "stateMutability": "view",
      "type": "function"
    },
    {
      "inputs": [],
      "name": "owner",
      "outputs": [
        {
          "internalType": "address",
          "name": "",
          "type": "address"
        }
      ],
      "stateMutability": "view",
      "type": "function"
    },
    {
      "inputs": [],
      "name": "renounceOwnership",
      "outputs": [],
      "stateMutability": "nonpayable",
      "type": "function"
    },
    {
      "inputs": [
        {
          "internalType": "address",
          "name": "newOwner",
          "type": "address"
        }
      ],
      "name": "transferOwnership",
      "outputs": [],
      "stateMutability": "nonpayable",
      "type": "function"
    },
    {
      "inputs": [
        {
          "internalType": "address",
          "name": "_address",
          "type": "address"
        }
      ],
      "name": "addAdmin",
      "outputs": [
        {
          "internalType": "uint256",
          "name": "adminID",
          "type": "uint256"
        }
      ],
      "stateMutability": "nonpayable",
      "type": "function"
    },
    {
      "inputs": [
        {
          "internalType": "uint256",
          "name": "_adminID",
          "type": "uint256"
        }
      ],
      "name": "removeAdmin",
      "outputs": [],
      "stateMutability": "nonpayable",
      "type": "function"
    },
    {
      "inputs": [
        {
          "internalType": "uint256",
          "name": "_numerator",
          "type": "uint256"
        },
        {
          "internalType": "uint256",
          "name": "_denominator",
          "type": "uint256"
        }
      ],
      "name": "modifySignatureRatio",
      "outputs": [
        {
          "internalType": "bool",
          "name": "",
          "type": "bool"
        }
      ],
      "stateMutability": "nonpayable",
      "type": "function"
    }
  ],
  "bytecode": "0x60806040526005546004546003805490506200001c9190620005ec565b620000289190620005b4565b6006553480156200003857600080fd5b5060405162001a7838038062001a7883398181016040528101906200005e91906200046d565b6000620000706200039560201b60201c565b9050806000806101000a81548173ffffffffffffffffffffffffffffffffffffffff021916908373ffffffffffffffffffffffffffffffffffffffff1602179055508073ffffffffffffffffffffffffffffffffffffffff16600073ffffffffffffffffffffffffffffffffffffffff167f8be0079c531659141344cd1fd0a4f28419497f9722a3daafe3b4186f6b6457e060405160405180910390a35060008114158015620001205750808211155b62000162576040517f08c379a000000000000000000000000000000000000000000000000000000000815260040162000159906200051e565b60405180910390fd5b81600481905550806005819055506003339080600181540180825580915050600190039060005260206000200160009091909190916101000a81548173ffffffffffffffffffffffffffffffffffffffff021916908373ffffffffffffffffffffffffffffffffffffffff1602179055506001600260003373ffffffffffffffffffffffffffffffffffffffff1673ffffffffffffffffffffffffffffffffffffffff16815260200190815260200160002060006101000a81548160ff02191690831515021790555060005b83518110156200038b57600384828151811062000274577f4e487b7100000000000000000000000000000000000000000000000000000000600052603260045260246000fd5b60200260200101519080600181540180825580915050600190039060005260206000200160009091909190916101000a81548173ffffffffffffffffffffffffffffffffffffffff021916908373ffffffffffffffffffffffffffffffffffffffff1602179055506001600260008684815181106200031c577f4e487b7100000000000000000000000000000000000000000000000000000000600052603260045260246000fd5b602002602001015173ffffffffffffffffffffffffffffffffffffffff1673ffffffffffffffffffffffffffffffffffffffff16815260200190815260200160002060006101000a81548160ff021916908315150217905550808062000382906200068b565b9150506200022e565b505050506200079a565b600033905090565b6000620003b4620003ae8462000574565b62000540565b90508083825260208201905082856020860282011115620003d457600080fd5b60005b85811015620004085781620003ed888262000412565b845260208401935060208301925050600181019050620003d7565b5050509392505050565b600081519050620004238162000766565b92915050565b600082601f8301126200043b57600080fd5b81516200044d8482602086016200039d565b91505092915050565b600081519050620004678162000780565b92915050565b6000806000606084860312156200048357600080fd5b600084015167ffffffffffffffff8111156200049e57600080fd5b620004ac8682870162000429565b9350506020620004bf8682870162000456565b9250506040620004d28682870162000456565b9150509250925092565b6000620004eb601083620005a3565b91507f496d706f737369626c6520726174696f000000000000000000000000000000006000830152602082019050919050565b600060208201905081810360008301526200053981620004dc565b9050919050565b6000604051905081810181811067ffffffffffffffff821117156200056a576200056962000737565b5b8060405250919050565b600067ffffffffffffffff82111562000592576200059162000737565b5b602082029050602081019050919050565b600082825260208201905092915050565b6000620005c18262000681565b9150620005ce8362000681565b925082620005e157620005e062000708565b5b828204905092915050565b6000620005f98262000681565b9150620006068362000681565b9250817fffffffffffffffffffffffffffffffffffffffffffffffffffffffffffffffff0483118215151615620006425762000641620006d9565b5b828202905092915050565b60006200065a8262000661565b9050919050565b600073ffffffffffffffffffffffffffffffffffffffff82169050919050565b6000819050919050565b6000620006988262000681565b91507fffffffffffffffffffffffffffffffffffffffffffffffffffffffffffffffff821415620006ce57620006cd620006d9565b5b600182019050919050565b7f4e487b7100000000000000000000000000000000000000000000000000000000600052601160045260246000fd5b7f4e487b7100000000000000000000000000000000000000000000000000000000600052601260045260246000fd5b7f4e487b7100000000000000000000000000000000000000000000000000000000600052604160045260246000fd5b62000771816200064d565b81146200077d57600080fd5b50565b6200078b8162000681565b81146200079757600080fd5b50565b6112ce80620007aa6000396000f3fe608060405234801561001057600080fd5b50600436106100935760003560e01c806386cb41811161006657806386cb4181146101325780638da5cb5b14610162578063ad7bbc2914610180578063c32cf65f1461019c578063f2fde38b146101cc57610093565b806314bfd6d01461009857806324d7806c146100c857806370480275146100f8578063715018a614610128575b600080fd5b6100b260048036038101906100ad9190610e26565b6101e8565b6040516100bf919061101e565b60405180910390f35b6100e260048036038101906100dd9190610dc1565b610227565b6040516100ef9190611039565b60405180910390f35b610112600480360381019061010d9190610dc1565b610247565b60405161011f91906110f4565b60405180910390f35b61013061038d565b005b61014c60048036038101906101479190610e4f565b6104c7565b6040516101599190611039565b60405180910390f35b61016a61060c565b604051610177919061101e565b60405180910390f35b61019a60048036038101906101959190610e26565b610635565b005b6101b660048036038101906101b19190610dea565b610bb7565b6040516101c39190611039565b60405180910390f35b6101e660048036038101906101e19190610dc1565b610be6565b005b600381815481106101f857600080fd5b906000526020600020016000915054906101000a900473ffffffffffffffffffffffffffffffffffffffff1681565b60026020528060005260406000206000915054906101000a900460ff1681565b6000610251610d8f565b73ffffffffffffffffffffffffffffffffffffffff1661026f61060c565b73ffffffffffffffffffffffffffffffffffffffff16146102c5576040517f08c379a00000000000000000000000000000000000000000000000000000000081526004016102bc906110b4565b60405180910390fd5b60038054905090506003829080600181540180825580915050600190039060005260206000200160009091909190916101000a81548173ffffffffffffffffffffffffffffffffffffffff021916908373ffffffffffffffffffffffffffffffffffffffff1602179055506001600260008473ffffffffffffffffffffffffffffffffffffffff1673ffffffffffffffffffffffffffffffffffffffff16815260200190815260200160002060006101000a81548160ff021916908315150217905550919050565b610395610d8f565b73ffffffffffffffffffffffffffffffffffffffff166103b361060c565b73ffffffffffffffffffffffffffffffffffffffff1614610409576040517f08c379a0000000000000000000000000000000000000000000000000000000008152600401610400906110b4565b60405180910390fd5b600073ffffffffffffffffffffffffffffffffffffffff1660008054906101000a900473ffffffffffffffffffffffffffffffffffffffff1673ffffffffffffffffffffffffffffffffffffffff167f8be0079c531659141344cd1fd0a4f28419497f9722a3daafe3b4186f6b6457e060405160405180910390a360008060006101000a81548173ffffffffffffffffffffffffffffffffffffffff021916908373ffffffffffffffffffffffffffffffffffffffff160217905550565b60006104d1610d8f565b73ffffffffffffffffffffffffffffffffffffffff166104ef61060c565b73ffffffffffffffffffffffffffffffffffffffff1614610545576040517f08c379a000000000000000000000000000000000000000000000000000000000815260040161053c906110b4565b60405180910390fd5b6004548314158061055857506005548214155b610597576040517f08c379a000000000000000000000000000000000000000000000000000000000815260040161058e90611094565b60405180910390fd5b600082141580156105a9575060008314155b80156105b55750818311155b6105f4576040517f08c379a00000000000000000000000000000000000000000000000000000000081526004016105eb90611074565b60405180910390fd5b82600481905550816005819055506001905092915050565b60008060009054906101000a900473ffffffffffffffffffffffffffffffffffffffff16905090565b61063d610d8f565b73ffffffffffffffffffffffffffffffffffffffff1661065b61060c565b73ffffffffffffffffffffffffffffffffffffffff16146106b1576040517f08c379a00000000000000000000000000000000000000000000000000000000081526004016106a8906110b4565b60405180910390fd5b6000600382815481106106ed577f4e487b7100000000000000000000000000000000000000000000000000000000600052603260045260246000fd5b9060005260206000200160009054906101000a900473ffffffffffffffffffffffffffffffffffffffff16905061072261060c565b73ffffffffffffffffffffffffffffffffffffffff168173ffffffffffffffffffffffffffffffffffffffff161415610790576040517f08c379a0000000000000000000000000000000000000000000000000000000008152600401610787906110d4565b60405180910390fd5b600060026000600385815481106107d0577f4e487b7100000000000000000000000000000000000000000000000000000000600052603260045260246000fd5b9060005260206000200160009054906101000a900473ffffffffffffffffffffffffffffffffffffffff1673ffffffffffffffffffffffffffffffffffffffff1673ffffffffffffffffffffffffffffffffffffffff16815260200190815260200160002060006101000a81548160ff02191690831515021790555060005b600380549050811015610bb2578173ffffffffffffffffffffffffffffffffffffffff16600382815481106108ad577f4e487b7100000000000000000000000000000000000000000000000000000000600052603260045260246000fd5b9060005260206000200160009054906101000a900473ffffffffffffffffffffffffffffffffffffffff1673ffffffffffffffffffffffffffffffffffffffff16146108f857610b9f565b600160038054905061090a9190611176565b811415610a1c578173ffffffffffffffffffffffffffffffffffffffff1660038281548110610962577f4e487b7100000000000000000000000000000000000000000000000000000000600052603260045260246000fd5b9060005260206000200160009054906101000a900473ffffffffffffffffffffffffffffffffffffffff1673ffffffffffffffffffffffffffffffffffffffff161415610a175760038054806109e1577f4e487b7100000000000000000000000000000000000000000000000000000000600052603160045260246000fd5b6001900381819060005260206000200160006101000a81549073ffffffffffffffffffffffffffffffffffffffff021916905590555b610bb2565b6003600182610a2b9190611120565b81548110610a62577f4e487b7100000000000000000000000000000000000000000000000000000000600052603260045260246000fd5b9060005260206000200160009054906101000a900473ffffffffffffffffffffffffffffffffffffffff1660038281548110610ac7577f4e487b7100000000000000000000000000000000000000000000000000000000600052603260045260246000fd5b9060005260206000200160006101000a81548173ffffffffffffffffffffffffffffffffffffffff021916908373ffffffffffffffffffffffffffffffffffffffff160217905550816003600183610b1f9190611120565b81548110610b56577f4e487b7100000000000000000000000000000000000000000000000000000000600052603260045260246000fd5b9060005260206000200160006101000a81548173ffffffffffffffffffffffffffffffffffffffff021916908373ffffffffffffffffffffffffffffffffffffffff1602179055505b8080610baa906111f2565b91505061084f565b505050565b60016020528160005260406000206020528060005260406000206000915091509054906101000a900460ff1681565b610bee610d8f565b73ffffffffffffffffffffffffffffffffffffffff16610c0c61060c565b73ffffffffffffffffffffffffffffffffffffffff1614610c62576040517f08c379a0000000000000000000000000000000000000000000000000000000008152600401610c59906110b4565b60405180910390fd5b600073ffffffffffffffffffffffffffffffffffffffff168173ffffffffffffffffffffffffffffffffffffffff161415610cd2576040517f08c379a0000000000000000000000000000000000000000000000000000000008152600401610cc990611054565b60405180910390fd5b8073ffffffffffffffffffffffffffffffffffffffff1660008054906101000a900473ffffffffffffffffffffffffffffffffffffffff1673ffffffffffffffffffffffffffffffffffffffff167f8be0079c531659141344cd1fd0a4f28419497f9722a3daafe3b4186f6b6457e060405160405180910390a3806000806101000a81548173ffffffffffffffffffffffffffffffffffffffff021916908373ffffffffffffffffffffffffffffffffffffffff16021790555050565b600033905090565b600081359050610da68161126a565b92915050565b600081359050610dbb81611281565b92915050565b600060208284031215610dd357600080fd5b6000610de184828501610d97565b91505092915050565b60008060408385031215610dfd57600080fd5b6000610e0b85828601610d97565b9250506020610e1c85828601610dac565b9150509250929050565b600060208284031215610e3857600080fd5b6000610e4684828501610dac565b91505092915050565b60008060408385031215610e6257600080fd5b6000610e7085828601610dac565b9250506020610e8185828601610dac565b9150509250929050565b610e94816111aa565b82525050565b610ea3816111bc565b82525050565b6000610eb660268361110f565b91507f4f776e61626c653a206e6577206f776e657220697320746865207a65726f206160008301527f64647265737300000000000000000000000000000000000000000000000000006020830152604082019050919050565b6000610f1c60108361110f565b91507f496d706f737369626c6520726174696f000000000000000000000000000000006000830152602082019050919050565b6000610f5c60108361110f565b91507f4e6f7468696e67206d6f646966696564000000000000000000000000000000006000830152602082019050919050565b6000610f9c60208361110f565b91507f4f776e61626c653a2063616c6c6572206973206e6f7420746865206f776e65726000830152602082019050919050565b6000610fdc60128361110f565b91507f43616e27742072656d6f7665206f776e657200000000000000000000000000006000830152602082019050919050565b611018816111e8565b82525050565b60006020820190506110336000830184610e8b565b92915050565b600060208201905061104e6000830184610e9a565b92915050565b6000602082019050818103600083015261106d81610ea9565b9050919050565b6000602082019050818103600083015261108d81610f0f565b9050919050565b600060208201905081810360008301526110ad81610f4f565b9050919050565b600060208201905081810360008301526110cd81610f8f565b9050919050565b600060208201905081810360008301526110ed81610fcf565b9050919050565b6000602082019050611109600083018461100f565b92915050565b600082825260208201905092915050565b600061112b826111e8565b9150611136836111e8565b9250827fffffffffffffffffffffffffffffffffffffffffffffffffffffffffffffffff0382111561116b5761116a61123b565b5b828201905092915050565b6000611181826111e8565b915061118c836111e8565b92508282101561119f5761119e61123b565b5b828203905092915050565b60006111b5826111c8565b9050919050565b60008115159050919050565b600073ffffffffffffffffffffffffffffffffffffffff82169050919050565b6000819050919050565b60006111fd826111e8565b91507fffffffffffffffffffffffffffffffffffffffffffffffffffffffffffffffff8214156112305761122f61123b565b5b600182019050919050565b7f4e487b7100000000000000000000000000000000000000000000000000000000600052601160045260246000fd5b611273816111aa565b811461127e57600080fd5b50565b61128a816111e8565b811461129557600080fd5b5056fea2646970667358221220ccdca5b5ab3b0223d1d9b28c499a53ff7fe39f6d05c3fc486899ffdde8a0537064736f6c63430008000033",
  "immutableReferences": {},
  "source": "/**\r\nSimple contract for tracking, adding, and removing Admins with multi-sig permissions\r\n */\r\n\r\n// SPDX-License-Identifier: MIT\r\npragma solidity ^0.8.0;\r\n\r\nimport \"./OpenZeppelinDependencies/Ownable.sol\";\r\n\r\ncontract WalletAdmins is Ownable {\r\n\r\n  // Maps Admin address and txID for approval:\r\n  mapping(address => mapping(uint => bool)) public adminApproved;\r\n  // Maps Admin addresses with Admin status\r\n  mapping(address => bool) public isAdmin;\r\n\r\n  // All admins with multi-sig permissions\r\n  address[] public admins;\r\n\r\n  // Number of Admin signatures required\r\n  uint numerator;\r\n  uint denominator;\r\n  uint adminsRequired = (admins.length * numerator) / denominator;\r\n\r\n  // Note Numerator is allowed to be 0 until modified, which disables multi-sig temporarily,\r\n  // but once numerator has been set it cannot be set back to 0 again.\r\n  constructor(address[] memory _admins, uint _numerator, uint _denominator) {\r\n    // Sanity check\r\n    require(\r\n      _denominator != 0 &&\r\n      _numerator <= _denominator, \r\n      \"Impossible ratio\"\r\n    );\r\n\r\n    // Assign signature requirement ratio\r\n    numerator = _numerator;\r\n    denominator = _denominator;\r\n\r\n    // Add contract owner as first Admin\r\n    admins.push(msg.sender);\r\n    isAdmin[msg.sender] = true;\r\n\r\n    // Add each Admin from _admins\r\n    for(uint i = 0; i < _admins.length; i++){\r\n      admins.push(_admins[i]);\r\n      isAdmin[_admins[i]] = true;\r\n    }\r\n  }\r\n\r\n  modifier onlyAdmin() {\r\n    require(isAdmin[msg.sender], \"Only Admins\");\r\n    _;\r\n  }\r\n\r\n  // Adds a new Admin address, only the contract owner can call\r\n   // May override to implement multi-sig mechanism in child contract\r\n  function addAdmin (address _address) public virtual onlyOwner() returns (uint adminID) {\r\n    // Assign adminID to its index position in the admins array\r\n    adminID = admins.length;\r\n    // Push _address to admins array\r\n    admins.push(_address);\r\n    // Update Admin's isAdmin status\r\n    isAdmin[_address] = true;\r\n  }\r\n\r\n  // Removes an Admin address, only the contract owner can call\r\n   // May override to implement multi-sig mechanism in child contract\r\n  function removeAdmin(uint _adminID) public virtual onlyOwner() {\r\n    // Store local variables\r\n    address adminRemoved = admins[_adminID];\r\n\r\n    // Perform sanity checks\r\n    require(adminRemoved != owner(), \"Can't remove owner\");\r\n\r\n    // Remove Admin's isAdmin status\r\n    isAdmin[admins[_adminID]] = false;\r\n    \r\n    // Use bubble sorting algorithm to shift adminRemoved to end, then pop\r\n    for(uint i = 0; i < admins.length; i++){\r\n      \r\n      // 1. Check if admins[i] is adminRemoved, skip rest of logic if false\r\n       // If adminRemoved is found, then move on to step 2\r\n      if(admins[i] != adminRemoved) continue;\r\n\r\n      // 2. Check if i is end of array\r\n      if(i == admins.length - 1){\r\n        // 2a. If i is end of array, then check if admins[i] is adminRemoved\r\n        if(admins[i] == adminRemoved){\r\n          admins.pop(); // If true, then pop adminRemoved from array\r\n        }\r\n        // 2b. Whether true or false, break the loop\r\n        break;\r\n      }\r\n\r\n      // 3. If admins[i] is adminRemoved and is not end of array, then perform bubble sort\r\n      else {\r\n        admins[i] = admins[i + 1];\r\n        admins[i + 1] = adminRemoved;\r\n      }\r\n    }\r\n  }\r\n\r\n  // Modifies the ratio required for multi-sig approval\r\n  function modifySignatureRatio(uint _numerator, uint _denominator) external virtual onlyOwner() returns(bool) {\r\n    // Check caller is submitting different numbers than already in use\r\n    require(_numerator != numerator || _denominator != denominator, \"Nothing modified\");\r\n    // Check caller is not passing an impossible ratio\r\n    require(\r\n      _denominator != 0 &&\r\n      _numerator != 0 &&\r\n      _numerator <= _denominator, \r\n      \"Impossible ratio\"\r\n    );\r\n\r\n    // Update ratio numbers\r\n    numerator = _numerator;\r\n    denominator = _denominator;\r\n\r\n    return true;\r\n  }\r\n\r\n}\r\n",
  "sourcePath": "D:\\Documents\\Solidity\\multisigcontracts\\contracts\\WalletAdmins.sol",
  "compiler": {
    "name": "solc",
    "version": "0.8.0+commit.c7dfd78e.Emscripten.clang"
  },
  "schemaVersion": "3.4.1",
  "updatedAt": "2022-06-28T21:31:36.013Z",
  "devdoc": {
    "kind": "dev",
    "methods": {
      "owner()": {
        "details": "Returns the address of the current owner."
      },
      "renounceOwnership()": {
        "details": "Leaves the contract without owner. It will not be possible to call `onlyOwner` functions anymore. Can only be called by the current owner. NOTE: Renouncing ownership will leave the contract without an owner, thereby removing any functionality that is only available to the owner."
      },
      "transferOwnership(address)": {
        "details": "Transfers ownership of the contract to a new account (`newOwner`). Can only be called by the current owner."
      }
    },
    "version": 1
  },
  "userdoc": {
    "kind": "user",
    "methods": {},
    "version": 1
  }
}