{
  "contractName": "DEX",
  "abi": [
    {
      "anonymous": false,
      "inputs": [
        {
          "indexed": true,
          "internalType": "address",
          "name": "previousOwner",
          "type": "address"
        },
        {
          "indexed": true,
          "internalType": "address",
          "name": "newOwner",
          "type": "address"
        }
      ],
      "name": "OwnershipTransferred",
      "type": "event"
    },
    {
      "inputs": [],
      "name": "ETH",
      "outputs": [
        {
          "internalType": "bytes32",
          "name": "",
          "type": "bytes32"
        }
      ],
      "stateMutability": "view",
      "type": "function",
      "constant": true
    },
    {
      "inputs": [
        {
          "internalType": "string",
          "name": "ticker_",
          "type": "string"
        },
        {
          "internalType": "enum DEXGetters.SIDE",
          "name": "_side",
          "type": "uint8"
        }
      ],
      "name": "_getOrderbookAmount",
      "outputs": [
        {
          "internalType": "uint256",
          "name": "totalAmount",
          "type": "uint256"
        }
      ],
      "stateMutability": "view",
      "type": "function",
      "constant": true
    },
    {
      "inputs": [
        {
          "internalType": "string",
          "name": "_input",
          "type": "string"
        }
      ],
      "name": "_keccak256",
      "outputs": [
        {
          "internalType": "bytes32",
          "name": "_output",
          "type": "bytes32"
        }
      ],
      "stateMutability": "pure",
      "type": "function",
      "constant": true
    },
    {
      "inputs": [
        {
          "internalType": "string",
          "name": "ticker_",
          "type": "string"
        },
        {
          "internalType": "uint256",
          "name": "_amount",
          "type": "uint256"
        }
      ],
      "name": "_marketBuyCost",
      "outputs": [
        {
          "internalType": "uint256",
          "name": "orderCost",
          "type": "uint256"
        }
      ],
      "stateMutability": "view",
      "type": "function",
      "constant": true
    },
    {
      "inputs": [
        {
          "internalType": "string",
          "name": "ticker_",
          "type": "string"
        },
        {
          "internalType": "address",
          "name": "_tokenAddress",
          "type": "address"
        }
      ],
      "name": "addToken",
      "outputs": [],
      "stateMutability": "nonpayable",
      "type": "function"
    },
    {
      "inputs": [
        {
          "internalType": "address",
          "name": "",
          "type": "address"
        },
        {
          "internalType": "bytes32",
          "name": "",
          "type": "bytes32"
        }
      ],
      "name": "balances",
      "outputs": [
        {
          "internalType": "uint256",
          "name": "",
          "type": "uint256"
        }
      ],
      "stateMutability": "view",
      "type": "function",
      "constant": true
    },
    {
      "inputs": [
        {
          "internalType": "string",
          "name": "ticker_",
          "type": "string"
        },
        {
          "internalType": "uint256",
          "name": "_amount",
          "type": "uint256"
        }
      ],
      "name": "deposit",
      "outputs": [],
      "stateMutability": "nonpayable",
      "type": "function"
    },
    {
      "inputs": [],
      "name": "depositETH",
      "outputs": [],
      "stateMutability": "payable",
      "type": "function",
      "payable": true
    },
    {
      "inputs": [
        {
          "internalType": "string",
          "name": "ticker_",
          "type": "string"
        }
      ],
      "name": "getBalance",
      "outputs": [
        {
          "internalType": "uint256",
          "name": "",
          "type": "uint256"
        }
      ],
      "stateMutability": "view",
      "type": "function",
      "constant": true
    },
    {
      "inputs": [
        {
          "internalType": "string",
          "name": "ticker_",
          "type": "string"
        },
        {
          "internalType": "enum DEXGetters.SIDE",
          "name": "_side",
          "type": "uint8"
        },
        {
          "internalType": "uint256",
          "name": "_index",
          "type": "uint256"
        }
      ],
      "name": "getLimitPrice",
      "outputs": [
        {
          "internalType": "uint256",
          "name": "",
          "type": "uint256"
        }
      ],
      "stateMutability": "view",
      "type": "function",
      "constant": true
    },
    {
      "inputs": [
        {
          "internalType": "string",
          "name": "ticker_",
          "type": "string"
        },
        {
          "internalType": "enum DEXGetters.SIDE",
          "name": "_side",
          "type": "uint8"
        },
        {
          "internalType": "uint256",
          "name": "_index",
          "type": "uint256"
        }
      ],
      "name": "getOrderAmount",
      "outputs": [
        {
          "internalType": "uint256",
          "name": "",
          "type": "uint256"
        }
      ],
      "stateMutability": "view",
      "type": "function",
      "constant": true
    },
    {
      "inputs": [
        {
          "internalType": "string",
          "name": "ticker_",
          "type": "string"
        },
        {
          "internalType": "enum DEXGetters.SIDE",
          "name": "_side",
          "type": "uint8"
        }
      ],
      "name": "getOrderBook",
      "outputs": [
        {
          "components": [
            {
              "internalType": "uint256",
              "name": "id",
              "type": "uint256"
            },
            {
              "internalType": "address",
              "name": "trader",
              "type": "address"
            },
            {
              "internalType": "enum DEXGetters.SIDE",
              "name": "side",
              "type": "uint8"
            },
            {
              "internalType": "bytes32",
              "name": "ticker",
              "type": "bytes32"
            },
            {
              "internalType": "uint256",
              "name": "amount",
              "type": "uint256"
            },
            {
              "internalType": "uint256",
              "name": "price",
              "type": "uint256"
            }
          ],
          "internalType": "struct DEXGetters.Order[]",
          "name": "",
          "type": "tuple[]"
        }
      ],
      "stateMutability": "view",
      "type": "function",
      "constant": true
    },
    {
      "inputs": [
        {
          "internalType": "string",
          "name": "ticker_",
          "type": "string"
        },
        {
          "internalType": "enum DEXGetters.SIDE",
          "name": "_side",
          "type": "uint8"
        }
      ],
      "name": "getOrderBookLength",
      "outputs": [
        {
          "internalType": "uint256",
          "name": "",
          "type": "uint256"
        }
      ],
      "stateMutability": "view",
      "type": "function",
      "constant": true
    },
    {
      "inputs": [
        {
          "internalType": "string",
          "name": "ticker_",
          "type": "string"
        },
        {
          "internalType": "enum DEXGetters.SIDE",
          "name": "_side",
          "type": "uint8"
        },
        {
          "internalType": "uint256",
          "name": "_index",
          "type": "uint256"
        }
      ],
      "name": "getOrderID",
      "outputs": [
        {
          "internalType": "uint256",
          "name": "",
          "type": "uint256"
        }
      ],
      "stateMutability": "view",
      "type": "function",
      "constant": true
    },
    {
      "inputs": [
        {
          "internalType": "string",
          "name": "ticker_",
          "type": "string"
        },
        {
          "internalType": "enum DEXGetters.SIDE",
          "name": "_side",
          "type": "uint8"
        },
        {
          "internalType": "uint256",
          "name": "_index",
          "type": "uint256"
        }
      ],
      "name": "getOrderPrice",
      "outputs": [
        {
          "internalType": "uint256",
          "name": "",
          "type": "uint256"
        }
      ],
      "stateMutability": "view",
      "type": "function",
      "constant": true
    },
    {
      "inputs": [
        {
          "internalType": "bytes32",
          "name": "",
          "type": "bytes32"
        },
        {
          "internalType": "enum DEXGetters.SIDE",
          "name": "",
          "type": "uint8"
        },
        {
          "internalType": "uint256",
          "name": "",
          "type": "uint256"
        }
      ],
      "name": "orderBook",
      "outputs": [
        {
          "internalType": "uint256",
          "name": "id",
          "type": "uint256"
        },
        {
          "internalType": "address",
          "name": "trader",
          "type": "address"
        },
        {
          "internalType": "enum DEXGetters.SIDE",
          "name": "side",
          "type": "uint8"
        },
        {
          "internalType": "bytes32",
          "name": "ticker",
          "type": "bytes32"
        },
        {
          "internalType": "uint256",
          "name": "amount",
          "type": "uint256"
        },
        {
          "internalType": "uint256",
          "name": "price",
          "type": "uint256"
        }
      ],
      "stateMutability": "view",
      "type": "function",
      "constant": true
    },
    {
      "inputs": [],
      "name": "orderID",
      "outputs": [
        {
          "internalType": "uint256",
          "name": "",
          "type": "uint256"
        }
      ],
      "stateMutability": "view",
      "type": "function",
      "constant": true
    },
    {
      "inputs": [],
      "name": "owner",
      "outputs": [
        {
          "internalType": "address",
          "name": "",
          "type": "address"
        }
      ],
      "stateMutability": "view",
      "type": "function",
      "constant": true
    },
    {
      "inputs": [],
      "name": "renounceOwnership",
      "outputs": [],
      "stateMutability": "nonpayable",
      "type": "function"
    },
    {
      "inputs": [
        {
          "internalType": "uint256",
          "name": "",
          "type": "uint256"
        }
      ],
      "name": "tokenList",
      "outputs": [
        {
          "internalType": "bytes32",
          "name": "",
          "type": "bytes32"
        }
      ],
      "stateMutability": "view",
      "type": "function",
      "constant": true
    },
    {
      "inputs": [
        {
          "internalType": "bytes32",
          "name": "",
          "type": "bytes32"
        }
      ],
      "name": "tokenMapping",
      "outputs": [
        {
          "internalType": "bytes32",
          "name": "ticker",
          "type": "bytes32"
        },
        {
          "internalType": "address",
          "name": "tokenAddress",
          "type": "address"
        }
      ],
      "stateMutability": "view",
      "type": "function",
      "constant": true
    },
    {
      "inputs": [
        {
          "internalType": "address",
          "name": "newOwner",
          "type": "address"
        }
      ],
      "name": "transferOwnership",
      "outputs": [],
      "stateMutability": "nonpayable",
      "type": "function"
    },
    {
      "inputs": [
        {
          "internalType": "string",
          "name": "ticker_",
          "type": "string"
        },
        {
          "internalType": "uint256",
          "name": "_amount",
          "type": "uint256"
        }
      ],
      "name": "withdraw",
      "outputs": [],
      "stateMutability": "nonpayable",
      "type": "function"
    },
    {
      "inputs": [
        {
          "internalType": "string",
          "name": "ticker_",
          "type": "string"
        },
        {
          "internalType": "enum DEXGetters.SIDE",
          "name": "_side",
          "type": "uint8"
        },
        {
          "internalType": "uint256",
          "name": "_amount",
          "type": "uint256"
        },
        {
          "internalType": "uint256",
          "name": "_price",
          "type": "uint256"
        }
      ],
      "name": "CreateLimitOrder",
      "outputs": [],
      "stateMutability": "nonpayable",
      "type": "function"
    },
    {
      "inputs": [
        {
          "internalType": "string",
          "name": "ticker_",
          "type": "string"
        },
        {
          "internalType": "enum DEXGetters.SIDE",
          "name": "_side",
          "type": "uint8"
        },
        {
          "internalType": "uint256",
          "name": "_amount",
          "type": "uint256"
        }
      ],
      "name": "CreateMarketOrder",
      "outputs": [],
      "stateMutability": "nonpayable",
      "type": "function"
    },
    {
      "inputs": [
        {
          "internalType": "string",
          "name": "ticker_",
          "type": "string"
        },
        {
          "internalType": "enum DEXGetters.SIDE",
          "name": "_side",
          "type": "uint8"
        },
        {
          "internalType": "uint256",
          "name": "_ID",
          "type": "uint256"
        }
      ],
      "name": "RemoveOrder",
      "outputs": [],
      "stateMutability": "nonpayable",
      "type": "function"
    }
  ],
  "bytecode": "0x608060405260006001556040518060400160405280600f81526020017f4f72646572626f6f6b20656d707479000000000000000000000000000000000081525060059080519060200190620000569291906200014d565b5060405160200162000068906200023f565b604051602081830303815290604052805190602001206009553480156200008e57600080fd5b506000620000a16200014560201b60201c565b9050806000806101000a81548173ffffffffffffffffffffffffffffffffffffffff021916908373ffffffffffffffffffffffffffffffffffffffff1602179055508073ffffffffffffffffffffffffffffffffffffffff16600073ffffffffffffffffffffffffffffffffffffffff167f8be0079c531659141344cd1fd0a4f28419497f9722a3daafe3b4186f6b6457e060405160405180910390a350620002c6565b600033905090565b8280546200015b9062000261565b90600052602060002090601f0160209004810192826200017f5760008555620001cb565b82601f106200019a57805160ff1916838001178555620001cb565b82800160010185558215620001cb579182015b82811115620001ca578251825591602001919060010190620001ad565b5b509050620001da9190620001de565b5090565b5b80821115620001f9576000816000905550600101620001df565b5090565b60006200020c60038362000256565b91507f45544800000000000000000000000000000000000000000000000000000000006000830152600382019050919050565b60006200024c82620001fd565b9150819050919050565b600081905092915050565b600060028204905060018216806200027a57607f821691505b6020821081141562000291576200029062000297565b5b50919050565b7f4e487b7100000000000000000000000000000000000000000000000000000000600052602260045260246000fd5b615e7080620002d66000396000f3fe6080604052600436106101815760003560e01c80638804e342116100d15780639ead72221161008a578063d442102111610064578063d44210211461060a578063e1d7cad814610633578063f2fde38b14610670578063f6326fb31461069957610181565b80639ead72221461057b578063b0b22c2c146105b8578063c2284172146105e157610181565b80638804e3421461042e5780638c29bec01461046b5780638d562bde146104ad5780638da5cb5b146104ea5780638e27d719146105155780639a8f74281461053e57610181565b8063530e2c0e1161013e578063715018a611610118578063715018a61461038457806381203d031461039b5780638322fff2146103c657806383cbd7ea146103f157610181565b8063530e2c0e146102e0578063593ed5f314610309578063667cb4ba1461034657610181565b8063079e38e0146101865780631f14df69146101c35780632e42c7dd1461020057806330b39a621461023d5780633a51d246146102665780633fb6db0b146102a3575b600080fd5b34801561019257600080fd5b506101ad60048036038101906101a891906150f1565b6106a3565b6040516101ba919061596a565b60405180910390f35b3480156101cf57600080fd5b506101ea60048036038101906101e59190614f2b565b6109d3565b6040516101f7919061596a565b60405180910390f35b34801561020c57600080fd5b506102276004803603810190610222919061509d565b6109f8565b604051610234919061596a565b60405180910390f35b34801561024957600080fd5b50610264600480360381019061025f91906151d3565b610c87565b005b34801561027257600080fd5b5061028d60048036038101906102889190615008565b610fc3565b60405161029a919061596a565b60405180910390f35b3480156102af57600080fd5b506102ca60048036038101906102c591906150f1565b61102a565b6040516102d7919061596a565b60405180910390f35b3480156102ec57600080fd5b50610307600480360381019061030291906150f1565b611154565b005b34801561031557600080fd5b50610330600480360381019061032b919061509d565b611555565b60405161033d91906157a2565b60405180910390f35b34801561035257600080fd5b5061036d60048036038101906103689190614f90565b61183b565b60405161037b9291906157df565b60405180910390f35b34801561039057600080fd5b5061039961187f565b005b3480156103a757600080fd5b506103b06119b9565b6040516103bd919061596a565b60405180910390f35b3480156103d257600080fd5b506103db6119bf565b6040516103e891906157c4565b60405180910390f35b3480156103fd57600080fd5b5061041860048036038101906104139190615008565b6119c5565b60405161042591906157c4565b60405180910390f35b34801561043a57600080fd5b50610455600480360381019061045091906150f1565b6119f5565b604051610462919061596a565b60405180910390f35b34801561047757600080fd5b50610492600480360381019061048d9190614fb9565b611c46565b6040516104a496959493929190615985565b60405180910390f35b3480156104b957600080fd5b506104d460048036038101906104cf91906151d3565b611cd9565b6040516104e1919061596a565b60405180910390f35b3480156104f657600080fd5b506104ff6120c9565b60405161050c9190615727565b60405180910390f35b34801561052157600080fd5b5061053c600480360381019061053791906151d3565b6120f2565b005b34801561054a57600080fd5b506105656004803603810190610560919061509d565b612341565b604051610572919061596a565b60405180910390f35b34801561058757600080fd5b506105a2600480360381019061059d9190615227565b6123f0565b6040516105af91906157c4565b60405180910390f35b3480156105c457600080fd5b506105df60048036038101906105da9190615049565b612414565b005b3480156105ed57600080fd5b50610608600480360381019061060391906150f1565b61255d565b005b34801561061657600080fd5b50610631600480360381019061062c9190615158565b612831565b005b34801561063f57600080fd5b5061065a600480360381019061065591906150f1565b612a83565b604051610667919061596a565b60405180910390f35b34801561067c57600080fd5b5061069760048036038101906106929190614f02565b612db3565b005b6106a1612f5c565b005b6000806106af856119c5565b90506000600460008381526020019081526020016000206000866001811115610701577f4e487b7100000000000000000000000000000000000000000000000000000000600052602160045260246000fd5b6001811115610739577f4e487b7100000000000000000000000000000000000000000000000000000000600052602160045260246000fd5b8152602001908152602001600020805490501160059061078f576040517f08c379a00000000000000000000000000000000000000000000000000000000081526004016107869190615808565b60405180910390fd5b5060006004600083815260200190815260200160002060008660018111156107e0577f4e487b7100000000000000000000000000000000000000000000000000000000600052602160045260246000fd5b6001811115610818577f4e487b7100000000000000000000000000000000000000000000000000000000600052602160045260246000fd5b8152602001908152602001600020805480602002602001604051908101604052809291908181526020016000905b8282101561097d57838290600052602060002090600502016040518060c0016040529081600082015481526020016001820160009054906101000a900473ffffffffffffffffffffffffffffffffffffffff1673ffffffffffffffffffffffffffffffffffffffff1673ffffffffffffffffffffffffffffffffffffffff1681526020016001820160149054906101000a900460ff166001811115610914577f4e487b7100000000000000000000000000000000000000000000000000000000600052602160045260246000fd5b600181111561094c577f4e487b7100000000000000000000000000000000000000000000000000000000600052602160045260246000fd5b8152602001600282015481526020016003820154815260200160048201548152505081526020019060010190610846565b5050505090508084815181106109bc577f4e487b7100000000000000000000000000000000000000000000000000000000600052603260045260246000fd5b602002602001015160800151925050509392505050565b6007602052816000526040600020602052806000526040600020600091509150505481565b600080610a04846119c5565b90506000600460008381526020019081526020016000206000856001811115610a56577f4e487b7100000000000000000000000000000000000000000000000000000000600052602160045260246000fd5b6001811115610a8e577f4e487b7100000000000000000000000000000000000000000000000000000000600052602160045260246000fd5b8152602001908152602001600020805480602002602001604051908101604052809291908181526020016000905b82821015610bf357838290600052602060002090600502016040518060c0016040529081600082015481526020016001820160009054906101000a900473ffffffffffffffffffffffffffffffffffffffff1673ffffffffffffffffffffffffffffffffffffffff1673ffffffffffffffffffffffffffffffffffffffff1681526020016001820160149054906101000a900460ff166001811115610b8a577f4e487b7100000000000000000000000000000000000000000000000000000000600052602160045260246000fd5b6001811115610bc2577f4e487b7100000000000000000000000000000000000000000000000000000000600052602160045260246000fd5b8152602001600282015481526020016003820154815260200160048201548152505081526020019060010190610abc565b50505050905060009250600080600090505b8251811015610c7d57828181518110610c47577f4e487b7100000000000000000000000000000000000000000000000000000000600052603260045260246000fd5b6020026020010151608001519150610c68828661306290919063ffffffff16565b94508080610c7590615cb5565b915050610c05565b5050505092915050565b816000610c93826119c5565b90506009548114610d4557600073ffffffffffffffffffffffffffffffffffffffff166006600083815260200190815260200160002060010160009054906101000a900473ffffffffffffffffffffffffffffffffffffffff1673ffffffffffffffffffffffffffffffffffffffff161415610d44576040517f08c379a0000000000000000000000000000000000000000000000000000000008152600401610d3b9061586a565b60405180910390fd5b5b6000610d50856119c5565b905083600760003373ffffffffffffffffffffffffffffffffffffffff1673ffffffffffffffffffffffffffffffffffffffff1681526020019081526020016000206000838152602001908152602001600020541015610de5576040517f08c379a0000000000000000000000000000000000000000000000000000000008152600401610ddc906158ca565b60405180910390fd5b610e4884600760003373ffffffffffffffffffffffffffffffffffffffff1673ffffffffffffffffffffffffffffffffffffffff16815260200190815260200160002060008481526020019081526020016000205461307890919063ffffffff16565b600760003373ffffffffffffffffffffffffffffffffffffffff1673ffffffffffffffffffffffffffffffffffffffff1681526020019081526020016000206000838152602001908152602001600020819055506009548114610f6a576006600082815260200190815260200160002060010160009054906101000a900473ffffffffffffffffffffffffffffffffffffffff1673ffffffffffffffffffffffffffffffffffffffff1663a9059cbb33866040518363ffffffff1660e01b8152600401610f16929190615779565b602060405180830381600087803b158015610f3057600080fd5b505af1158015610f44573d6000803e3d6000fd5b505050506040513d601f19601f82011682018060405250810190610f689190614f67565b505b600954811415610fbc573373ffffffffffffffffffffffffffffffffffffffff166108fc859081150290604051600060405180830381858888f19350505050158015610fba573d6000803e3d6000fd5b505b5050505050565b600080610fcf836119c5565b9050600760003373ffffffffffffffffffffffffffffffffffffffff1673ffffffffffffffffffffffffffffffffffffffff168152602001908152602001600020600082815260200190815260200160002054915050919050565b600080611036856119c5565b90506000600460008381526020019081526020016000206000866001811115611088577f4e487b7100000000000000000000000000000000000000000000000000000000600052602160045260246000fd5b60018111156110c0577f4e487b7100000000000000000000000000000000000000000000000000000000600052602160045260246000fd5b81526020019081526020016000208054905011600590611116576040517f08c379a000000000000000000000000000000000000000000000000000000000815260040161110d9190615808565b60405180910390fd5b506000611124868686612a83565b905060006111338787876106a3565b9050611148818361308e90919063ffffffff16565b93505050509392505050565b600061115f846119c5565b9050600060018081111561119c577f4e487b7100000000000000000000000000000000000000000000000000000000600052602160045260246000fd5b8460018111156111d5577f4e487b7100000000000000000000000000000000000000000000000000000000600052602160045260246000fd5b141561134d5782600760003373ffffffffffffffffffffffffffffffffffffffff1673ffffffffffffffffffffffffffffffffffffffff168152602001908152602001600020600084815260200190815260200160002054101561126e576040517f08c379a00000000000000000000000000000000000000000000000000000000081526004016112659061592a565b60405180910390fd5b60006004600084815260200190815260200160002060008060018111156112be577f4e487b7100000000000000000000000000000000000000000000000000000000600052602160045260246000fd5b60018111156112f6577f4e487b7100000000000000000000000000000000000000000000000000000000600052602160045260246000fd5b81526020019081526020016000208054905011611348576040517f08c379a000000000000000000000000000000000000000000000000000000000815260040161133f9061588a565b60405180910390fd5b600090505b60006001811115611387577f4e487b7100000000000000000000000000000000000000000000000000000000600052602160045260246000fd5b8460018111156113c0577f4e487b7100000000000000000000000000000000000000000000000000000000600052602160045260246000fd5b1415611543576113d08584611cd9565b600760003373ffffffffffffffffffffffffffffffffffffffff1673ffffffffffffffffffffffffffffffffffffffff16815260200190815260200160002060006009548152602001908152602001600020541015611464576040517f08c379a000000000000000000000000000000000000000000000000000000000815260040161145b9061582a565b60405180910390fd5b60006004600084815260200190815260200160002060006001808111156114b4577f4e487b7100000000000000000000000000000000000000000000000000000000600052602160045260246000fd5b60018111156114ec577f4e487b7100000000000000000000000000000000000000000000000000000000600052602160045260246000fd5b8152602001908152602001600020805490501161153e576040517f08c379a00000000000000000000000000000000000000000000000000000000081526004016115359061588a565b60405180910390fd5b600190505b61154e8282856130a4565b5050505050565b60606000611562846119c5565b905060006004600083815260200190815260200160002060008560018111156115b4577f4e487b7100000000000000000000000000000000000000000000000000000000600052602160045260246000fd5b60018111156115ec577f4e487b7100000000000000000000000000000000000000000000000000000000600052602160045260246000fd5b81526020019081526020016000208054905011600590611642576040517f08c379a00000000000000000000000000000000000000000000000000000000081526004016116399190615808565b60405180910390fd5b50600460008281526020019081526020016000206000846001811115611691577f4e487b7100000000000000000000000000000000000000000000000000000000600052602160045260246000fd5b60018111156116c9577f4e487b7100000000000000000000000000000000000000000000000000000000600052602160045260246000fd5b8152602001908152602001600020805480602002602001604051908101604052809291908181526020016000905b8282101561182e57838290600052602060002090600502016040518060c0016040529081600082015481526020016001820160009054906101000a900473ffffffffffffffffffffffffffffffffffffffff1673ffffffffffffffffffffffffffffffffffffffff1673ffffffffffffffffffffffffffffffffffffffff1681526020016001820160149054906101000a900460ff1660018111156117c5577f4e487b7100000000000000000000000000000000000000000000000000000000600052602160045260246000fd5b60018111156117fd577f4e487b7100000000000000000000000000000000000000000000000000000000600052602160045260246000fd5b81526020016002820154815260200160038201548152602001600482015481525050815260200190600101906116f7565b5050505091505092915050565b60066020528060005260406000206000915090508060000154908060010160009054906101000a900473ffffffffffffffffffffffffffffffffffffffff16905082565b6118876135cd565b73ffffffffffffffffffffffffffffffffffffffff166118a56120c9565b73ffffffffffffffffffffffffffffffffffffffff16146118fb576040517f08c379a00000000000000000000000000000000000000000000000000000000081526004016118f29061590a565b60405180910390fd5b600073ffffffffffffffffffffffffffffffffffffffff1660008054906101000a900473ffffffffffffffffffffffffffffffffffffffff1673ffffffffffffffffffffffffffffffffffffffff167f8be0079c531659141344cd1fd0a4f28419497f9722a3daafe3b4186f6b6457e060405160405180910390a360008060006101000a81548173ffffffffffffffffffffffffffffffffffffffff021916908373ffffffffffffffffffffffffffffffffffffffff160217905550565b60015481565b60095481565b6000816040516020016119d89190615710565b604051602081830303815290604052805190602001209050919050565b600080611a01856119c5565b90506000600460008381526020019081526020016000206000866001811115611a53577f4e487b7100000000000000000000000000000000000000000000000000000000600052602160045260246000fd5b6001811115611a8b577f4e487b7100000000000000000000000000000000000000000000000000000000600052602160045260246000fd5b8152602001908152602001600020805480602002602001604051908101604052809291908181526020016000905b82821015611bf057838290600052602060002090600502016040518060c0016040529081600082015481526020016001820160009054906101000a900473ffffffffffffffffffffffffffffffffffffffff1673ffffffffffffffffffffffffffffffffffffffff1673ffffffffffffffffffffffffffffffffffffffff1681526020016001820160149054906101000a900460ff166001811115611b87577f4e487b7100000000000000000000000000000000000000000000000000000000600052602160045260246000fd5b6001811115611bbf577f4e487b7100000000000000000000000000000000000000000000000000000000600052602160045260246000fd5b8152602001600282015481526020016003820154815260200160048201548152505081526020019060010190611ab9565b505050509050808481518110611c2f577f4e487b7100000000000000000000000000000000000000000000000000000000600052603260045260246000fd5b602002602001015160000151925050509392505050565b60046020528260005260406000206020528160005260406000208181548110611c6e57600080fd5b906000526020600020906005020160009250925050508060000154908060010160009054906101000a900473ffffffffffffffffffffffffffffffffffffffff16908060010160149054906101000a900460ff16908060020154908060030154908060040154905086565b600080611ce5846119c5565b90506000600460008381526020019081526020016000206000600180811115611d37577f4e487b7100000000000000000000000000000000000000000000000000000000600052602160045260246000fd5b6001811115611d6f577f4e487b7100000000000000000000000000000000000000000000000000000000600052602160045260246000fd5b8152602001908152602001600020805480602002602001604051908101604052809291908181526020016000905b82821015611ed457838290600052602060002090600502016040518060c0016040529081600082015481526020016001820160009054906101000a900473ffffffffffffffffffffffffffffffffffffffff1673ffffffffffffffffffffffffffffffffffffffff1673ffffffffffffffffffffffffffffffffffffffff1681526020016001820160149054906101000a900460ff166001811115611e6b577f4e487b7100000000000000000000000000000000000000000000000000000000600052602160045260246000fd5b6001811115611ea3577f4e487b7100000000000000000000000000000000000000000000000000000000600052602160045260246000fd5b8152602001600282015481526020016003820154815260200160048201548152505081526020019060010190611d9d565b50505050905060009250600081511415611eef5750506120c3565b600085905060005b600086106120be57828181518110611f38577f4e487b7100000000000000000000000000000000000000000000000000000000600052603260045260246000fd5b6020026020010151608001518610611fca576000611f588360018461102a565b9050611f6d818761306290919063ffffffff16565b9550611fc6848381518110611fab577f4e487b7100000000000000000000000000000000000000000000000000000000600052603260045260246000fd5b6020026020010151608001518861307890919063ffffffff16565b9650505b828181518110612003577f4e487b7100000000000000000000000000000000000000000000000000000000600052603260045260246000fd5b6020026020010151608001518610801561201d5750600086115b1561209157600083828151811061205d577f4e487b7100000000000000000000000000000000000000000000000000000000600052603260045260246000fd5b602002602001015160a00151876120749190615b12565b9050612089818761306290919063ffffffff16565b9550506120be565b6001835161209f9190615b6c565b8114156120ab576120be565b80806120b690615cb5565b915050611ef7565b505050505b92915050565b60008060009054906101000a900473ffffffffffffffffffffffffffffffffffffffff16905090565b8160006120fe826119c5565b905060095481146121b057600073ffffffffffffffffffffffffffffffffffffffff166006600083815260200190815260200160002060010160009054906101000a900473ffffffffffffffffffffffffffffffffffffffff1673ffffffffffffffffffffffffffffffffffffffff1614156121af576040517f08c379a00000000000000000000000000000000000000000000000000000000081526004016121a69061586a565b60405180910390fd5b5b60006121bb856119c5565b905061222084600760003373ffffffffffffffffffffffffffffffffffffffff1673ffffffffffffffffffffffffffffffffffffffff16815260200190815260200160002060008481526020019081526020016000205461306290919063ffffffff16565b600760003373ffffffffffffffffffffffffffffffffffffffff1673ffffffffffffffffffffffffffffffffffffffff1681526020019081526020016000206000838152602001908152602001600020819055506006600082815260200190815260200160002060010160009054906101000a900473ffffffffffffffffffffffffffffffffffffffff1673ffffffffffffffffffffffffffffffffffffffff166323b872dd3330876040518463ffffffff1660e01b81526004016122e793929190615742565b602060405180830381600087803b15801561230157600080fd5b505af1158015612315573d6000803e3d6000fd5b505050506040513d601f19601f820116820180604052508101906123399190614f67565b505050505050565b60008061234d846119c5565b905060046000828152602001908152602001600020600084600181111561239d577f4e487b7100000000000000000000000000000000000000000000000000000000600052602160045260246000fd5b60018111156123d5577f4e487b7100000000000000000000000000000000000000000000000000000000600052602160045260246000fd5b81526020019081526020016000208054905091505092915050565b6008818154811061240057600080fd5b906000526020600020016000915090505481565b61241c6135cd565b73ffffffffffffffffffffffffffffffffffffffff1661243a6120c9565b73ffffffffffffffffffffffffffffffffffffffff1614612490576040517f08c379a00000000000000000000000000000000000000000000000000000000081526004016124879061590a565b60405180910390fd5b600061249b836119c5565b905060405180604001604052808281526020018373ffffffffffffffffffffffffffffffffffffffff16815250600660008381526020019081526020016000206000820151816000015560208201518160010160006101000a81548173ffffffffffffffffffffffffffffffffffffffff021916908373ffffffffffffffffffffffffffffffffffffffff1602179055509050506008819080600181540180825580915050600190039060005260206000200160009091909190915055505050565b6000612568846119c5565b905060006004600083815260200190815260200160002060008560018111156125ba577f4e487b7100000000000000000000000000000000000000000000000000000000600052602160045260246000fd5b60018111156125f2577f4e487b7100000000000000000000000000000000000000000000000000000000600052602160045260246000fd5b8152602001908152602001600020805480602002602001604051908101604052809291908181526020016000905b8282101561275757838290600052602060002090600502016040518060c0016040529081600082015481526020016001820160009054906101000a900473ffffffffffffffffffffffffffffffffffffffff1673ffffffffffffffffffffffffffffffffffffffff1673ffffffffffffffffffffffffffffffffffffffff1681526020016001820160149054906101000a900460ff1660018111156126ee577f4e487b7100000000000000000000000000000000000000000000000000000000600052602160045260246000fd5b6001811115612726577f4e487b7100000000000000000000000000000000000000000000000000000000600052602160045260246000fd5b8152602001600282015481526020016003820154815260200160048201548152505081526020019060010190612620565b505050509050600061276a8484876135d5565b90503373ffffffffffffffffffffffffffffffffffffffff168282815181106127bc577f4e487b7100000000000000000000000000000000000000000000000000000000600052603260045260246000fd5b60200260200101516020015173ffffffffffffffffffffffffffffffffffffffff161461281e576040517f08c379a0000000000000000000000000000000000000000000000000000000008152600401612815906158ea565b60405180910390fd5b612829838683613845565b505050505050565b600061283c856119c5565b9050600180811115612877577f4e487b7100000000000000000000000000000000000000000000000000000000600052602160045260246000fd5b8460018111156128b0577f4e487b7100000000000000000000000000000000000000000000000000000000600052602160045260246000fd5b141561294e5782600760003373ffffffffffffffffffffffffffffffffffffffff1673ffffffffffffffffffffffffffffffffffffffff1681526020019081526020016000206000838152602001908152602001600020541015612949576040517f08c379a00000000000000000000000000000000000000000000000000000000081526004016129409061594a565b60405180910390fd5b612a70565b60006001811115612988577f4e487b7100000000000000000000000000000000000000000000000000000000600052602160045260246000fd5b8460018111156129c1577f4e487b7100000000000000000000000000000000000000000000000000000000600052602160045260246000fd5b1415612a6f576129da828461308e90919063ffffffff16565b600760003373ffffffffffffffffffffffffffffffffffffffff1673ffffffffffffffffffffffffffffffffffffffff16815260200190815260200160002060006009548152602001908152602001600020541015612a6e576040517f08c379a0000000000000000000000000000000000000000000000000000000008152600401612a659061582a565b60405180910390fd5b5b5b612a7c81858585613d21565b5050505050565b600080612a8f856119c5565b90506000600460008381526020019081526020016000206000866001811115612ae1577f4e487b7100000000000000000000000000000000000000000000000000000000600052602160045260246000fd5b6001811115612b19577f4e487b7100000000000000000000000000000000000000000000000000000000600052602160045260246000fd5b81526020019081526020016000208054905011600590612b6f576040517f08c379a0000000000000000000000000000000000000000000000000000000008152600401612b669190615808565b60405180910390fd5b506000600460008381526020019081526020016000206000866001811115612bc0577f4e487b7100000000000000000000000000000000000000000000000000000000600052602160045260246000fd5b6001811115612bf8577f4e487b7100000000000000000000000000000000000000000000000000000000600052602160045260246000fd5b8152602001908152602001600020805480602002602001604051908101604052809291908181526020016000905b82821015612d5d57838290600052602060002090600502016040518060c0016040529081600082015481526020016001820160009054906101000a900473ffffffffffffffffffffffffffffffffffffffff1673ffffffffffffffffffffffffffffffffffffffff1673ffffffffffffffffffffffffffffffffffffffff1681526020016001820160149054906101000a900460ff166001811115612cf4577f4e487b7100000000000000000000000000000000000000000000000000000000600052602160045260246000fd5b6001811115612d2c577f4e487b7100000000000000000000000000000000000000000000000000000000600052602160045260246000fd5b8152602001600282015481526020016003820154815260200160048201548152505081526020019060010190612c26565b505050509050808481518110612d9c577f4e487b7100000000000000000000000000000000000000000000000000000000600052603260045260246000fd5b602002602001015160a00151925050509392505050565b612dbb6135cd565b73ffffffffffffffffffffffffffffffffffffffff16612dd96120c9565b73ffffffffffffffffffffffffffffffffffffffff1614612e2f576040517f08c379a0000000000000000000000000000000000000000000000000000000008152600401612e269061590a565b60405180910390fd5b600073ffffffffffffffffffffffffffffffffffffffff168173ffffffffffffffffffffffffffffffffffffffff161415612e9f576040517f08c379a0000000000000000000000000000000000000000000000000000000008152600401612e969061584a565b60405180910390fd5b8073ffffffffffffffffffffffffffffffffffffffff1660008054906101000a900473ffffffffffffffffffffffffffffffffffffffff1673ffffffffffffffffffffffffffffffffffffffff167f8be0079c531659141344cd1fd0a4f28419497f9722a3daafe3b4186f6b6457e060405160405180910390a3806000806101000a81548173ffffffffffffffffffffffffffffffffffffffff021916908373ffffffffffffffffffffffffffffffffffffffff16021790555050565b60003411612f9f576040517f08c379a0000000000000000000000000000000000000000000000000000000008152600401612f96906158aa565b60405180910390fd5b600034905061300981600760003373ffffffffffffffffffffffffffffffffffffffff1673ffffffffffffffffffffffffffffffffffffffff168152602001908152602001600020600060095481526020019081526020016000205461306290919063ffffffff16565b600760003373ffffffffffffffffffffffffffffffffffffffff1673ffffffffffffffffffffffffffffffffffffffff168152602001908152602001600020600060095481526020019081526020016000208190555050565b600081836130709190615abc565b905092915050565b600081836130869190615b6c565b905092915050565b6000818361309c9190615b12565b905092915050565b60008190506000806000806004600089815260200190815260200160002060008860018111156130fd577f4e487b7100000000000000000000000000000000000000000000000000000000600052602160045260246000fd5b6001811115613135577f4e487b7100000000000000000000000000000000000000000000000000000000600052602160045260246000fd5b815260200190815260200160002090506000600181111561317f577f4e487b7100000000000000000000000000000000000000000000000000000000600052602160045260246000fd5b8760018111156131b8577f4e487b7100000000000000000000000000000000000000000000000000000000600052602160045260246000fd5b1415613233573393508082815481106131fa577f4e487b7100000000000000000000000000000000000000000000000000000000600052603260045260246000fd5b906000526020600020906005020160010160009054906101000a900473ffffffffffffffffffffffffffffffffffffffff1692506132a4565b80828154811061326c577f4e487b7100000000000000000000000000000000000000000000000000000000600052603260045260246000fd5b906000526020600020906005020160010160009054906101000a900473ffffffffffffffffffffffffffffffffffffffff1693503392505b600091505b8080549050821080156132bc5750600085115b156135285760008183815481106132fc577f4e487b7100000000000000000000000000000000000000000000000000000000600052603260045260246000fd5b9060005260206000209060050201600301549050808610801561331f5750600086115b1561340457600082848154811061335f577f4e487b7100000000000000000000000000000000000000000000000000000000600052603260045260246000fd5b90600052602060002090600502016004015490506000613388828961308e90919063ffffffff16565b90506133978b8888848c613f7b565b6133aa888461307890919063ffffffff16565b8486815481106133e3577f4e487b7100000000000000000000000000000000000000000000000000000000600052603260045260246000fd5b90600052602060002090600502016003018190555060009750505050613528565b8086101580156134145750600081115b15613514576000828481548110613454577f4e487b7100000000000000000000000000000000000000000000000000000000600052603260045260246000fd5b9060005260206000209060050201600401549050600061347d828461308e90919063ffffffff16565b905061348c8b88888487613f7b565b61349f838961307890919063ffffffff16565b975060008486815481106134dc577f4e487b7100000000000000000000000000000000000000000000000000000000600052603260045260246000fd5b906000526020600020906005020160030181905550600184805490506135029190615b6c565b85141561351157505050613528565b50505b50818061352090615cb5565b9250506132a9565b808054905091505b60008211156135c3576000816001846135499190615b6c565b81548110613580577f4e487b7100000000000000000000000000000000000000000000000000000000600052603260045260246000fd5b90600052602060002090600502016003015414156135b0576135af88886001856135aa9190615b6c565b613845565b5b81806135bb90615c59565b925050613530565b5050505050505050565b600033905090565b600080600460008581526020019081526020016000206000846001811115613626577f4e487b7100000000000000000000000000000000000000000000000000000000600052602160045260246000fd5b600181111561365e577f4e487b7100000000000000000000000000000000000000000000000000000000600052602160045260246000fd5b8152602001908152602001600020805480602002602001604051908101604052809291908181526020016000905b828210156137c357838290600052602060002090600502016040518060c0016040529081600082015481526020016001820160009054906101000a900473ffffffffffffffffffffffffffffffffffffffff1673ffffffffffffffffffffffffffffffffffffffff1673ffffffffffffffffffffffffffffffffffffffff1681526020016001820160149054906101000a900460ff16600181111561375a577f4e487b7100000000000000000000000000000000000000000000000000000000600052602160045260246000fd5b6001811115613792577f4e487b7100000000000000000000000000000000000000000000000000000000600052602160045260246000fd5b815260200160028201548152602001600382015481526020016004820154815250508152602001906001019061368c565b505050509050600091505b805182101561383c5784818381518110613811577f4e487b7100000000000000000000000000000000000000000000000000000000600052603260045260246000fd5b6020026020010151600001511415613829575061383e565b818061383490615cb5565b9250506137ce565b505b9392505050565b6000600460008581526020019081526020016000206000846001811115613895577f4e487b7100000000000000000000000000000000000000000000000000000000600052602160045260246000fd5b60018111156138cd577f4e487b7100000000000000000000000000000000000000000000000000000000600052602160045260246000fd5b81526020019081526020016000209050600181805490506138ee9190615b6c565b821015613c5657600081600183805490506139099190615b6c565b81548110613940577f4e487b7100000000000000000000000000000000000000000000000000000000600052603260045260246000fd5b90600052602060002090600502016040518060c0016040529081600082015481526020016001820160009054906101000a900473ffffffffffffffffffffffffffffffffffffffff1673ffffffffffffffffffffffffffffffffffffffff1673ffffffffffffffffffffffffffffffffffffffff1681526020016001820160149054906101000a900460ff166001811115613a04577f4e487b7100000000000000000000000000000000000000000000000000000000600052602160045260246000fd5b6001811115613a3c577f4e487b7100000000000000000000000000000000000000000000000000000000600052602160045260246000fd5b81526020016002820154815260200160038201548152602001600482015481525050905080828481548110613a9a577f4e487b7100000000000000000000000000000000000000000000000000000000600052603260045260246000fd5b90600052602060002090600502016000820151816000015560208201518160010160006101000a81548173ffffffffffffffffffffffffffffffffffffffff021916908373ffffffffffffffffffffffffffffffffffffffff16021790555060408201518160010160146101000a81548160ff02191690836001811115613b4a577f4e487b7100000000000000000000000000000000000000000000000000000000600052602160045260246000fd5b0217905550606082015181600201556080820151816003015560a0820151816004015590505081805480613ba7577f4e487b7100000000000000000000000000000000000000000000000000000000600052603160045260246000fd5b60019003818190600052602060002090600502016000808201600090556001820160006101000a81549073ffffffffffffffffffffffffffffffffffffffff02191690556001820160146101000a81549060ff0219169055600282016000905560038201600090556004820160009055505090556001600260006101000a81548160ff021916908315150217905550613c508585600260009054906101000a900460ff16614266565b50613d1b565b60018180549050613c679190615b6c565b821415613d1a5780805480613ca5577f4e487b7100000000000000000000000000000000000000000000000000000000600052603160045260246000fd5b60019003818190600052602060002090600502016000808201600090556001820160006101000a81549073ffffffffffffffffffffffffffffffffffffffff02191690556001820160146101000a81549060ff0219169055600282016000905560038201600090556004820160009055505090555b5b50505050565b60006040518060c0016040528060015481526020013373ffffffffffffffffffffffffffffffffffffffff168152602001856001811115613d8b577f4e487b7100000000000000000000000000000000000000000000000000000000600052602160045260246000fd5b8152602001868152602001848152602001838152509050600460008681526020019081526020016000206000856001811115613df0577f4e487b7100000000000000000000000000000000000000000000000000000000600052602160045260246000fd5b6001811115613e28577f4e487b7100000000000000000000000000000000000000000000000000000000600052602160045260246000fd5b81526020019081526020016000208190806001815401808255809150506001900390600052602060002090600502016000909190919091506000820151816000015560208201518160010160006101000a81548173ffffffffffffffffffffffffffffffffffffffff021916908373ffffffffffffffffffffffffffffffffffffffff16021790555060408201518160010160146101000a81548160ff02191690836001811115613f02577f4e487b7100000000000000000000000000000000000000000000000000000000600052602160045260246000fd5b0217905550606082015181600201556080820151816003015560a08201518160040155505060016000815480929190613f3a90615cb5565b91905055506000600260006101000a81548160ff021916908315150217905550613f748585600260009054906101000a900460ff16614266565b5050505050565b613fe082600760008773ffffffffffffffffffffffffffffffffffffffff1673ffffffffffffffffffffffffffffffffffffffff168152602001908152602001600020600060095481526020019081526020016000205461306290919063ffffffff16565b600760008673ffffffffffffffffffffffffffffffffffffffff1673ffffffffffffffffffffffffffffffffffffffff168152602001908152602001600020600060095481526020019081526020016000208190555061409981600760008773ffffffffffffffffffffffffffffffffffffffff1673ffffffffffffffffffffffffffffffffffffffff16815260200190815260200160002060008881526020019081526020016000205461307890919063ffffffff16565b600760008673ffffffffffffffffffffffffffffffffffffffff1673ffffffffffffffffffffffffffffffffffffffff16815260200190815260200160002060008781526020019081526020016000208190555061415282600760008673ffffffffffffffffffffffffffffffffffffffff1673ffffffffffffffffffffffffffffffffffffffff168152602001908152602001600020600060095481526020019081526020016000205461307890919063ffffffff16565b600760008573ffffffffffffffffffffffffffffffffffffffff1673ffffffffffffffffffffffffffffffffffffffff168152602001908152602001600020600060095481526020019081526020016000208190555061420b81600760008673ffffffffffffffffffffffffffffffffffffffff1673ffffffffffffffffffffffffffffffffffffffff16815260200190815260200160002060008881526020019081526020016000205461306290919063ffffffff16565b600760008573ffffffffffffffffffffffffffffffffffffffff1673ffffffffffffffffffffffffffffffffffffffff1681526020019081526020016000206000878152602001908152602001600020819055505050505050565b60006004600085815260200190815260200160002060008460018111156142b6577f4e487b7100000000000000000000000000000000000000000000000000000000600052602160045260246000fd5b60018111156142ee577f4e487b7100000000000000000000000000000000000000000000000000000000600052602160045260246000fd5b815260200190815260200160002090506000600182805490506143119190615b6c565b90506001151583151514156145c2576000600181111561435a577f4e487b7100000000000000000000000000000000000000000000000000000000600052602160045260246000fd5b846001811115614393577f4e487b7100000000000000000000000000000000000000000000000000000000600052602160045260246000fd5b141561446f5760005b8181101561446d57826001826143b29190615abc565b815481106143e9577f4e487b7100000000000000000000000000000000000000000000000000000000600052603260045260246000fd5b906000526020600020906005020160040154838281548110614434577f4e487b7100000000000000000000000000000000000000000000000000000000600052603260045260246000fd5b90600052602060002090600502016004015410156144595761445886868387614887565b5b6001816144669190615abc565b905061439c565b505b6001808111156144a8577f4e487b7100000000000000000000000000000000000000000000000000000000600052602160045260246000fd5b8460018111156144e1577f4e487b7100000000000000000000000000000000000000000000000000000000600052602160045260246000fd5b14156145bd5760005b818110156145bb57826001826145009190615abc565b81548110614537577f4e487b7100000000000000000000000000000000000000000000000000000000600052603260045260246000fd5b906000526020600020906005020160040154838281548110614582577f4e487b7100000000000000000000000000000000000000000000000000000000600052603260045260246000fd5b90600052602060002090600502016004015411156145a7576145a686868387614887565b5b6001816145b49190615abc565b90506144ea565b505b614880565b60001515831515141561487f5760006001811115614609577f4e487b7100000000000000000000000000000000000000000000000000000000600052602160045260246000fd5b846001811115614642577f4e487b7100000000000000000000000000000000000000000000000000000000600052602160045260246000fd5b14156147245760008190505b6001811061471e57826001826146649190615b6c565b8154811061469b577f4e487b7100000000000000000000000000000000000000000000000000000000600052603260045260246000fd5b9060005260206000209060050201600401548382815481106146e6577f4e487b7100000000000000000000000000000000000000000000000000000000600052603260045260246000fd5b906000526020600020906005020160040154111561470b5761470a86868387614887565b5b808061471690615c59565b91505061464e565b5061487e565b60018081111561475d577f4e487b7100000000000000000000000000000000000000000000000000000000600052602160045260246000fd5b846001811115614796577f4e487b7100000000000000000000000000000000000000000000000000000000600052602160045260246000fd5b141561487d5760008190505b6001811061487b57826001826147b89190615b6c565b815481106147ef577f4e487b7100000000000000000000000000000000000000000000000000000000600052603260045260246000fd5b90600052602060002090600502016004015483828154811061483a577f4e487b7100000000000000000000000000000000000000000000000000000000600052603260045260246000fd5b90600052602060002090600502016004015410156148635761485e86868387614887565b614868565b61487b565b808061487390615c59565b9150506147a2565b505b5b5b5b5050505050565b600080151582151514156148a9576001836148a29190615b6c565b90506148b9565b6001836148b69190615abc565b90505b6000600460008781526020019081526020016000206000866001811115614909577f4e487b7100000000000000000000000000000000000000000000000000000000600052602160045260246000fd5b6001811115614941577f4e487b7100000000000000000000000000000000000000000000000000000000600052602160045260246000fd5b81526020019081526020016000209050600081858154811061498c577f4e487b7100000000000000000000000000000000000000000000000000000000600052603260045260246000fd5b90600052602060002090600502016040518060c0016040529081600082015481526020016001820160009054906101000a900473ffffffffffffffffffffffffffffffffffffffff1673ffffffffffffffffffffffffffffffffffffffff1673ffffffffffffffffffffffffffffffffffffffff1681526020016001820160149054906101000a900460ff166001811115614a50577f4e487b7100000000000000000000000000000000000000000000000000000000600052602160045260246000fd5b6001811115614a88577f4e487b7100000000000000000000000000000000000000000000000000000000600052602160045260246000fd5b8152602001600282015481526020016003820154815260200160048201548152505090506000828481548110614ae7577f4e487b7100000000000000000000000000000000000000000000000000000000600052603260045260246000fd5b90600052602060002090600502016040518060c0016040529081600082015481526020016001820160009054906101000a900473ffffffffffffffffffffffffffffffffffffffff1673ffffffffffffffffffffffffffffffffffffffff1673ffffffffffffffffffffffffffffffffffffffff1681526020016001820160149054906101000a900460ff166001811115614bab577f4e487b7100000000000000000000000000000000000000000000000000000000600052602160045260246000fd5b6001811115614be3577f4e487b7100000000000000000000000000000000000000000000000000000000600052602160045260246000fd5b81526020016002820154815260200160038201548152602001600482015481525050905081838581548110614c41577f4e487b7100000000000000000000000000000000000000000000000000000000600052603260045260246000fd5b90600052602060002090600502016000820151816000015560208201518160010160006101000a81548173ffffffffffffffffffffffffffffffffffffffff021916908373ffffffffffffffffffffffffffffffffffffffff16021790555060408201518160010160146101000a81548160ff02191690836001811115614cf1577f4e487b7100000000000000000000000000000000000000000000000000000000600052602160045260246000fd5b0217905550606082015181600201556080820151816003015560a0820151816004015590505080838781548110614d51577f4e487b7100000000000000000000000000000000000000000000000000000000600052603260045260246000fd5b90600052602060002090600502016000820151816000015560208201518160010160006101000a81548173ffffffffffffffffffffffffffffffffffffffff021916908373ffffffffffffffffffffffffffffffffffffffff16021790555060408201518160010160146101000a81548160ff02191690836001811115614e01577f4e487b7100000000000000000000000000000000000000000000000000000000600052602160045260246000fd5b0217905550606082015181600201556080820151816003015560a082015181600401559050505050505050505050565b6000614e44614e3f84615a17565b6159e6565b905082815260208101848484011115614e5c57600080fd5b614e67848285615c17565b509392505050565b600081359050614e7e81615dce565b92915050565b600081519050614e9381615de5565b92915050565b600081359050614ea881615dfc565b92915050565b600081359050614ebd81615e13565b92915050565b600082601f830112614ed457600080fd5b8135614ee4848260208601614e31565b91505092915050565b600081359050614efc81615e23565b92915050565b600060208284031215614f1457600080fd5b6000614f2284828501614e6f565b91505092915050565b60008060408385031215614f3e57600080fd5b6000614f4c85828601614e6f565b9250506020614f5d85828601614e99565b9150509250929050565b600060208284031215614f7957600080fd5b6000614f8784828501614e84565b91505092915050565b600060208284031215614fa257600080fd5b6000614fb084828501614e99565b91505092915050565b600080600060608486031215614fce57600080fd5b6000614fdc86828701614e99565b9350506020614fed86828701614eae565b9250506040614ffe86828701614eed565b9150509250925092565b60006020828403121561501a57600080fd5b600082013567ffffffffffffffff81111561503457600080fd5b61504084828501614ec3565b91505092915050565b6000806040838503121561505c57600080fd5b600083013567ffffffffffffffff81111561507657600080fd5b61508285828601614ec3565b925050602061509385828601614e6f565b9150509250929050565b600080604083850312156150b057600080fd5b600083013567ffffffffffffffff8111156150ca57600080fd5b6150d685828601614ec3565b92505060206150e785828601614eae565b9150509250929050565b60008060006060848603121561510657600080fd5b600084013567ffffffffffffffff81111561512057600080fd5b61512c86828701614ec3565b935050602061513d86828701614eae565b925050604061514e86828701614eed565b9150509250925092565b6000806000806080858703121561516e57600080fd5b600085013567ffffffffffffffff81111561518857600080fd5b61519487828801614ec3565b94505060206151a587828801614eae565b93505060406151b687828801614eed565b92505060606151c787828801614eed565b91505092959194509250565b600080604083850312156151e657600080fd5b600083013567ffffffffffffffff81111561520057600080fd5b61520c85828601614ec3565b925050602061521d85828601614eed565b9150509250929050565b60006020828403121561523957600080fd5b600061524784828501614eed565b91505092915050565b600061525c8383615677565b60c08301905092915050565b61527181615ba0565b82525050565b61528081615ba0565b82525050565b600061529182615a6c565b61529b8185615a8f565b93506152a683615a47565b8060005b838110156152d75781516152be8882615250565b97506152c983615a82565b9250506001810190506152aa565b5085935050505092915050565b6152ed81615bbe565b82525050565b6152fc81615bbe565b82525050565b61530b81615c05565b82525050565b61531a81615c05565b82525050565b600061532b82615a77565b6153358185615ab1565b9350615345818560208601615c26565b80840191505092915050565b6000815461535e81615c83565b6153688186615aa0565b945060018216600081146153835760018114615395576153c8565b60ff19831686526020860193506153c8565b61539e85615a57565b60005b838110156153c0578154818901526001820191506020810190506153a1565b808801955050505b50505092915050565b60006153de601083615aa0565b91507f496e73756666696369656e7420455448000000000000000000000000000000006000830152602082019050919050565b600061541e602683615aa0565b91507f4f776e61626c653a206e6577206f776e657220697320746865207a65726f206160008301527f64647265737300000000000000000000000000000000000000000000000000006020830152604082019050919050565b6000615484601283615aa0565b91507f546f6b656e206e6f6e2d6578697374656e7400000000000000000000000000006000830152602082019050919050565b60006154c4600f83615aa0565b91507f4e6f206f726465727320657869737400000000000000000000000000000000006000830152602082019050919050565b6000615504601183615aa0565b91507f4572726f723a2076616c7565203c3d20300000000000000000000000000000006000830152602082019050919050565b6000615544601483615aa0565b91507f496e73756666696369656e742062616c616e63650000000000000000000000006000830152602082019050919050565b6000615584601683615aa0565b91507f4f6e6c79207472616465722063616e2072656d6f7665000000000000000000006000830152602082019050919050565b60006155c4602083615aa0565b91507f4f776e61626c653a2063616c6c6572206973206e6f7420746865206f776e65726000830152602082019050919050565b6000615604601a83615aa0565b91507f496e73756666696369656e7420746f6b656e2062616c616e63650000000000006000830152602082019050919050565b6000615644601383615aa0565b91507f496e73756666696369656e7420746f6b656e73000000000000000000000000006000830152602082019050919050565b60c08201600082015161568d60008501826156f2565b5060208201516156a06020850182615268565b5060408201516156b36040850182615302565b5060608201516156c660608501826152e4565b5060808201516156d960808501826156f2565b5060a08201516156ec60a08501826156f2565b50505050565b6156fb81615bfb565b82525050565b61570a81615bfb565b82525050565b600061571c8284615320565b915081905092915050565b600060208201905061573c6000830184615277565b92915050565b60006060820190506157576000830186615277565b6157646020830185615277565b6157716040830184615701565b949350505050565b600060408201905061578e6000830185615277565b61579b6020830184615701565b9392505050565b600060208201905081810360008301526157bc8184615286565b905092915050565b60006020820190506157d960008301846152f3565b92915050565b60006040820190506157f460008301856152f3565b6158016020830184615277565b9392505050565b600060208201905081810360008301526158228184615351565b905092915050565b60006020820190508181036000830152615843816153d1565b9050919050565b6000602082019050818103600083015261586381615411565b9050919050565b6000602082019050818103600083015261588381615477565b9050919050565b600060208201905081810360008301526158a3816154b7565b9050919050565b600060208201905081810360008301526158c3816154f7565b9050919050565b600060208201905081810360008301526158e381615537565b9050919050565b6000602082019050818103600083015261590381615577565b9050919050565b60006020820190508181036000830152615923816155b7565b9050919050565b60006020820190508181036000830152615943816155f7565b9050919050565b6000602082019050818103600083015261596381615637565b9050919050565b600060208201905061597f6000830184615701565b92915050565b600060c08201905061599a6000830189615701565b6159a76020830188615277565b6159b46040830187615311565b6159c160608301866152f3565b6159ce6080830185615701565b6159db60a0830184615701565b979650505050505050565b6000604051905081810181811067ffffffffffffffff82111715615a0d57615a0c615d8b565b5b8060405250919050565b600067ffffffffffffffff821115615a3257615a31615d8b565b5b601f19601f8301169050602081019050919050565b6000819050602082019050919050565b60008190508160005260206000209050919050565b600081519050919050565b600081519050919050565b6000602082019050919050565b600082825260208201905092915050565b600082825260208201905092915050565b600081905092915050565b6000615ac782615bfb565b9150615ad283615bfb565b9250827fffffffffffffffffffffffffffffffffffffffffffffffffffffffffffffffff03821115615b0757615b06615cfe565b5b828201905092915050565b6000615b1d82615bfb565b9150615b2883615bfb565b9250817fffffffffffffffffffffffffffffffffffffffffffffffffffffffffffffffff0483118215151615615b6157615b60615cfe565b5b828202905092915050565b6000615b7782615bfb565b9150615b8283615bfb565b925082821015615b9557615b94615cfe565b5b828203905092915050565b6000615bab82615bdb565b9050919050565b60008115159050919050565b6000819050919050565b6000819050615bd682615dba565b919050565b600073ffffffffffffffffffffffffffffffffffffffff82169050919050565b6000819050919050565b6000615c1082615bc8565b9050919050565b82818337600083830152505050565b60005b83811015615c44578082015181840152602081019050615c29565b83811115615c53576000848401525b50505050565b6000615c6482615bfb565b91506000821415615c7857615c77615cfe565b5b600182039050919050565b60006002820490506001821680615c9b57607f821691505b60208210811415615caf57615cae615d5c565b5b50919050565b6000615cc082615bfb565b91507fffffffffffffffffffffffffffffffffffffffffffffffffffffffffffffffff821415615cf357615cf2615cfe565b5b600182019050919050565b7f4e487b7100000000000000000000000000000000000000000000000000000000600052601160045260246000fd5b7f4e487b7100000000000000000000000000000000000000000000000000000000600052602160045260246000fd5b7f4e487b7100000000000000000000000000000000000000000000000000000000600052602260045260246000fd5b7f4e487b7100000000000000000000000000000000000000000000000000000000600052604160045260246000fd5b60028110615dcb57615dca615d2d565b5b50565b615dd781615ba0565b8114615de257600080fd5b50565b615dee81615bb2565b8114615df957600080fd5b50565b615e0581615bbe565b8114615e1057600080fd5b50565b60028110615e2057600080fd5b50565b615e2c81615bfb565b8114615e3757600080fd5b5056fea2646970667358221220ec2fe4be0496c691eba2c1a7b5614aadf82dab31a15ce7c38571e737397b9cd064736f6c63430008000033",
  "immutableReferences": {},
  "source": "pragma solidity ^0.8.0;\r\npragma experimental ABIEncoderV2;\r\n\r\nimport \"./DEXWallet.sol\";\r\nimport \"./DEXGetters.sol\";\r\nimport \"./OpenZeppelinDependencies/SafeMath.sol\";\r\n\r\ncontract DEX is DEXWallet {\r\n  using SafeMath for uint256;\r\n\r\n  function CreateLimitOrder(string memory ticker_, SIDE _side, uint _amount, uint _price) external {\r\n    bytes32 _ticker = _keccak256(ticker_);\r\n    if (_side == SIDE.SELL){\r\n      require(balances[msg.sender][_ticker] >= _amount, \"Insufficient tokens\");\r\n    }\r\n    else if (_side == SIDE.BUY){\r\n      require(balances[msg.sender][ETH] >= _amount.mul(_price), \"Insufficient ETH\");\r\n    }\r\n      _newLimitOrder(_ticker, _side, _amount, _price);\r\n  }\r\n\r\n  function _newLimitOrder(bytes32 _ticker, SIDE _side, uint _amount, uint _price) internal {\r\n    Order memory newOrder = Order(orderID, msg.sender, _side, _ticker, _amount, _price);\r\n    orderBook[_ticker][_side].push(newOrder);\r\n    orderID++;\r\n    _orderRemoved = false;\r\n    _sort(_ticker, _side, _orderRemoved);\r\n  }\r\n\r\n  function CreateMarketOrder(string memory ticker_, SIDE _side, uint256 _amount) external {\r\n    bytes32 _ticker = _keccak256(ticker_);\r\n    SIDE limitSide;\r\n    //uint amount = _amount;\r\n\r\n    if (_side == SIDE.SELL){\r\n      require(balances[msg.sender][_ticker] >= _amount, \"Insufficient token balance\");\r\n      require(orderBook[_ticker][SIDE.BUY].length > 0, \"No orders exist\");\r\n      limitSide = SIDE.BUY;\r\n    }\r\n    if (_side == SIDE.BUY){\r\n      require(balances[msg.sender][ETH] >= _marketBuyCost(ticker_, _amount), \"Insufficient ETH\");\r\n      require(orderBook[_ticker][SIDE.SELL].length > 0, \"No orders exist\");\r\n      limitSide = SIDE.SELL;\r\n    }\r\n\r\n    /*uint orderBookAmount = _getOrderbookAmount(ticker_, limitSide);\r\n\r\n    if (_amount > orderBookAmount){\r\n      amount = orderBookAmount;\r\n    }*/\r\n\r\n    _fillOrder(_ticker, limitSide, _amount);\r\n\r\n  }\r\n\r\n  function _fillOrder(bytes32 _ticker, SIDE limitSide, uint _amount) internal {\r\n    uint orderRemaining = _amount;\r\n    address seller;\r\n    address buyer;\r\n    uint i;\r\n\r\n    Order[] storage _order = orderBook[_ticker][limitSide];\r\n\r\n    //Set buyers and sellers;\r\n    if (limitSide == SIDE.BUY){\r\n      seller = msg.sender;\r\n      buyer = _order[i].trader;\r\n    }\r\n    else {\r\n      seller = _order[i].trader;\r\n      buyer = msg.sender;\r\n    }\r\n\r\n    //Fill order loop;\r\n    for (i = 0; i < _order.length && orderRemaining > 0; i++) {\r\n      uint limitAmount = _order[i].amount;\r\n\r\n      //orderRemaining < limitAmount\r\n      if (orderRemaining < limitAmount && orderRemaining > 0) {\r\n        uint limitPrice = _order[i].price;\r\n        uint remainingPrice = orderRemaining.mul(limitPrice);\r\n        _trade(_ticker, seller, buyer, remainingPrice, orderRemaining);\r\n        _order[i].amount = limitAmount.sub(orderRemaining);\r\n        orderRemaining = 0;\r\n        break;\r\n      }\r\n\r\n      //orderRemaining >= limitAmount\r\n      if (orderRemaining >= limitAmount && limitAmount > 0) {\r\n\r\n        uint limitPrice = _order[i].price;\r\n        uint orderPrice = limitAmount.mul(limitPrice);\r\n        _trade(_ticker, seller, buyer, orderPrice, limitAmount);\r\n        orderRemaining = orderRemaining.sub(limitAmount);\r\n        _order[i].amount = 0;\r\n\r\n        //if last order on orderbook, then break;\r\n        if (i == _order.length - 1) {\r\n          //orderRemaining = 0;\r\n          break;\r\n        }\r\n      }\r\n    }\r\n\r\n/*\r\n    for (i = _order.length - 1; i > 0; i--) {\r\n      if (_order[i].amount == 0) {\r\n        _removeOrder(_ticker, limitSide, i);\r\n      }\r\n      if (i == 1) {\r\n        _removeOrder(_ticker, limitSide, 0);\r\n      }\r\n    }\r\n*/\r\n    //Cleanup loop, purges filled limit orders;\r\n    for (i = _order.length; i > 0; i--) {\r\n      if (_order[i - 1].amount == 0) {\r\n        _removeOrder(_ticker, limitSide, i - 1);\r\n        /*if (i == 1) {\r\n            break;\r\n        }*/\r\n      }\r\n    }\r\n  }\r\n\r\n\r\n\r\n  function _trade(bytes32 _ticker, address _seller, address _buyer, uint _price, uint _amount) internal {\r\n    balances[_seller][ETH] = balances[_seller][ETH].add(_price);\r\n    balances[_seller][_ticker] = balances[_seller][_ticker].sub(_amount);\r\n    balances[_buyer][ETH] = balances[_buyer][ETH].sub(_price);\r\n    balances[_buyer][_ticker] = balances[_buyer][_ticker].add(_amount);\r\n  }\r\n\r\n  function RemoveOrder(string memory ticker_, SIDE _side, uint _ID) external {\r\n    bytes32 _ticker = _keccak256(ticker_);\r\n    Order[] memory removedOrder = orderBook[_ticker][_side];\r\n    uint _index = _findOrderIndex(_ID, _ticker, _side);\r\n\r\n    require(removedOrder[_index].trader == msg.sender, \"Only trader can remove\");\r\n    _removeOrder(_ticker, _side, _index);\r\n  }\r\n\r\n  function _removeOrder(bytes32 _ticker, SIDE _side, uint _index) internal {\r\n    Order[] storage _orderBook = orderBook[_ticker][_side];\r\n\r\n    if (_index < _orderBook.length - 1){\r\n      Order memory newEntry = _orderBook[_orderBook.length - 1];\r\n      _orderBook[_index] = newEntry;\r\n      _orderBook.pop();\r\n      _orderRemoved = true;\r\n      _sort(_ticker, _side, _orderRemoved);\r\n    }\r\n\r\n    else if (_index == _orderBook.length - 1) {\r\n      _orderBook.pop();\r\n    }\r\n  }\r\n\r\n  function _sort(bytes32 _ticker, SIDE _side, bool _orderRemoved) internal {\r\n    Order[] storage ORDER = orderBook[_ticker][_side];\r\n    uint ORDERLength = ORDER.length - 1;\r\n\r\n    if (_orderRemoved == true){\r\n      if (_side == SIDE.BUY) {\r\n        for (uint i = 0; i < ORDERLength; i += 1) {\r\n          if (ORDER[i].price < ORDER[i + 1].price) {\r\n            _swapOrders( _ticker, _side, i, _orderRemoved);\r\n          }\r\n        }\r\n      }\r\n      if (_side == SIDE.SELL) {\r\n        for (uint i = 0; i < ORDERLength; i += 1) {\r\n          if (ORDER[i].price > ORDER[i + 1].price) {\r\n            _swapOrders(_ticker, _side, i, _orderRemoved);\r\n          }\r\n        }\r\n      }\r\n    }\r\n\r\n    else if (_orderRemoved == false){\r\n      if (_side == SIDE.BUY) {\r\n        for (uint i = ORDERLength; i >= 1; i--) {\r\n          if (ORDER[i].price > ORDER[i - 1].price) {\r\n            _swapOrders(_ticker, _side, i, _orderRemoved);\r\n          }\r\n        }\r\n      }\r\n      else if (_side == SIDE.SELL) {\r\n        for (uint i = ORDERLength; i >= 1; i--) {\r\n          if (ORDER[i].price < ORDER[i - 1].price) {\r\n            _swapOrders(_ticker, _side, i, _orderRemoved);\r\n          }\r\n          else break;\r\n          }\r\n        }\r\n      }\r\n    }\r\n\r\n  function _swapOrders(bytes32 _ticker, SIDE _side, uint _index, bool _orderRemoved) internal {\r\n    uint nextIndex;\r\n    if (_orderRemoved == false){\r\n      nextIndex = _index - 1;\r\n    }\r\n    else {\r\n      nextIndex = _index + 1;\r\n    }\r\n    Order[] storage ORDER = orderBook[_ticker][_side];\r\n    Order memory newOrder = ORDER[_index];\r\n    Order memory oldOrder = ORDER[nextIndex];\r\n    ORDER[nextIndex] = newOrder;\r\n    ORDER[_index] = oldOrder;\r\n  }\r\n}\r\n",
  "sourcePath": "C:\\Users\\solus\\documents\\solidity\\dex\\contracts\\DEX.sol",
  "compiler": {
    "name": "solc",
    "version": "0.8.0+commit.c7dfd78e.Emscripten.clang"
  },
  "schemaVersion": "3.4.1",
  "updatedAt": "2021-08-02T00:52:40.876Z",
  "networkType": "ethereum",
  "devdoc": {
    "kind": "dev",
    "methods": {
      "owner()": {
        "details": "Returns the address of the current owner."
      },
      "renounceOwnership()": {
        "details": "Leaves the contract without owner. It will not be possible to call `onlyOwner` functions anymore. Can only be called by the current owner. NOTE: Renouncing ownership will leave the contract without an owner, thereby removing any functionality that is only available to the owner."
      },
      "transferOwnership(address)": {
        "details": "Transfers ownership of the contract to a new account (`newOwner`). Can only be called by the current owner."
      }
    },
    "version": 1
  },
  "userdoc": {
    "kind": "user",
    "methods": {},
    "version": 1
  }
}