{
  "contractName": "DEXGetters",
  "abi": [
    {
      "inputs": [
        {
          "internalType": "bytes32",
          "name": "",
          "type": "bytes32"
        },
        {
          "internalType": "enum DEXGetters.SIDE",
          "name": "",
          "type": "uint8"
        },
        {
          "internalType": "uint256",
          "name": "",
          "type": "uint256"
        }
      ],
      "name": "orderBook",
      "outputs": [
        {
          "internalType": "uint256",
          "name": "id",
          "type": "uint256"
        },
        {
          "internalType": "address",
          "name": "trader",
          "type": "address"
        },
        {
          "internalType": "enum DEXGetters.SIDE",
          "name": "side",
          "type": "uint8"
        },
        {
          "internalType": "bytes32",
          "name": "ticker",
          "type": "bytes32"
        },
        {
          "internalType": "uint256",
          "name": "amount",
          "type": "uint256"
        },
        {
          "internalType": "uint256",
          "name": "price",
          "type": "uint256"
        }
      ],
      "stateMutability": "view",
      "type": "function",
      "constant": true
    },
    {
      "inputs": [],
      "name": "orderID",
      "outputs": [
        {
          "internalType": "uint256",
          "name": "",
          "type": "uint256"
        }
      ],
      "stateMutability": "view",
      "type": "function",
      "constant": true
    },
    {
      "inputs": [
        {
          "internalType": "string",
          "name": "_input",
          "type": "string"
        }
      ],
      "name": "_keccak256",
      "outputs": [
        {
          "internalType": "bytes32",
          "name": "_output",
          "type": "bytes32"
        }
      ],
      "stateMutability": "pure",
      "type": "function",
      "constant": true
    },
    {
      "inputs": [
        {
          "internalType": "string",
          "name": "ticker_",
          "type": "string"
        },
        {
          "internalType": "enum DEXGetters.SIDE",
          "name": "_side",
          "type": "uint8"
        }
      ],
      "name": "getOrderBook",
      "outputs": [
        {
          "components": [
            {
              "internalType": "uint256",
              "name": "id",
              "type": "uint256"
            },
            {
              "internalType": "address",
              "name": "trader",
              "type": "address"
            },
            {
              "internalType": "enum DEXGetters.SIDE",
              "name": "side",
              "type": "uint8"
            },
            {
              "internalType": "bytes32",
              "name": "ticker",
              "type": "bytes32"
            },
            {
              "internalType": "uint256",
              "name": "amount",
              "type": "uint256"
            },
            {
              "internalType": "uint256",
              "name": "price",
              "type": "uint256"
            }
          ],
          "internalType": "struct DEXGetters.Order[]",
          "name": "",
          "type": "tuple[]"
        }
      ],
      "stateMutability": "view",
      "type": "function",
      "constant": true
    },
    {
      "inputs": [
        {
          "internalType": "string",
          "name": "ticker_",
          "type": "string"
        },
        {
          "internalType": "enum DEXGetters.SIDE",
          "name": "_side",
          "type": "uint8"
        },
        {
          "internalType": "uint256",
          "name": "_index",
          "type": "uint256"
        }
      ],
      "name": "getOrderID",
      "outputs": [
        {
          "internalType": "uint256",
          "name": "",
          "type": "uint256"
        }
      ],
      "stateMutability": "view",
      "type": "function",
      "constant": true
    },
    {
      "inputs": [
        {
          "internalType": "string",
          "name": "ticker_",
          "type": "string"
        },
        {
          "internalType": "enum DEXGetters.SIDE",
          "name": "_side",
          "type": "uint8"
        }
      ],
      "name": "getOrderBookLength",
      "outputs": [
        {
          "internalType": "uint256",
          "name": "",
          "type": "uint256"
        }
      ],
      "stateMutability": "view",
      "type": "function",
      "constant": true
    },
    {
      "inputs": [
        {
          "internalType": "string",
          "name": "ticker_",
          "type": "string"
        },
        {
          "internalType": "enum DEXGetters.SIDE",
          "name": "_side",
          "type": "uint8"
        },
        {
          "internalType": "uint256",
          "name": "_index",
          "type": "uint256"
        }
      ],
      "name": "getOrderAmount",
      "outputs": [
        {
          "internalType": "uint256",
          "name": "",
          "type": "uint256"
        }
      ],
      "stateMutability": "view",
      "type": "function",
      "constant": true
    },
    {
      "inputs": [
        {
          "internalType": "string",
          "name": "ticker_",
          "type": "string"
        },
        {
          "internalType": "enum DEXGetters.SIDE",
          "name": "_side",
          "type": "uint8"
        },
        {
          "internalType": "uint256",
          "name": "_index",
          "type": "uint256"
        }
      ],
      "name": "getLimitPrice",
      "outputs": [
        {
          "internalType": "uint256",
          "name": "",
          "type": "uint256"
        }
      ],
      "stateMutability": "view",
      "type": "function",
      "constant": true
    },
    {
      "inputs": [
        {
          "internalType": "string",
          "name": "ticker_",
          "type": "string"
        },
        {
          "internalType": "enum DEXGetters.SIDE",
          "name": "_side",
          "type": "uint8"
        },
        {
          "internalType": "uint256",
          "name": "_index",
          "type": "uint256"
        }
      ],
      "name": "getOrderPrice",
      "outputs": [
        {
          "internalType": "uint256",
          "name": "",
          "type": "uint256"
        }
      ],
      "stateMutability": "view",
      "type": "function",
      "constant": true
    },
    {
      "inputs": [
        {
          "internalType": "string",
          "name": "ticker_",
          "type": "string"
        },
        {
          "internalType": "uint256",
          "name": "_amount",
          "type": "uint256"
        }
      ],
      "name": "_marketBuyCost",
      "outputs": [
        {
          "internalType": "uint256",
          "name": "orderCost",
          "type": "uint256"
        }
      ],
      "stateMutability": "view",
      "type": "function",
      "constant": true
    },
    {
      "inputs": [
        {
          "internalType": "string",
          "name": "ticker_",
          "type": "string"
        },
        {
          "internalType": "enum DEXGetters.SIDE",
          "name": "_side",
          "type": "uint8"
        }
      ],
      "name": "_getOrderbookAmount",
      "outputs": [
        {
          "internalType": "uint256",
          "name": "totalAmount",
          "type": "uint256"
        }
      ],
      "stateMutability": "view",
      "type": "function",
      "constant": true
    }
  ],
  "bytecode": "0x608060405260006001556040518060400160405280600f81526020017f4f72646572626f6f6b20656d707479000000000000000000000000000000000081525060059080519060200190620000569291906200006b565b503480156200006457600080fd5b5062000180565b82805462000079906200011b565b90600052602060002090601f0160209004810192826200009d5760008555620000e9565b82601f10620000b857805160ff1916838001178555620000e9565b82800160010185558215620000e9579182015b82811115620000e8578251825591602001919060010190620000cb565b5b509050620000f89190620000fc565b5090565b5b8082111562000117576000816000905550600101620000fd565b5090565b600060028204905060018216806200013457607f821691505b602082108114156200014b576200014a62000151565b5b50919050565b7f4e487b7100000000000000000000000000000000000000000000000000000000600052602260045260246000fd5b61212380620001906000396000f3fe608060405234801561001057600080fd5b50600436106100a95760003560e01c806383cbd7ea1161007157806383cbd7ea1461018c5780638804e342146101bc5780638c29bec0146101ec5780638d562bde146102215780639a8f742814610251578063e1d7cad814610281576100a9565b8063079e38e0146100ae5780632e42c7dd146100de5780633fb6db0b1461010e578063593ed5f31461013e57806381203d031461016e575b600080fd5b6100c860048036038101906100c39190611936565b6102b1565b6040516100d59190611c81565b60405180910390f35b6100f860048036038101906100f391906118e2565b6105e1565b6040516101059190611c81565b60405180910390f35b61012860048036038101906101239190611936565b610870565b6040516101359190611c81565b60405180910390f35b610158600480360381019061015391906118e2565b61099a565b6040516101659190611c22565b60405180910390f35b610176610c80565b6040516101839190611c81565b60405180910390f35b6101a660048036038101906101a191906118a1565b610c86565b6040516101b39190611c44565b60405180910390f35b6101d660048036038101906101d19190611936565b610cb6565b6040516101e39190611c81565b60405180910390f35b61020660048036038101906102019190611852565b610f07565b60405161021896959493929190611c9c565b60405180910390f35b61023b6004803603810190610236919061199d565b610f9a565b6040516102489190611c81565b60405180910390f35b61026b600480360381019061026691906118e2565b61138a565b6040516102789190611c81565b60405180910390f35b61029b60048036038101906102969190611936565b611439565b6040516102a89190611c81565b60405180910390f35b6000806102bd85610c86565b9050600060046000838152602001908152602001600020600086600181111561030f577f4e487b7100000000000000000000000000000000000000000000000000000000600052602160045260246000fd5b6001811115610347577f4e487b7100000000000000000000000000000000000000000000000000000000600052602160045260246000fd5b8152602001908152602001600020805490501160059061039d576040517f08c379a00000000000000000000000000000000000000000000000000000000081526004016103949190611c5f565b60405180910390fd5b5060006004600083815260200190815260200160002060008660018111156103ee577f4e487b7100000000000000000000000000000000000000000000000000000000600052602160045260246000fd5b6001811115610426577f4e487b7100000000000000000000000000000000000000000000000000000000600052602160045260246000fd5b8152602001908152602001600020805480602002602001604051908101604052809291908181526020016000905b8282101561058b57838290600052602060002090600502016040518060c0016040529081600082015481526020016001820160009054906101000a900473ffffffffffffffffffffffffffffffffffffffff1673ffffffffffffffffffffffffffffffffffffffff1673ffffffffffffffffffffffffffffffffffffffff1681526020016001820160149054906101000a900460ff166001811115610522577f4e487b7100000000000000000000000000000000000000000000000000000000600052602160045260246000fd5b600181111561055a577f4e487b7100000000000000000000000000000000000000000000000000000000600052602160045260246000fd5b8152602001600282015481526020016003820154815260200160048201548152505081526020019060010190610454565b5050505090508084815181106105ca577f4e487b7100000000000000000000000000000000000000000000000000000000600052603260045260246000fd5b602002602001015160800151925050509392505050565b6000806105ed84610c86565b9050600060046000838152602001908152602001600020600085600181111561063f577f4e487b7100000000000000000000000000000000000000000000000000000000600052602160045260246000fd5b6001811115610677577f4e487b7100000000000000000000000000000000000000000000000000000000600052602160045260246000fd5b8152602001908152602001600020805480602002602001604051908101604052809291908181526020016000905b828210156107dc57838290600052602060002090600502016040518060c0016040529081600082015481526020016001820160009054906101000a900473ffffffffffffffffffffffffffffffffffffffff1673ffffffffffffffffffffffffffffffffffffffff1673ffffffffffffffffffffffffffffffffffffffff1681526020016001820160149054906101000a900460ff166001811115610773577f4e487b7100000000000000000000000000000000000000000000000000000000600052602160045260246000fd5b60018111156107ab577f4e487b7100000000000000000000000000000000000000000000000000000000600052602160045260246000fd5b81526020016002820154815260200160038201548152602001600482015481525050815260200190600101906106a5565b50505050905060009250600080600090505b825181101561086657828181518110610830577f4e487b7100000000000000000000000000000000000000000000000000000000600052603260045260246000fd5b6020026020010151608001519150610851828661176990919063ffffffff16565b9450808061085e90611f96565b9150506107ee565b5050505092915050565b60008061087c85610c86565b905060006004600083815260200190815260200160002060008660018111156108ce577f4e487b7100000000000000000000000000000000000000000000000000000000600052602160045260246000fd5b6001811115610906577f4e487b7100000000000000000000000000000000000000000000000000000000600052602160045260246000fd5b8152602001908152602001600020805490501160059061095c576040517f08c379a00000000000000000000000000000000000000000000000000000000081526004016109539190611c5f565b60405180910390fd5b50600061096a868686611439565b905060006109798787876102b1565b905061098e818361177f90919063ffffffff16565b93505050509392505050565b606060006109a784610c86565b905060006004600083815260200190815260200160002060008560018111156109f9577f4e487b7100000000000000000000000000000000000000000000000000000000600052602160045260246000fd5b6001811115610a31577f4e487b7100000000000000000000000000000000000000000000000000000000600052602160045260246000fd5b81526020019081526020016000208054905011600590610a87576040517f08c379a0000000000000000000000000000000000000000000000000000000008152600401610a7e9190611c5f565b60405180910390fd5b50600460008281526020019081526020016000206000846001811115610ad6577f4e487b7100000000000000000000000000000000000000000000000000000000600052602160045260246000fd5b6001811115610b0e577f4e487b7100000000000000000000000000000000000000000000000000000000600052602160045260246000fd5b8152602001908152602001600020805480602002602001604051908101604052809291908181526020016000905b82821015610c7357838290600052602060002090600502016040518060c0016040529081600082015481526020016001820160009054906101000a900473ffffffffffffffffffffffffffffffffffffffff1673ffffffffffffffffffffffffffffffffffffffff1673ffffffffffffffffffffffffffffffffffffffff1681526020016001820160149054906101000a900460ff166001811115610c0a577f4e487b7100000000000000000000000000000000000000000000000000000000600052602160045260246000fd5b6001811115610c42577f4e487b7100000000000000000000000000000000000000000000000000000000600052602160045260246000fd5b8152602001600282015481526020016003820154815260200160048201548152505081526020019060010190610b3c565b5050505091505092915050565b60015481565b600081604051602001610c999190611c0b565b604051602081830303815290604052805190602001209050919050565b600080610cc285610c86565b90506000600460008381526020019081526020016000206000866001811115610d14577f4e487b7100000000000000000000000000000000000000000000000000000000600052602160045260246000fd5b6001811115610d4c577f4e487b7100000000000000000000000000000000000000000000000000000000600052602160045260246000fd5b8152602001908152602001600020805480602002602001604051908101604052809291908181526020016000905b82821015610eb157838290600052602060002090600502016040518060c0016040529081600082015481526020016001820160009054906101000a900473ffffffffffffffffffffffffffffffffffffffff1673ffffffffffffffffffffffffffffffffffffffff1673ffffffffffffffffffffffffffffffffffffffff1681526020016001820160149054906101000a900460ff166001811115610e48577f4e487b7100000000000000000000000000000000000000000000000000000000600052602160045260246000fd5b6001811115610e80577f4e487b7100000000000000000000000000000000000000000000000000000000600052602160045260246000fd5b8152602001600282015481526020016003820154815260200160048201548152505081526020019060010190610d7a565b505050509050808481518110610ef0577f4e487b7100000000000000000000000000000000000000000000000000000000600052603260045260246000fd5b602002602001015160000151925050509392505050565b60046020528260005260406000206020528160005260406000208181548110610f2f57600080fd5b906000526020600020906005020160009250925050508060000154908060010160009054906101000a900473ffffffffffffffffffffffffffffffffffffffff16908060010160149054906101000a900460ff16908060020154908060030154908060040154905086565b600080610fa684610c86565b90506000600460008381526020019081526020016000206000600180811115610ff8577f4e487b7100000000000000000000000000000000000000000000000000000000600052602160045260246000fd5b6001811115611030577f4e487b7100000000000000000000000000000000000000000000000000000000600052602160045260246000fd5b8152602001908152602001600020805480602002602001604051908101604052809291908181526020016000905b8282101561119557838290600052602060002090600502016040518060c0016040529081600082015481526020016001820160009054906101000a900473ffffffffffffffffffffffffffffffffffffffff1673ffffffffffffffffffffffffffffffffffffffff1673ffffffffffffffffffffffffffffffffffffffff1681526020016001820160149054906101000a900460ff16600181111561112c577f4e487b7100000000000000000000000000000000000000000000000000000000600052602160045260246000fd5b6001811115611164577f4e487b7100000000000000000000000000000000000000000000000000000000600052602160045260246000fd5b815260200160028201548152602001600382015481526020016004820154815250508152602001906001019061105e565b505050509050600092506000815114156111b0575050611384565b600085905060005b6000861061137f578281815181106111f9577f4e487b7100000000000000000000000000000000000000000000000000000000600052603260045260246000fd5b602002602001015160800151861061128b57600061121983600184610870565b905061122e818761176990919063ffffffff16565b955061128784838151811061126c577f4e487b7100000000000000000000000000000000000000000000000000000000600052603260045260246000fd5b6020026020010151608001518861179590919063ffffffff16565b9650505b8281815181106112c4577f4e487b7100000000000000000000000000000000000000000000000000000000600052603260045260246000fd5b602002602001015160800151861080156112de5750600086115b1561135257600083828151811061131e577f4e487b7100000000000000000000000000000000000000000000000000000000600052603260045260246000fd5b602002602001015160a00151876113359190611e29565b905061134a818761176990919063ffffffff16565b95505061137f565b600183516113609190611e83565b81141561136c5761137f565b808061137790611f96565b9150506111b8565b505050505b92915050565b60008061139684610c86565b90506004600082815260200190815260200160002060008460018111156113e6577f4e487b7100000000000000000000000000000000000000000000000000000000600052602160045260246000fd5b600181111561141e577f4e487b7100000000000000000000000000000000000000000000000000000000600052602160045260246000fd5b81526020019081526020016000208054905091505092915050565b60008061144585610c86565b90506000600460008381526020019081526020016000206000866001811115611497577f4e487b7100000000000000000000000000000000000000000000000000000000600052602160045260246000fd5b60018111156114cf577f4e487b7100000000000000000000000000000000000000000000000000000000600052602160045260246000fd5b81526020019081526020016000208054905011600590611525576040517f08c379a000000000000000000000000000000000000000000000000000000000815260040161151c9190611c5f565b60405180910390fd5b506000600460008381526020019081526020016000206000866001811115611576577f4e487b7100000000000000000000000000000000000000000000000000000000600052602160045260246000fd5b60018111156115ae577f4e487b7100000000000000000000000000000000000000000000000000000000600052602160045260246000fd5b8152602001908152602001600020805480602002602001604051908101604052809291908181526020016000905b8282101561171357838290600052602060002090600502016040518060c0016040529081600082015481526020016001820160009054906101000a900473ffffffffffffffffffffffffffffffffffffffff1673ffffffffffffffffffffffffffffffffffffffff1673ffffffffffffffffffffffffffffffffffffffff1681526020016001820160149054906101000a900460ff1660018111156116aa577f4e487b7100000000000000000000000000000000000000000000000000000000600052602160045260246000fd5b60018111156116e2577f4e487b7100000000000000000000000000000000000000000000000000000000600052602160045260246000fd5b81526020016002820154815260200160038201548152602001600482015481525050815260200190600101906115dc565b505050509050808481518110611752577f4e487b7100000000000000000000000000000000000000000000000000000000600052603260045260246000fd5b602002602001015160a00151925050509392505050565b600081836117779190611dd3565b905092915050565b6000818361178d9190611e29565b905092915050565b600081836117a39190611e83565b905092915050565b60006117be6117b984611d2e565b611cfd565b9050828152602081018484840111156117d657600080fd5b6117e1848285611f22565b509392505050565b6000813590506117f8816120af565b92915050565b60008135905061180d816120c6565b92915050565b600082601f83011261182457600080fd5b81356118348482602086016117ab565b91505092915050565b60008135905061184c816120d6565b92915050565b60008060006060848603121561186757600080fd5b6000611875868287016117e9565b9350506020611886868287016117fe565b92505060406118978682870161183d565b9150509250925092565b6000602082840312156118b357600080fd5b600082013567ffffffffffffffff8111156118cd57600080fd5b6118d984828501611813565b91505092915050565b600080604083850312156118f557600080fd5b600083013567ffffffffffffffff81111561190f57600080fd5b61191b85828601611813565b925050602061192c858286016117fe565b9150509250929050565b60008060006060848603121561194b57600080fd5b600084013567ffffffffffffffff81111561196557600080fd5b61197186828701611813565b9350506020611982868287016117fe565b92505060406119938682870161183d565b9150509250925092565b600080604083850312156119b057600080fd5b600083013567ffffffffffffffff8111156119ca57600080fd5b6119d685828601611813565b92505060206119e78582860161183d565b9150509250929050565b60006119fd8383611b72565b60c08301905092915050565b611a1281611eb7565b82525050565b611a2181611eb7565b82525050565b6000611a3282611d83565b611a3c8185611da6565b9350611a4783611d5e565b8060005b83811015611a78578151611a5f88826119f1565b9750611a6a83611d99565b925050600181019050611a4b565b5085935050505092915050565b611a8e81611ec9565b82525050565b611a9d81611ec9565b82525050565b611aac81611f10565b82525050565b611abb81611f10565b82525050565b6000611acc82611d8e565b611ad68185611dc8565b9350611ae6818560208601611f31565b80840191505092915050565b60008154611aff81611f64565b611b098186611db7565b94506001821660008114611b245760018114611b3657611b69565b60ff1983168652602086019350611b69565b611b3f85611d6e565b60005b83811015611b6157815481890152600182019150602081019050611b42565b808801955050505b50505092915050565b60c082016000820151611b886000850182611bed565b506020820151611b9b6020850182611a09565b506040820151611bae6040850182611aa3565b506060820151611bc16060850182611a85565b506080820151611bd46080850182611bed565b5060a0820151611be760a0850182611bed565b50505050565b611bf681611f06565b82525050565b611c0581611f06565b82525050565b6000611c178284611ac1565b915081905092915050565b60006020820190508181036000830152611c3c8184611a27565b905092915050565b6000602082019050611c596000830184611a94565b92915050565b60006020820190508181036000830152611c798184611af2565b905092915050565b6000602082019050611c966000830184611bfc565b92915050565b600060c082019050611cb16000830189611bfc565b611cbe6020830188611a18565b611ccb6040830187611ab2565b611cd86060830186611a94565b611ce56080830185611bfc565b611cf260a0830184611bfc565b979650505050505050565b6000604051905081810181811067ffffffffffffffff82111715611d2457611d2361206c565b5b8060405250919050565b600067ffffffffffffffff821115611d4957611d4861206c565b5b601f19601f8301169050602081019050919050565b6000819050602082019050919050565b60008190508160005260206000209050919050565b600081519050919050565b600081519050919050565b6000602082019050919050565b600082825260208201905092915050565b600082825260208201905092915050565b600081905092915050565b6000611dde82611f06565b9150611de983611f06565b9250827fffffffffffffffffffffffffffffffffffffffffffffffffffffffffffffffff03821115611e1e57611e1d611fdf565b5b828201905092915050565b6000611e3482611f06565b9150611e3f83611f06565b9250817fffffffffffffffffffffffffffffffffffffffffffffffffffffffffffffffff0483118215151615611e7857611e77611fdf565b5b828202905092915050565b6000611e8e82611f06565b9150611e9983611f06565b925082821015611eac57611eab611fdf565b5b828203905092915050565b6000611ec282611ee6565b9050919050565b6000819050919050565b6000819050611ee18261209b565b919050565b600073ffffffffffffffffffffffffffffffffffffffff82169050919050565b6000819050919050565b6000611f1b82611ed3565b9050919050565b82818337600083830152505050565b60005b83811015611f4f578082015181840152602081019050611f34565b83811115611f5e576000848401525b50505050565b60006002820490506001821680611f7c57607f821691505b60208210811415611f9057611f8f61203d565b5b50919050565b6000611fa182611f06565b91507fffffffffffffffffffffffffffffffffffffffffffffffffffffffffffffffff821415611fd457611fd3611fdf565b5b600182019050919050565b7f4e487b7100000000000000000000000000000000000000000000000000000000600052601160045260246000fd5b7f4e487b7100000000000000000000000000000000000000000000000000000000600052602160045260246000fd5b7f4e487b7100000000000000000000000000000000000000000000000000000000600052602260045260246000fd5b7f4e487b7100000000000000000000000000000000000000000000000000000000600052604160045260246000fd5b600281106120ac576120ab61200e565b5b50565b6120b881611ec9565b81146120c357600080fd5b50565b600281106120d357600080fd5b50565b6120df81611f06565b81146120ea57600080fd5b5056fea26469706673582212206817f73e9e425b5500f7eafbf8bbf923a6976c0e27d2db3807e380d2a2b334ef64736f6c63430008000033",
  "immutableReferences": {},
  "source": "pragma solidity ^0.8.0;\r\n\r\nimport \"./DEXWallet.sol\";\r\nimport \"./DEX.sol\";\r\nimport \"./OpenZeppelinDependencies/SafeMath.sol\";\r\n\r\ncontract DEXGetters {\r\n  using SafeMath for uint256;\r\n\r\n  enum SIDE { BUY, SELL }\r\n  SIDE side;\r\n\r\n  struct Order {\r\n    uint id;\r\n    address trader;\r\n    SIDE side;\r\n    bytes32 ticker;\r\n    uint amount;\r\n    uint price;\r\n}\r\n\r\nuint public orderID = 0;\r\nbool _orderRemoved;\r\n\r\nOrder[] orderbook;\r\n\r\n//Each asset has two orderbooks, one for buying and one for selling;\r\n//bytes32 is ticker symbol, and SIDE is BUY/SELL enum;\r\n  mapping(bytes32 => mapping(SIDE => Order[])) public orderBook;\r\n  string errorMsg = \"Orderbook empty\";\r\n\r\n  //Returns bytes32 of any string;\r\n  function _keccak256(string memory _input) public pure returns (bytes32 _output) {\r\n      _output = keccak256(abi.encodePacked(_input));\r\n  }\r\n\r\n  //Getter function to retrieve orderbook for ticker/side;\r\n    function getOrderBook(string memory ticker_, SIDE _side) public view returns(Order[] memory) {\r\n      bytes32 _ticker = _keccak256(ticker_);\r\n      require(orderBook[_ticker][_side].length > 0, errorMsg);\r\n      return orderBook[_ticker][_side];\r\n    }\r\n    function getOrderID(string memory ticker_, SIDE _side, uint _index) public view returns(uint) {\r\n      bytes32 _ticker = _keccak256(ticker_);\r\n      Order[] memory _order = orderBook[_ticker][_side];\r\n      return _order[_index].id;\r\n    }\r\n\r\n    function getOrderBookLength(string memory ticker_, SIDE _side) public view returns(uint) {\r\n      bytes32 _ticker = _keccak256(ticker_);\r\n      return orderBook[_ticker][_side].length;\r\n    }\r\n\r\n  //Getter function to retrieve order token amount;\r\n    function getOrderAmount(string memory ticker_, SIDE _side, uint _index) public view returns(uint256) {\r\n      bytes32 _ticker = _keccak256(ticker_);\r\n      require(orderBook[_ticker][_side].length > 0, errorMsg);\r\n      Order[] memory ORDER = orderBook[_ticker][_side];\r\n      return ORDER[_index].amount;\r\n    }\r\n\r\n  //Getter function to retrieve order's ETH price per token;\r\n    function getLimitPrice(string memory ticker_, SIDE _side, uint _index) public view returns(uint256) {\r\n      bytes32 _ticker = _keccak256(ticker_);\r\n      require(orderBook[_ticker][_side].length > 0, errorMsg);\r\n      Order[] memory ORDER = orderBook[_ticker][_side];\r\n      return ORDER[_index].price;\r\n    }\r\n\r\n  //Getter function to retrieve order's total ETH price;\r\n    function getOrderPrice(string memory ticker_, SIDE _side, uint _index) public view returns(uint256) {\r\n      bytes32 _ticker = _keccak256(ticker_);\r\n      require(orderBook[_ticker][_side].length > 0, errorMsg);\r\n      uint limitPrice = getLimitPrice(ticker_, _side, _index);\r\n      uint orderAmount = getOrderAmount(ticker_, _side, _index);\r\n      return limitPrice.mul(orderAmount);\r\n      }\r\n\r\n  //Getter function for calculating total ETH cost of a market order;\r\n    function _marketBuyCost(string memory ticker_, uint256 _amount) public view returns (uint orderCost) {\r\n      bytes32 _ticker = _keccak256(ticker_);\r\n      Order[] memory tempORDER = orderBook[_ticker][SIDE.SELL];\r\n      orderCost = 0;\r\n      if(tempORDER.length == 0) {\r\n        return orderCost;\r\n      }\r\n      else {\r\n        string memory ticker = ticker_;\r\n        for (uint i = 0; _amount >= 0; i++) {\r\n          if (_amount >= tempORDER[i].amount) {\r\n            uint fillPrice = getOrderPrice(ticker, SIDE.SELL, i);\r\n            orderCost = orderCost.add(fillPrice);\r\n            _amount = _amount.sub(tempORDER[i].amount);\r\n          }\r\n\r\n          if (_amount < tempORDER[i].amount && _amount > 0) {\r\n            uint partialFillPrice = _amount * tempORDER[i].price;\r\n            orderCost = orderCost.add(partialFillPrice);\r\n            break;\r\n          }\r\n          if (i == tempORDER.length - 1) {\r\n            break;\r\n          }\r\n        }\r\n        return orderCost;\r\n      }\r\n    }\r\n\r\n    //Returns total amount of orderbook;\r\n    //Used for orders that clear out orderbook;\r\n    function _getOrderbookAmount(string memory ticker_, SIDE _side) public view returns (uint256 totalAmount) {\r\n      bytes32 _ticker = _keccak256(ticker_);\r\n      Order[] memory _order = orderBook[_ticker][_side];\r\n      totalAmount = 0;\r\n      uint orderAmount;\r\n      for (uint i = 0; i < _order.length; i++) {\r\n        orderAmount = _order[i].amount;\r\n        totalAmount = totalAmount.add(orderAmount);\r\n      }\r\n    }\r\n\r\n  //Getter function that translates order ID to orderbook index;\r\n    function _findOrderIndex(uint _ID, bytes32 _ticker, SIDE _side) internal view returns(uint i) {\r\n      Order[] memory findOrder = orderBook[_ticker][_side];\r\n\r\n      for (i = 0; i < findOrder.length; i++) {\r\n        if (findOrder[i].id == _ID) {\r\n          return i;\r\n        }\r\n      }\r\n    }\r\n\r\n\r\n}\r\n",
  "sourcePath": "C:\\Users\\solus\\documents\\solidity\\dex\\contracts\\DEXGetters.sol",
  "compiler": {
    "name": "solc",
    "version": "0.8.0+commit.c7dfd78e.Emscripten.clang"
  },
  "schemaVersion": "3.4.1",
  "updatedAt": "2021-08-02T00:52:40.923Z",
  "networkType": "ethereum",
  "devdoc": {
    "kind": "dev",
    "methods": {},
    "version": 1
  },
  "userdoc": {
    "kind": "user",
    "methods": {},
    "version": 1
  }
}