{
  "contractName": "DEXWallet",
  "abi": [
    {
      "anonymous": false,
      "inputs": [
        {
          "indexed": true,
          "internalType": "address",
          "name": "previousOwner",
          "type": "address"
        },
        {
          "indexed": true,
          "internalType": "address",
          "name": "newOwner",
          "type": "address"
        }
      ],
      "name": "OwnershipTransferred",
      "type": "event"
    },
    {
      "inputs": [],
      "name": "ETH",
      "outputs": [
        {
          "internalType": "bytes32",
          "name": "",
          "type": "bytes32"
        }
      ],
      "stateMutability": "view",
      "type": "function",
      "constant": true
    },
    {
      "inputs": [
        {
          "internalType": "string",
          "name": "ticker_",
          "type": "string"
        },
        {
          "internalType": "enum DEXGetters.SIDE",
          "name": "_side",
          "type": "uint8"
        }
      ],
      "name": "_getOrderbookAmount",
      "outputs": [
        {
          "internalType": "uint256",
          "name": "totalAmount",
          "type": "uint256"
        }
      ],
      "stateMutability": "view",
      "type": "function",
      "constant": true
    },
    {
      "inputs": [
        {
          "internalType": "string",
          "name": "_input",
          "type": "string"
        }
      ],
      "name": "_keccak256",
      "outputs": [
        {
          "internalType": "bytes32",
          "name": "_output",
          "type": "bytes32"
        }
      ],
      "stateMutability": "pure",
      "type": "function",
      "constant": true
    },
    {
      "inputs": [
        {
          "internalType": "string",
          "name": "ticker_",
          "type": "string"
        },
        {
          "internalType": "uint256",
          "name": "_amount",
          "type": "uint256"
        }
      ],
      "name": "_marketBuyCost",
      "outputs": [
        {
          "internalType": "uint256",
          "name": "orderCost",
          "type": "uint256"
        }
      ],
      "stateMutability": "view",
      "type": "function",
      "constant": true
    },
    {
      "inputs": [
        {
          "internalType": "address",
          "name": "",
          "type": "address"
        },
        {
          "internalType": "bytes32",
          "name": "",
          "type": "bytes32"
        }
      ],
      "name": "balances",
      "outputs": [
        {
          "internalType": "uint256",
          "name": "",
          "type": "uint256"
        }
      ],
      "stateMutability": "view",
      "type": "function",
      "constant": true
    },
    {
      "inputs": [
        {
          "internalType": "string",
          "name": "ticker_",
          "type": "string"
        },
        {
          "internalType": "enum DEXGetters.SIDE",
          "name": "_side",
          "type": "uint8"
        },
        {
          "internalType": "uint256",
          "name": "_index",
          "type": "uint256"
        }
      ],
      "name": "getLimitPrice",
      "outputs": [
        {
          "internalType": "uint256",
          "name": "",
          "type": "uint256"
        }
      ],
      "stateMutability": "view",
      "type": "function",
      "constant": true
    },
    {
      "inputs": [
        {
          "internalType": "string",
          "name": "ticker_",
          "type": "string"
        },
        {
          "internalType": "enum DEXGetters.SIDE",
          "name": "_side",
          "type": "uint8"
        },
        {
          "internalType": "uint256",
          "name": "_index",
          "type": "uint256"
        }
      ],
      "name": "getOrderAmount",
      "outputs": [
        {
          "internalType": "uint256",
          "name": "",
          "type": "uint256"
        }
      ],
      "stateMutability": "view",
      "type": "function",
      "constant": true
    },
    {
      "inputs": [
        {
          "internalType": "string",
          "name": "ticker_",
          "type": "string"
        },
        {
          "internalType": "enum DEXGetters.SIDE",
          "name": "_side",
          "type": "uint8"
        }
      ],
      "name": "getOrderBook",
      "outputs": [
        {
          "components": [
            {
              "internalType": "uint256",
              "name": "id",
              "type": "uint256"
            },
            {
              "internalType": "address",
              "name": "trader",
              "type": "address"
            },
            {
              "internalType": "enum DEXGetters.SIDE",
              "name": "side",
              "type": "uint8"
            },
            {
              "internalType": "bytes32",
              "name": "ticker",
              "type": "bytes32"
            },
            {
              "internalType": "uint256",
              "name": "amount",
              "type": "uint256"
            },
            {
              "internalType": "uint256",
              "name": "price",
              "type": "uint256"
            }
          ],
          "internalType": "struct DEXGetters.Order[]",
          "name": "",
          "type": "tuple[]"
        }
      ],
      "stateMutability": "view",
      "type": "function",
      "constant": true
    },
    {
      "inputs": [
        {
          "internalType": "string",
          "name": "ticker_",
          "type": "string"
        },
        {
          "internalType": "enum DEXGetters.SIDE",
          "name": "_side",
          "type": "uint8"
        }
      ],
      "name": "getOrderBookLength",
      "outputs": [
        {
          "internalType": "uint256",
          "name": "",
          "type": "uint256"
        }
      ],
      "stateMutability": "view",
      "type": "function",
      "constant": true
    },
    {
      "inputs": [
        {
          "internalType": "string",
          "name": "ticker_",
          "type": "string"
        },
        {
          "internalType": "enum DEXGetters.SIDE",
          "name": "_side",
          "type": "uint8"
        },
        {
          "internalType": "uint256",
          "name": "_index",
          "type": "uint256"
        }
      ],
      "name": "getOrderID",
      "outputs": [
        {
          "internalType": "uint256",
          "name": "",
          "type": "uint256"
        }
      ],
      "stateMutability": "view",
      "type": "function",
      "constant": true
    },
    {
      "inputs": [
        {
          "internalType": "string",
          "name": "ticker_",
          "type": "string"
        },
        {
          "internalType": "enum DEXGetters.SIDE",
          "name": "_side",
          "type": "uint8"
        },
        {
          "internalType": "uint256",
          "name": "_index",
          "type": "uint256"
        }
      ],
      "name": "getOrderPrice",
      "outputs": [
        {
          "internalType": "uint256",
          "name": "",
          "type": "uint256"
        }
      ],
      "stateMutability": "view",
      "type": "function",
      "constant": true
    },
    {
      "inputs": [
        {
          "internalType": "bytes32",
          "name": "",
          "type": "bytes32"
        },
        {
          "internalType": "enum DEXGetters.SIDE",
          "name": "",
          "type": "uint8"
        },
        {
          "internalType": "uint256",
          "name": "",
          "type": "uint256"
        }
      ],
      "name": "orderBook",
      "outputs": [
        {
          "internalType": "uint256",
          "name": "id",
          "type": "uint256"
        },
        {
          "internalType": "address",
          "name": "trader",
          "type": "address"
        },
        {
          "internalType": "enum DEXGetters.SIDE",
          "name": "side",
          "type": "uint8"
        },
        {
          "internalType": "bytes32",
          "name": "ticker",
          "type": "bytes32"
        },
        {
          "internalType": "uint256",
          "name": "amount",
          "type": "uint256"
        },
        {
          "internalType": "uint256",
          "name": "price",
          "type": "uint256"
        }
      ],
      "stateMutability": "view",
      "type": "function",
      "constant": true
    },
    {
      "inputs": [],
      "name": "orderID",
      "outputs": [
        {
          "internalType": "uint256",
          "name": "",
          "type": "uint256"
        }
      ],
      "stateMutability": "view",
      "type": "function",
      "constant": true
    },
    {
      "inputs": [],
      "name": "owner",
      "outputs": [
        {
          "internalType": "address",
          "name": "",
          "type": "address"
        }
      ],
      "stateMutability": "view",
      "type": "function",
      "constant": true
    },
    {
      "inputs": [],
      "name": "renounceOwnership",
      "outputs": [],
      "stateMutability": "nonpayable",
      "type": "function"
    },
    {
      "inputs": [
        {
          "internalType": "uint256",
          "name": "",
          "type": "uint256"
        }
      ],
      "name": "tokenList",
      "outputs": [
        {
          "internalType": "bytes32",
          "name": "",
          "type": "bytes32"
        }
      ],
      "stateMutability": "view",
      "type": "function",
      "constant": true
    },
    {
      "inputs": [
        {
          "internalType": "bytes32",
          "name": "",
          "type": "bytes32"
        }
      ],
      "name": "tokenMapping",
      "outputs": [
        {
          "internalType": "bytes32",
          "name": "ticker",
          "type": "bytes32"
        },
        {
          "internalType": "address",
          "name": "tokenAddress",
          "type": "address"
        }
      ],
      "stateMutability": "view",
      "type": "function",
      "constant": true
    },
    {
      "inputs": [
        {
          "internalType": "address",
          "name": "newOwner",
          "type": "address"
        }
      ],
      "name": "transferOwnership",
      "outputs": [],
      "stateMutability": "nonpayable",
      "type": "function"
    },
    {
      "inputs": [
        {
          "internalType": "string",
          "name": "ticker_",
          "type": "string"
        },
        {
          "internalType": "address",
          "name": "_tokenAddress",
          "type": "address"
        }
      ],
      "name": "addToken",
      "outputs": [],
      "stateMutability": "nonpayable",
      "type": "function"
    },
    {
      "inputs": [
        {
          "internalType": "string",
          "name": "ticker_",
          "type": "string"
        },
        {
          "internalType": "uint256",
          "name": "_amount",
          "type": "uint256"
        }
      ],
      "name": "deposit",
      "outputs": [],
      "stateMutability": "nonpayable",
      "type": "function"
    },
    {
      "inputs": [],
      "name": "depositETH",
      "outputs": [],
      "stateMutability": "payable",
      "type": "function",
      "payable": true
    },
    {
      "inputs": [
        {
          "internalType": "string",
          "name": "ticker_",
          "type": "string"
        },
        {
          "internalType": "uint256",
          "name": "_amount",
          "type": "uint256"
        }
      ],
      "name": "withdraw",
      "outputs": [],
      "stateMutability": "nonpayable",
      "type": "function"
    },
    {
      "inputs": [
        {
          "internalType": "string",
          "name": "ticker_",
          "type": "string"
        }
      ],
      "name": "getBalance",
      "outputs": [
        {
          "internalType": "uint256",
          "name": "",
          "type": "uint256"
        }
      ],
      "stateMutability": "view",
      "type": "function",
      "constant": true
    }
  ],
  "bytecode": "0x608060405260006001556040518060400160405280600f81526020017f4f72646572626f6f6b20656d707479000000000000000000000000000000000081525060059080519060200190620000569291906200014d565b5060405160200162000068906200023f565b604051602081830303815290604052805190602001206009553480156200008e57600080fd5b506000620000a16200014560201b60201c565b9050806000806101000a81548173ffffffffffffffffffffffffffffffffffffffff021916908373ffffffffffffffffffffffffffffffffffffffff1602179055508073ffffffffffffffffffffffffffffffffffffffff16600073ffffffffffffffffffffffffffffffffffffffff167f8be0079c531659141344cd1fd0a4f28419497f9722a3daafe3b4186f6b6457e060405160405180910390a350620002c6565b600033905090565b8280546200015b9062000261565b90600052602060002090601f0160209004810192826200017f5760008555620001cb565b82601f106200019a57805160ff1916838001178555620001cb565b82800160010185558215620001cb579182015b82811115620001ca578251825591602001919060010190620001ad565b5b509050620001da9190620001de565b5090565b5b80821115620001f9576000816000905550600101620001df565b5090565b60006200020c60038362000256565b91507f45544800000000000000000000000000000000000000000000000000000000006000830152600382019050919050565b60006200024c82620001fd565b9150819050919050565b600081905092915050565b600060028204905060018216806200027a57607f821691505b6020821081141562000291576200029062000297565b5b50919050565b7f4e487b7100000000000000000000000000000000000000000000000000000000600052602260045260246000fd5b61348380620002d66000396000f3fe6080604052600436106101405760003560e01c806383cbd7ea116100b65780639a8f74281161006f5780639a8f7428146104d45780639ead722214610511578063b0b22c2c1461054e578063e1d7cad814610577578063f2fde38b146105b4578063f6326fb3146105dd57610140565b806383cbd7ea146103875780638804e342146103c45780638c29bec0146104015780638d562bde146104435780638da5cb5b146104805780638e27d719146104ab57610140565b80633fb6db0b116101085780633fb6db0b14610262578063593ed5f31461029f578063667cb4ba146102dc578063715018a61461031a57806381203d03146103315780638322fff21461035c57610140565b8063079e38e0146101455780631f14df69146101825780632e42c7dd146101bf57806330b39a62146101fc5780633a51d24614610225575b600080fd5b34801561015157600080fd5b5061016c60048036038101906101679190612989565b6105e7565b6040516101799190612fa7565b60405180910390f35b34801561018e57600080fd5b506101a960048036038101906101a491906127c3565b610917565b6040516101b69190612fa7565b60405180910390f35b3480156101cb57600080fd5b506101e660048036038101906101e19190612935565b61093c565b6040516101f39190612fa7565b60405180910390f35b34801561020857600080fd5b50610223600480360381019061021e91906129f0565b610bcb565b005b34801561023157600080fd5b5061024c600480360381019061024791906128a0565b610f07565b6040516102599190612fa7565b60405180910390f35b34801561026e57600080fd5b5061028960048036038101906102849190612989565b610f6e565b6040516102969190612fa7565b60405180910390f35b3480156102ab57600080fd5b506102c660048036038101906102c19190612935565b611098565b6040516102d39190612e7f565b60405180910390f35b3480156102e857600080fd5b5061030360048036038101906102fe9190612828565b61137e565b604051610311929190612ebc565b60405180910390f35b34801561032657600080fd5b5061032f6113c2565b005b34801561033d57600080fd5b506103466114fc565b6040516103539190612fa7565b60405180910390f35b34801561036857600080fd5b50610371611502565b60405161037e9190612ea1565b60405180910390f35b34801561039357600080fd5b506103ae60048036038101906103a991906128a0565b611508565b6040516103bb9190612ea1565b60405180910390f35b3480156103d057600080fd5b506103eb60048036038101906103e69190612989565b611538565b6040516103f89190612fa7565b60405180910390f35b34801561040d57600080fd5b5061042860048036038101906104239190612851565b611789565b60405161043a96959493929190612fc2565b60405180910390f35b34801561044f57600080fd5b5061046a600480360381019061046591906129f0565b61181c565b6040516104779190612fa7565b60405180910390f35b34801561048c57600080fd5b50610495611c0c565b6040516104a29190612e04565b60405180910390f35b3480156104b757600080fd5b506104d260048036038101906104cd91906129f0565b611c35565b005b3480156104e057600080fd5b506104fb60048036038101906104f69190612935565b611e84565b6040516105089190612fa7565b60405180910390f35b34801561051d57600080fd5b5061053860048036038101906105339190612a44565b611f33565b6040516105459190612ea1565b60405180910390f35b34801561055a57600080fd5b50610575600480360381019061057091906128e1565b611f57565b005b34801561058357600080fd5b5061059e60048036038101906105999190612989565b6120a0565b6040516105ab9190612fa7565b60405180910390f35b3480156105c057600080fd5b506105db60048036038101906105d6919061279a565b6123d0565b005b6105e5612579565b005b6000806105f385611508565b90506000600460008381526020019081526020016000206000866001811115610645577f4e487b7100000000000000000000000000000000000000000000000000000000600052602160045260246000fd5b600181111561067d577f4e487b7100000000000000000000000000000000000000000000000000000000600052602160045260246000fd5b815260200190815260200160002080549050116005906106d3576040517f08c379a00000000000000000000000000000000000000000000000000000000081526004016106ca9190612ee5565b60405180910390fd5b506000600460008381526020019081526020016000206000866001811115610724577f4e487b7100000000000000000000000000000000000000000000000000000000600052602160045260246000fd5b600181111561075c577f4e487b7100000000000000000000000000000000000000000000000000000000600052602160045260246000fd5b8152602001908152602001600020805480602002602001604051908101604052809291908181526020016000905b828210156108c157838290600052602060002090600502016040518060c0016040529081600082015481526020016001820160009054906101000a900473ffffffffffffffffffffffffffffffffffffffff1673ffffffffffffffffffffffffffffffffffffffff1673ffffffffffffffffffffffffffffffffffffffff1681526020016001820160149054906101000a900460ff166001811115610858577f4e487b7100000000000000000000000000000000000000000000000000000000600052602160045260246000fd5b6001811115610890577f4e487b7100000000000000000000000000000000000000000000000000000000600052602160045260246000fd5b815260200160028201548152602001600382015481526020016004820154815250508152602001906001019061078a565b505050509050808481518110610900577f4e487b7100000000000000000000000000000000000000000000000000000000600052603260045260246000fd5b602002602001015160800151925050509392505050565b6007602052816000526040600020602052806000526040600020600091509150505481565b60008061094884611508565b9050600060046000838152602001908152602001600020600085600181111561099a577f4e487b7100000000000000000000000000000000000000000000000000000000600052602160045260246000fd5b60018111156109d2577f4e487b7100000000000000000000000000000000000000000000000000000000600052602160045260246000fd5b8152602001908152602001600020805480602002602001604051908101604052809291908181526020016000905b82821015610b3757838290600052602060002090600502016040518060c0016040529081600082015481526020016001820160009054906101000a900473ffffffffffffffffffffffffffffffffffffffff1673ffffffffffffffffffffffffffffffffffffffff1673ffffffffffffffffffffffffffffffffffffffff1681526020016001820160149054906101000a900460ff166001811115610ace577f4e487b7100000000000000000000000000000000000000000000000000000000600052602160045260246000fd5b6001811115610b06577f4e487b7100000000000000000000000000000000000000000000000000000000600052602160045260246000fd5b8152602001600282015481526020016003820154815260200160048201548152505081526020019060010190610a00565b50505050905060009250600080600090505b8251811015610bc157828181518110610b8b577f4e487b7100000000000000000000000000000000000000000000000000000000600052603260045260246000fd5b6020026020010151608001519150610bac828661267f90919063ffffffff16565b94508080610bb9906132c8565b915050610b49565b5050505092915050565b816000610bd782611508565b90506009548114610c8957600073ffffffffffffffffffffffffffffffffffffffff166006600083815260200190815260200160002060010160009054906101000a900473ffffffffffffffffffffffffffffffffffffffff1673ffffffffffffffffffffffffffffffffffffffff161415610c88576040517f08c379a0000000000000000000000000000000000000000000000000000000008152600401610c7f90612f27565b60405180910390fd5b5b6000610c9485611508565b905083600760003373ffffffffffffffffffffffffffffffffffffffff1673ffffffffffffffffffffffffffffffffffffffff1681526020019081526020016000206000838152602001908152602001600020541015610d29576040517f08c379a0000000000000000000000000000000000000000000000000000000008152600401610d2090612f67565b60405180910390fd5b610d8c84600760003373ffffffffffffffffffffffffffffffffffffffff1673ffffffffffffffffffffffffffffffffffffffff16815260200190815260200160002060008481526020019081526020016000205461269590919063ffffffff16565b600760003373ffffffffffffffffffffffffffffffffffffffff1673ffffffffffffffffffffffffffffffffffffffff1681526020019081526020016000206000838152602001908152602001600020819055506009548114610eae576006600082815260200190815260200160002060010160009054906101000a900473ffffffffffffffffffffffffffffffffffffffff1673ffffffffffffffffffffffffffffffffffffffff1663a9059cbb33866040518363ffffffff1660e01b8152600401610e5a929190612e56565b602060405180830381600087803b158015610e7457600080fd5b505af1158015610e88573d6000803e3d6000fd5b505050506040513d601f19601f82011682018060405250810190610eac91906127ff565b505b600954811415610f00573373ffffffffffffffffffffffffffffffffffffffff166108fc859081150290604051600060405180830381858888f19350505050158015610efe573d6000803e3d6000fd5b505b5050505050565b600080610f1383611508565b9050600760003373ffffffffffffffffffffffffffffffffffffffff1673ffffffffffffffffffffffffffffffffffffffff168152602001908152602001600020600082815260200190815260200160002054915050919050565b600080610f7a85611508565b90506000600460008381526020019081526020016000206000866001811115610fcc577f4e487b7100000000000000000000000000000000000000000000000000000000600052602160045260246000fd5b6001811115611004577f4e487b7100000000000000000000000000000000000000000000000000000000600052602160045260246000fd5b8152602001908152602001600020805490501160059061105a576040517f08c379a00000000000000000000000000000000000000000000000000000000081526004016110519190612ee5565b60405180910390fd5b5060006110688686866120a0565b905060006110778787876105e7565b905061108c81836126ab90919063ffffffff16565b93505050509392505050565b606060006110a584611508565b905060006004600083815260200190815260200160002060008560018111156110f7577f4e487b7100000000000000000000000000000000000000000000000000000000600052602160045260246000fd5b600181111561112f577f4e487b7100000000000000000000000000000000000000000000000000000000600052602160045260246000fd5b81526020019081526020016000208054905011600590611185576040517f08c379a000000000000000000000000000000000000000000000000000000000815260040161117c9190612ee5565b60405180910390fd5b506004600082815260200190815260200160002060008460018111156111d4577f4e487b7100000000000000000000000000000000000000000000000000000000600052602160045260246000fd5b600181111561120c577f4e487b7100000000000000000000000000000000000000000000000000000000600052602160045260246000fd5b8152602001908152602001600020805480602002602001604051908101604052809291908181526020016000905b8282101561137157838290600052602060002090600502016040518060c0016040529081600082015481526020016001820160009054906101000a900473ffffffffffffffffffffffffffffffffffffffff1673ffffffffffffffffffffffffffffffffffffffff1673ffffffffffffffffffffffffffffffffffffffff1681526020016001820160149054906101000a900460ff166001811115611308577f4e487b7100000000000000000000000000000000000000000000000000000000600052602160045260246000fd5b6001811115611340577f4e487b7100000000000000000000000000000000000000000000000000000000600052602160045260246000fd5b815260200160028201548152602001600382015481526020016004820154815250508152602001906001019061123a565b5050505091505092915050565b60066020528060005260406000206000915090508060000154908060010160009054906101000a900473ffffffffffffffffffffffffffffffffffffffff16905082565b6113ca6126c1565b73ffffffffffffffffffffffffffffffffffffffff166113e8611c0c565b73ffffffffffffffffffffffffffffffffffffffff161461143e576040517f08c379a000000000000000000000000000000000000000000000000000000000815260040161143590612f87565b60405180910390fd5b600073ffffffffffffffffffffffffffffffffffffffff1660008054906101000a900473ffffffffffffffffffffffffffffffffffffffff1673ffffffffffffffffffffffffffffffffffffffff167f8be0079c531659141344cd1fd0a4f28419497f9722a3daafe3b4186f6b6457e060405160405180910390a360008060006101000a81548173ffffffffffffffffffffffffffffffffffffffff021916908373ffffffffffffffffffffffffffffffffffffffff160217905550565b60015481565b60095481565b60008160405160200161151b9190612ded565b604051602081830303815290604052805190602001209050919050565b60008061154485611508565b90506000600460008381526020019081526020016000206000866001811115611596577f4e487b7100000000000000000000000000000000000000000000000000000000600052602160045260246000fd5b60018111156115ce577f4e487b7100000000000000000000000000000000000000000000000000000000600052602160045260246000fd5b8152602001908152602001600020805480602002602001604051908101604052809291908181526020016000905b8282101561173357838290600052602060002090600502016040518060c0016040529081600082015481526020016001820160009054906101000a900473ffffffffffffffffffffffffffffffffffffffff1673ffffffffffffffffffffffffffffffffffffffff1673ffffffffffffffffffffffffffffffffffffffff1681526020016001820160149054906101000a900460ff1660018111156116ca577f4e487b7100000000000000000000000000000000000000000000000000000000600052602160045260246000fd5b6001811115611702577f4e487b7100000000000000000000000000000000000000000000000000000000600052602160045260246000fd5b81526020016002820154815260200160038201548152602001600482015481525050815260200190600101906115fc565b505050509050808481518110611772577f4e487b7100000000000000000000000000000000000000000000000000000000600052603260045260246000fd5b602002602001015160000151925050509392505050565b600460205282600052604060002060205281600052604060002081815481106117b157600080fd5b906000526020600020906005020160009250925050508060000154908060010160009054906101000a900473ffffffffffffffffffffffffffffffffffffffff16908060010160149054906101000a900460ff16908060020154908060030154908060040154905086565b60008061182884611508565b9050600060046000838152602001908152602001600020600060018081111561187a577f4e487b7100000000000000000000000000000000000000000000000000000000600052602160045260246000fd5b60018111156118b2577f4e487b7100000000000000000000000000000000000000000000000000000000600052602160045260246000fd5b8152602001908152602001600020805480602002602001604051908101604052809291908181526020016000905b82821015611a1757838290600052602060002090600502016040518060c0016040529081600082015481526020016001820160009054906101000a900473ffffffffffffffffffffffffffffffffffffffff1673ffffffffffffffffffffffffffffffffffffffff1673ffffffffffffffffffffffffffffffffffffffff1681526020016001820160149054906101000a900460ff1660018111156119ae577f4e487b7100000000000000000000000000000000000000000000000000000000600052602160045260246000fd5b60018111156119e6577f4e487b7100000000000000000000000000000000000000000000000000000000600052602160045260246000fd5b81526020016002820154815260200160038201548152602001600482015481525050815260200190600101906118e0565b50505050905060009250600081511415611a32575050611c06565b600085905060005b60008610611c0157828181518110611a7b577f4e487b7100000000000000000000000000000000000000000000000000000000600052603260045260246000fd5b6020026020010151608001518610611b0d576000611a9b83600184610f6e565b9050611ab0818761267f90919063ffffffff16565b9550611b09848381518110611aee577f4e487b7100000000000000000000000000000000000000000000000000000000600052603260045260246000fd5b6020026020010151608001518861269590919063ffffffff16565b9650505b828181518110611b46577f4e487b7100000000000000000000000000000000000000000000000000000000600052603260045260246000fd5b60200260200101516080015186108015611b605750600086115b15611bd4576000838281518110611ba0577f4e487b7100000000000000000000000000000000000000000000000000000000600052603260045260246000fd5b602002602001015160a0015187611bb7919061314f565b9050611bcc818761267f90919063ffffffff16565b955050611c01565b60018351611be291906131a9565b811415611bee57611c01565b8080611bf9906132c8565b915050611a3a565b505050505b92915050565b60008060009054906101000a900473ffffffffffffffffffffffffffffffffffffffff16905090565b816000611c4182611508565b90506009548114611cf357600073ffffffffffffffffffffffffffffffffffffffff166006600083815260200190815260200160002060010160009054906101000a900473ffffffffffffffffffffffffffffffffffffffff1673ffffffffffffffffffffffffffffffffffffffff161415611cf2576040517f08c379a0000000000000000000000000000000000000000000000000000000008152600401611ce990612f27565b60405180910390fd5b5b6000611cfe85611508565b9050611d6384600760003373ffffffffffffffffffffffffffffffffffffffff1673ffffffffffffffffffffffffffffffffffffffff16815260200190815260200160002060008481526020019081526020016000205461267f90919063ffffffff16565b600760003373ffffffffffffffffffffffffffffffffffffffff1673ffffffffffffffffffffffffffffffffffffffff1681526020019081526020016000206000838152602001908152602001600020819055506006600082815260200190815260200160002060010160009054906101000a900473ffffffffffffffffffffffffffffffffffffffff1673ffffffffffffffffffffffffffffffffffffffff166323b872dd3330876040518463ffffffff1660e01b8152600401611e2a93929190612e1f565b602060405180830381600087803b158015611e4457600080fd5b505af1158015611e58573d6000803e3d6000fd5b505050506040513d601f19601f82011682018060405250810190611e7c91906127ff565b505050505050565b600080611e9084611508565b9050600460008281526020019081526020016000206000846001811115611ee0577f4e487b7100000000000000000000000000000000000000000000000000000000600052602160045260246000fd5b6001811115611f18577f4e487b7100000000000000000000000000000000000000000000000000000000600052602160045260246000fd5b81526020019081526020016000208054905091505092915050565b60088181548110611f4357600080fd5b906000526020600020016000915090505481565b611f5f6126c1565b73ffffffffffffffffffffffffffffffffffffffff16611f7d611c0c565b73ffffffffffffffffffffffffffffffffffffffff1614611fd3576040517f08c379a0000000000000000000000000000000000000000000000000000000008152600401611fca90612f87565b60405180910390fd5b6000611fde83611508565b905060405180604001604052808281526020018373ffffffffffffffffffffffffffffffffffffffff16815250600660008381526020019081526020016000206000820151816000015560208201518160010160006101000a81548173ffffffffffffffffffffffffffffffffffffffff021916908373ffffffffffffffffffffffffffffffffffffffff1602179055509050506008819080600181540180825580915050600190039060005260206000200160009091909190915055505050565b6000806120ac85611508565b905060006004600083815260200190815260200160002060008660018111156120fe577f4e487b7100000000000000000000000000000000000000000000000000000000600052602160045260246000fd5b6001811115612136577f4e487b7100000000000000000000000000000000000000000000000000000000600052602160045260246000fd5b8152602001908152602001600020805490501160059061218c576040517f08c379a00000000000000000000000000000000000000000000000000000000081526004016121839190612ee5565b60405180910390fd5b5060006004600083815260200190815260200160002060008660018111156121dd577f4e487b7100000000000000000000000000000000000000000000000000000000600052602160045260246000fd5b6001811115612215577f4e487b7100000000000000000000000000000000000000000000000000000000600052602160045260246000fd5b8152602001908152602001600020805480602002602001604051908101604052809291908181526020016000905b8282101561237a57838290600052602060002090600502016040518060c0016040529081600082015481526020016001820160009054906101000a900473ffffffffffffffffffffffffffffffffffffffff1673ffffffffffffffffffffffffffffffffffffffff1673ffffffffffffffffffffffffffffffffffffffff1681526020016001820160149054906101000a900460ff166001811115612311577f4e487b7100000000000000000000000000000000000000000000000000000000600052602160045260246000fd5b6001811115612349577f4e487b7100000000000000000000000000000000000000000000000000000000600052602160045260246000fd5b8152602001600282015481526020016003820154815260200160048201548152505081526020019060010190612243565b5050505090508084815181106123b9577f4e487b7100000000000000000000000000000000000000000000000000000000600052603260045260246000fd5b602002602001015160a00151925050509392505050565b6123d86126c1565b73ffffffffffffffffffffffffffffffffffffffff166123f6611c0c565b73ffffffffffffffffffffffffffffffffffffffff161461244c576040517f08c379a000000000000000000000000000000000000000000000000000000000815260040161244390612f87565b60405180910390fd5b600073ffffffffffffffffffffffffffffffffffffffff168173ffffffffffffffffffffffffffffffffffffffff1614156124bc576040517f08c379a00000000000000000000000000000000000000000000000000000000081526004016124b390612f07565b60405180910390fd5b8073ffffffffffffffffffffffffffffffffffffffff1660008054906101000a900473ffffffffffffffffffffffffffffffffffffffff1673ffffffffffffffffffffffffffffffffffffffff167f8be0079c531659141344cd1fd0a4f28419497f9722a3daafe3b4186f6b6457e060405160405180910390a3806000806101000a81548173ffffffffffffffffffffffffffffffffffffffff021916908373ffffffffffffffffffffffffffffffffffffffff16021790555050565b600034116125bc576040517f08c379a00000000000000000000000000000000000000000000000000000000081526004016125b390612f47565b60405180910390fd5b600034905061262681600760003373ffffffffffffffffffffffffffffffffffffffff1673ffffffffffffffffffffffffffffffffffffffff168152602001908152602001600020600060095481526020019081526020016000205461267f90919063ffffffff16565b600760003373ffffffffffffffffffffffffffffffffffffffff1673ffffffffffffffffffffffffffffffffffffffff168152602001908152602001600020600060095481526020019081526020016000208190555050565b6000818361268d91906130f9565b905092915050565b600081836126a391906131a9565b905092915050565b600081836126b9919061314f565b905092915050565b600033905090565b60006126dc6126d784613054565b613023565b9050828152602081018484840111156126f457600080fd5b6126ff848285613254565b509392505050565b600081359050612716816133e1565b92915050565b60008151905061272b816133f8565b92915050565b6000813590506127408161340f565b92915050565b60008135905061275581613426565b92915050565b600082601f83011261276c57600080fd5b813561277c8482602086016126c9565b91505092915050565b60008135905061279481613436565b92915050565b6000602082840312156127ac57600080fd5b60006127ba84828501612707565b91505092915050565b600080604083850312156127d657600080fd5b60006127e485828601612707565b92505060206127f585828601612731565b9150509250929050565b60006020828403121561281157600080fd5b600061281f8482850161271c565b91505092915050565b60006020828403121561283a57600080fd5b600061284884828501612731565b91505092915050565b60008060006060848603121561286657600080fd5b600061287486828701612731565b935050602061288586828701612746565b925050604061289686828701612785565b9150509250925092565b6000602082840312156128b257600080fd5b600082013567ffffffffffffffff8111156128cc57600080fd5b6128d88482850161275b565b91505092915050565b600080604083850312156128f457600080fd5b600083013567ffffffffffffffff81111561290e57600080fd5b61291a8582860161275b565b925050602061292b85828601612707565b9150509250929050565b6000806040838503121561294857600080fd5b600083013567ffffffffffffffff81111561296257600080fd5b61296e8582860161275b565b925050602061297f85828601612746565b9150509250929050565b60008060006060848603121561299e57600080fd5b600084013567ffffffffffffffff8111156129b857600080fd5b6129c48682870161275b565b93505060206129d586828701612746565b92505060406129e686828701612785565b9150509250925092565b60008060408385031215612a0357600080fd5b600083013567ffffffffffffffff811115612a1d57600080fd5b612a298582860161275b565b9250506020612a3a85828601612785565b9150509250929050565b600060208284031215612a5657600080fd5b6000612a6484828501612785565b91505092915050565b6000612a798383612d54565b60c08301905092915050565b612a8e816131dd565b82525050565b612a9d816131dd565b82525050565b6000612aae826130a9565b612ab881856130cc565b9350612ac383613084565b8060005b83811015612af4578151612adb8882612a6d565b9750612ae6836130bf565b925050600181019050612ac7565b5085935050505092915050565b612b0a816131fb565b82525050565b612b19816131fb565b82525050565b612b2881613242565b82525050565b612b3781613242565b82525050565b6000612b48826130b4565b612b5281856130ee565b9350612b62818560208601613263565b80840191505092915050565b60008154612b7b81613296565b612b8581866130dd565b94506001821660008114612ba05760018114612bb257612be5565b60ff1983168652602086019350612be5565b612bbb85613094565b60005b83811015612bdd57815481890152600182019150602081019050612bbe565b808801955050505b50505092915050565b6000612bfb6026836130dd565b91507f4f776e61626c653a206e6577206f776e657220697320746865207a65726f206160008301527f64647265737300000000000000000000000000000000000000000000000000006020830152604082019050919050565b6000612c616012836130dd565b91507f546f6b656e206e6f6e2d6578697374656e7400000000000000000000000000006000830152602082019050919050565b6000612ca16011836130dd565b91507f4572726f723a2076616c7565203c3d20300000000000000000000000000000006000830152602082019050919050565b6000612ce16014836130dd565b91507f496e73756666696369656e742062616c616e63650000000000000000000000006000830152602082019050919050565b6000612d216020836130dd565b91507f4f776e61626c653a2063616c6c6572206973206e6f7420746865206f776e65726000830152602082019050919050565b60c082016000820151612d6a6000850182612dcf565b506020820151612d7d6020850182612a85565b506040820151612d906040850182612b1f565b506060820151612da36060850182612b01565b506080820151612db66080850182612dcf565b5060a0820151612dc960a0850182612dcf565b50505050565b612dd881613238565b82525050565b612de781613238565b82525050565b6000612df98284612b3d565b915081905092915050565b6000602082019050612e196000830184612a94565b92915050565b6000606082019050612e346000830186612a94565b612e416020830185612a94565b612e4e6040830184612dde565b949350505050565b6000604082019050612e6b6000830185612a94565b612e786020830184612dde565b9392505050565b60006020820190508181036000830152612e998184612aa3565b905092915050565b6000602082019050612eb66000830184612b10565b92915050565b6000604082019050612ed16000830185612b10565b612ede6020830184612a94565b9392505050565b60006020820190508181036000830152612eff8184612b6e565b905092915050565b60006020820190508181036000830152612f2081612bee565b9050919050565b60006020820190508181036000830152612f4081612c54565b9050919050565b60006020820190508181036000830152612f6081612c94565b9050919050565b60006020820190508181036000830152612f8081612cd4565b9050919050565b60006020820190508181036000830152612fa081612d14565b9050919050565b6000602082019050612fbc6000830184612dde565b92915050565b600060c082019050612fd76000830189612dde565b612fe46020830188612a94565b612ff16040830187612b2e565b612ffe6060830186612b10565b61300b6080830185612dde565b61301860a0830184612dde565b979650505050505050565b6000604051905081810181811067ffffffffffffffff8211171561304a5761304961339e565b5b8060405250919050565b600067ffffffffffffffff82111561306f5761306e61339e565b5b601f19601f8301169050602081019050919050565b6000819050602082019050919050565b60008190508160005260206000209050919050565b600081519050919050565b600081519050919050565b6000602082019050919050565b600082825260208201905092915050565b600082825260208201905092915050565b600081905092915050565b600061310482613238565b915061310f83613238565b9250827fffffffffffffffffffffffffffffffffffffffffffffffffffffffffffffffff0382111561314457613143613311565b5b828201905092915050565b600061315a82613238565b915061316583613238565b9250817fffffffffffffffffffffffffffffffffffffffffffffffffffffffffffffffff048311821515161561319e5761319d613311565b5b828202905092915050565b60006131b482613238565b91506131bf83613238565b9250828210156131d2576131d1613311565b5b828203905092915050565b60006131e882613218565b9050919050565b60008115159050919050565b6000819050919050565b6000819050613213826133cd565b919050565b600073ffffffffffffffffffffffffffffffffffffffff82169050919050565b6000819050919050565b600061324d82613205565b9050919050565b82818337600083830152505050565b60005b83811015613281578082015181840152602081019050613266565b83811115613290576000848401525b50505050565b600060028204905060018216806132ae57607f821691505b602082108114156132c2576132c161336f565b5b50919050565b60006132d382613238565b91507fffffffffffffffffffffffffffffffffffffffffffffffffffffffffffffffff82141561330657613305613311565b5b600182019050919050565b7f4e487b7100000000000000000000000000000000000000000000000000000000600052601160045260246000fd5b7f4e487b7100000000000000000000000000000000000000000000000000000000600052602160045260246000fd5b7f4e487b7100000000000000000000000000000000000000000000000000000000600052602260045260246000fd5b7f4e487b7100000000000000000000000000000000000000000000000000000000600052604160045260246000fd5b600281106133de576133dd613340565b5b50565b6133ea816131dd565b81146133f557600080fd5b50565b613401816131ef565b811461340c57600080fd5b50565b613418816131fb565b811461342357600080fd5b50565b6002811061343357600080fd5b50565b61343f81613238565b811461344a57600080fd5b5056fea264697066735822122017ee887a6d1641563eb66052718e6e619ceed77f2fcbb1a7f058f17e6576150964736f6c63430008000033",
  "immutableReferences": {},
  "source": "pragma solidity 0.8.0;\r\n\r\nimport \"./DEXGetters.sol\";\r\nimport \"./DEX.sol\";\r\n\r\nimport \"./OpenZeppelinDependencies/IERC20.sol\";\r\nimport \"./OpenZeppelinDependencies/SafeMath.sol\";\r\nimport \"./OpenZeppelinDependencies/Ownable.sol\";\r\nimport \"./DEXGetters.sol\";\r\n\r\n\r\n//Create event for transferring ETH to/from private address;\r\n\r\ncontract DEXWallet is Ownable, DEXGetters {\r\n  using SafeMath for uint256;\r\n\r\n  struct Token {\r\n      bytes32 ticker;\r\n      address tokenAddress;\r\n    }\r\n\r\n  mapping(bytes32 => Token) public tokenMapping;\r\n  mapping(address => mapping(bytes32 => uint256)) public balances;\r\n\r\n  bytes32[] public tokenList;\r\n  bytes32 public ETH = keccak256(abi.encodePacked(\"ETH\"));\r\n\r\n  modifier tokenExists(string memory ticker_){\r\n    bytes32 ticker = _keccak256(ticker_);\r\n    if (ticker != ETH){\r\n    require(tokenMapping[ticker].tokenAddress != address(0), \"Token non-existent\");\r\n    }\r\n    _;\r\n  }\r\n\r\n  function addToken(string memory ticker_, address _tokenAddress) external onlyOwner {\r\n    bytes32 _ticker = _keccak256(ticker_);\r\n    tokenMapping[_ticker] = Token(_ticker,_tokenAddress);\r\n    tokenList.push(_ticker);\r\n  }\r\n\r\n  function deposit(string memory ticker_, uint _amount) external tokenExists(ticker_) {\r\n    bytes32 _ticker = _keccak256(ticker_);\r\n    balances[msg.sender][_ticker] = balances[msg.sender][_ticker].add(_amount);\r\n    IERC20(tokenMapping[_ticker].tokenAddress).transferFrom(msg.sender, address(this), _amount);\r\n  }\r\n\r\n  function depositETH() external payable {\r\n    require(msg.value > 0, \"Error: value <= 0\");\r\n    uint _value = msg.value;\r\n    balances[msg.sender][ETH] = balances[msg.sender][ETH].add(_value);\r\n  }\r\n\r\n  function withdraw (string memory ticker_, uint _amount) external tokenExists(ticker_) {\r\n    bytes32 _ticker = _keccak256(ticker_);\r\n    require(balances[msg.sender][_ticker] >= _amount, \"Insufficient balance\");\r\n\r\n    balances[msg.sender][_ticker] = balances[msg.sender][_ticker].sub(_amount);\r\n\r\n    if (_ticker != ETH) {\r\n      IERC20(tokenMapping[_ticker].tokenAddress).transfer(msg.sender, _amount);\r\n    }\r\n    if (_ticker == ETH) {\r\n      payable(msg.sender).transfer(_amount);\r\n    }\r\n  }\r\n\r\n  function getBalance(string memory ticker_) public view returns(uint) {\r\n    bytes32 _ticker = _keccak256(ticker_);\r\n    return balances[msg.sender][_ticker];\r\n  }\r\n\r\n}\r\n",
  "sourcePath": "C:\\Users\\solus\\documents\\solidity\\dex\\contracts\\DEXWallet.sol",
  "compiler": {
    "name": "solc",
    "version": "0.8.0+commit.c7dfd78e.Emscripten.clang"
  },
  "schemaVersion": "3.4.1",
  "updatedAt": "2021-08-02T00:52:18.671Z",
  "networkType": "ethereum",
  "devdoc": {
    "kind": "dev",
    "methods": {
      "owner()": {
        "details": "Returns the address of the current owner."
      },
      "renounceOwnership()": {
        "details": "Leaves the contract without owner. It will not be possible to call `onlyOwner` functions anymore. Can only be called by the current owner. NOTE: Renouncing ownership will leave the contract without an owner, thereby removing any functionality that is only available to the owner."
      },
      "transferOwnership(address)": {
        "details": "Transfers ownership of the contract to a new account (`newOwner`). Can only be called by the current owner."
      }
    },
    "version": 1
  },
  "userdoc": {
    "kind": "user",
    "methods": {},
    "version": 1
  }
}